{
	"src/project/ProjectToken.sol": {
		"ProjectToken": {
			"abi": [
				{
					"anonymous": false,
					"inputs": [
						{
							"indexed": true,
							"internalType": "address",
							"name": "owner",
							"type": "address"
						},
						{
							"indexed": true,
							"internalType": "address",
							"name": "spender",
							"type": "address"
						},
						{
							"indexed": false,
							"internalType": "uint256",
							"name": "value",
							"type": "uint256"
						}
					],
					"name": "Approval",
					"type": "event"
				},
				{
					"anonymous": false,
					"inputs": [
						{
							"indexed": false,
							"internalType": "uint8",
							"name": "version",
							"type": "uint8"
						}
					],
					"name": "Initialized",
					"type": "event"
				},
				{
					"anonymous": false,
					"inputs": [
						{
							"indexed": true,
							"internalType": "address",
							"name": "previousOwner",
							"type": "address"
						},
						{
							"indexed": true,
							"internalType": "address",
							"name": "newOwner",
							"type": "address"
						}
					],
					"name": "OwnershipTransferred",
					"type": "event"
				},
				{
					"anonymous": false,
					"inputs": [
						{
							"indexed": true,
							"internalType": "address",
							"name": "from",
							"type": "address"
						},
						{
							"indexed": true,
							"internalType": "address",
							"name": "to",
							"type": "address"
						},
						{
							"indexed": false,
							"internalType": "uint256",
							"name": "value",
							"type": "uint256"
						}
					],
					"name": "Transfer",
					"type": "event"
				},
				{
					"inputs": [
						{
							"internalType": "address",
							"name": "owner",
							"type": "address"
						},
						{
							"internalType": "address",
							"name": "spender",
							"type": "address"
						}
					],
					"name": "allowance",
					"outputs": [
						{
							"internalType": "uint256",
							"name": "",
							"type": "uint256"
						}
					],
					"stateMutability": "view",
					"type": "function"
				},
				{
					"inputs": [
						{
							"internalType": "address",
							"name": "spender",
							"type": "address"
						},
						{
							"internalType": "uint256",
							"name": "amount",
							"type": "uint256"
						}
					],
					"name": "approve",
					"outputs": [
						{
							"internalType": "bool",
							"name": "",
							"type": "bool"
						}
					],
					"stateMutability": "nonpayable",
					"type": "function"
				},
				{
					"inputs": [
						{
							"internalType": "address",
							"name": "account",
							"type": "address"
						}
					],
					"name": "balanceOf",
					"outputs": [
						{
							"internalType": "uint256",
							"name": "",
							"type": "uint256"
						}
					],
					"stateMutability": "view",
					"type": "function"
				},
				{
					"inputs": [],
					"name": "decimals",
					"outputs": [
						{
							"internalType": "uint8",
							"name": "",
							"type": "uint8"
						}
					],
					"stateMutability": "view",
					"type": "function"
				},
				{
					"inputs": [
						{
							"internalType": "address",
							"name": "spender",
							"type": "address"
						},
						{
							"internalType": "uint256",
							"name": "subtractedValue",
							"type": "uint256"
						}
					],
					"name": "decreaseAllowance",
					"outputs": [
						{
							"internalType": "bool",
							"name": "",
							"type": "bool"
						}
					],
					"stateMutability": "nonpayable",
					"type": "function"
				},
				{
					"inputs": [
						{
							"internalType": "address",
							"name": "spender",
							"type": "address"
						},
						{
							"internalType": "uint256",
							"name": "addedValue",
							"type": "uint256"
						}
					],
					"name": "increaseAllowance",
					"outputs": [
						{
							"internalType": "bool",
							"name": "",
							"type": "bool"
						}
					],
					"stateMutability": "nonpayable",
					"type": "function"
				},
				{
					"inputs": [
						{
							"internalType": "string",
							"name": "name",
							"type": "string"
						},
						{
							"internalType": "string",
							"name": "symbol",
							"type": "string"
						},
						{
							"internalType": "address",
							"name": "owner",
							"type": "address"
						}
					],
					"name": "initialize",
					"outputs": [],
					"stateMutability": "nonpayable",
					"type": "function"
				},
				{
					"inputs": [
						{
							"internalType": "address",
							"name": "account",
							"type": "address"
						},
						{
							"internalType": "uint256",
							"name": "amount",
							"type": "uint256"
						}
					],
					"name": "mint",
					"outputs": [],
					"stateMutability": "nonpayable",
					"type": "function"
				},
				{
					"inputs": [],
					"name": "name",
					"outputs": [
						{
							"internalType": "string",
							"name": "",
							"type": "string"
						}
					],
					"stateMutability": "view",
					"type": "function"
				},
				{
					"inputs": [],
					"name": "owner",
					"outputs": [
						{
							"internalType": "address",
							"name": "",
							"type": "address"
						}
					],
					"stateMutability": "view",
					"type": "function"
				},
				{
					"inputs": [],
					"name": "renounceOwnership",
					"outputs": [],
					"stateMutability": "nonpayable",
					"type": "function"
				},
				{
					"inputs": [],
					"name": "symbol",
					"outputs": [
						{
							"internalType": "string",
							"name": "",
							"type": "string"
						}
					],
					"stateMutability": "view",
					"type": "function"
				},
				{
					"inputs": [],
					"name": "totalSupply",
					"outputs": [
						{
							"internalType": "uint256",
							"name": "",
							"type": "uint256"
						}
					],
					"stateMutability": "view",
					"type": "function"
				},
				{
					"inputs": [
						{
							"internalType": "address",
							"name": "to",
							"type": "address"
						},
						{
							"internalType": "uint256",
							"name": "amount",
							"type": "uint256"
						}
					],
					"name": "transfer",
					"outputs": [
						{
							"internalType": "bool",
							"name": "",
							"type": "bool"
						}
					],
					"stateMutability": "nonpayable",
					"type": "function"
				},
				{
					"inputs": [
						{
							"internalType": "address",
							"name": "from",
							"type": "address"
						},
						{
							"internalType": "address",
							"name": "to",
							"type": "address"
						},
						{
							"internalType": "uint256",
							"name": "amount",
							"type": "uint256"
						}
					],
					"name": "transferFrom",
					"outputs": [
						{
							"internalType": "bool",
							"name": "",
							"type": "bool"
						}
					],
					"stateMutability": "nonpayable",
					"type": "function"
				},
				{
					"inputs": [
						{
							"internalType": "address",
							"name": "newOwner",
							"type": "address"
						}
					],
					"name": "transferOwnership",
					"outputs": [],
					"stateMutability": "nonpayable",
					"type": "function"
				}
			],
			"devdoc": {
				"events": {
					"Approval(address,address,uint256)": {
						"details": "Emitted when the allowance of a `spender` for an `owner` is set by a call to {approve}. `value` is the new allowance."
					},
					"Initialized(uint8)": {
						"details": "Triggered when the contract has been initialized or reinitialized."
					},
					"Transfer(address,address,uint256)": {
						"details": "Emitted when `value` tokens are moved from one account (`from`) to another (`to`). Note that `value` may be zero."
					}
				},
				"kind": "dev",
				"methods": {
					"allowance(address,address)": {
						"details": "See {IERC20-allowance}."
					},
					"approve(address,uint256)": {
						"details": "See {IERC20-approve}. NOTE: If `amount` is the maximum `uint256`, the allowance is not updated on `transferFrom`. This is semantically equivalent to an infinite approval. Requirements: - `spender` cannot be the zero address."
					},
					"balanceOf(address)": {
						"details": "See {IERC20-balanceOf}."
					},
					"decimals()": {
						"details": "Returns the number of decimals used to get its user representation. For example, if `decimals` equals `2`, a balance of `505` tokens should be displayed to a user as `5.05` (`505 / 10 ** 2`). Tokens usually opt for a value of 18, imitating the relationship between Ether and Wei. This is the default value returned by this function, unless it's overridden. NOTE: This information is only used for _display_ purposes: it in no way affects any of the arithmetic of the contract, including {IERC20-balanceOf} and {IERC20-transfer}."
					},
					"decreaseAllowance(address,uint256)": {
						"details": "Atomically decreases the allowance granted to `spender` by the caller. This is an alternative to {approve} that can be used as a mitigation for problems described in {IERC20-approve}. Emits an {Approval} event indicating the updated allowance. Requirements: - `spender` cannot be the zero address. - `spender` must have allowance for the caller of at least `subtractedValue`."
					},
					"increaseAllowance(address,uint256)": {
						"details": "Atomically increases the allowance granted to `spender` by the caller. This is an alternative to {approve} that can be used as a mitigation for problems described in {IERC20-approve}. Emits an {Approval} event indicating the updated allowance. Requirements: - `spender` cannot be the zero address."
					},
					"name()": {
						"details": "Returns the name of the token."
					},
					"owner()": {
						"details": "Returns the address of the current owner."
					},
					"renounceOwnership()": {
						"details": "Leaves the contract without owner. It will not be possible to call `onlyOwner` functions. Can only be called by the current owner. NOTE: Renouncing ownership will leave the contract without an owner, thereby disabling any functionality that is only available to the owner."
					},
					"symbol()": {
						"details": "Returns the symbol of the token, usually a shorter version of the name."
					},
					"totalSupply()": {
						"details": "See {IERC20-totalSupply}."
					},
					"transfer(address,uint256)": {
						"details": "See {IERC20-transfer}. Requirements: - `to` cannot be the zero address. - the caller must have a balance of at least `amount`."
					},
					"transferFrom(address,address,uint256)": {
						"details": "See {IERC20-transferFrom}. Emits an {Approval} event indicating the updated allowance. This is not required by the EIP. See the note at the beginning of {ERC20}. NOTE: Does not update the allowance if the current allowance is the maximum `uint256`. Requirements: - `from` and `to` cannot be the zero address. - `from` must have a balance of at least `amount`. - the caller must have allowance for ``from``'s tokens of at least `amount`."
					},
					"transferOwnership(address)": {
						"details": "Transfers ownership of the contract to a new account (`newOwner`). Can only be called by the current owner."
					}
				},
				"version": 1
			},
			"evm": {
				"assembly": "    /* \"src/project/ProjectToken.sol\":244:644  contract ProjectToken is OwnableUpgradeable, ERC20Upgradeable, IProjectToken {... */\n  mstore(0x40, 0x80)\n  callvalue\n  dup1\n  iszero\n  tag_1\n  jumpi\n  0x00\n  dup1\n  revert\ntag_1:\n  pop\n  dataSize(sub_0)\n  dup1\n  dataOffset(sub_0)\n  0x00\n  codecopy\n  0x00\n  return\nstop\n\nsub_0: assembly {\n        /* \"src/project/ProjectToken.sol\":244:644  contract ProjectToken is OwnableUpgradeable, ERC20Upgradeable, IProjectToken {... */\n      mstore(0x40, 0x80)\n      callvalue\n      dup1\n      iszero\n      tag_1\n      jumpi\n      0x00\n      dup1\n      revert\n    tag_1:\n      pop\n      jumpi(tag_2, lt(calldatasize, 0x04))\n      shr(0xe0, calldataload(0x00))\n      dup1\n      0x70a08231\n      gt\n      tag_19\n      jumpi\n      dup1\n      0xa457c2d7\n      gt\n      tag_20\n      jumpi\n      dup1\n      0xa457c2d7\n      eq\n      tag_15\n      jumpi\n      dup1\n      0xa9059cbb\n      eq\n      tag_16\n      jumpi\n      dup1\n      0xdd62ed3e\n      eq\n      tag_17\n      jumpi\n      dup1\n      0xf2fde38b\n      eq\n      tag_18\n      jumpi\n      0x00\n      dup1\n      revert\n    tag_20:\n      dup1\n      0x70a08231\n      eq\n      tag_11\n      jumpi\n      dup1\n      0x715018a6\n      eq\n      tag_12\n      jumpi\n      dup1\n      0x8da5cb5b\n      eq\n      tag_13\n      jumpi\n      dup1\n      0x95d89b41\n      eq\n      tag_14\n      jumpi\n      0x00\n      dup1\n      revert\n    tag_19:\n      dup1\n      0x23b872dd\n      gt\n      tag_21\n      jumpi\n      dup1\n      0x23b872dd\n      eq\n      tag_7\n      jumpi\n      dup1\n      0x313ce567\n      eq\n      tag_8\n      jumpi\n      dup1\n      0x39509351\n      eq\n      tag_9\n      jumpi\n      dup1\n      0x40c10f19\n      eq\n      tag_10\n      jumpi\n      0x00\n      dup1\n      revert\n    tag_21:\n      dup1\n      0x06fdde03\n      eq\n      tag_3\n      jumpi\n      dup1\n      0x077f224a\n      eq\n      tag_4\n      jumpi\n      dup1\n      0x095ea7b3\n      eq\n      tag_5\n      jumpi\n      dup1\n      0x18160ddd\n      eq\n      tag_6\n      jumpi\n    tag_2:\n      0x00\n      dup1\n      revert\n        /* \"@openzeppelin/contracts-upgradeable/token/ERC20/ERC20Upgradeable.sol\":2495:2593  function name() public view virtual override returns (string memory) {... */\n    tag_3:\n      tag_22\n      tag_23\n      jump\t// in\n    tag_22:\n      mload(0x40)\n      tag_24\n      swap2\n      swap1\n      tag_25\n      jump\t// in\n    tag_24:\n      mload(0x40)\n      dup1\n      swap2\n      sub\n      swap1\n      return\n        /* \"src/project/ProjectToken.sol\":327:533  function initialize(... */\n    tag_4:\n      tag_26\n      tag_27\n      calldatasize\n      0x04\n      tag_28\n      jump\t// in\n    tag_27:\n      tag_29\n      jump\t// in\n    tag_26:\n      stop\n        /* \"@openzeppelin/contracts-upgradeable/token/ERC20/ERC20Upgradeable.sol\":4781:4978  function approve(address spender, uint256 amount) public virtual override returns (bool) {... */\n    tag_5:\n      tag_30\n      tag_31\n      calldatasize\n      0x04\n      tag_32\n      jump\t// in\n    tag_31:\n      tag_33\n      jump\t// in\n    tag_30:\n      mload(0x40)\n        /* \"#utility.yul\":2647:2661   */\n      swap1\n      iszero\n        /* \"#utility.yul\":2640:2662   */\n      iszero\n        /* \"#utility.yul\":2622:2663   */\n      dup2\n      mstore\n        /* \"#utility.yul\":2610:2612   */\n      0x20\n        /* \"#utility.yul\":2595:2613   */\n      add\n        /* \"@openzeppelin/contracts-upgradeable/token/ERC20/ERC20Upgradeable.sol\":4781:4978  function approve(address spender, uint256 amount) public virtual override returns (bool) {... */\n      tag_24\n        /* \"#utility.yul\":2482:2669   */\n      jump\n        /* \"@openzeppelin/contracts-upgradeable/token/ERC20/ERC20Upgradeable.sol\":3592:3698  function totalSupply() public view virtual override returns (uint256) {... */\n    tag_6:\n        /* \"@openzeppelin/contracts-upgradeable/token/ERC20/ERC20Upgradeable.sol\":3679:3691  _totalSupply */\n      sload(0x67)\n        /* \"@openzeppelin/contracts-upgradeable/token/ERC20/ERC20Upgradeable.sol\":3592:3698  function totalSupply() public view virtual override returns (uint256) {... */\n    tag_36:\n      mload(0x40)\n        /* \"#utility.yul\":2820:2845   */\n      swap1\n      dup2\n      mstore\n        /* \"#utility.yul\":2808:2810   */\n      0x20\n        /* \"#utility.yul\":2793:2811   */\n      add\n        /* \"@openzeppelin/contracts-upgradeable/token/ERC20/ERC20Upgradeable.sol\":3592:3698  function totalSupply() public view virtual override returns (uint256) {... */\n      tag_24\n        /* \"#utility.yul\":2674:2851   */\n      jump\n        /* \"@openzeppelin/contracts-upgradeable/token/ERC20/ERC20Upgradeable.sol\":5540:5796  function transferFrom(address from, address to, uint256 amount) public virtual override returns (bool) {... */\n    tag_7:\n      tag_30\n      tag_41\n      calldatasize\n      0x04\n      tag_42\n      jump\t// in\n    tag_41:\n      tag_43\n      jump\t// in\n        /* \"@openzeppelin/contracts-upgradeable/token/ERC20/ERC20Upgradeable.sol\":3441:3532  function decimals() public view virtual override returns (uint8) {... */\n    tag_8:\n      mload(0x40)\n        /* \"@openzeppelin/contracts-upgradeable/token/ERC20/ERC20Upgradeable.sol\":3523:3525  18 */\n      0x12\n        /* \"#utility.yul\":3331:3367   */\n      dup2\n      mstore\n        /* \"#utility.yul\":3319:3321   */\n      0x20\n        /* \"#utility.yul\":3304:3322   */\n      add\n        /* \"@openzeppelin/contracts-upgradeable/token/ERC20/ERC20Upgradeable.sol\":3441:3532  function decimals() public view virtual override returns (uint8) {... */\n      tag_24\n        /* \"#utility.yul\":3189:3373   */\n      jump\n        /* \"@openzeppelin/contracts-upgradeable/token/ERC20/ERC20Upgradeable.sol\":6191:6425  function increaseAllowance(address spender, uint256 addedValue) public virtual returns (bool) {... */\n    tag_9:\n      tag_30\n      tag_50\n      calldatasize\n      0x04\n      tag_32\n      jump\t// in\n    tag_50:\n      tag_51\n      jump\t// in\n        /* \"src/project/ProjectToken.sol\":539:642  function mint(address account, uint256 amount) public onlyOwner {... */\n    tag_10:\n      tag_26\n      tag_54\n      calldatasize\n      0x04\n      tag_32\n      jump\t// in\n    tag_54:\n      tag_55\n      jump\t// in\n        /* \"@openzeppelin/contracts-upgradeable/token/ERC20/ERC20Upgradeable.sol\":3756:3881  function balanceOf(address account) public view virtual override returns (uint256) {... */\n    tag_11:\n      tag_36\n      tag_57\n      calldatasize\n      0x04\n      tag_58\n      jump\t// in\n    tag_57:\n      sub(shl(0xa0, 0x01), 0x01)\n        /* \"@openzeppelin/contracts-upgradeable/token/ERC20/ERC20Upgradeable.sol\":3856:3874  _balances[account] */\n      and\n        /* \"@openzeppelin/contracts-upgradeable/token/ERC20/ERC20Upgradeable.sol\":3830:3837  uint256 */\n      0x00\n        /* \"@openzeppelin/contracts-upgradeable/token/ERC20/ERC20Upgradeable.sol\":3856:3874  _balances[account] */\n      swap1\n      dup2\n      mstore\n        /* \"@openzeppelin/contracts-upgradeable/token/ERC20/ERC20Upgradeable.sol\":3856:3865  _balances */\n      0x65\n        /* \"@openzeppelin/contracts-upgradeable/token/ERC20/ERC20Upgradeable.sol\":3856:3874  _balances[account] */\n      0x20\n      mstore\n      0x40\n      swap1\n      keccak256\n      sload\n      swap1\n        /* \"@openzeppelin/contracts-upgradeable/token/ERC20/ERC20Upgradeable.sol\":3756:3881  function balanceOf(address account) public view virtual override returns (uint256) {... */\n      jump\n        /* \"@openzeppelin/contracts-upgradeable/access/OwnableUpgradeable.sol\":2064:2165  function renounceOwnership() public virtual onlyOwner {... */\n    tag_12:\n      tag_26\n      tag_62\n      jump\t// in\n        /* \"@openzeppelin/contracts-upgradeable/access/OwnableUpgradeable.sol\":1441:1526  function owner() public view virtual returns (address) {... */\n    tag_13:\n        /* \"@openzeppelin/contracts-upgradeable/access/OwnableUpgradeable.sol\":1513:1519  _owner */\n      sload(0x33)\n        /* \"@openzeppelin/contracts-upgradeable/access/OwnableUpgradeable.sol\":1441:1526  function owner() public view virtual returns (address) {... */\n      mload(0x40)\n      sub(shl(0xa0, 0x01), 0x01)\n        /* \"@openzeppelin/contracts-upgradeable/access/OwnableUpgradeable.sol\":1513:1519  _owner */\n      swap1\n      swap2\n      and\n        /* \"#utility.yul\":3715:3766   */\n      dup2\n      mstore\n        /* \"#utility.yul\":3703:3705   */\n      0x20\n        /* \"#utility.yul\":3688:3706   */\n      add\n        /* \"@openzeppelin/contracts-upgradeable/access/OwnableUpgradeable.sol\":1441:1526  function owner() public view virtual returns (address) {... */\n      tag_24\n        /* \"#utility.yul\":3569:3772   */\n      jump\n        /* \"@openzeppelin/contracts-upgradeable/token/ERC20/ERC20Upgradeable.sol\":2706:2808  function symbol() public view virtual override returns (string memory) {... */\n    tag_14:\n      tag_22\n      tag_68\n      jump\t// in\n        /* \"@openzeppelin/contracts-upgradeable/token/ERC20/ERC20Upgradeable.sol\":6912:7339  function decreaseAllowance(address spender, uint256 subtractedValue) public virtual returns (bool) {... */\n    tag_15:\n      tag_30\n      tag_71\n      calldatasize\n      0x04\n      tag_32\n      jump\t// in\n    tag_71:\n      tag_72\n      jump\t// in\n        /* \"@openzeppelin/contracts-upgradeable/token/ERC20/ERC20Upgradeable.sol\":4077:4266  function transfer(address to, uint256 amount) public virtual override returns (bool) {... */\n    tag_16:\n      tag_30\n      tag_75\n      calldatasize\n      0x04\n      tag_32\n      jump\t// in\n    tag_75:\n      tag_76\n      jump\t// in\n        /* \"@openzeppelin/contracts-upgradeable/token/ERC20/ERC20Upgradeable.sol\":4324:4473  function allowance(address owner, address spender) public view virtual override returns (uint256) {... */\n    tag_17:\n      tag_36\n      tag_79\n      calldatasize\n      0x04\n      tag_80\n      jump\t// in\n    tag_79:\n      tag_81\n      jump\t// in\n        /* \"@openzeppelin/contracts-upgradeable/access/OwnableUpgradeable.sol\":2314:2512  function transferOwnership(address newOwner) public virtual onlyOwner {... */\n    tag_18:\n      tag_26\n      tag_84\n      calldatasize\n      0x04\n      tag_58\n      jump\t// in\n    tag_84:\n      tag_85\n      jump\t// in\n        /* \"@openzeppelin/contracts-upgradeable/token/ERC20/ERC20Upgradeable.sol\":2495:2593  function name() public view virtual override returns (string memory) {... */\n    tag_23:\n        /* \"@openzeppelin/contracts-upgradeable/token/ERC20/ERC20Upgradeable.sol\":2549:2562  string memory */\n      0x60\n        /* \"@openzeppelin/contracts-upgradeable/token/ERC20/ERC20Upgradeable.sol\":2581:2586  _name */\n      0x68\n        /* \"@openzeppelin/contracts-upgradeable/token/ERC20/ERC20Upgradeable.sol\":2574:2586  return _name */\n      dup1\n      sload\n      tag_87\n      swap1\n      tag_88\n      jump\t// in\n    tag_87:\n      dup1\n      0x1f\n      add\n      0x20\n      dup1\n      swap2\n      div\n      mul\n      0x20\n      add\n      mload(0x40)\n      swap1\n      dup2\n      add\n      0x40\n      mstore\n      dup1\n      swap3\n      swap2\n      swap1\n      dup2\n      dup2\n      mstore\n      0x20\n      add\n      dup3\n      dup1\n      sload\n      tag_89\n      swap1\n      tag_88\n      jump\t// in\n    tag_89:\n      dup1\n      iszero\n      tag_90\n      jumpi\n      dup1\n      0x1f\n      lt\n      tag_91\n      jumpi\n      0x0100\n      dup1\n      dup4\n      sload\n      div\n      mul\n      dup4\n      mstore\n      swap2\n      0x20\n      add\n      swap2\n      jump(tag_90)\n    tag_91:\n      dup3\n      add\n      swap2\n      swap1\n      0x00\n      mstore\n      keccak256(0x00, 0x20)\n      swap1\n    tag_92:\n      dup2\n      sload\n      dup2\n      mstore\n      swap1\n      0x01\n      add\n      swap1\n      0x20\n      add\n      dup1\n      dup4\n      gt\n      tag_92\n      jumpi\n      dup3\n      swap1\n      sub\n      0x1f\n      and\n      dup3\n      add\n      swap2\n    tag_90:\n      pop\n      pop\n      pop\n      pop\n      pop\n      swap1\n      pop\n        /* \"@openzeppelin/contracts-upgradeable/token/ERC20/ERC20Upgradeable.sol\":2495:2593  function name() public view virtual override returns (string memory) {... */\n      swap1\n      jump\t// out\n        /* \"src/project/ProjectToken.sol\":327:533  function initialize(... */\n    tag_29:\n        /* \"@openzeppelin/contracts-upgradeable/proxy/utils/Initializable.sol\":3279:3298  bool isTopLevelCall */\n      0x00\n        /* \"@openzeppelin/contracts-upgradeable/proxy/utils/Initializable.sol\":3302:3315  _initializing */\n      sload\n      0x0100\n      swap1\n      div\n      0xff\n      and\n        /* \"@openzeppelin/contracts-upgradeable/proxy/utils/Initializable.sol\":3301:3315  !_initializing */\n      iszero\n      dup1\n        /* \"@openzeppelin/contracts-upgradeable/proxy/utils/Initializable.sol\":3347:3381  isTopLevelCall && _initialized < 1 */\n      dup1\n      iszero\n      tag_94\n      jumpi\n      pop\n        /* \"@openzeppelin/contracts-upgradeable/proxy/utils/Initializable.sol\":3365:3377  _initialized */\n      sload(0x00)\n        /* \"@openzeppelin/contracts-upgradeable/proxy/utils/Initializable.sol\":3380:3381  1 */\n      0x01\n        /* \"@openzeppelin/contracts-upgradeable/proxy/utils/Initializable.sol\":3365:3377  _initialized */\n      0xff\n      swap1\n      swap2\n      and\n        /* \"@openzeppelin/contracts-upgradeable/proxy/utils/Initializable.sol\":3365:3381  _initialized < 1 */\n      lt\n        /* \"@openzeppelin/contracts-upgradeable/proxy/utils/Initializable.sol\":3347:3381  isTopLevelCall && _initialized < 1 */\n    tag_94:\n        /* \"@openzeppelin/contracts-upgradeable/proxy/utils/Initializable.sol\":3346:3454  (isTopLevelCall && _initialized < 1) || (!AddressUpgradeable.isContract(address(this)) && _initialized == 1) */\n      dup1\n      tag_98\n      jumpi\n      pop\n        /* \"@openzeppelin/contracts-upgradeable/proxy/utils/Initializable.sol\":3426:3430  this */\n      address\n        /* \"@openzeppelin/contracts-upgradeable/utils/AddressUpgradeable.sol\":1713:1732  account.code.length */\n      extcodesize\n        /* \"@openzeppelin/contracts-upgradeable/utils/AddressUpgradeable.sol\":1713:1736  account.code.length > 0 */\n      iszero\n      dup1\n      iszero\n        /* \"@openzeppelin/contracts-upgradeable/proxy/utils/Initializable.sol\":3387:3453  !AddressUpgradeable.isContract(address(this)) && _initialized == 1 */\n      tag_98\n      jumpi\n      pop\n        /* \"@openzeppelin/contracts-upgradeable/proxy/utils/Initializable.sol\":3436:3448  _initialized */\n      and(0xff, sload(0x00))\n      0x01\n        /* \"@openzeppelin/contracts-upgradeable/proxy/utils/Initializable.sol\":3436:3453  _initialized == 1 */\n      eq\n        /* \"@openzeppelin/contracts-upgradeable/proxy/utils/Initializable.sol\":3387:3453  !AddressUpgradeable.isContract(address(this)) && _initialized == 1 */\n    tag_98:\n        /* \"@openzeppelin/contracts-upgradeable/proxy/utils/Initializable.sol\":3325:3526  require(... */\n      tag_99\n      jumpi\n      mload(0x40)\n      shl(0xe5, 0x461bcd)\n      dup2\n      mstore\n        /* \"#utility.yul\":4629:4631   */\n      0x20\n        /* \"@openzeppelin/contracts-upgradeable/proxy/utils/Initializable.sol\":3325:3526  require(... */\n      0x04\n      dup3\n      add\n        /* \"#utility.yul\":4611:4632   */\n      mstore\n        /* \"#utility.yul\":4668:4670   */\n      0x2e\n        /* \"#utility.yul\":4648:4666   */\n      0x24\n      dup3\n      add\n        /* \"#utility.yul\":4641:4671   */\n      mstore\n        /* \"#utility.yul\":4707:4741   */\n      0x496e697469616c697a61626c653a20636f6e747261637420697320616c726561\n        /* \"#utility.yul\":4687:4705   */\n      0x44\n      dup3\n      add\n        /* \"#utility.yul\":4680:4742   */\n      mstore\n      shl(0x92, 0x191e481a5b9a5d1a585b1a5e9959)\n        /* \"#utility.yul\":4758:4776   */\n      0x64\n      dup3\n      add\n        /* \"#utility.yul\":4751:4795   */\n      mstore\n        /* \"#utility.yul\":4812:4831   */\n      0x84\n      add\n        /* \"@openzeppelin/contracts-upgradeable/proxy/utils/Initializable.sol\":3325:3526  require(... */\n    tag_100:\n      mload(0x40)\n      dup1\n      swap2\n      sub\n      swap1\n      revert\n    tag_99:\n        /* \"@openzeppelin/contracts-upgradeable/proxy/utils/Initializable.sol\":3536:3548  _initialized */\n      0x00\n        /* \"@openzeppelin/contracts-upgradeable/proxy/utils/Initializable.sol\":3536:3552  _initialized = 1 */\n      dup1\n      sload\n      not(0xff)\n      and\n        /* \"@openzeppelin/contracts-upgradeable/proxy/utils/Initializable.sol\":3551:3552  1 */\n      0x01\n        /* \"@openzeppelin/contracts-upgradeable/proxy/utils/Initializable.sol\":3536:3552  _initialized = 1 */\n      or\n      swap1\n      sstore\n        /* \"@openzeppelin/contracts-upgradeable/proxy/utils/Initializable.sol\":3562:3627  if (isTopLevelCall) {... */\n      dup1\n      iszero\n      tag_102\n      jumpi\n        /* \"@openzeppelin/contracts-upgradeable/proxy/utils/Initializable.sol\":3596:3609  _initializing */\n      0x00\n        /* \"@openzeppelin/contracts-upgradeable/proxy/utils/Initializable.sol\":3596:3616  _initializing = true */\n      dup1\n      sload\n      not(0xff00)\n      and\n      0x0100\n      or\n      swap1\n      sstore\n        /* \"@openzeppelin/contracts-upgradeable/proxy/utils/Initializable.sol\":3562:3627  if (isTopLevelCall) {... */\n    tag_102:\n        /* \"src/project/ProjectToken.sol\":465:491  __ERC20_init(name, symbol) */\n      tag_104\n        /* \"src/project/ProjectToken.sol\":478:482  name */\n      dup5\n        /* \"src/project/ProjectToken.sol\":484:490  symbol */\n      dup5\n        /* \"src/project/ProjectToken.sol\":465:477  __ERC20_init */\n      tag_105\n        /* \"src/project/ProjectToken.sol\":465:491  __ERC20_init(name, symbol) */\n      jump\t// in\n    tag_104:\n        /* \"src/project/ProjectToken.sol\":501:526  _transferOwnership(owner) */\n      tag_106\n        /* \"src/project/ProjectToken.sol\":520:525  owner */\n      dup3\n        /* \"src/project/ProjectToken.sol\":501:519  _transferOwnership */\n      tag_107\n        /* \"src/project/ProjectToken.sol\":501:526  _transferOwnership(owner) */\n      jump\t// in\n    tag_106:\n        /* \"@openzeppelin/contracts-upgradeable/proxy/utils/Initializable.sol\":3651:3665  isTopLevelCall */\n      dup1\n        /* \"@openzeppelin/contracts-upgradeable/proxy/utils/Initializable.sol\":3647:3746  if (isTopLevelCall) {... */\n      iszero\n      tag_108\n      jumpi\n        /* \"@openzeppelin/contracts-upgradeable/proxy/utils/Initializable.sol\":3697:3702  false */\n      0x00\n        /* \"@openzeppelin/contracts-upgradeable/proxy/utils/Initializable.sol\":3681:3702  _initializing = false */\n      dup1\n      sload\n      not(0xff00)\n      and\n      swap1\n      sstore\n        /* \"@openzeppelin/contracts-upgradeable/proxy/utils/Initializable.sol\":3721:3735  Initialized(1) */\n      mload(0x40)\n      0x01\n        /* \"#utility.yul\":3331:3367   */\n      dup2\n      mstore\n        /* \"@openzeppelin/contracts-upgradeable/proxy/utils/Initializable.sol\":3721:3735  Initialized(1) */\n      0x7f26b83ff96e1f2b6a682f133852f6798a09c465da95921460cefb3847402498\n      swap1\n        /* \"#utility.yul\":3319:3321   */\n      0x20\n        /* \"#utility.yul\":3304:3322   */\n      add\n        /* \"@openzeppelin/contracts-upgradeable/proxy/utils/Initializable.sol\":3721:3735  Initialized(1) */\n      mload(0x40)\n      dup1\n      swap2\n      sub\n      swap1\n      log1\n        /* \"@openzeppelin/contracts-upgradeable/proxy/utils/Initializable.sol\":3647:3746  if (isTopLevelCall) {... */\n    tag_108:\n        /* \"@openzeppelin/contracts-upgradeable/proxy/utils/Initializable.sol\":3269:3752  {... */\n      pop\n        /* \"src/project/ProjectToken.sol\":327:533  function initialize(... */\n      pop\n      pop\n      pop\n      jump\t// out\n        /* \"@openzeppelin/contracts-upgradeable/token/ERC20/ERC20Upgradeable.sol\":4781:4978  function approve(address spender, uint256 amount) public virtual override returns (bool) {... */\n    tag_33:\n        /* \"@openzeppelin/contracts-upgradeable/token/ERC20/ERC20Upgradeable.sol\":4864:4868  bool */\n      0x00\n        /* \"@openzeppelin/contracts-upgradeable/utils/ContextUpgradeable.sol\":929:939  msg.sender */\n      caller\n        /* \"@openzeppelin/contracts-upgradeable/token/ERC20/ERC20Upgradeable.sol\":4918:4950  _approve(owner, spender, amount) */\n      tag_114\n        /* \"@openzeppelin/contracts-upgradeable/utils/ContextUpgradeable.sol\":929:939  msg.sender */\n      dup2\n        /* \"@openzeppelin/contracts-upgradeable/token/ERC20/ERC20Upgradeable.sol\":4934:4941  spender */\n      dup6\n        /* \"@openzeppelin/contracts-upgradeable/token/ERC20/ERC20Upgradeable.sol\":4943:4949  amount */\n      dup6\n        /* \"@openzeppelin/contracts-upgradeable/token/ERC20/ERC20Upgradeable.sol\":4918:4926  _approve */\n      tag_115\n        /* \"@openzeppelin/contracts-upgradeable/token/ERC20/ERC20Upgradeable.sol\":4918:4950  _approve(owner, spender, amount) */\n      jump\t// in\n    tag_114:\n        /* \"@openzeppelin/contracts-upgradeable/token/ERC20/ERC20Upgradeable.sol\":4967:4971  true */\n      0x01\n        /* \"@openzeppelin/contracts-upgradeable/token/ERC20/ERC20Upgradeable.sol\":4960:4971  return true */\n      swap2\n      pop\n      pop\n        /* \"@openzeppelin/contracts-upgradeable/token/ERC20/ERC20Upgradeable.sol\":4781:4978  function approve(address spender, uint256 amount) public virtual override returns (bool) {... */\n    tag_111:\n      swap3\n      swap2\n      pop\n      pop\n      jump\t// out\n        /* \"@openzeppelin/contracts-upgradeable/token/ERC20/ERC20Upgradeable.sol\":5540:5796  function transferFrom(address from, address to, uint256 amount) public virtual override returns (bool) {... */\n    tag_43:\n        /* \"@openzeppelin/contracts-upgradeable/token/ERC20/ERC20Upgradeable.sol\":5637:5641  bool */\n      0x00\n        /* \"@openzeppelin/contracts-upgradeable/utils/ContextUpgradeable.sol\":929:939  msg.sender */\n      caller\n        /* \"@openzeppelin/contracts-upgradeable/token/ERC20/ERC20Upgradeable.sol\":5693:5731  _spendAllowance(from, spender, amount) */\n      tag_119\n        /* \"@openzeppelin/contracts-upgradeable/token/ERC20/ERC20Upgradeable.sol\":5709:5713  from */\n      dup6\n        /* \"@openzeppelin/contracts-upgradeable/utils/ContextUpgradeable.sol\":929:939  msg.sender */\n      dup3\n        /* \"@openzeppelin/contracts-upgradeable/token/ERC20/ERC20Upgradeable.sol\":5724:5730  amount */\n      dup6\n        /* \"@openzeppelin/contracts-upgradeable/token/ERC20/ERC20Upgradeable.sol\":5693:5708  _spendAllowance */\n      tag_120\n        /* \"@openzeppelin/contracts-upgradeable/token/ERC20/ERC20Upgradeable.sol\":5693:5731  _spendAllowance(from, spender, amount) */\n      jump\t// in\n    tag_119:\n        /* \"@openzeppelin/contracts-upgradeable/token/ERC20/ERC20Upgradeable.sol\":5741:5768  _transfer(from, to, amount) */\n      tag_121\n        /* \"@openzeppelin/contracts-upgradeable/token/ERC20/ERC20Upgradeable.sol\":5751:5755  from */\n      dup6\n        /* \"@openzeppelin/contracts-upgradeable/token/ERC20/ERC20Upgradeable.sol\":5757:5759  to */\n      dup6\n        /* \"@openzeppelin/contracts-upgradeable/token/ERC20/ERC20Upgradeable.sol\":5761:5767  amount */\n      dup6\n        /* \"@openzeppelin/contracts-upgradeable/token/ERC20/ERC20Upgradeable.sol\":5741:5750  _transfer */\n      tag_122\n        /* \"@openzeppelin/contracts-upgradeable/token/ERC20/ERC20Upgradeable.sol\":5741:5768  _transfer(from, to, amount) */\n      jump\t// in\n    tag_121:\n      pop\n        /* \"@openzeppelin/contracts-upgradeable/token/ERC20/ERC20Upgradeable.sol\":5785:5789  true */\n      0x01\n      swap5\n        /* \"@openzeppelin/contracts-upgradeable/token/ERC20/ERC20Upgradeable.sol\":5540:5796  function transferFrom(address from, address to, uint256 amount) public virtual override returns (bool) {... */\n      swap4\n      pop\n      pop\n      pop\n      pop\n      jump\t// out\n        /* \"@openzeppelin/contracts-upgradeable/token/ERC20/ERC20Upgradeable.sol\":6191:6425  function increaseAllowance(address spender, uint256 addedValue) public virtual returns (bool) {... */\n    tag_51:\n        /* \"@openzeppelin/contracts-upgradeable/token/ERC20/ERC20Upgradeable.sol\":6279:6283  bool */\n      0x00\n        /* \"@openzeppelin/contracts-upgradeable/utils/ContextUpgradeable.sol\":929:939  msg.sender */\n      caller\n        /* \"@openzeppelin/contracts-upgradeable/token/ERC20/ERC20Upgradeable.sol\":6333:6397  _approve(owner, spender, allowance(owner, spender) + addedValue) */\n      tag_114\n        /* \"@openzeppelin/contracts-upgradeable/utils/ContextUpgradeable.sol\":929:939  msg.sender */\n      dup2\n        /* \"@openzeppelin/contracts-upgradeable/token/ERC20/ERC20Upgradeable.sol\":6349:6356  spender */\n      dup6\n        /* \"@openzeppelin/contracts-upgradeable/token/ERC20/ERC20Upgradeable.sol\":6386:6396  addedValue */\n      dup6\n        /* \"@openzeppelin/contracts-upgradeable/token/ERC20/ERC20Upgradeable.sol\":6358:6383  allowance(owner, spender) */\n      tag_127\n        /* \"@openzeppelin/contracts-upgradeable/utils/ContextUpgradeable.sol\":929:939  msg.sender */\n      dup4\n        /* \"@openzeppelin/contracts-upgradeable/token/ERC20/ERC20Upgradeable.sol\":6349:6356  spender */\n      dup4\n        /* \"@openzeppelin/contracts-upgradeable/token/ERC20/ERC20Upgradeable.sol\":6358:6367  allowance */\n      tag_81\n        /* \"@openzeppelin/contracts-upgradeable/token/ERC20/ERC20Upgradeable.sol\":6358:6383  allowance(owner, spender) */\n      jump\t// in\n    tag_127:\n        /* \"@openzeppelin/contracts-upgradeable/token/ERC20/ERC20Upgradeable.sol\":6358:6396  allowance(owner, spender) + addedValue */\n      tag_128\n      swap2\n      swap1\n      tag_129\n      jump\t// in\n    tag_128:\n        /* \"@openzeppelin/contracts-upgradeable/token/ERC20/ERC20Upgradeable.sol\":6333:6341  _approve */\n      tag_115\n        /* \"@openzeppelin/contracts-upgradeable/token/ERC20/ERC20Upgradeable.sol\":6333:6397  _approve(owner, spender, allowance(owner, spender) + addedValue) */\n      jump\t// in\n        /* \"src/project/ProjectToken.sol\":539:642  function mint(address account, uint256 amount) public onlyOwner {... */\n    tag_55:\n        /* \"@openzeppelin/contracts-upgradeable/access/OwnableUpgradeable.sol\":1334:1347  _checkOwner() */\n      tag_131\n        /* \"@openzeppelin/contracts-upgradeable/access/OwnableUpgradeable.sol\":1334:1345  _checkOwner */\n      tag_132\n        /* \"@openzeppelin/contracts-upgradeable/access/OwnableUpgradeable.sol\":1334:1347  _checkOwner() */\n      jump\t// in\n    tag_131:\n        /* \"src/project/ProjectToken.sol\":613:635  _mint(account, amount) */\n      tag_134\n        /* \"src/project/ProjectToken.sol\":619:626  account */\n      dup3\n        /* \"src/project/ProjectToken.sol\":628:634  amount */\n      dup3\n        /* \"src/project/ProjectToken.sol\":613:618  _mint */\n      tag_135\n        /* \"src/project/ProjectToken.sol\":613:635  _mint(account, amount) */\n      jump\t// in\n    tag_134:\n        /* \"src/project/ProjectToken.sol\":539:642  function mint(address account, uint256 amount) public onlyOwner {... */\n      pop\n      pop\n      jump\t// out\n        /* \"@openzeppelin/contracts-upgradeable/access/OwnableUpgradeable.sol\":2064:2165  function renounceOwnership() public virtual onlyOwner {... */\n    tag_62:\n        /* \"@openzeppelin/contracts-upgradeable/access/OwnableUpgradeable.sol\":1334:1347  _checkOwner() */\n      tag_138\n        /* \"@openzeppelin/contracts-upgradeable/access/OwnableUpgradeable.sol\":1334:1345  _checkOwner */\n      tag_132\n        /* \"@openzeppelin/contracts-upgradeable/access/OwnableUpgradeable.sol\":1334:1347  _checkOwner() */\n      jump\t// in\n    tag_138:\n        /* \"@openzeppelin/contracts-upgradeable/access/OwnableUpgradeable.sol\":2128:2158  _transferOwnership(address(0)) */\n      tag_140\n        /* \"@openzeppelin/contracts-upgradeable/access/OwnableUpgradeable.sol\":2155:2156  0 */\n      0x00\n        /* \"@openzeppelin/contracts-upgradeable/access/OwnableUpgradeable.sol\":2128:2146  _transferOwnership */\n      tag_107\n        /* \"@openzeppelin/contracts-upgradeable/access/OwnableUpgradeable.sol\":2128:2158  _transferOwnership(address(0)) */\n      jump\t// in\n    tag_140:\n        /* \"@openzeppelin/contracts-upgradeable/access/OwnableUpgradeable.sol\":2064:2165  function renounceOwnership() public virtual onlyOwner {... */\n      jump\t// out\n        /* \"@openzeppelin/contracts-upgradeable/token/ERC20/ERC20Upgradeable.sol\":2706:2808  function symbol() public view virtual override returns (string memory) {... */\n    tag_68:\n        /* \"@openzeppelin/contracts-upgradeable/token/ERC20/ERC20Upgradeable.sol\":2762:2775  string memory */\n      0x60\n        /* \"@openzeppelin/contracts-upgradeable/token/ERC20/ERC20Upgradeable.sol\":2794:2801  _symbol */\n      0x69\n        /* \"@openzeppelin/contracts-upgradeable/token/ERC20/ERC20Upgradeable.sol\":2787:2801  return _symbol */\n      dup1\n      sload\n      tag_87\n      swap1\n      tag_88\n      jump\t// in\n        /* \"@openzeppelin/contracts-upgradeable/token/ERC20/ERC20Upgradeable.sol\":6912:7339  function decreaseAllowance(address spender, uint256 subtractedValue) public virtual returns (bool) {... */\n    tag_72:\n        /* \"@openzeppelin/contracts-upgradeable/token/ERC20/ERC20Upgradeable.sol\":7005:7009  bool */\n      0x00\n        /* \"@openzeppelin/contracts-upgradeable/utils/ContextUpgradeable.sol\":929:939  msg.sender */\n      caller\n        /* \"@openzeppelin/contracts-upgradeable/token/ERC20/ERC20Upgradeable.sol\":7005:7009  bool */\n      dup2\n        /* \"@openzeppelin/contracts-upgradeable/token/ERC20/ERC20Upgradeable.sol\":7086:7111  allowance(owner, spender) */\n      tag_150\n        /* \"@openzeppelin/contracts-upgradeable/utils/ContextUpgradeable.sol\":929:939  msg.sender */\n      dup3\n        /* \"@openzeppelin/contracts-upgradeable/token/ERC20/ERC20Upgradeable.sol\":7103:7110  spender */\n      dup7\n        /* \"@openzeppelin/contracts-upgradeable/token/ERC20/ERC20Upgradeable.sol\":7086:7095  allowance */\n      tag_81\n        /* \"@openzeppelin/contracts-upgradeable/token/ERC20/ERC20Upgradeable.sol\":7086:7111  allowance(owner, spender) */\n      jump\t// in\n    tag_150:\n        /* \"@openzeppelin/contracts-upgradeable/token/ERC20/ERC20Upgradeable.sol\":7059:7111  uint256 currentAllowance = allowance(owner, spender) */\n      swap1\n      pop\n        /* \"@openzeppelin/contracts-upgradeable/token/ERC20/ERC20Upgradeable.sol\":7149:7164  subtractedValue */\n      dup4\n        /* \"@openzeppelin/contracts-upgradeable/token/ERC20/ERC20Upgradeable.sol\":7129:7145  currentAllowance */\n      dup2\n        /* \"@openzeppelin/contracts-upgradeable/token/ERC20/ERC20Upgradeable.sol\":7129:7164  currentAllowance >= subtractedValue */\n      lt\n      iszero\n        /* \"@openzeppelin/contracts-upgradeable/token/ERC20/ERC20Upgradeable.sol\":7121:7206  require(currentAllowance >= subtractedValue, \"ERC20: decreased allowance below zero\") */\n      tag_151\n      jumpi\n      mload(0x40)\n      shl(0xe5, 0x461bcd)\n      dup2\n      mstore\n        /* \"#utility.yul\":5470:5472   */\n      0x20\n        /* \"@openzeppelin/contracts-upgradeable/token/ERC20/ERC20Upgradeable.sol\":7121:7206  require(currentAllowance >= subtractedValue, \"ERC20: decreased allowance below zero\") */\n      0x04\n      dup3\n      add\n        /* \"#utility.yul\":5452:5473   */\n      mstore\n        /* \"#utility.yul\":5509:5511   */\n      0x25\n        /* \"#utility.yul\":5489:5507   */\n      0x24\n      dup3\n      add\n        /* \"#utility.yul\":5482:5512   */\n      mstore\n        /* \"#utility.yul\":5548:5582   */\n      0x45524332303a2064656372656173656420616c6c6f77616e63652062656c6f77\n        /* \"#utility.yul\":5528:5546   */\n      0x44\n      dup3\n      add\n        /* \"#utility.yul\":5521:5583   */\n      mstore\n      shl(0xd8, 0x207a65726f)\n        /* \"#utility.yul\":5599:5617   */\n      0x64\n      dup3\n      add\n        /* \"#utility.yul\":5592:5627   */\n      mstore\n        /* \"#utility.yul\":5644:5663   */\n      0x84\n      add\n        /* \"@openzeppelin/contracts-upgradeable/token/ERC20/ERC20Upgradeable.sol\":7121:7206  require(currentAllowance >= subtractedValue, \"ERC20: decreased allowance below zero\") */\n      tag_100\n        /* \"#utility.yul\":5268:5669   */\n      jump\n        /* \"@openzeppelin/contracts-upgradeable/token/ERC20/ERC20Upgradeable.sol\":7121:7206  require(currentAllowance >= subtractedValue, \"ERC20: decreased allowance below zero\") */\n    tag_151:\n        /* \"@openzeppelin/contracts-upgradeable/token/ERC20/ERC20Upgradeable.sol\":7240:7300  _approve(owner, spender, currentAllowance - subtractedValue) */\n      tag_121\n        /* \"@openzeppelin/contracts-upgradeable/token/ERC20/ERC20Upgradeable.sol\":7249:7254  owner */\n      dup3\n        /* \"@openzeppelin/contracts-upgradeable/token/ERC20/ERC20Upgradeable.sol\":7256:7263  spender */\n      dup7\n        /* \"@openzeppelin/contracts-upgradeable/token/ERC20/ERC20Upgradeable.sol\":7284:7299  subtractedValue */\n      dup7\n        /* \"@openzeppelin/contracts-upgradeable/token/ERC20/ERC20Upgradeable.sol\":7265:7281  currentAllowance */\n      dup5\n        /* \"@openzeppelin/contracts-upgradeable/token/ERC20/ERC20Upgradeable.sol\":7265:7299  currentAllowance - subtractedValue */\n      sub\n        /* \"@openzeppelin/contracts-upgradeable/token/ERC20/ERC20Upgradeable.sol\":7240:7248  _approve */\n      tag_115\n        /* \"@openzeppelin/contracts-upgradeable/token/ERC20/ERC20Upgradeable.sol\":7240:7300  _approve(owner, spender, currentAllowance - subtractedValue) */\n      jump\t// in\n        /* \"@openzeppelin/contracts-upgradeable/token/ERC20/ERC20Upgradeable.sol\":4077:4266  function transfer(address to, uint256 amount) public virtual override returns (bool) {... */\n    tag_76:\n        /* \"@openzeppelin/contracts-upgradeable/token/ERC20/ERC20Upgradeable.sol\":4156:4160  bool */\n      0x00\n        /* \"@openzeppelin/contracts-upgradeable/utils/ContextUpgradeable.sol\":929:939  msg.sender */\n      caller\n        /* \"@openzeppelin/contracts-upgradeable/token/ERC20/ERC20Upgradeable.sol\":4210:4238  _transfer(owner, to, amount) */\n      tag_114\n        /* \"@openzeppelin/contracts-upgradeable/utils/ContextUpgradeable.sol\":929:939  msg.sender */\n      dup2\n        /* \"@openzeppelin/contracts-upgradeable/token/ERC20/ERC20Upgradeable.sol\":4227:4229  to */\n      dup6\n        /* \"@openzeppelin/contracts-upgradeable/token/ERC20/ERC20Upgradeable.sol\":4231:4237  amount */\n      dup6\n        /* \"@openzeppelin/contracts-upgradeable/token/ERC20/ERC20Upgradeable.sol\":4210:4219  _transfer */\n      tag_122\n        /* \"@openzeppelin/contracts-upgradeable/token/ERC20/ERC20Upgradeable.sol\":4210:4238  _transfer(owner, to, amount) */\n      jump\t// in\n        /* \"@openzeppelin/contracts-upgradeable/token/ERC20/ERC20Upgradeable.sol\":4324:4473  function allowance(address owner, address spender) public view virtual override returns (uint256) {... */\n    tag_81:\n      sub(shl(0xa0, 0x01), 0x01)\n        /* \"@openzeppelin/contracts-upgradeable/token/ERC20/ERC20Upgradeable.sol\":4439:4457  _allowances[owner] */\n      swap2\n      dup3\n      and\n        /* \"@openzeppelin/contracts-upgradeable/token/ERC20/ERC20Upgradeable.sol\":4413:4420  uint256 */\n      0x00\n        /* \"@openzeppelin/contracts-upgradeable/token/ERC20/ERC20Upgradeable.sol\":4439:4457  _allowances[owner] */\n      swap1\n      dup2\n      mstore\n        /* \"@openzeppelin/contracts-upgradeable/token/ERC20/ERC20Upgradeable.sol\":4439:4450  _allowances */\n      0x66\n        /* \"@openzeppelin/contracts-upgradeable/token/ERC20/ERC20Upgradeable.sol\":4439:4457  _allowances[owner] */\n      0x20\n      swap1\n      dup2\n      mstore\n      0x40\n      dup1\n      dup4\n      keccak256\n        /* \"@openzeppelin/contracts-upgradeable/token/ERC20/ERC20Upgradeable.sol\":4439:4466  _allowances[owner][spender] */\n      swap4\n      swap1\n      swap5\n      and\n      dup3\n      mstore\n      swap2\n      swap1\n      swap2\n      mstore\n      keccak256\n      sload\n      swap1\n        /* \"@openzeppelin/contracts-upgradeable/token/ERC20/ERC20Upgradeable.sol\":4324:4473  function allowance(address owner, address spender) public view virtual override returns (uint256) {... */\n      jump\t// out\n        /* \"@openzeppelin/contracts-upgradeable/access/OwnableUpgradeable.sol\":2314:2512  function transferOwnership(address newOwner) public virtual onlyOwner {... */\n    tag_85:\n        /* \"@openzeppelin/contracts-upgradeable/access/OwnableUpgradeable.sol\":1334:1347  _checkOwner() */\n      tag_160\n        /* \"@openzeppelin/contracts-upgradeable/access/OwnableUpgradeable.sol\":1334:1345  _checkOwner */\n      tag_132\n        /* \"@openzeppelin/contracts-upgradeable/access/OwnableUpgradeable.sol\":1334:1347  _checkOwner() */\n      jump\t// in\n    tag_160:\n      sub(shl(0xa0, 0x01), 0x01)\n        /* \"@openzeppelin/contracts-upgradeable/access/OwnableUpgradeable.sol\":2402:2424  newOwner != address(0) */\n      dup2\n      and\n        /* \"@openzeppelin/contracts-upgradeable/access/OwnableUpgradeable.sol\":2394:2467  require(newOwner != address(0), \"Ownable: new owner is the zero address\") */\n      tag_162\n      jumpi\n      mload(0x40)\n      shl(0xe5, 0x461bcd)\n      dup2\n      mstore\n        /* \"#utility.yul\":5876:5878   */\n      0x20\n        /* \"@openzeppelin/contracts-upgradeable/access/OwnableUpgradeable.sol\":2394:2467  require(newOwner != address(0), \"Ownable: new owner is the zero address\") */\n      0x04\n      dup3\n      add\n        /* \"#utility.yul\":5858:5879   */\n      mstore\n        /* \"#utility.yul\":5915:5917   */\n      0x26\n        /* \"#utility.yul\":5895:5913   */\n      0x24\n      dup3\n      add\n        /* \"#utility.yul\":5888:5918   */\n      mstore\n        /* \"#utility.yul\":5954:5988   */\n      0x4f776e61626c653a206e6577206f776e657220697320746865207a65726f2061\n        /* \"#utility.yul\":5934:5952   */\n      0x44\n      dup3\n      add\n        /* \"#utility.yul\":5927:5989   */\n      mstore\n      shl(0xd0, 0x646472657373)\n        /* \"#utility.yul\":6005:6023   */\n      0x64\n      dup3\n      add\n        /* \"#utility.yul\":5998:6034   */\n      mstore\n        /* \"#utility.yul\":6051:6070   */\n      0x84\n      add\n        /* \"@openzeppelin/contracts-upgradeable/access/OwnableUpgradeable.sol\":2394:2467  require(newOwner != address(0), \"Ownable: new owner is the zero address\") */\n      tag_100\n        /* \"#utility.yul\":5674:6076   */\n      jump\n        /* \"@openzeppelin/contracts-upgradeable/access/OwnableUpgradeable.sol\":2394:2467  require(newOwner != address(0), \"Ownable: new owner is the zero address\") */\n    tag_162:\n        /* \"@openzeppelin/contracts-upgradeable/access/OwnableUpgradeable.sol\":2477:2505  _transferOwnership(newOwner) */\n      tag_165\n        /* \"@openzeppelin/contracts-upgradeable/access/OwnableUpgradeable.sol\":2496:2504  newOwner */\n      dup2\n        /* \"@openzeppelin/contracts-upgradeable/access/OwnableUpgradeable.sol\":2477:2495  _transferOwnership */\n      tag_107\n        /* \"@openzeppelin/contracts-upgradeable/access/OwnableUpgradeable.sol\":2477:2505  _transferOwnership(newOwner) */\n      jump\t// in\n    tag_165:\n        /* \"@openzeppelin/contracts-upgradeable/access/OwnableUpgradeable.sol\":2314:2512  function transferOwnership(address newOwner) public virtual onlyOwner {... */\n      pop\n      jump\t// out\n        /* \"@openzeppelin/contracts-upgradeable/token/ERC20/ERC20Upgradeable.sol\":2118:2265  function __ERC20_init(string memory name_, string memory symbol_) internal onlyInitializing {... */\n    tag_105:\n        /* \"@openzeppelin/contracts-upgradeable/proxy/utils/Initializable.sol\":5374:5387  _initializing */\n      sload(0x00)\n      0x0100\n      swap1\n      div\n      0xff\n      and\n        /* \"@openzeppelin/contracts-upgradeable/proxy/utils/Initializable.sol\":5366:5435  require(_initializing, \"Initializable: contract is not initializing\") */\n      tag_168\n      jumpi\n      mload(0x40)\n      shl(0xe5, 0x461bcd)\n      dup2\n      mstore\n      0x04\n      add\n      tag_100\n      swap1\n      tag_170\n      jump\t// in\n    tag_168:\n        /* \"@openzeppelin/contracts-upgradeable/token/ERC20/ERC20Upgradeable.sol\":2220:2258  __ERC20_init_unchained(name_, symbol_) */\n      tag_134\n        /* \"@openzeppelin/contracts-upgradeable/token/ERC20/ERC20Upgradeable.sol\":2243:2248  name_ */\n      dup3\n        /* \"@openzeppelin/contracts-upgradeable/token/ERC20/ERC20Upgradeable.sol\":2250:2257  symbol_ */\n      dup3\n        /* \"@openzeppelin/contracts-upgradeable/token/ERC20/ERC20Upgradeable.sol\":2220:2242  __ERC20_init_unchained */\n      tag_173\n        /* \"@openzeppelin/contracts-upgradeable/token/ERC20/ERC20Upgradeable.sol\":2220:2258  __ERC20_init_unchained(name_, symbol_) */\n      jump\t// in\n        /* \"@openzeppelin/contracts-upgradeable/access/OwnableUpgradeable.sol\":2666:2853  function _transferOwnership(address newOwner) internal virtual {... */\n    tag_107:\n        /* \"@openzeppelin/contracts-upgradeable/access/OwnableUpgradeable.sol\":2758:2764  _owner */\n      0x33\n      dup1\n      sload\n      sub(shl(0xa0, 0x01), 0x01)\n        /* \"@openzeppelin/contracts-upgradeable/access/OwnableUpgradeable.sol\":2774:2791  _owner = newOwner */\n      dup4\n      dup2\n      and\n      not(sub(shl(0xa0, 0x01), 0x01))\n      dup4\n      and\n      dup2\n      or\n      swap1\n      swap4\n      sstore\n        /* \"@openzeppelin/contracts-upgradeable/access/OwnableUpgradeable.sol\":2806:2846  OwnershipTransferred(oldOwner, newOwner) */\n      mload(0x40)\n        /* \"@openzeppelin/contracts-upgradeable/access/OwnableUpgradeable.sol\":2758:2764  _owner */\n      swap2\n      and\n      swap2\n        /* \"@openzeppelin/contracts-upgradeable/access/OwnableUpgradeable.sol\":2774:2791  _owner = newOwner */\n      swap1\n        /* \"@openzeppelin/contracts-upgradeable/access/OwnableUpgradeable.sol\":2758:2764  _owner */\n      dup3\n      swap1\n        /* \"@openzeppelin/contracts-upgradeable/access/OwnableUpgradeable.sol\":2806:2846  OwnershipTransferred(oldOwner, newOwner) */\n      0x8be0079c531659141344cd1fd0a4f28419497f9722a3daafe3b4186f6b6457e0\n      swap1\n        /* \"@openzeppelin/contracts-upgradeable/access/OwnableUpgradeable.sol\":2739:2755  address oldOwner */\n      0x00\n      swap1\n        /* \"@openzeppelin/contracts-upgradeable/access/OwnableUpgradeable.sol\":2806:2846  OwnershipTransferred(oldOwner, newOwner) */\n      log3\n        /* \"@openzeppelin/contracts-upgradeable/access/OwnableUpgradeable.sol\":2729:2853  {... */\n      pop\n        /* \"@openzeppelin/contracts-upgradeable/access/OwnableUpgradeable.sol\":2666:2853  function _transferOwnership(address newOwner) internal virtual {... */\n      pop\n      jump\t// out\n        /* \"@openzeppelin/contracts-upgradeable/token/ERC20/ERC20Upgradeable.sol\":10794:11134  function _approve(address owner, address spender, uint256 amount) internal virtual {... */\n    tag_115:\n      sub(shl(0xa0, 0x01), 0x01)\n        /* \"@openzeppelin/contracts-upgradeable/token/ERC20/ERC20Upgradeable.sol\":10895:10914  owner != address(0) */\n      dup4\n      and\n        /* \"@openzeppelin/contracts-upgradeable/token/ERC20/ERC20Upgradeable.sol\":10887:10955  require(owner != address(0), \"ERC20: approve from the zero address\") */\n      tag_177\n      jumpi\n      mload(0x40)\n      shl(0xe5, 0x461bcd)\n      dup2\n      mstore\n        /* \"#utility.yul\":6695:6697   */\n      0x20\n        /* \"@openzeppelin/contracts-upgradeable/token/ERC20/ERC20Upgradeable.sol\":10887:10955  require(owner != address(0), \"ERC20: approve from the zero address\") */\n      0x04\n      dup3\n      add\n        /* \"#utility.yul\":6677:6698   */\n      mstore\n        /* \"#utility.yul\":6734:6736   */\n      0x24\n        /* \"#utility.yul\":6714:6732   */\n      dup1\n      dup3\n      add\n        /* \"#utility.yul\":6707:6737   */\n      mstore\n        /* \"#utility.yul\":6773:6807   */\n      0x45524332303a20617070726f76652066726f6d20746865207a65726f20616464\n        /* \"#utility.yul\":6753:6771   */\n      0x44\n      dup3\n      add\n        /* \"#utility.yul\":6746:6808   */\n      mstore\n      shl(0xe0, 0x72657373)\n        /* \"#utility.yul\":6824:6842   */\n      0x64\n      dup3\n      add\n        /* \"#utility.yul\":6817:6851   */\n      mstore\n        /* \"#utility.yul\":6868:6887   */\n      0x84\n      add\n        /* \"@openzeppelin/contracts-upgradeable/token/ERC20/ERC20Upgradeable.sol\":10887:10955  require(owner != address(0), \"ERC20: approve from the zero address\") */\n      tag_100\n        /* \"#utility.yul\":6493:6893   */\n      jump\n        /* \"@openzeppelin/contracts-upgradeable/token/ERC20/ERC20Upgradeable.sol\":10887:10955  require(owner != address(0), \"ERC20: approve from the zero address\") */\n    tag_177:\n      sub(shl(0xa0, 0x01), 0x01)\n        /* \"@openzeppelin/contracts-upgradeable/token/ERC20/ERC20Upgradeable.sol\":10973:10994  spender != address(0) */\n      dup3\n      and\n        /* \"@openzeppelin/contracts-upgradeable/token/ERC20/ERC20Upgradeable.sol\":10965:11033  require(spender != address(0), \"ERC20: approve to the zero address\") */\n      tag_180\n      jumpi\n      mload(0x40)\n      shl(0xe5, 0x461bcd)\n      dup2\n      mstore\n        /* \"#utility.yul\":7100:7102   */\n      0x20\n        /* \"@openzeppelin/contracts-upgradeable/token/ERC20/ERC20Upgradeable.sol\":10965:11033  require(spender != address(0), \"ERC20: approve to the zero address\") */\n      0x04\n      dup3\n      add\n        /* \"#utility.yul\":7082:7103   */\n      mstore\n        /* \"#utility.yul\":7139:7141   */\n      0x22\n        /* \"#utility.yul\":7119:7137   */\n      0x24\n      dup3\n      add\n        /* \"#utility.yul\":7112:7142   */\n      mstore\n        /* \"#utility.yul\":7178:7212   */\n      0x45524332303a20617070726f766520746f20746865207a65726f206164647265\n        /* \"#utility.yul\":7158:7176   */\n      0x44\n      dup3\n      add\n        /* \"#utility.yul\":7151:7213   */\n      mstore\n      shl(0xf0, 0x7373)\n        /* \"#utility.yul\":7229:7247   */\n      0x64\n      dup3\n      add\n        /* \"#utility.yul\":7222:7254   */\n      mstore\n        /* \"#utility.yul\":7271:7290   */\n      0x84\n      add\n        /* \"@openzeppelin/contracts-upgradeable/token/ERC20/ERC20Upgradeable.sol\":10965:11033  require(spender != address(0), \"ERC20: approve to the zero address\") */\n      tag_100\n        /* \"#utility.yul\":6898:7296   */\n      jump\n        /* \"@openzeppelin/contracts-upgradeable/token/ERC20/ERC20Upgradeable.sol\":10965:11033  require(spender != address(0), \"ERC20: approve to the zero address\") */\n    tag_180:\n      sub(shl(0xa0, 0x01), 0x01)\n        /* \"@openzeppelin/contracts-upgradeable/token/ERC20/ERC20Upgradeable.sol\":11044:11062  _allowances[owner] */\n      dup4\n      dup2\n      and\n      0x00\n      dup2\n      dup2\n      mstore\n        /* \"@openzeppelin/contracts-upgradeable/token/ERC20/ERC20Upgradeable.sol\":11044:11055  _allowances */\n      0x66\n        /* \"@openzeppelin/contracts-upgradeable/token/ERC20/ERC20Upgradeable.sol\":11044:11062  _allowances[owner] */\n      0x20\n      swap1\n      dup2\n      mstore\n      0x40\n      dup1\n      dup4\n      keccak256\n        /* \"@openzeppelin/contracts-upgradeable/token/ERC20/ERC20Upgradeable.sol\":11044:11071  _allowances[owner][spender] */\n      swap5\n      dup8\n      and\n      dup1\n      dup5\n      mstore\n      swap5\n      dup3\n      mstore\n      swap2\n      dup3\n      swap1\n      keccak256\n        /* \"@openzeppelin/contracts-upgradeable/token/ERC20/ERC20Upgradeable.sol\":11044:11080  _allowances[owner][spender] = amount */\n      dup6\n      swap1\n      sstore\n        /* \"@openzeppelin/contracts-upgradeable/token/ERC20/ERC20Upgradeable.sol\":11095:11127  Approval(owner, spender, amount) */\n      swap1\n      mload\n        /* \"#utility.yul\":2820:2845   */\n      dup5\n      dup2\n      mstore\n        /* \"@openzeppelin/contracts-upgradeable/token/ERC20/ERC20Upgradeable.sol\":11095:11127  Approval(owner, spender, amount) */\n      0x8c5be1e5ebec7d5bd14f71427d1e84f3dd0314c0f7b2291e5b200ac8c7c3b925\n      swap2\n        /* \"#utility.yul\":2793:2811   */\n      add\n        /* \"@openzeppelin/contracts-upgradeable/token/ERC20/ERC20Upgradeable.sol\":11095:11127  Approval(owner, spender, amount) */\n      mload(0x40)\n      dup1\n      swap2\n      sub\n      swap1\n      log3\n        /* \"@openzeppelin/contracts-upgradeable/token/ERC20/ERC20Upgradeable.sol\":10794:11134  function _approve(address owner, address spender, uint256 amount) internal virtual {... */\n      pop\n      pop\n      pop\n      jump\t// out\n        /* \"@openzeppelin/contracts-upgradeable/token/ERC20/ERC20Upgradeable.sol\":11415:11826  function _spendAllowance(address owner, address spender, uint256 amount) internal virtual {... */\n    tag_120:\n        /* \"@openzeppelin/contracts-upgradeable/token/ERC20/ERC20Upgradeable.sol\":11515:11539  uint256 currentAllowance */\n      0x00\n        /* \"@openzeppelin/contracts-upgradeable/token/ERC20/ERC20Upgradeable.sol\":11542:11567  allowance(owner, spender) */\n      tag_185\n        /* \"@openzeppelin/contracts-upgradeable/token/ERC20/ERC20Upgradeable.sol\":11552:11557  owner */\n      dup5\n        /* \"@openzeppelin/contracts-upgradeable/token/ERC20/ERC20Upgradeable.sol\":11559:11566  spender */\n      dup5\n        /* \"@openzeppelin/contracts-upgradeable/token/ERC20/ERC20Upgradeable.sol\":11542:11551  allowance */\n      tag_81\n        /* \"@openzeppelin/contracts-upgradeable/token/ERC20/ERC20Upgradeable.sol\":11542:11567  allowance(owner, spender) */\n      jump\t// in\n    tag_185:\n        /* \"@openzeppelin/contracts-upgradeable/token/ERC20/ERC20Upgradeable.sol\":11515:11567  uint256 currentAllowance = allowance(owner, spender) */\n      swap1\n      pop\n      not(0x00)\n        /* \"@openzeppelin/contracts-upgradeable/token/ERC20/ERC20Upgradeable.sol\":11581:11597  currentAllowance */\n      dup2\n        /* \"@openzeppelin/contracts-upgradeable/token/ERC20/ERC20Upgradeable.sol\":11581:11618  currentAllowance != type(uint256).max */\n      eq\n        /* \"@openzeppelin/contracts-upgradeable/token/ERC20/ERC20Upgradeable.sol\":11577:11820  if (currentAllowance != type(uint256).max) {... */\n      tag_108\n      jumpi\n        /* \"@openzeppelin/contracts-upgradeable/token/ERC20/ERC20Upgradeable.sol\":11662:11668  amount */\n      dup2\n        /* \"@openzeppelin/contracts-upgradeable/token/ERC20/ERC20Upgradeable.sol\":11642:11658  currentAllowance */\n      dup2\n        /* \"@openzeppelin/contracts-upgradeable/token/ERC20/ERC20Upgradeable.sol\":11642:11668  currentAllowance >= amount */\n      lt\n      iszero\n        /* \"@openzeppelin/contracts-upgradeable/token/ERC20/ERC20Upgradeable.sol\":11634:11702  require(currentAllowance >= amount, \"ERC20: insufficient allowance\") */\n      tag_187\n      jumpi\n      mload(0x40)\n      shl(0xe5, 0x461bcd)\n      dup2\n      mstore\n        /* \"#utility.yul\":7503:7505   */\n      0x20\n        /* \"@openzeppelin/contracts-upgradeable/token/ERC20/ERC20Upgradeable.sol\":11634:11702  require(currentAllowance >= amount, \"ERC20: insufficient allowance\") */\n      0x04\n      dup3\n      add\n        /* \"#utility.yul\":7485:7506   */\n      mstore\n        /* \"#utility.yul\":7542:7544   */\n      0x1d\n        /* \"#utility.yul\":7522:7540   */\n      0x24\n      dup3\n      add\n        /* \"#utility.yul\":7515:7545   */\n      mstore\n        /* \"#utility.yul\":7581:7612   */\n      0x45524332303a20696e73756666696369656e7420616c6c6f77616e6365000000\n        /* \"#utility.yul\":7561:7579   */\n      0x44\n      dup3\n      add\n        /* \"#utility.yul\":7554:7613   */\n      mstore\n        /* \"#utility.yul\":7630:7648   */\n      0x64\n      add\n        /* \"@openzeppelin/contracts-upgradeable/token/ERC20/ERC20Upgradeable.sol\":11634:11702  require(currentAllowance >= amount, \"ERC20: insufficient allowance\") */\n      tag_100\n        /* \"#utility.yul\":7301:7654   */\n      jump\n        /* \"@openzeppelin/contracts-upgradeable/token/ERC20/ERC20Upgradeable.sol\":11634:11702  require(currentAllowance >= amount, \"ERC20: insufficient allowance\") */\n    tag_187:\n        /* \"@openzeppelin/contracts-upgradeable/token/ERC20/ERC20Upgradeable.sol\":11744:11795  _approve(owner, spender, currentAllowance - amount) */\n      tag_108\n        /* \"@openzeppelin/contracts-upgradeable/token/ERC20/ERC20Upgradeable.sol\":11753:11758  owner */\n      dup5\n        /* \"@openzeppelin/contracts-upgradeable/token/ERC20/ERC20Upgradeable.sol\":11760:11767  spender */\n      dup5\n        /* \"@openzeppelin/contracts-upgradeable/token/ERC20/ERC20Upgradeable.sol\":11788:11794  amount */\n      dup5\n        /* \"@openzeppelin/contracts-upgradeable/token/ERC20/ERC20Upgradeable.sol\":11769:11785  currentAllowance */\n      dup5\n        /* \"@openzeppelin/contracts-upgradeable/token/ERC20/ERC20Upgradeable.sol\":11769:11794  currentAllowance - amount */\n      sub\n        /* \"@openzeppelin/contracts-upgradeable/token/ERC20/ERC20Upgradeable.sol\":11744:11752  _approve */\n      tag_115\n        /* \"@openzeppelin/contracts-upgradeable/token/ERC20/ERC20Upgradeable.sol\":11744:11795  _approve(owner, spender, currentAllowance - amount) */\n      jump\t// in\n        /* \"@openzeppelin/contracts-upgradeable/token/ERC20/ERC20Upgradeable.sol\":7793:8581  function _transfer(address from, address to, uint256 amount) internal virtual {... */\n    tag_122:\n      sub(shl(0xa0, 0x01), 0x01)\n        /* \"@openzeppelin/contracts-upgradeable/token/ERC20/ERC20Upgradeable.sol\":7889:7907  from != address(0) */\n      dup4\n      and\n        /* \"@openzeppelin/contracts-upgradeable/token/ERC20/ERC20Upgradeable.sol\":7881:7949  require(from != address(0), \"ERC20: transfer from the zero address\") */\n      tag_192\n      jumpi\n      mload(0x40)\n      shl(0xe5, 0x461bcd)\n      dup2\n      mstore\n        /* \"#utility.yul\":7861:7863   */\n      0x20\n        /* \"@openzeppelin/contracts-upgradeable/token/ERC20/ERC20Upgradeable.sol\":7881:7949  require(from != address(0), \"ERC20: transfer from the zero address\") */\n      0x04\n      dup3\n      add\n        /* \"#utility.yul\":7843:7864   */\n      mstore\n        /* \"#utility.yul\":7900:7902   */\n      0x25\n        /* \"#utility.yul\":7880:7898   */\n      0x24\n      dup3\n      add\n        /* \"#utility.yul\":7873:7903   */\n      mstore\n        /* \"#utility.yul\":7939:7973   */\n      0x45524332303a207472616e736665722066726f6d20746865207a65726f206164\n        /* \"#utility.yul\":7919:7937   */\n      0x44\n      dup3\n      add\n        /* \"#utility.yul\":7912:7974   */\n      mstore\n      shl(0xd8, 0x6472657373)\n        /* \"#utility.yul\":7990:8008   */\n      0x64\n      dup3\n      add\n        /* \"#utility.yul\":7983:8018   */\n      mstore\n        /* \"#utility.yul\":8035:8054   */\n      0x84\n      add\n        /* \"@openzeppelin/contracts-upgradeable/token/ERC20/ERC20Upgradeable.sol\":7881:7949  require(from != address(0), \"ERC20: transfer from the zero address\") */\n      tag_100\n        /* \"#utility.yul\":7659:8060   */\n      jump\n        /* \"@openzeppelin/contracts-upgradeable/token/ERC20/ERC20Upgradeable.sol\":7881:7949  require(from != address(0), \"ERC20: transfer from the zero address\") */\n    tag_192:\n      sub(shl(0xa0, 0x01), 0x01)\n        /* \"@openzeppelin/contracts-upgradeable/token/ERC20/ERC20Upgradeable.sol\":7967:7983  to != address(0) */\n      dup3\n      and\n        /* \"@openzeppelin/contracts-upgradeable/token/ERC20/ERC20Upgradeable.sol\":7959:8023  require(to != address(0), \"ERC20: transfer to the zero address\") */\n      tag_195\n      jumpi\n      mload(0x40)\n      shl(0xe5, 0x461bcd)\n      dup2\n      mstore\n        /* \"#utility.yul\":8267:8269   */\n      0x20\n        /* \"@openzeppelin/contracts-upgradeable/token/ERC20/ERC20Upgradeable.sol\":7959:8023  require(to != address(0), \"ERC20: transfer to the zero address\") */\n      0x04\n      dup3\n      add\n        /* \"#utility.yul\":8249:8270   */\n      mstore\n        /* \"#utility.yul\":8306:8308   */\n      0x23\n        /* \"#utility.yul\":8286:8304   */\n      0x24\n      dup3\n      add\n        /* \"#utility.yul\":8279:8309   */\n      mstore\n        /* \"#utility.yul\":8345:8379   */\n      0x45524332303a207472616e7366657220746f20746865207a65726f2061646472\n        /* \"#utility.yul\":8325:8343   */\n      0x44\n      dup3\n      add\n        /* \"#utility.yul\":8318:8380   */\n      mstore\n      shl(0xe8, 0x657373)\n        /* \"#utility.yul\":8396:8414   */\n      0x64\n      dup3\n      add\n        /* \"#utility.yul\":8389:8422   */\n      mstore\n        /* \"#utility.yul\":8439:8458   */\n      0x84\n      add\n        /* \"@openzeppelin/contracts-upgradeable/token/ERC20/ERC20Upgradeable.sol\":7959:8023  require(to != address(0), \"ERC20: transfer to the zero address\") */\n      tag_100\n        /* \"#utility.yul\":8065:8464   */\n      jump\n        /* \"@openzeppelin/contracts-upgradeable/token/ERC20/ERC20Upgradeable.sol\":7959:8023  require(to != address(0), \"ERC20: transfer to the zero address\") */\n    tag_195:\n      sub(shl(0xa0, 0x01), 0x01)\n        /* \"@openzeppelin/contracts-upgradeable/token/ERC20/ERC20Upgradeable.sol\":8105:8120  _balances[from] */\n      dup4\n      and\n        /* \"@openzeppelin/contracts-upgradeable/token/ERC20/ERC20Upgradeable.sol\":8083:8102  uint256 fromBalance */\n      0x00\n        /* \"@openzeppelin/contracts-upgradeable/token/ERC20/ERC20Upgradeable.sol\":8105:8120  _balances[from] */\n      swap1\n      dup2\n      mstore\n        /* \"@openzeppelin/contracts-upgradeable/token/ERC20/ERC20Upgradeable.sol\":8105:8114  _balances */\n      0x65\n        /* \"@openzeppelin/contracts-upgradeable/token/ERC20/ERC20Upgradeable.sol\":8105:8120  _balances[from] */\n      0x20\n      mstore\n      0x40\n      swap1\n      keccak256\n      sload\n        /* \"@openzeppelin/contracts-upgradeable/token/ERC20/ERC20Upgradeable.sol\":8138:8159  fromBalance >= amount */\n      dup2\n      dup2\n      lt\n      iszero\n        /* \"@openzeppelin/contracts-upgradeable/token/ERC20/ERC20Upgradeable.sol\":8130:8202  require(fromBalance >= amount, \"ERC20: transfer amount exceeds balance\") */\n      tag_200\n      jumpi\n      mload(0x40)\n      shl(0xe5, 0x461bcd)\n      dup2\n      mstore\n        /* \"#utility.yul\":8671:8673   */\n      0x20\n        /* \"@openzeppelin/contracts-upgradeable/token/ERC20/ERC20Upgradeable.sol\":8130:8202  require(fromBalance >= amount, \"ERC20: transfer amount exceeds balance\") */\n      0x04\n      dup3\n      add\n        /* \"#utility.yul\":8653:8674   */\n      mstore\n        /* \"#utility.yul\":8710:8712   */\n      0x26\n        /* \"#utility.yul\":8690:8708   */\n      0x24\n      dup3\n      add\n        /* \"#utility.yul\":8683:8713   */\n      mstore\n        /* \"#utility.yul\":8749:8783   */\n      0x45524332303a207472616e7366657220616d6f756e7420657863656564732062\n        /* \"#utility.yul\":8729:8747   */\n      0x44\n      dup3\n      add\n        /* \"#utility.yul\":8722:8784   */\n      mstore\n      shl(0xd0, 0x616c616e6365)\n        /* \"#utility.yul\":8800:8818   */\n      0x64\n      dup3\n      add\n        /* \"#utility.yul\":8793:8829   */\n      mstore\n        /* \"#utility.yul\":8846:8865   */\n      0x84\n      add\n        /* \"@openzeppelin/contracts-upgradeable/token/ERC20/ERC20Upgradeable.sol\":8130:8202  require(fromBalance >= amount, \"ERC20: transfer amount exceeds balance\") */\n      tag_100\n        /* \"#utility.yul\":8469:8871   */\n      jump\n        /* \"@openzeppelin/contracts-upgradeable/token/ERC20/ERC20Upgradeable.sol\":8130:8202  require(fromBalance >= amount, \"ERC20: transfer amount exceeds balance\") */\n    tag_200:\n      sub(shl(0xa0, 0x01), 0x01)\n        /* \"@openzeppelin/contracts-upgradeable/token/ERC20/ERC20Upgradeable.sol\":8236:8251  _balances[from] */\n      dup1\n      dup6\n      and\n      0x00\n      dup2\n      dup2\n      mstore\n        /* \"@openzeppelin/contracts-upgradeable/token/ERC20/ERC20Upgradeable.sol\":8236:8245  _balances */\n      0x65\n        /* \"@openzeppelin/contracts-upgradeable/token/ERC20/ERC20Upgradeable.sol\":8236:8251  _balances[from] */\n      0x20\n      mstore\n      0x40\n      dup1\n      dup3\n      keccak256\n        /* \"@openzeppelin/contracts-upgradeable/token/ERC20/ERC20Upgradeable.sol\":8254:8274  fromBalance - amount */\n      dup7\n      dup7\n      sub\n        /* \"@openzeppelin/contracts-upgradeable/token/ERC20/ERC20Upgradeable.sol\":8236:8274  _balances[from] = fromBalance - amount */\n      swap1\n      sstore\n        /* \"@openzeppelin/contracts-upgradeable/token/ERC20/ERC20Upgradeable.sol\":8451:8464  _balances[to] */\n      swap3\n      dup7\n      and\n      dup1\n      dup3\n      mstore\n      swap1\n      dup4\n      swap1\n      keccak256\n        /* \"@openzeppelin/contracts-upgradeable/token/ERC20/ERC20Upgradeable.sol\":8451:8474  _balances[to] += amount */\n      dup1\n      sload\n      dup7\n      add\n      swap1\n      sstore\n        /* \"@openzeppelin/contracts-upgradeable/token/ERC20/ERC20Upgradeable.sol\":8500:8526  Transfer(from, to, amount) */\n      swap2\n      mload\n      0xddf252ad1be2c89b69c2b068fc378daa952ba7f163c4a11628f55a4df523b3ef\n      swap1\n      tag_203\n      swap1\n        /* \"@openzeppelin/contracts-upgradeable/token/ERC20/ERC20Upgradeable.sol\":8268:8274  amount */\n      dup7\n        /* \"#utility.yul\":2820:2845   */\n      dup2\n      mstore\n        /* \"#utility.yul\":2808:2810   */\n      0x20\n        /* \"#utility.yul\":2793:2811   */\n      add\n      swap1\n        /* \"#utility.yul\":2674:2851   */\n      jump\n        /* \"@openzeppelin/contracts-upgradeable/token/ERC20/ERC20Upgradeable.sol\":8500:8526  Transfer(from, to, amount) */\n    tag_203:\n      mload(0x40)\n      dup1\n      swap2\n      sub\n      swap1\n      log3\n        /* \"@openzeppelin/contracts-upgradeable/token/ERC20/ERC20Upgradeable.sol\":8537:8574  _afterTokenTransfer(from, to, amount) */\n      tag_108\n        /* \"@openzeppelin/contracts-upgradeable/token/ERC20/ERC20Upgradeable.sol\":2271:2430  function __ERC20_init_unchained(string memory name_, string memory symbol_) internal onlyInitializing {... */\n      jump\n        /* \"@openzeppelin/contracts-upgradeable/access/OwnableUpgradeable.sol\":1599:1729  function _checkOwner() internal view virtual {... */\n    tag_132:\n        /* \"@openzeppelin/contracts-upgradeable/access/OwnableUpgradeable.sol\":1513:1519  _owner */\n      and(sub(shl(0xa0, 0x01), 0x01), sload(0x33))\n        /* \"@openzeppelin/contracts-upgradeable/utils/ContextUpgradeable.sol\":929:939  msg.sender */\n      caller\n        /* \"@openzeppelin/contracts-upgradeable/access/OwnableUpgradeable.sol\":1662:1685  owner() == _msgSender() */\n      eq\n        /* \"@openzeppelin/contracts-upgradeable/access/OwnableUpgradeable.sol\":1654:1722  require(owner() == _msgSender(), \"Ownable: caller is not the owner\") */\n      tag_140\n      jumpi\n      mload(0x40)\n      shl(0xe5, 0x461bcd)\n      dup2\n      mstore\n        /* \"#utility.yul\":9078:9080   */\n      0x20\n        /* \"@openzeppelin/contracts-upgradeable/access/OwnableUpgradeable.sol\":1654:1722  require(owner() == _msgSender(), \"Ownable: caller is not the owner\") */\n      0x04\n      dup3\n      add\n        /* \"#utility.yul\":9060:9081   */\n      dup2\n      swap1\n      mstore\n        /* \"#utility.yul\":9097:9115   */\n      0x24\n      dup3\n      add\n        /* \"#utility.yul\":9090:9120   */\n      mstore\n        /* \"#utility.yul\":9156:9190   */\n      0x4f776e61626c653a2063616c6c6572206973206e6f7420746865206f776e6572\n        /* \"#utility.yul\":9136:9154   */\n      0x44\n      dup3\n      add\n        /* \"#utility.yul\":9129:9191   */\n      mstore\n        /* \"#utility.yul\":9208:9226   */\n      0x64\n      add\n        /* \"@openzeppelin/contracts-upgradeable/access/OwnableUpgradeable.sol\":1654:1722  require(owner() == _msgSender(), \"Ownable: caller is not the owner\") */\n      tag_100\n        /* \"#utility.yul\":8876:9232   */\n      jump\n        /* \"@openzeppelin/contracts-upgradeable/token/ERC20/ERC20Upgradeable.sol\":8857:9392  function _mint(address account, uint256 amount) internal virtual {... */\n    tag_135:\n      sub(shl(0xa0, 0x01), 0x01)\n        /* \"@openzeppelin/contracts-upgradeable/token/ERC20/ERC20Upgradeable.sol\":8940:8961  account != address(0) */\n      dup3\n      and\n        /* \"@openzeppelin/contracts-upgradeable/token/ERC20/ERC20Upgradeable.sol\":8932:8997  require(account != address(0), \"ERC20: mint to the zero address\") */\n      tag_213\n      jumpi\n      mload(0x40)\n      shl(0xe5, 0x461bcd)\n      dup2\n      mstore\n        /* \"#utility.yul\":9439:9441   */\n      0x20\n        /* \"@openzeppelin/contracts-upgradeable/token/ERC20/ERC20Upgradeable.sol\":8932:8997  require(account != address(0), \"ERC20: mint to the zero address\") */\n      0x04\n      dup3\n      add\n        /* \"#utility.yul\":9421:9442   */\n      mstore\n        /* \"#utility.yul\":9478:9480   */\n      0x1f\n        /* \"#utility.yul\":9458:9476   */\n      0x24\n      dup3\n      add\n        /* \"#utility.yul\":9451:9481   */\n      mstore\n        /* \"#utility.yul\":9517:9550   */\n      0x45524332303a206d696e7420746f20746865207a65726f206164647265737300\n        /* \"#utility.yul\":9497:9515   */\n      0x44\n      dup3\n      add\n        /* \"#utility.yul\":9490:9551   */\n      mstore\n        /* \"#utility.yul\":9568:9586   */\n      0x64\n      add\n        /* \"@openzeppelin/contracts-upgradeable/token/ERC20/ERC20Upgradeable.sol\":8932:8997  require(account != address(0), \"ERC20: mint to the zero address\") */\n      tag_100\n        /* \"#utility.yul\":9237:9592   */\n      jump\n        /* \"@openzeppelin/contracts-upgradeable/token/ERC20/ERC20Upgradeable.sol\":8932:8997  require(account != address(0), \"ERC20: mint to the zero address\") */\n    tag_213:\n        /* \"@openzeppelin/contracts-upgradeable/token/ERC20/ERC20Upgradeable.sol\":9084:9090  amount */\n      dup1\n        /* \"@openzeppelin/contracts-upgradeable/token/ERC20/ERC20Upgradeable.sol\":9068:9080  _totalSupply */\n      0x67\n      0x00\n        /* \"@openzeppelin/contracts-upgradeable/token/ERC20/ERC20Upgradeable.sol\":9068:9090  _totalSupply += amount */\n      dup3\n      dup3\n      sload\n      tag_217\n      swap2\n      swap1\n      tag_129\n      jump\t// in\n    tag_217:\n      swap1\n      swap2\n      sstore\n      pop\n      pop\n      sub(shl(0xa0, 0x01), 0x01)\n        /* \"@openzeppelin/contracts-upgradeable/token/ERC20/ERC20Upgradeable.sol\":9236:9254  _balances[account] */\n      dup3\n      and\n      0x00\n      dup2\n      dup2\n      mstore\n        /* \"@openzeppelin/contracts-upgradeable/token/ERC20/ERC20Upgradeable.sol\":9236:9245  _balances */\n      0x65\n        /* \"@openzeppelin/contracts-upgradeable/token/ERC20/ERC20Upgradeable.sol\":9236:9254  _balances[account] */\n      0x20\n      swap1\n      dup2\n      mstore\n      0x40\n      dup1\n      dup4\n      keccak256\n        /* \"@openzeppelin/contracts-upgradeable/token/ERC20/ERC20Upgradeable.sol\":9236:9264  _balances[account] += amount */\n      dup1\n      sload\n      dup7\n      add\n      swap1\n      sstore\n        /* \"@openzeppelin/contracts-upgradeable/token/ERC20/ERC20Upgradeable.sol\":9289:9326  Transfer(address(0), account, amount) */\n      mload\n        /* \"#utility.yul\":2820:2845   */\n      dup5\n      dup2\n      mstore\n        /* \"@openzeppelin/contracts-upgradeable/token/ERC20/ERC20Upgradeable.sol\":9289:9326  Transfer(address(0), account, amount) */\n      0xddf252ad1be2c89b69c2b068fc378daa952ba7f163c4a11628f55a4df523b3ef\n      swap2\n        /* \"#utility.yul\":2793:2811   */\n      add\n        /* \"@openzeppelin/contracts-upgradeable/token/ERC20/ERC20Upgradeable.sol\":9289:9326  Transfer(address(0), account, amount) */\n      mload(0x40)\n      dup1\n      swap2\n      sub\n      swap1\n      log3\n        /* \"src/project/ProjectToken.sol\":539:642  function mint(address account, uint256 amount) public onlyOwner {... */\n      pop\n      pop\n      jump\t// out\n        /* \"@openzeppelin/contracts-upgradeable/token/ERC20/ERC20Upgradeable.sol\":2271:2430  function __ERC20_init_unchained(string memory name_, string memory symbol_) internal onlyInitializing {... */\n    tag_173:\n        /* \"@openzeppelin/contracts-upgradeable/proxy/utils/Initializable.sol\":5374:5387  _initializing */\n      sload(0x00)\n      0x0100\n      swap1\n      div\n      0xff\n      and\n        /* \"@openzeppelin/contracts-upgradeable/proxy/utils/Initializable.sol\":5366:5435  require(_initializing, \"Initializable: contract is not initializing\") */\n      tag_221\n      jumpi\n      mload(0x40)\n      shl(0xe5, 0x461bcd)\n      dup2\n      mstore\n      0x04\n      add\n      tag_100\n      swap1\n      tag_170\n      jump\t// in\n    tag_221:\n        /* \"@openzeppelin/contracts-upgradeable/token/ERC20/ERC20Upgradeable.sol\":2383:2388  _name */\n      0x68\n        /* \"@openzeppelin/contracts-upgradeable/token/ERC20/ERC20Upgradeable.sol\":2383:2396  _name = name_ */\n      tag_224\n        /* \"@openzeppelin/contracts-upgradeable/token/ERC20/ERC20Upgradeable.sol\":2391:2396  name_ */\n      dup4\n        /* \"@openzeppelin/contracts-upgradeable/token/ERC20/ERC20Upgradeable.sol\":2383:2388  _name */\n      dup3\n        /* \"@openzeppelin/contracts-upgradeable/token/ERC20/ERC20Upgradeable.sol\":2383:2396  _name = name_ */\n      tag_225\n      jump\t// in\n    tag_224:\n      pop\n        /* \"@openzeppelin/contracts-upgradeable/token/ERC20/ERC20Upgradeable.sol\":2406:2413  _symbol */\n      0x69\n        /* \"@openzeppelin/contracts-upgradeable/token/ERC20/ERC20Upgradeable.sol\":2406:2423  _symbol = symbol_ */\n      tag_226\n        /* \"@openzeppelin/contracts-upgradeable/token/ERC20/ERC20Upgradeable.sol\":2416:2423  symbol_ */\n      dup3\n        /* \"@openzeppelin/contracts-upgradeable/token/ERC20/ERC20Upgradeable.sol\":2406:2413  _symbol */\n      dup3\n        /* \"@openzeppelin/contracts-upgradeable/token/ERC20/ERC20Upgradeable.sol\":2406:2423  _symbol = symbol_ */\n      tag_225\n      jump\t// in\n    tag_226:\n      pop\n        /* \"@openzeppelin/contracts-upgradeable/token/ERC20/ERC20Upgradeable.sol\":2271:2430  function __ERC20_init_unchained(string memory name_, string memory symbol_) internal onlyInitializing {... */\n      pop\n      pop\n      jump\t// out\n        /* \"#utility.yul\":14:562   */\n    tag_25:\n        /* \"#utility.yul\":126:130   */\n      0x00\n        /* \"#utility.yul\":155:157   */\n      0x20\n        /* \"#utility.yul\":184:186   */\n      dup1\n        /* \"#utility.yul\":173:182   */\n      dup4\n        /* \"#utility.yul\":166:187   */\n      mstore\n        /* \"#utility.yul\":216:222   */\n      dup4\n        /* \"#utility.yul\":210:223   */\n      mload\n        /* \"#utility.yul\":259:265   */\n      dup1\n        /* \"#utility.yul\":254:256   */\n      dup3\n        /* \"#utility.yul\":243:252   */\n      dup6\n        /* \"#utility.yul\":239:257   */\n      add\n        /* \"#utility.yul\":232:266   */\n      mstore\n        /* \"#utility.yul\":284:285   */\n      0x00\n        /* \"#utility.yul\":294:434   */\n    tag_237:\n        /* \"#utility.yul\":308:314   */\n      dup2\n        /* \"#utility.yul\":305:306   */\n      dup2\n        /* \"#utility.yul\":302:315   */\n      lt\n        /* \"#utility.yul\":294:434   */\n      iszero\n      tag_239\n      jumpi\n        /* \"#utility.yul\":403:417   */\n      dup6\n      dup2\n      add\n        /* \"#utility.yul\":399:422   */\n      dup4\n      add\n        /* \"#utility.yul\":393:423   */\n      mload\n        /* \"#utility.yul\":369:386   */\n      dup6\n      dup3\n      add\n        /* \"#utility.yul\":388:390   */\n      0x40\n        /* \"#utility.yul\":365:391   */\n      add\n        /* \"#utility.yul\":358:424   */\n      mstore\n        /* \"#utility.yul\":323:333   */\n      dup3\n      add\n        /* \"#utility.yul\":294:434   */\n      jump(tag_237)\n    tag_239:\n        /* \"#utility.yul\":298:301   */\n      pop\n        /* \"#utility.yul\":483:484   */\n      0x00\n        /* \"#utility.yul\":478:480   */\n      0x40\n        /* \"#utility.yul\":469:475   */\n      dup3\n        /* \"#utility.yul\":458:467   */\n      dup7\n        /* \"#utility.yul\":454:476   */\n      add\n        /* \"#utility.yul\":450:481   */\n      add\n        /* \"#utility.yul\":443:485   */\n      mstore\n        /* \"#utility.yul\":553:555   */\n      0x40\n        /* \"#utility.yul\":546:548   */\n      0x1f\n        /* \"#utility.yul\":542:549   */\n      not\n        /* \"#utility.yul\":537:539   */\n      0x1f\n        /* \"#utility.yul\":529:535   */\n      dup4\n        /* \"#utility.yul\":525:540   */\n      add\n        /* \"#utility.yul\":521:550   */\n      and\n        /* \"#utility.yul\":510:519   */\n      dup6\n        /* \"#utility.yul\":506:551   */\n      add\n        /* \"#utility.yul\":502:556   */\n      add\n        /* \"#utility.yul\":494:556   */\n      swap3\n      pop\n      pop\n      pop\n        /* \"#utility.yul\":14:562   */\n      swap3\n      swap2\n      pop\n      pop\n      jump\t// out\n        /* \"#utility.yul\":567:694   */\n    tag_229:\n        /* \"#utility.yul\":628:638   */\n      0x4e487b71\n        /* \"#utility.yul\":623:626   */\n      0xe0\n        /* \"#utility.yul\":619:639   */\n      shl\n        /* \"#utility.yul\":616:617   */\n      0x00\n        /* \"#utility.yul\":609:640   */\n      mstore\n        /* \"#utility.yul\":659:663   */\n      0x41\n        /* \"#utility.yul\":656:657   */\n      0x04\n        /* \"#utility.yul\":649:664   */\n      mstore\n        /* \"#utility.yul\":683:687   */\n      0x24\n        /* \"#utility.yul\":680:681   */\n      0x00\n        /* \"#utility.yul\":673:688   */\n      revert\n        /* \"#utility.yul\":699:1418   */\n    tag_230:\n        /* \"#utility.yul\":742:747   */\n      0x00\n        /* \"#utility.yul\":795:798   */\n      dup3\n        /* \"#utility.yul\":788:792   */\n      0x1f\n        /* \"#utility.yul\":780:786   */\n      dup4\n        /* \"#utility.yul\":776:793   */\n      add\n        /* \"#utility.yul\":772:799   */\n      slt\n        /* \"#utility.yul\":762:817   */\n      tag_242\n      jumpi\n        /* \"#utility.yul\":813:814   */\n      0x00\n        /* \"#utility.yul\":810:811   */\n      dup1\n        /* \"#utility.yul\":803:815   */\n      revert\n        /* \"#utility.yul\":762:817   */\n    tag_242:\n        /* \"#utility.yul\":849:855   */\n      dup2\n        /* \"#utility.yul\":836:856   */\n      calldataload\n        /* \"#utility.yul\":875:893   */\n      0xffffffffffffffff\n        /* \"#utility.yul\":912:914   */\n      dup1\n        /* \"#utility.yul\":908:910   */\n      dup3\n        /* \"#utility.yul\":905:915   */\n      gt\n        /* \"#utility.yul\":902:938   */\n      iszero\n      tag_244\n      jumpi\n        /* \"#utility.yul\":918:936   */\n      tag_244\n      tag_229\n      jump\t// in\n    tag_244:\n        /* \"#utility.yul\":993:995   */\n      0x40\n        /* \"#utility.yul\":987:996   */\n      mload\n        /* \"#utility.yul\":961:963   */\n      0x1f\n        /* \"#utility.yul\":1047:1060   */\n      dup4\n      add\n      not(0x1f)\n        /* \"#utility.yul\":1043:1065   */\n      swap1\n      dup2\n      and\n        /* \"#utility.yul\":1067:1069   */\n      0x3f\n        /* \"#utility.yul\":1039:1070   */\n      add\n        /* \"#utility.yul\":1035:1075   */\n      and\n        /* \"#utility.yul\":1023:1076   */\n      dup2\n      add\n      swap1\n        /* \"#utility.yul\":1091:1109   */\n      dup3\n      dup3\n      gt\n        /* \"#utility.yul\":1111:1133   */\n      dup2\n      dup4\n      lt\n        /* \"#utility.yul\":1088:1134   */\n      or\n        /* \"#utility.yul\":1085:1157   */\n      iszero\n      tag_246\n      jumpi\n        /* \"#utility.yul\":1137:1155   */\n      tag_246\n      tag_229\n      jump\t// in\n    tag_246:\n        /* \"#utility.yul\":1177:1187   */\n      dup2\n        /* \"#utility.yul\":1173:1175   */\n      0x40\n        /* \"#utility.yul\":1166:1188   */\n      mstore\n        /* \"#utility.yul\":1212:1214   */\n      dup4\n        /* \"#utility.yul\":1204:1210   */\n      dup2\n        /* \"#utility.yul\":1197:1215   */\n      mstore\n        /* \"#utility.yul\":1258:1261   */\n      dup7\n        /* \"#utility.yul\":1251:1255   */\n      0x20\n        /* \"#utility.yul\":1246:1248   */\n      dup6\n        /* \"#utility.yul\":1238:1244   */\n      dup9\n        /* \"#utility.yul\":1234:1249   */\n      add\n        /* \"#utility.yul\":1230:1256   */\n      add\n        /* \"#utility.yul\":1227:1262   */\n      gt\n        /* \"#utility.yul\":1224:1279   */\n      iszero\n      tag_247\n      jumpi\n        /* \"#utility.yul\":1275:1276   */\n      0x00\n        /* \"#utility.yul\":1272:1273   */\n      dup1\n        /* \"#utility.yul\":1265:1277   */\n      revert\n        /* \"#utility.yul\":1224:1279   */\n    tag_247:\n        /* \"#utility.yul\":1339:1341   */\n      dup4\n        /* \"#utility.yul\":1332:1336   */\n      0x20\n        /* \"#utility.yul\":1324:1330   */\n      dup8\n        /* \"#utility.yul\":1320:1337   */\n      add\n        /* \"#utility.yul\":1313:1317   */\n      0x20\n        /* \"#utility.yul\":1305:1311   */\n      dup4\n        /* \"#utility.yul\":1301:1318   */\n      add\n        /* \"#utility.yul\":1288:1342   */\n      calldatacopy\n        /* \"#utility.yul\":1386:1387   */\n      0x00\n        /* \"#utility.yul\":1379:1383   */\n      0x20\n        /* \"#utility.yul\":1374:1376   */\n      dup6\n        /* \"#utility.yul\":1366:1372   */\n      dup4\n        /* \"#utility.yul\":1362:1377   */\n      add\n        /* \"#utility.yul\":1358:1384   */\n      add\n        /* \"#utility.yul\":1351:1388   */\n      mstore\n        /* \"#utility.yul\":1406:1412   */\n      dup1\n        /* \"#utility.yul\":1397:1412   */\n      swap5\n      pop\n      pop\n      pop\n      pop\n      pop\n        /* \"#utility.yul\":699:1418   */\n      swap3\n      swap2\n      pop\n      pop\n      jump\t// out\n        /* \"#utility.yul\":1423:1596   */\n    tag_231:\n        /* \"#utility.yul\":1491:1511   */\n      dup1\n      calldataload\n      sub(shl(0xa0, 0x01), 0x01)\n        /* \"#utility.yul\":1540:1571   */\n      dup2\n      and\n        /* \"#utility.yul\":1530:1572   */\n      dup2\n      eq\n        /* \"#utility.yul\":1520:1590   */\n      tag_249\n      jumpi\n        /* \"#utility.yul\":1586:1587   */\n      0x00\n        /* \"#utility.yul\":1583:1584   */\n      dup1\n        /* \"#utility.yul\":1576:1588   */\n      revert\n        /* \"#utility.yul\":1520:1590   */\n    tag_249:\n        /* \"#utility.yul\":1423:1596   */\n      swap2\n      swap1\n      pop\n      jump\t// out\n        /* \"#utility.yul\":1601:2218   */\n    tag_28:\n        /* \"#utility.yul\":1698:1704   */\n      0x00\n        /* \"#utility.yul\":1706:1712   */\n      dup1\n        /* \"#utility.yul\":1714:1720   */\n      0x00\n        /* \"#utility.yul\":1767:1769   */\n      0x60\n        /* \"#utility.yul\":1755:1764   */\n      dup5\n        /* \"#utility.yul\":1746:1753   */\n      dup7\n        /* \"#utility.yul\":1742:1765   */\n      sub\n        /* \"#utility.yul\":1738:1770   */\n      slt\n        /* \"#utility.yul\":1735:1787   */\n      iszero\n      tag_251\n      jumpi\n        /* \"#utility.yul\":1783:1784   */\n      0x00\n        /* \"#utility.yul\":1780:1781   */\n      dup1\n        /* \"#utility.yul\":1773:1785   */\n      revert\n        /* \"#utility.yul\":1735:1787   */\n    tag_251:\n        /* \"#utility.yul\":1823:1832   */\n      dup4\n        /* \"#utility.yul\":1810:1833   */\n      calldataload\n        /* \"#utility.yul\":1852:1870   */\n      0xffffffffffffffff\n        /* \"#utility.yul\":1893:1895   */\n      dup1\n        /* \"#utility.yul\":1885:1891   */\n      dup3\n        /* \"#utility.yul\":1882:1896   */\n      gt\n        /* \"#utility.yul\":1879:1913   */\n      iszero\n      tag_252\n      jumpi\n        /* \"#utility.yul\":1909:1910   */\n      0x00\n        /* \"#utility.yul\":1906:1907   */\n      dup1\n        /* \"#utility.yul\":1899:1911   */\n      revert\n        /* \"#utility.yul\":1879:1913   */\n    tag_252:\n        /* \"#utility.yul\":1932:1982   */\n      tag_253\n        /* \"#utility.yul\":1974:1981   */\n      dup8\n        /* \"#utility.yul\":1965:1971   */\n      dup4\n        /* \"#utility.yul\":1954:1963   */\n      dup9\n        /* \"#utility.yul\":1950:1972   */\n      add\n        /* \"#utility.yul\":1932:1982   */\n      tag_230\n      jump\t// in\n    tag_253:\n        /* \"#utility.yul\":1922:1982   */\n      swap5\n      pop\n        /* \"#utility.yul\":2035:2037   */\n      0x20\n        /* \"#utility.yul\":2024:2033   */\n      dup7\n        /* \"#utility.yul\":2020:2038   */\n      add\n        /* \"#utility.yul\":2007:2039   */\n      calldataload\n        /* \"#utility.yul\":1991:2039   */\n      swap2\n      pop\n        /* \"#utility.yul\":2064:2066   */\n      dup1\n        /* \"#utility.yul\":2054:2062   */\n      dup3\n        /* \"#utility.yul\":2051:2067   */\n      gt\n        /* \"#utility.yul\":2048:2084   */\n      iszero\n      tag_254\n      jumpi\n        /* \"#utility.yul\":2080:2081   */\n      0x00\n        /* \"#utility.yul\":2077:2078   */\n      dup1\n        /* \"#utility.yul\":2070:2082   */\n      revert\n        /* \"#utility.yul\":2048:2084   */\n    tag_254:\n      pop\n        /* \"#utility.yul\":2103:2155   */\n      tag_255\n        /* \"#utility.yul\":2147:2154   */\n      dup7\n        /* \"#utility.yul\":2136:2144   */\n      dup3\n        /* \"#utility.yul\":2125:2134   */\n      dup8\n        /* \"#utility.yul\":2121:2145   */\n      add\n        /* \"#utility.yul\":2103:2155   */\n      tag_230\n      jump\t// in\n    tag_255:\n        /* \"#utility.yul\":2093:2155   */\n      swap3\n      pop\n      pop\n        /* \"#utility.yul\":2174:2212   */\n      tag_256\n        /* \"#utility.yul\":2208:2210   */\n      0x40\n        /* \"#utility.yul\":2197:2206   */\n      dup6\n        /* \"#utility.yul\":2193:2211   */\n      add\n        /* \"#utility.yul\":2174:2212   */\n      tag_231\n      jump\t// in\n    tag_256:\n        /* \"#utility.yul\":2164:2212   */\n      swap1\n      pop\n        /* \"#utility.yul\":1601:2218   */\n      swap3\n      pop\n      swap3\n      pop\n      swap3\n      jump\t// out\n        /* \"#utility.yul\":2223:2477   */\n    tag_32:\n        /* \"#utility.yul\":2291:2297   */\n      0x00\n        /* \"#utility.yul\":2299:2305   */\n      dup1\n        /* \"#utility.yul\":2352:2354   */\n      0x40\n        /* \"#utility.yul\":2340:2349   */\n      dup4\n        /* \"#utility.yul\":2331:2338   */\n      dup6\n        /* \"#utility.yul\":2327:2350   */\n      sub\n        /* \"#utility.yul\":2323:2355   */\n      slt\n        /* \"#utility.yul\":2320:2372   */\n      iszero\n      tag_258\n      jumpi\n        /* \"#utility.yul\":2368:2369   */\n      0x00\n        /* \"#utility.yul\":2365:2366   */\n      dup1\n        /* \"#utility.yul\":2358:2370   */\n      revert\n        /* \"#utility.yul\":2320:2372   */\n    tag_258:\n        /* \"#utility.yul\":2391:2420   */\n      tag_259\n        /* \"#utility.yul\":2410:2419   */\n      dup4\n        /* \"#utility.yul\":2391:2420   */\n      tag_231\n      jump\t// in\n    tag_259:\n        /* \"#utility.yul\":2381:2420   */\n      swap5\n        /* \"#utility.yul\":2467:2469   */\n      0x20\n        /* \"#utility.yul\":2452:2470   */\n      swap4\n      swap1\n      swap4\n      add\n        /* \"#utility.yul\":2439:2471   */\n      calldataload\n      swap4\n      pop\n      pop\n      pop\n        /* \"#utility.yul\":2223:2477   */\n      jump\t// out\n        /* \"#utility.yul\":2856:3184   */\n    tag_42:\n        /* \"#utility.yul\":2933:2939   */\n      0x00\n        /* \"#utility.yul\":2941:2947   */\n      dup1\n        /* \"#utility.yul\":2949:2955   */\n      0x00\n        /* \"#utility.yul\":3002:3004   */\n      0x60\n        /* \"#utility.yul\":2990:2999   */\n      dup5\n        /* \"#utility.yul\":2981:2988   */\n      dup7\n        /* \"#utility.yul\":2977:3000   */\n      sub\n        /* \"#utility.yul\":2973:3005   */\n      slt\n        /* \"#utility.yul\":2970:3022   */\n      iszero\n      tag_263\n      jumpi\n        /* \"#utility.yul\":3018:3019   */\n      0x00\n        /* \"#utility.yul\":3015:3016   */\n      dup1\n        /* \"#utility.yul\":3008:3020   */\n      revert\n        /* \"#utility.yul\":2970:3022   */\n    tag_263:\n        /* \"#utility.yul\":3041:3070   */\n      tag_264\n        /* \"#utility.yul\":3060:3069   */\n      dup5\n        /* \"#utility.yul\":3041:3070   */\n      tag_231\n      jump\t// in\n    tag_264:\n        /* \"#utility.yul\":3031:3070   */\n      swap3\n      pop\n        /* \"#utility.yul\":3089:3127   */\n      tag_265\n        /* \"#utility.yul\":3123:3125   */\n      0x20\n        /* \"#utility.yul\":3112:3121   */\n      dup6\n        /* \"#utility.yul\":3108:3126   */\n      add\n        /* \"#utility.yul\":3089:3127   */\n      tag_231\n      jump\t// in\n    tag_265:\n        /* \"#utility.yul\":3079:3127   */\n      swap2\n      pop\n        /* \"#utility.yul\":3174:3176   */\n      0x40\n        /* \"#utility.yul\":3163:3172   */\n      dup5\n        /* \"#utility.yul\":3159:3177   */\n      add\n        /* \"#utility.yul\":3146:3178   */\n      calldataload\n        /* \"#utility.yul\":3136:3178   */\n      swap1\n      pop\n        /* \"#utility.yul\":2856:3184   */\n      swap3\n      pop\n      swap3\n      pop\n      swap3\n      jump\t// out\n        /* \"#utility.yul\":3378:3564   */\n    tag_58:\n        /* \"#utility.yul\":3437:3443   */\n      0x00\n        /* \"#utility.yul\":3490:3492   */\n      0x20\n        /* \"#utility.yul\":3478:3487   */\n      dup3\n        /* \"#utility.yul\":3469:3476   */\n      dup5\n        /* \"#utility.yul\":3465:3488   */\n      sub\n        /* \"#utility.yul\":3461:3493   */\n      slt\n        /* \"#utility.yul\":3458:3510   */\n      iszero\n      tag_268\n      jumpi\n        /* \"#utility.yul\":3506:3507   */\n      0x00\n        /* \"#utility.yul\":3503:3504   */\n      dup1\n        /* \"#utility.yul\":3496:3508   */\n      revert\n        /* \"#utility.yul\":3458:3510   */\n    tag_268:\n        /* \"#utility.yul\":3529:3558   */\n      tag_269\n        /* \"#utility.yul\":3548:3557   */\n      dup3\n        /* \"#utility.yul\":3529:3558   */\n      tag_231\n      jump\t// in\n    tag_269:\n        /* \"#utility.yul\":3519:3558   */\n      swap4\n        /* \"#utility.yul\":3378:3564   */\n      swap3\n      pop\n      pop\n      pop\n      jump\t// out\n        /* \"#utility.yul\":3777:4037   */\n    tag_80:\n        /* \"#utility.yul\":3845:3851   */\n      0x00\n        /* \"#utility.yul\":3853:3859   */\n      dup1\n        /* \"#utility.yul\":3906:3908   */\n      0x40\n        /* \"#utility.yul\":3894:3903   */\n      dup4\n        /* \"#utility.yul\":3885:3892   */\n      dup6\n        /* \"#utility.yul\":3881:3904   */\n      sub\n        /* \"#utility.yul\":3877:3909   */\n      slt\n        /* \"#utility.yul\":3874:3926   */\n      iszero\n      tag_272\n      jumpi\n        /* \"#utility.yul\":3922:3923   */\n      0x00\n        /* \"#utility.yul\":3919:3920   */\n      dup1\n        /* \"#utility.yul\":3912:3924   */\n      revert\n        /* \"#utility.yul\":3874:3926   */\n    tag_272:\n        /* \"#utility.yul\":3945:3974   */\n      tag_273\n        /* \"#utility.yul\":3964:3973   */\n      dup4\n        /* \"#utility.yul\":3945:3974   */\n      tag_231\n      jump\t// in\n    tag_273:\n        /* \"#utility.yul\":3935:3974   */\n      swap2\n      pop\n        /* \"#utility.yul\":3993:4031   */\n      tag_274\n        /* \"#utility.yul\":4027:4029   */\n      0x20\n        /* \"#utility.yul\":4016:4025   */\n      dup5\n        /* \"#utility.yul\":4012:4030   */\n      add\n        /* \"#utility.yul\":3993:4031   */\n      tag_231\n      jump\t// in\n    tag_274:\n        /* \"#utility.yul\":3983:4031   */\n      swap1\n      pop\n        /* \"#utility.yul\":3777:4037   */\n      swap3\n      pop\n      swap3\n      swap1\n      pop\n      jump\t// out\n        /* \"#utility.yul\":4042:4422   */\n    tag_88:\n        /* \"#utility.yul\":4121:4122   */\n      0x01\n        /* \"#utility.yul\":4117:4129   */\n      dup2\n      dup2\n      shr\n      swap1\n        /* \"#utility.yul\":4164:4176   */\n      dup3\n      and\n      dup1\n        /* \"#utility.yul\":4185:4246   */\n      tag_276\n      jumpi\n        /* \"#utility.yul\":4239:4243   */\n      0x7f\n        /* \"#utility.yul\":4231:4237   */\n      dup3\n        /* \"#utility.yul\":4227:4244   */\n      and\n        /* \"#utility.yul\":4217:4244   */\n      swap2\n      pop\n        /* \"#utility.yul\":4185:4246   */\n    tag_276:\n        /* \"#utility.yul\":4292:4294   */\n      0x20\n        /* \"#utility.yul\":4284:4290   */\n      dup3\n        /* \"#utility.yul\":4281:4295   */\n      lt\n        /* \"#utility.yul\":4261:4279   */\n      dup2\n        /* \"#utility.yul\":4258:4296   */\n      sub\n        /* \"#utility.yul\":4255:4416   */\n      tag_277\n      jumpi\n        /* \"#utility.yul\":4338:4348   */\n      0x4e487b71\n        /* \"#utility.yul\":4333:4336   */\n      0xe0\n        /* \"#utility.yul\":4329:4349   */\n      shl\n        /* \"#utility.yul\":4326:4327   */\n      0x00\n        /* \"#utility.yul\":4319:4350   */\n      mstore\n        /* \"#utility.yul\":4373:4377   */\n      0x22\n        /* \"#utility.yul\":4370:4371   */\n      0x04\n        /* \"#utility.yul\":4363:4378   */\n      mstore\n        /* \"#utility.yul\":4401:4405   */\n      0x24\n        /* \"#utility.yul\":4398:4399   */\n      0x00\n        /* \"#utility.yul\":4391:4406   */\n      revert\n        /* \"#utility.yul\":4255:4416   */\n    tag_277:\n      pop\n        /* \"#utility.yul\":4042:4422   */\n      swap2\n      swap1\n      pop\n      jump\t// out\n        /* \"#utility.yul\":5041:5263   */\n    tag_129:\n        /* \"#utility.yul\":5106:5115   */\n      dup1\n      dup3\n      add\n        /* \"#utility.yul\":5127:5137   */\n      dup1\n      dup3\n      gt\n        /* \"#utility.yul\":5124:5257   */\n      iszero\n      tag_111\n      jumpi\n        /* \"#utility.yul\":5179:5189   */\n      0x4e487b71\n        /* \"#utility.yul\":5174:5177   */\n      0xe0\n        /* \"#utility.yul\":5170:5190   */\n      shl\n        /* \"#utility.yul\":5167:5168   */\n      0x00\n        /* \"#utility.yul\":5160:5191   */\n      mstore\n        /* \"#utility.yul\":5214:5218   */\n      0x11\n        /* \"#utility.yul\":5211:5212   */\n      0x04\n        /* \"#utility.yul\":5204:5219   */\n      mstore\n        /* \"#utility.yul\":5242:5246   */\n      0x24\n        /* \"#utility.yul\":5239:5240   */\n      0x00\n        /* \"#utility.yul\":5232:5247   */\n      revert\n        /* \"#utility.yul\":6081:6488   */\n    tag_170:\n        /* \"#utility.yul\":6283:6285   */\n      0x20\n        /* \"#utility.yul\":6265:6286   */\n      dup1\n      dup3\n      mstore\n        /* \"#utility.yul\":6322:6324   */\n      0x2b\n        /* \"#utility.yul\":6302:6320   */\n      swap1\n      dup3\n      add\n        /* \"#utility.yul\":6295:6325   */\n      mstore\n        /* \"#utility.yul\":6361:6395   */\n      0x496e697469616c697a61626c653a20636f6e7472616374206973206e6f742069\n        /* \"#utility.yul\":6356:6358   */\n      0x40\n        /* \"#utility.yul\":6341:6359   */\n      dup3\n      add\n        /* \"#utility.yul\":6334:6396   */\n      mstore\n      shl(0xa8, 0x6e697469616c697a696e67)\n        /* \"#utility.yul\":6427:6429   */\n      0x60\n        /* \"#utility.yul\":6412:6430   */\n      dup3\n      add\n        /* \"#utility.yul\":6405:6446   */\n      mstore\n        /* \"#utility.yul\":6478:6481   */\n      0x80\n        /* \"#utility.yul\":6463:6482   */\n      add\n      swap1\n        /* \"#utility.yul\":6081:6488   */\n      jump\t// out\n        /* \"#utility.yul\":9723:10268   */\n    tag_233:\n        /* \"#utility.yul\":9825:9827   */\n      0x1f\n        /* \"#utility.yul\":9820:9823   */\n      dup3\n        /* \"#utility.yul\":9817:9828   */\n      gt\n        /* \"#utility.yul\":9814:10262   */\n      iszero\n      tag_226\n      jumpi\n        /* \"#utility.yul\":9861:9862   */\n      0x00\n        /* \"#utility.yul\":9886:9891   */\n      dup2\n        /* \"#utility.yul\":9882:9884   */\n      dup2\n        /* \"#utility.yul\":9875:9892   */\n      mstore\n        /* \"#utility.yul\":9931:9935   */\n      0x20\n        /* \"#utility.yul\":9927:9929   */\n      dup2\n        /* \"#utility.yul\":9917:9936   */\n      keccak256\n        /* \"#utility.yul\":10001:10003   */\n      0x1f\n        /* \"#utility.yul\":9989:9999   */\n      dup6\n        /* \"#utility.yul\":9985:10004   */\n      add\n        /* \"#utility.yul\":9982:9983   */\n      0x05\n        /* \"#utility.yul\":9978:10005   */\n      shr\n        /* \"#utility.yul\":9972:9976   */\n      dup2\n        /* \"#utility.yul\":9968:10006   */\n      add\n        /* \"#utility.yul\":10037:10041   */\n      0x20\n        /* \"#utility.yul\":10025:10035   */\n      dup7\n        /* \"#utility.yul\":10022:10042   */\n      lt\n        /* \"#utility.yul\":10019:10066   */\n      iszero\n      tag_296\n      jumpi\n      pop\n        /* \"#utility.yul\":10060:10064   */\n      dup1\n        /* \"#utility.yul\":10019:10066   */\n    tag_296:\n        /* \"#utility.yul\":10115:10117   */\n      0x1f\n        /* \"#utility.yul\":10110:10113   */\n      dup6\n        /* \"#utility.yul\":10106:10118   */\n      add\n        /* \"#utility.yul\":10103:10104   */\n      0x05\n        /* \"#utility.yul\":10099:10119   */\n      shr\n        /* \"#utility.yul\":10093:10097   */\n      dup3\n        /* \"#utility.yul\":10089:10120   */\n      add\n        /* \"#utility.yul\":10079:10120   */\n      swap2\n      pop\n        /* \"#utility.yul\":10170:10252   */\n    tag_297:\n        /* \"#utility.yul\":10188:10190   */\n      dup2\n        /* \"#utility.yul\":10181:10186   */\n      dup2\n        /* \"#utility.yul\":10178:10191   */\n      lt\n        /* \"#utility.yul\":10170:10252   */\n      iszero\n      tag_299\n      jumpi\n        /* \"#utility.yul\":10233:10250   */\n      dup3\n      dup2\n      sstore\n        /* \"#utility.yul\":10214:10215   */\n      0x01\n        /* \"#utility.yul\":10203:10216   */\n      add\n        /* \"#utility.yul\":10170:10252   */\n      jump(tag_297)\n    tag_299:\n        /* \"#utility.yul\":10174:10177   */\n      pop\n      pop\n      pop\n        /* \"#utility.yul\":9723:10268   */\n      pop\n      pop\n      pop\n      jump\t// out\n        /* \"#utility.yul\":10444:11796   */\n    tag_225:\n        /* \"#utility.yul\":10570:10573   */\n      dup2\n        /* \"#utility.yul\":10564:10574   */\n      mload\n        /* \"#utility.yul\":10597:10615   */\n      0xffffffffffffffff\n        /* \"#utility.yul\":10589:10595   */\n      dup2\n        /* \"#utility.yul\":10586:10616   */\n      gt\n        /* \"#utility.yul\":10583:10639   */\n      iszero\n      tag_303\n      jumpi\n        /* \"#utility.yul\":10619:10637   */\n      tag_303\n      tag_229\n      jump\t// in\n    tag_303:\n        /* \"#utility.yul\":10648:10745   */\n      tag_304\n        /* \"#utility.yul\":10738:10744   */\n      dup2\n        /* \"#utility.yul\":10698:10736   */\n      tag_305\n        /* \"#utility.yul\":10730:10734   */\n      dup5\n        /* \"#utility.yul\":10724:10735   */\n      sload\n        /* \"#utility.yul\":10698:10736   */\n      tag_88\n      jump\t// in\n    tag_305:\n        /* \"#utility.yul\":10692:10696   */\n      dup5\n        /* \"#utility.yul\":10648:10745   */\n      tag_233\n      jump\t// in\n    tag_304:\n        /* \"#utility.yul\":10800:10804   */\n      0x20\n      dup1\n        /* \"#utility.yul\":10864:10866   */\n      0x1f\n        /* \"#utility.yul\":10853:10867   */\n      dup4\n      gt\n        /* \"#utility.yul\":10881:10882   */\n      0x01\n        /* \"#utility.yul\":10876:11539   */\n      dup2\n      eq\n      tag_307\n      jumpi\n        /* \"#utility.yul\":11583:11584   */\n      0x00\n        /* \"#utility.yul\":11600:11606   */\n      dup5\n        /* \"#utility.yul\":11597:11686   */\n      iszero\n      tag_308\n      jumpi\n      pop\n        /* \"#utility.yul\":11652:11671   */\n      dup6\n      dup4\n      add\n        /* \"#utility.yul\":11646:11672   */\n      mload\n        /* \"#utility.yul\":11597:11686   */\n    tag_308:\n      not(0x00)\n        /* \"#utility.yul\":10401:10402   */\n      0x03\n        /* \"#utility.yul\":10397:10408   */\n      dup7\n      swap1\n      shl\n        /* \"#utility.yul\":10393:10417   */\n      shr\n        /* \"#utility.yul\":10389:10418   */\n      not\n        /* \"#utility.yul\":10379:10419   */\n      and\n        /* \"#utility.yul\":10425:10426   */\n      0x01\n        /* \"#utility.yul\":10421:10432   */\n      dup6\n      swap1\n      shl\n        /* \"#utility.yul\":10376:10433   */\n      or\n        /* \"#utility.yul\":11699:11780   */\n      dup6\n      sstore\n        /* \"#utility.yul\":10846:11790   */\n      jump(tag_299)\n        /* \"#utility.yul\":10876:11539   */\n    tag_307:\n        /* \"#utility.yul\":9670:9671   */\n      0x00\n        /* \"#utility.yul\":9663:9677   */\n      dup6\n      dup2\n      mstore\n        /* \"#utility.yul\":9707:9711   */\n      0x20\n        /* \"#utility.yul\":9694:9712   */\n      dup2\n      keccak256\n      not(0x1f)\n        /* \"#utility.yul\":10912:10932   */\n      dup7\n      and\n      swap2\n        /* \"#utility.yul\":11030:11266   */\n    tag_311:\n        /* \"#utility.yul\":11044:11051   */\n      dup3\n        /* \"#utility.yul\":11041:11042   */\n      dup2\n        /* \"#utility.yul\":11038:11052   */\n      lt\n        /* \"#utility.yul\":11030:11266   */\n      iszero\n      tag_313\n      jumpi\n        /* \"#utility.yul\":11133:11152   */\n      dup9\n      dup7\n      add\n        /* \"#utility.yul\":11127:11153   */\n      mload\n        /* \"#utility.yul\":11112:11154   */\n      dup3\n      sstore\n        /* \"#utility.yul\":11225:11252   */\n      swap5\n      dup5\n      add\n      swap5\n        /* \"#utility.yul\":11193:11194   */\n      0x01\n        /* \"#utility.yul\":11181:11195   */\n      swap1\n      swap2\n      add\n      swap1\n        /* \"#utility.yul\":11060:11079   */\n      dup5\n      add\n        /* \"#utility.yul\":11030:11266   */\n      jump(tag_311)\n    tag_313:\n        /* \"#utility.yul\":11034:11037   */\n      pop\n        /* \"#utility.yul\":11294:11300   */\n      dup6\n        /* \"#utility.yul\":11285:11292   */\n      dup3\n        /* \"#utility.yul\":11282:11301   */\n      lt\n        /* \"#utility.yul\":11279:11480   */\n      iszero\n      tag_314\n      jumpi\n        /* \"#utility.yul\":11355:11374   */\n      dup8\n      dup6\n      add\n        /* \"#utility.yul\":11349:11375   */\n      mload\n      not(0x00)\n        /* \"#utility.yul\":11438:11439   */\n      0x03\n        /* \"#utility.yul\":11434:11448   */\n      dup9\n      swap1\n      shl\n        /* \"#utility.yul\":11450:11453   */\n      0xf8\n        /* \"#utility.yul\":11430:11454   */\n      and\n        /* \"#utility.yul\":11426:11463   */\n      shr\n        /* \"#utility.yul\":11422:11464   */\n      not\n        /* \"#utility.yul\":11407:11465   */\n      and\n        /* \"#utility.yul\":11392:11466   */\n      dup2\n      sstore\n        /* \"#utility.yul\":11279:11480   */\n    tag_314:\n      pop\n      pop\n      pop\n      pop\n      pop\n        /* \"#utility.yul\":11526:11527   */\n      0x01\n        /* \"#utility.yul\":11510:11524   */\n      swap1\n      dup2\n      shl\n        /* \"#utility.yul\":11506:11528   */\n      add\n        /* \"#utility.yul\":11493:11529   */\n      swap1\n      sstore\n      pop\n        /* \"#utility.yul\":10444:11796   */\n      jump\t// out\n\n    auxdata: 0xa2646970667358221220a63d0f73f4511eea4a1e98fdde47555bd40c8bafbdc61032767e8255cba8bbe864736f6c63430008130033\n}\n",
				"bytecode": {
					"linkReferences": {},
					"object": "608060405234801561001057600080fd5b50610f1d806100206000396000f3fe608060405234801561001057600080fd5b50600436106101005760003560e01c806370a0823111610097578063a457c2d711610066578063a457c2d714610209578063a9059cbb1461021c578063dd62ed3e1461022f578063f2fde38b1461024257600080fd5b806370a08231146101b5578063715018a6146101de5780638da5cb5b146101e657806395d89b411461020157600080fd5b806323b872dd116100d357806323b872dd1461016d578063313ce56714610180578063395093511461018f57806340c10f19146101a257600080fd5b806306fdde0314610105578063077f224a14610123578063095ea7b31461013857806318160ddd1461015b575b600080fd5b61010d610255565b60405161011a9190610af7565b60405180910390f35b610136610131366004610c04565b6102e7565b005b61014b610146366004610c78565b61040b565b604051901515815260200161011a565b6067545b60405190815260200161011a565b61014b61017b366004610ca2565b610425565b6040516012815260200161011a565b61014b61019d366004610c78565b610449565b6101366101b0366004610c78565b61046b565b61015f6101c3366004610cde565b6001600160a01b031660009081526065602052604090205490565b610136610481565b6033546040516001600160a01b03909116815260200161011a565b61010d610495565b61014b610217366004610c78565b6104a4565b61014b61022a366004610c78565b61051f565b61015f61023d366004610d00565b61052d565b610136610250366004610cde565b610558565b60606068805461026490610d33565b80601f016020809104026020016040519081016040528092919081815260200182805461029090610d33565b80156102dd5780601f106102b2576101008083540402835291602001916102dd565b820191906000526020600020905b8154815290600101906020018083116102c057829003601f168201915b5050505050905090565b600054610100900460ff16158080156103075750600054600160ff909116105b806103215750303b158015610321575060005460ff166001145b6103895760405162461bcd60e51b815260206004820152602e60248201527f496e697469616c697a61626c653a20636f6e747261637420697320616c72656160448201526d191e481a5b9a5d1a585b1a5e995960921b60648201526084015b60405180910390fd5b6000805460ff1916600117905580156103ac576000805461ff0019166101001790555b6103b684846105d1565b6103bf82610602565b8015610405576000805461ff0019169055604051600181527f7f26b83ff96e1f2b6a682f133852f6798a09c465da95921460cefb38474024989060200160405180910390a15b50505050565b600033610419818585610654565b60019150505b92915050565b600033610433858285610778565b61043e8585856107ec565b506001949350505050565b60003361041981858561045c838361052d565b6104669190610d6d565b610654565b610473610997565b61047d82826109f1565b5050565b610489610997565b6104936000610602565b565b60606069805461026490610d33565b600033816104b2828661052d565b9050838110156105125760405162461bcd60e51b815260206004820152602560248201527f45524332303a2064656372656173656420616c6c6f77616e63652062656c6f77604482015264207a65726f60d81b6064820152608401610380565b61043e8286868403610654565b6000336104198185856107ec565b6001600160a01b03918216600090815260666020908152604080832093909416825291909152205490565b610560610997565b6001600160a01b0381166105c55760405162461bcd60e51b815260206004820152602660248201527f4f776e61626c653a206e6577206f776e657220697320746865207a65726f206160448201526564647265737360d01b6064820152608401610380565b6105ce81610602565b50565b600054610100900460ff166105f85760405162461bcd60e51b815260040161038090610d8e565b61047d8282610ab2565b603380546001600160a01b038381166001600160a01b0319831681179093556040519116919082907f8be0079c531659141344cd1fd0a4f28419497f9722a3daafe3b4186f6b6457e090600090a35050565b6001600160a01b0383166106b65760405162461bcd60e51b8152602060048201526024808201527f45524332303a20617070726f76652066726f6d20746865207a65726f206164646044820152637265737360e01b6064820152608401610380565b6001600160a01b0382166107175760405162461bcd60e51b815260206004820152602260248201527f45524332303a20617070726f766520746f20746865207a65726f206164647265604482015261737360f01b6064820152608401610380565b6001600160a01b0383811660008181526066602090815260408083209487168084529482529182902085905590518481527f8c5be1e5ebec7d5bd14f71427d1e84f3dd0314c0f7b2291e5b200ac8c7c3b925910160405180910390a3505050565b6000610784848461052d565b9050600019811461040557818110156107df5760405162461bcd60e51b815260206004820152601d60248201527f45524332303a20696e73756666696369656e7420616c6c6f77616e63650000006044820152606401610380565b6104058484848403610654565b6001600160a01b0383166108505760405162461bcd60e51b815260206004820152602560248201527f45524332303a207472616e736665722066726f6d20746865207a65726f206164604482015264647265737360d81b6064820152608401610380565b6001600160a01b0382166108b25760405162461bcd60e51b815260206004820152602360248201527f45524332303a207472616e7366657220746f20746865207a65726f206164647260448201526265737360e81b6064820152608401610380565b6001600160a01b0383166000908152606560205260409020548181101561092a5760405162461bcd60e51b815260206004820152602660248201527f45524332303a207472616e7366657220616d6f756e7420657863656564732062604482015265616c616e636560d01b6064820152608401610380565b6001600160a01b0380851660008181526065602052604080822086860390559286168082529083902080548601905591517fddf252ad1be2c89b69c2b068fc378daa952ba7f163c4a11628f55a4df523b3ef9061098a9086815260200190565b60405180910390a3610405565b6033546001600160a01b031633146104935760405162461bcd60e51b815260206004820181905260248201527f4f776e61626c653a2063616c6c6572206973206e6f7420746865206f776e65726044820152606401610380565b6001600160a01b038216610a475760405162461bcd60e51b815260206004820152601f60248201527f45524332303a206d696e7420746f20746865207a65726f2061646472657373006044820152606401610380565b8060676000828254610a599190610d6d565b90915550506001600160a01b0382166000818152606560209081526040808320805486019055518481527fddf252ad1be2c89b69c2b068fc378daa952ba7f163c4a11628f55a4df523b3ef910160405180910390a35050565b600054610100900460ff16610ad95760405162461bcd60e51b815260040161038090610d8e565b6068610ae58382610e27565b506069610af28282610e27565b505050565b600060208083528351808285015260005b81811015610b2457858101830151858201604001528201610b08565b506000604082860101526040601f19601f8301168501019250505092915050565b634e487b7160e01b600052604160045260246000fd5b600082601f830112610b6c57600080fd5b813567ffffffffffffffff80821115610b8757610b87610b45565b604051601f8301601f19908116603f01168101908282118183101715610baf57610baf610b45565b81604052838152866020858801011115610bc857600080fd5b836020870160208301376000602085830101528094505050505092915050565b80356001600160a01b0381168114610bff57600080fd5b919050565b600080600060608486031215610c1957600080fd5b833567ffffffffffffffff80821115610c3157600080fd5b610c3d87838801610b5b565b94506020860135915080821115610c5357600080fd5b50610c6086828701610b5b565b925050610c6f60408501610be8565b90509250925092565b60008060408385031215610c8b57600080fd5b610c9483610be8565b946020939093013593505050565b600080600060608486031215610cb757600080fd5b610cc084610be8565b9250610cce60208501610be8565b9150604084013590509250925092565b600060208284031215610cf057600080fd5b610cf982610be8565b9392505050565b60008060408385031215610d1357600080fd5b610d1c83610be8565b9150610d2a60208401610be8565b90509250929050565b600181811c90821680610d4757607f821691505b602082108103610d6757634e487b7160e01b600052602260045260246000fd5b50919050565b8082018082111561041f57634e487b7160e01b600052601160045260246000fd5b6020808252602b908201527f496e697469616c697a61626c653a20636f6e7472616374206973206e6f74206960408201526a6e697469616c697a696e6760a81b606082015260800190565b601f821115610af257600081815260208120601f850160051c81016020861015610e005750805b601f850160051c820191505b81811015610e1f57828155600101610e0c565b505050505050565b815167ffffffffffffffff811115610e4157610e41610b45565b610e5581610e4f8454610d33565b84610dd9565b602080601f831160018114610e8a5760008415610e725750858301515b600019600386901b1c1916600185901b178555610e1f565b600085815260208120601f198616915b82811015610eb957888601518255948401946001909101908401610e9a565b5085821015610ed75787850151600019600388901b60f8161c191681555b5050505050600190811b0190555056fea2646970667358221220a63d0f73f4511eea4a1e98fdde47555bd40c8bafbdc61032767e8255cba8bbe864736f6c63430008130033",
					"opcodes": "PUSH1 0x80 PUSH1 0x40 MSTORE CALLVALUE DUP1 ISZERO PUSH2 0x10 JUMPI PUSH1 0x0 DUP1 REVERT JUMPDEST POP PUSH2 0xF1D DUP1 PUSH2 0x20 PUSH1 0x0 CODECOPY PUSH1 0x0 RETURN INVALID PUSH1 0x80 PUSH1 0x40 MSTORE CALLVALUE DUP1 ISZERO PUSH2 0x10 JUMPI PUSH1 0x0 DUP1 REVERT JUMPDEST POP PUSH1 0x4 CALLDATASIZE LT PUSH2 0x100 JUMPI PUSH1 0x0 CALLDATALOAD PUSH1 0xE0 SHR DUP1 PUSH4 0x70A08231 GT PUSH2 0x97 JUMPI DUP1 PUSH4 0xA457C2D7 GT PUSH2 0x66 JUMPI DUP1 PUSH4 0xA457C2D7 EQ PUSH2 0x209 JUMPI DUP1 PUSH4 0xA9059CBB EQ PUSH2 0x21C JUMPI DUP1 PUSH4 0xDD62ED3E EQ PUSH2 0x22F JUMPI DUP1 PUSH4 0xF2FDE38B EQ PUSH2 0x242 JUMPI PUSH1 0x0 DUP1 REVERT JUMPDEST DUP1 PUSH4 0x70A08231 EQ PUSH2 0x1B5 JUMPI DUP1 PUSH4 0x715018A6 EQ PUSH2 0x1DE JUMPI DUP1 PUSH4 0x8DA5CB5B EQ PUSH2 0x1E6 JUMPI DUP1 PUSH4 0x95D89B41 EQ PUSH2 0x201 JUMPI PUSH1 0x0 DUP1 REVERT JUMPDEST DUP1 PUSH4 0x23B872DD GT PUSH2 0xD3 JUMPI DUP1 PUSH4 0x23B872DD EQ PUSH2 0x16D JUMPI DUP1 PUSH4 0x313CE567 EQ PUSH2 0x180 JUMPI DUP1 PUSH4 0x39509351 EQ PUSH2 0x18F JUMPI DUP1 PUSH4 0x40C10F19 EQ PUSH2 0x1A2 JUMPI PUSH1 0x0 DUP1 REVERT JUMPDEST DUP1 PUSH4 0x6FDDE03 EQ PUSH2 0x105 JUMPI DUP1 PUSH4 0x77F224A EQ PUSH2 0x123 JUMPI DUP1 PUSH4 0x95EA7B3 EQ PUSH2 0x138 JUMPI DUP1 PUSH4 0x18160DDD EQ PUSH2 0x15B JUMPI JUMPDEST PUSH1 0x0 DUP1 REVERT JUMPDEST PUSH2 0x10D PUSH2 0x255 JUMP JUMPDEST PUSH1 0x40 MLOAD PUSH2 0x11A SWAP2 SWAP1 PUSH2 0xAF7 JUMP JUMPDEST PUSH1 0x40 MLOAD DUP1 SWAP2 SUB SWAP1 RETURN JUMPDEST PUSH2 0x136 PUSH2 0x131 CALLDATASIZE PUSH1 0x4 PUSH2 0xC04 JUMP JUMPDEST PUSH2 0x2E7 JUMP JUMPDEST STOP JUMPDEST PUSH2 0x14B PUSH2 0x146 CALLDATASIZE PUSH1 0x4 PUSH2 0xC78 JUMP JUMPDEST PUSH2 0x40B JUMP JUMPDEST PUSH1 0x40 MLOAD SWAP1 ISZERO ISZERO DUP2 MSTORE PUSH1 0x20 ADD PUSH2 0x11A JUMP JUMPDEST PUSH1 0x67 SLOAD JUMPDEST PUSH1 0x40 MLOAD SWAP1 DUP2 MSTORE PUSH1 0x20 ADD PUSH2 0x11A JUMP JUMPDEST PUSH2 0x14B PUSH2 0x17B CALLDATASIZE PUSH1 0x4 PUSH2 0xCA2 JUMP JUMPDEST PUSH2 0x425 JUMP JUMPDEST PUSH1 0x40 MLOAD PUSH1 0x12 DUP2 MSTORE PUSH1 0x20 ADD PUSH2 0x11A JUMP JUMPDEST PUSH2 0x14B PUSH2 0x19D CALLDATASIZE PUSH1 0x4 PUSH2 0xC78 JUMP JUMPDEST PUSH2 0x449 JUMP JUMPDEST PUSH2 0x136 PUSH2 0x1B0 CALLDATASIZE PUSH1 0x4 PUSH2 0xC78 JUMP JUMPDEST PUSH2 0x46B JUMP JUMPDEST PUSH2 0x15F PUSH2 0x1C3 CALLDATASIZE PUSH1 0x4 PUSH2 0xCDE JUMP JUMPDEST PUSH1 0x1 PUSH1 0x1 PUSH1 0xA0 SHL SUB AND PUSH1 0x0 SWAP1 DUP2 MSTORE PUSH1 0x65 PUSH1 0x20 MSTORE PUSH1 0x40 SWAP1 KECCAK256 SLOAD SWAP1 JUMP JUMPDEST PUSH2 0x136 PUSH2 0x481 JUMP JUMPDEST PUSH1 0x33 SLOAD PUSH1 0x40 MLOAD PUSH1 0x1 PUSH1 0x1 PUSH1 0xA0 SHL SUB SWAP1 SWAP2 AND DUP2 MSTORE PUSH1 0x20 ADD PUSH2 0x11A JUMP JUMPDEST PUSH2 0x10D PUSH2 0x495 JUMP JUMPDEST PUSH2 0x14B PUSH2 0x217 CALLDATASIZE PUSH1 0x4 PUSH2 0xC78 JUMP JUMPDEST PUSH2 0x4A4 JUMP JUMPDEST PUSH2 0x14B PUSH2 0x22A CALLDATASIZE PUSH1 0x4 PUSH2 0xC78 JUMP JUMPDEST PUSH2 0x51F JUMP JUMPDEST PUSH2 0x15F PUSH2 0x23D CALLDATASIZE PUSH1 0x4 PUSH2 0xD00 JUMP JUMPDEST PUSH2 0x52D JUMP JUMPDEST PUSH2 0x136 PUSH2 0x250 CALLDATASIZE PUSH1 0x4 PUSH2 0xCDE JUMP JUMPDEST PUSH2 0x558 JUMP JUMPDEST PUSH1 0x60 PUSH1 0x68 DUP1 SLOAD PUSH2 0x264 SWAP1 PUSH2 0xD33 JUMP JUMPDEST DUP1 PUSH1 0x1F ADD PUSH1 0x20 DUP1 SWAP2 DIV MUL PUSH1 0x20 ADD PUSH1 0x40 MLOAD SWAP1 DUP2 ADD PUSH1 0x40 MSTORE DUP1 SWAP3 SWAP2 SWAP1 DUP2 DUP2 MSTORE PUSH1 0x20 ADD DUP3 DUP1 SLOAD PUSH2 0x290 SWAP1 PUSH2 0xD33 JUMP JUMPDEST DUP1 ISZERO PUSH2 0x2DD JUMPI DUP1 PUSH1 0x1F LT PUSH2 0x2B2 JUMPI PUSH2 0x100 DUP1 DUP4 SLOAD DIV MUL DUP4 MSTORE SWAP2 PUSH1 0x20 ADD SWAP2 PUSH2 0x2DD JUMP JUMPDEST DUP3 ADD SWAP2 SWAP1 PUSH1 0x0 MSTORE PUSH1 0x20 PUSH1 0x0 KECCAK256 SWAP1 JUMPDEST DUP2 SLOAD DUP2 MSTORE SWAP1 PUSH1 0x1 ADD SWAP1 PUSH1 0x20 ADD DUP1 DUP4 GT PUSH2 0x2C0 JUMPI DUP3 SWAP1 SUB PUSH1 0x1F AND DUP3 ADD SWAP2 JUMPDEST POP POP POP POP POP SWAP1 POP SWAP1 JUMP JUMPDEST PUSH1 0x0 SLOAD PUSH2 0x100 SWAP1 DIV PUSH1 0xFF AND ISZERO DUP1 DUP1 ISZERO PUSH2 0x307 JUMPI POP PUSH1 0x0 SLOAD PUSH1 0x1 PUSH1 0xFF SWAP1 SWAP2 AND LT JUMPDEST DUP1 PUSH2 0x321 JUMPI POP ADDRESS EXTCODESIZE ISZERO DUP1 ISZERO PUSH2 0x321 JUMPI POP PUSH1 0x0 SLOAD PUSH1 0xFF AND PUSH1 0x1 EQ JUMPDEST PUSH2 0x389 JUMPI PUSH1 0x40 MLOAD PUSH3 0x461BCD PUSH1 0xE5 SHL DUP2 MSTORE PUSH1 0x20 PUSH1 0x4 DUP3 ADD MSTORE PUSH1 0x2E PUSH1 0x24 DUP3 ADD MSTORE PUSH32 0x496E697469616C697A61626C653A20636F6E747261637420697320616C726561 PUSH1 0x44 DUP3 ADD MSTORE PUSH14 0x191E481A5B9A5D1A585B1A5E9959 PUSH1 0x92 SHL PUSH1 0x64 DUP3 ADD MSTORE PUSH1 0x84 ADD JUMPDEST PUSH1 0x40 MLOAD DUP1 SWAP2 SUB SWAP1 REVERT JUMPDEST PUSH1 0x0 DUP1 SLOAD PUSH1 0xFF NOT AND PUSH1 0x1 OR SWAP1 SSTORE DUP1 ISZERO PUSH2 0x3AC JUMPI PUSH1 0x0 DUP1 SLOAD PUSH2 0xFF00 NOT AND PUSH2 0x100 OR SWAP1 SSTORE JUMPDEST PUSH2 0x3B6 DUP5 DUP5 PUSH2 0x5D1 JUMP JUMPDEST PUSH2 0x3BF DUP3 PUSH2 0x602 JUMP JUMPDEST DUP1 ISZERO PUSH2 0x405 JUMPI PUSH1 0x0 DUP1 SLOAD PUSH2 0xFF00 NOT AND SWAP1 SSTORE PUSH1 0x40 MLOAD PUSH1 0x1 DUP2 MSTORE PUSH32 0x7F26B83FF96E1F2B6A682F133852F6798A09C465DA95921460CEFB3847402498 SWAP1 PUSH1 0x20 ADD PUSH1 0x40 MLOAD DUP1 SWAP2 SUB SWAP1 LOG1 JUMPDEST POP POP POP POP JUMP JUMPDEST PUSH1 0x0 CALLER PUSH2 0x419 DUP2 DUP6 DUP6 PUSH2 0x654 JUMP JUMPDEST PUSH1 0x1 SWAP2 POP POP JUMPDEST SWAP3 SWAP2 POP POP JUMP JUMPDEST PUSH1 0x0 CALLER PUSH2 0x433 DUP6 DUP3 DUP6 PUSH2 0x778 JUMP JUMPDEST PUSH2 0x43E DUP6 DUP6 DUP6 PUSH2 0x7EC JUMP JUMPDEST POP PUSH1 0x1 SWAP5 SWAP4 POP POP POP POP JUMP JUMPDEST PUSH1 0x0 CALLER PUSH2 0x419 DUP2 DUP6 DUP6 PUSH2 0x45C DUP4 DUP4 PUSH2 0x52D JUMP JUMPDEST PUSH2 0x466 SWAP2 SWAP1 PUSH2 0xD6D JUMP JUMPDEST PUSH2 0x654 JUMP JUMPDEST PUSH2 0x473 PUSH2 0x997 JUMP JUMPDEST PUSH2 0x47D DUP3 DUP3 PUSH2 0x9F1 JUMP JUMPDEST POP POP JUMP JUMPDEST PUSH2 0x489 PUSH2 0x997 JUMP JUMPDEST PUSH2 0x493 PUSH1 0x0 PUSH2 0x602 JUMP JUMPDEST JUMP JUMPDEST PUSH1 0x60 PUSH1 0x69 DUP1 SLOAD PUSH2 0x264 SWAP1 PUSH2 0xD33 JUMP JUMPDEST PUSH1 0x0 CALLER DUP2 PUSH2 0x4B2 DUP3 DUP7 PUSH2 0x52D JUMP JUMPDEST SWAP1 POP DUP4 DUP2 LT ISZERO PUSH2 0x512 JUMPI PUSH1 0x40 MLOAD PUSH3 0x461BCD PUSH1 0xE5 SHL DUP2 MSTORE PUSH1 0x20 PUSH1 0x4 DUP3 ADD MSTORE PUSH1 0x25 PUSH1 0x24 DUP3 ADD MSTORE PUSH32 0x45524332303A2064656372656173656420616C6C6F77616E63652062656C6F77 PUSH1 0x44 DUP3 ADD MSTORE PUSH5 0x207A65726F PUSH1 0xD8 SHL PUSH1 0x64 DUP3 ADD MSTORE PUSH1 0x84 ADD PUSH2 0x380 JUMP JUMPDEST PUSH2 0x43E DUP3 DUP7 DUP7 DUP5 SUB PUSH2 0x654 JUMP JUMPDEST PUSH1 0x0 CALLER PUSH2 0x419 DUP2 DUP6 DUP6 PUSH2 0x7EC JUMP JUMPDEST PUSH1 0x1 PUSH1 0x1 PUSH1 0xA0 SHL SUB SWAP2 DUP3 AND PUSH1 0x0 SWAP1 DUP2 MSTORE PUSH1 0x66 PUSH1 0x20 SWAP1 DUP2 MSTORE PUSH1 0x40 DUP1 DUP4 KECCAK256 SWAP4 SWAP1 SWAP5 AND DUP3 MSTORE SWAP2 SWAP1 SWAP2 MSTORE KECCAK256 SLOAD SWAP1 JUMP JUMPDEST PUSH2 0x560 PUSH2 0x997 JUMP JUMPDEST PUSH1 0x1 PUSH1 0x1 PUSH1 0xA0 SHL SUB DUP2 AND PUSH2 0x5C5 JUMPI PUSH1 0x40 MLOAD PUSH3 0x461BCD PUSH1 0xE5 SHL DUP2 MSTORE PUSH1 0x20 PUSH1 0x4 DUP3 ADD MSTORE PUSH1 0x26 PUSH1 0x24 DUP3 ADD MSTORE PUSH32 0x4F776E61626C653A206E6577206F776E657220697320746865207A65726F2061 PUSH1 0x44 DUP3 ADD MSTORE PUSH6 0x646472657373 PUSH1 0xD0 SHL PUSH1 0x64 DUP3 ADD MSTORE PUSH1 0x84 ADD PUSH2 0x380 JUMP JUMPDEST PUSH2 0x5CE DUP2 PUSH2 0x602 JUMP JUMPDEST POP JUMP JUMPDEST PUSH1 0x0 SLOAD PUSH2 0x100 SWAP1 DIV PUSH1 0xFF AND PUSH2 0x5F8 JUMPI PUSH1 0x40 MLOAD PUSH3 0x461BCD PUSH1 0xE5 SHL DUP2 MSTORE PUSH1 0x4 ADD PUSH2 0x380 SWAP1 PUSH2 0xD8E JUMP JUMPDEST PUSH2 0x47D DUP3 DUP3 PUSH2 0xAB2 JUMP JUMPDEST PUSH1 0x33 DUP1 SLOAD PUSH1 0x1 PUSH1 0x1 PUSH1 0xA0 SHL SUB DUP4 DUP2 AND PUSH1 0x1 PUSH1 0x1 PUSH1 0xA0 SHL SUB NOT DUP4 AND DUP2 OR SWAP1 SWAP4 SSTORE PUSH1 0x40 MLOAD SWAP2 AND SWAP2 SWAP1 DUP3 SWAP1 PUSH32 0x8BE0079C531659141344CD1FD0A4F28419497F9722A3DAAFE3B4186F6B6457E0 SWAP1 PUSH1 0x0 SWAP1 LOG3 POP POP JUMP JUMPDEST PUSH1 0x1 PUSH1 0x1 PUSH1 0xA0 SHL SUB DUP4 AND PUSH2 0x6B6 JUMPI PUSH1 0x40 MLOAD PUSH3 0x461BCD PUSH1 0xE5 SHL DUP2 MSTORE PUSH1 0x20 PUSH1 0x4 DUP3 ADD MSTORE PUSH1 0x24 DUP1 DUP3 ADD MSTORE PUSH32 0x45524332303A20617070726F76652066726F6D20746865207A65726F20616464 PUSH1 0x44 DUP3 ADD MSTORE PUSH4 0x72657373 PUSH1 0xE0 SHL PUSH1 0x64 DUP3 ADD MSTORE PUSH1 0x84 ADD PUSH2 0x380 JUMP JUMPDEST PUSH1 0x1 PUSH1 0x1 PUSH1 0xA0 SHL SUB DUP3 AND PUSH2 0x717 JUMPI PUSH1 0x40 MLOAD PUSH3 0x461BCD PUSH1 0xE5 SHL DUP2 MSTORE PUSH1 0x20 PUSH1 0x4 DUP3 ADD MSTORE PUSH1 0x22 PUSH1 0x24 DUP3 ADD MSTORE PUSH32 0x45524332303A20617070726F766520746F20746865207A65726F206164647265 PUSH1 0x44 DUP3 ADD MSTORE PUSH2 0x7373 PUSH1 0xF0 SHL PUSH1 0x64 DUP3 ADD MSTORE PUSH1 0x84 ADD PUSH2 0x380 JUMP JUMPDEST PUSH1 0x1 PUSH1 0x1 PUSH1 0xA0 SHL SUB DUP4 DUP2 AND PUSH1 0x0 DUP2 DUP2 MSTORE PUSH1 0x66 PUSH1 0x20 SWAP1 DUP2 MSTORE PUSH1 0x40 DUP1 DUP4 KECCAK256 SWAP5 DUP8 AND DUP1 DUP5 MSTORE SWAP5 DUP3 MSTORE SWAP2 DUP3 SWAP1 KECCAK256 DUP6 SWAP1 SSTORE SWAP1 MLOAD DUP5 DUP2 MSTORE PUSH32 0x8C5BE1E5EBEC7D5BD14F71427D1E84F3DD0314C0F7B2291E5B200AC8C7C3B925 SWAP2 ADD PUSH1 0x40 MLOAD DUP1 SWAP2 SUB SWAP1 LOG3 POP POP POP JUMP JUMPDEST PUSH1 0x0 PUSH2 0x784 DUP5 DUP5 PUSH2 0x52D JUMP JUMPDEST SWAP1 POP PUSH1 0x0 NOT DUP2 EQ PUSH2 0x405 JUMPI DUP2 DUP2 LT ISZERO PUSH2 0x7DF JUMPI PUSH1 0x40 MLOAD PUSH3 0x461BCD PUSH1 0xE5 SHL DUP2 MSTORE PUSH1 0x20 PUSH1 0x4 DUP3 ADD MSTORE PUSH1 0x1D PUSH1 0x24 DUP3 ADD MSTORE PUSH32 0x45524332303A20696E73756666696369656E7420616C6C6F77616E6365000000 PUSH1 0x44 DUP3 ADD MSTORE PUSH1 0x64 ADD PUSH2 0x380 JUMP JUMPDEST PUSH2 0x405 DUP5 DUP5 DUP5 DUP5 SUB PUSH2 0x654 JUMP JUMPDEST PUSH1 0x1 PUSH1 0x1 PUSH1 0xA0 SHL SUB DUP4 AND PUSH2 0x850 JUMPI PUSH1 0x40 MLOAD PUSH3 0x461BCD PUSH1 0xE5 SHL DUP2 MSTORE PUSH1 0x20 PUSH1 0x4 DUP3 ADD MSTORE PUSH1 0x25 PUSH1 0x24 DUP3 ADD MSTORE PUSH32 0x45524332303A207472616E736665722066726F6D20746865207A65726F206164 PUSH1 0x44 DUP3 ADD MSTORE PUSH5 0x6472657373 PUSH1 0xD8 SHL PUSH1 0x64 DUP3 ADD MSTORE PUSH1 0x84 ADD PUSH2 0x380 JUMP JUMPDEST PUSH1 0x1 PUSH1 0x1 PUSH1 0xA0 SHL SUB DUP3 AND PUSH2 0x8B2 JUMPI PUSH1 0x40 MLOAD PUSH3 0x461BCD PUSH1 0xE5 SHL DUP2 MSTORE PUSH1 0x20 PUSH1 0x4 DUP3 ADD MSTORE PUSH1 0x23 PUSH1 0x24 DUP3 ADD MSTORE PUSH32 0x45524332303A207472616E7366657220746F20746865207A65726F2061646472 PUSH1 0x44 DUP3 ADD MSTORE PUSH3 0x657373 PUSH1 0xE8 SHL PUSH1 0x64 DUP3 ADD MSTORE PUSH1 0x84 ADD PUSH2 0x380 JUMP JUMPDEST PUSH1 0x1 PUSH1 0x1 PUSH1 0xA0 SHL SUB DUP4 AND PUSH1 0x0 SWAP1 DUP2 MSTORE PUSH1 0x65 PUSH1 0x20 MSTORE PUSH1 0x40 SWAP1 KECCAK256 SLOAD DUP2 DUP2 LT ISZERO PUSH2 0x92A JUMPI PUSH1 0x40 MLOAD PUSH3 0x461BCD PUSH1 0xE5 SHL DUP2 MSTORE PUSH1 0x20 PUSH1 0x4 DUP3 ADD MSTORE PUSH1 0x26 PUSH1 0x24 DUP3 ADD MSTORE PUSH32 0x45524332303A207472616E7366657220616D6F756E7420657863656564732062 PUSH1 0x44 DUP3 ADD MSTORE PUSH6 0x616C616E6365 PUSH1 0xD0 SHL PUSH1 0x64 DUP3 ADD MSTORE PUSH1 0x84 ADD PUSH2 0x380 JUMP JUMPDEST PUSH1 0x1 PUSH1 0x1 PUSH1 0xA0 SHL SUB DUP1 DUP6 AND PUSH1 0x0 DUP2 DUP2 MSTORE PUSH1 0x65 PUSH1 0x20 MSTORE PUSH1 0x40 DUP1 DUP3 KECCAK256 DUP7 DUP7 SUB SWAP1 SSTORE SWAP3 DUP7 AND DUP1 DUP3 MSTORE SWAP1 DUP4 SWAP1 KECCAK256 DUP1 SLOAD DUP7 ADD SWAP1 SSTORE SWAP2 MLOAD PUSH32 0xDDF252AD1BE2C89B69C2B068FC378DAA952BA7F163C4A11628F55A4DF523B3EF SWAP1 PUSH2 0x98A SWAP1 DUP7 DUP2 MSTORE PUSH1 0x20 ADD SWAP1 JUMP JUMPDEST PUSH1 0x40 MLOAD DUP1 SWAP2 SUB SWAP1 LOG3 PUSH2 0x405 JUMP JUMPDEST PUSH1 0x33 SLOAD PUSH1 0x1 PUSH1 0x1 PUSH1 0xA0 SHL SUB AND CALLER EQ PUSH2 0x493 JUMPI PUSH1 0x40 MLOAD PUSH3 0x461BCD PUSH1 0xE5 SHL DUP2 MSTORE PUSH1 0x20 PUSH1 0x4 DUP3 ADD DUP2 SWAP1 MSTORE PUSH1 0x24 DUP3 ADD MSTORE PUSH32 0x4F776E61626C653A2063616C6C6572206973206E6F7420746865206F776E6572 PUSH1 0x44 DUP3 ADD MSTORE PUSH1 0x64 ADD PUSH2 0x380 JUMP JUMPDEST PUSH1 0x1 PUSH1 0x1 PUSH1 0xA0 SHL SUB DUP3 AND PUSH2 0xA47 JUMPI PUSH1 0x40 MLOAD PUSH3 0x461BCD PUSH1 0xE5 SHL DUP2 MSTORE PUSH1 0x20 PUSH1 0x4 DUP3 ADD MSTORE PUSH1 0x1F PUSH1 0x24 DUP3 ADD MSTORE PUSH32 0x45524332303A206D696E7420746F20746865207A65726F206164647265737300 PUSH1 0x44 DUP3 ADD MSTORE PUSH1 0x64 ADD PUSH2 0x380 JUMP JUMPDEST DUP1 PUSH1 0x67 PUSH1 0x0 DUP3 DUP3 SLOAD PUSH2 0xA59 SWAP2 SWAP1 PUSH2 0xD6D JUMP JUMPDEST SWAP1 SWAP2 SSTORE POP POP PUSH1 0x1 PUSH1 0x1 PUSH1 0xA0 SHL SUB DUP3 AND PUSH1 0x0 DUP2 DUP2 MSTORE PUSH1 0x65 PUSH1 0x20 SWAP1 DUP2 MSTORE PUSH1 0x40 DUP1 DUP4 KECCAK256 DUP1 SLOAD DUP7 ADD SWAP1 SSTORE MLOAD DUP5 DUP2 MSTORE PUSH32 0xDDF252AD1BE2C89B69C2B068FC378DAA952BA7F163C4A11628F55A4DF523B3EF SWAP2 ADD PUSH1 0x40 MLOAD DUP1 SWAP2 SUB SWAP1 LOG3 POP POP JUMP JUMPDEST PUSH1 0x0 SLOAD PUSH2 0x100 SWAP1 DIV PUSH1 0xFF AND PUSH2 0xAD9 JUMPI PUSH1 0x40 MLOAD PUSH3 0x461BCD PUSH1 0xE5 SHL DUP2 MSTORE PUSH1 0x4 ADD PUSH2 0x380 SWAP1 PUSH2 0xD8E JUMP JUMPDEST PUSH1 0x68 PUSH2 0xAE5 DUP4 DUP3 PUSH2 0xE27 JUMP JUMPDEST POP PUSH1 0x69 PUSH2 0xAF2 DUP3 DUP3 PUSH2 0xE27 JUMP JUMPDEST POP POP POP JUMP JUMPDEST PUSH1 0x0 PUSH1 0x20 DUP1 DUP4 MSTORE DUP4 MLOAD DUP1 DUP3 DUP6 ADD MSTORE PUSH1 0x0 JUMPDEST DUP2 DUP2 LT ISZERO PUSH2 0xB24 JUMPI DUP6 DUP2 ADD DUP4 ADD MLOAD DUP6 DUP3 ADD PUSH1 0x40 ADD MSTORE DUP3 ADD PUSH2 0xB08 JUMP JUMPDEST POP PUSH1 0x0 PUSH1 0x40 DUP3 DUP7 ADD ADD MSTORE PUSH1 0x40 PUSH1 0x1F NOT PUSH1 0x1F DUP4 ADD AND DUP6 ADD ADD SWAP3 POP POP POP SWAP3 SWAP2 POP POP JUMP JUMPDEST PUSH4 0x4E487B71 PUSH1 0xE0 SHL PUSH1 0x0 MSTORE PUSH1 0x41 PUSH1 0x4 MSTORE PUSH1 0x24 PUSH1 0x0 REVERT JUMPDEST PUSH1 0x0 DUP3 PUSH1 0x1F DUP4 ADD SLT PUSH2 0xB6C JUMPI PUSH1 0x0 DUP1 REVERT JUMPDEST DUP2 CALLDATALOAD PUSH8 0xFFFFFFFFFFFFFFFF DUP1 DUP3 GT ISZERO PUSH2 0xB87 JUMPI PUSH2 0xB87 PUSH2 0xB45 JUMP JUMPDEST PUSH1 0x40 MLOAD PUSH1 0x1F DUP4 ADD PUSH1 0x1F NOT SWAP1 DUP2 AND PUSH1 0x3F ADD AND DUP2 ADD SWAP1 DUP3 DUP3 GT DUP2 DUP4 LT OR ISZERO PUSH2 0xBAF JUMPI PUSH2 0xBAF PUSH2 0xB45 JUMP JUMPDEST DUP2 PUSH1 0x40 MSTORE DUP4 DUP2 MSTORE DUP7 PUSH1 0x20 DUP6 DUP9 ADD ADD GT ISZERO PUSH2 0xBC8 JUMPI PUSH1 0x0 DUP1 REVERT JUMPDEST DUP4 PUSH1 0x20 DUP8 ADD PUSH1 0x20 DUP4 ADD CALLDATACOPY PUSH1 0x0 PUSH1 0x20 DUP6 DUP4 ADD ADD MSTORE DUP1 SWAP5 POP POP POP POP POP SWAP3 SWAP2 POP POP JUMP JUMPDEST DUP1 CALLDATALOAD PUSH1 0x1 PUSH1 0x1 PUSH1 0xA0 SHL SUB DUP2 AND DUP2 EQ PUSH2 0xBFF JUMPI PUSH1 0x0 DUP1 REVERT JUMPDEST SWAP2 SWAP1 POP JUMP JUMPDEST PUSH1 0x0 DUP1 PUSH1 0x0 PUSH1 0x60 DUP5 DUP7 SUB SLT ISZERO PUSH2 0xC19 JUMPI PUSH1 0x0 DUP1 REVERT JUMPDEST DUP4 CALLDATALOAD PUSH8 0xFFFFFFFFFFFFFFFF DUP1 DUP3 GT ISZERO PUSH2 0xC31 JUMPI PUSH1 0x0 DUP1 REVERT JUMPDEST PUSH2 0xC3D DUP8 DUP4 DUP9 ADD PUSH2 0xB5B JUMP JUMPDEST SWAP5 POP PUSH1 0x20 DUP7 ADD CALLDATALOAD SWAP2 POP DUP1 DUP3 GT ISZERO PUSH2 0xC53 JUMPI PUSH1 0x0 DUP1 REVERT JUMPDEST POP PUSH2 0xC60 DUP7 DUP3 DUP8 ADD PUSH2 0xB5B JUMP JUMPDEST SWAP3 POP POP PUSH2 0xC6F PUSH1 0x40 DUP6 ADD PUSH2 0xBE8 JUMP JUMPDEST SWAP1 POP SWAP3 POP SWAP3 POP SWAP3 JUMP JUMPDEST PUSH1 0x0 DUP1 PUSH1 0x40 DUP4 DUP6 SUB SLT ISZERO PUSH2 0xC8B JUMPI PUSH1 0x0 DUP1 REVERT JUMPDEST PUSH2 0xC94 DUP4 PUSH2 0xBE8 JUMP JUMPDEST SWAP5 PUSH1 0x20 SWAP4 SWAP1 SWAP4 ADD CALLDATALOAD SWAP4 POP POP POP JUMP JUMPDEST PUSH1 0x0 DUP1 PUSH1 0x0 PUSH1 0x60 DUP5 DUP7 SUB SLT ISZERO PUSH2 0xCB7 JUMPI PUSH1 0x0 DUP1 REVERT JUMPDEST PUSH2 0xCC0 DUP5 PUSH2 0xBE8 JUMP JUMPDEST SWAP3 POP PUSH2 0xCCE PUSH1 0x20 DUP6 ADD PUSH2 0xBE8 JUMP JUMPDEST SWAP2 POP PUSH1 0x40 DUP5 ADD CALLDATALOAD SWAP1 POP SWAP3 POP SWAP3 POP SWAP3 JUMP JUMPDEST PUSH1 0x0 PUSH1 0x20 DUP3 DUP5 SUB SLT ISZERO PUSH2 0xCF0 JUMPI PUSH1 0x0 DUP1 REVERT JUMPDEST PUSH2 0xCF9 DUP3 PUSH2 0xBE8 JUMP JUMPDEST SWAP4 SWAP3 POP POP POP JUMP JUMPDEST PUSH1 0x0 DUP1 PUSH1 0x40 DUP4 DUP6 SUB SLT ISZERO PUSH2 0xD13 JUMPI PUSH1 0x0 DUP1 REVERT JUMPDEST PUSH2 0xD1C DUP4 PUSH2 0xBE8 JUMP JUMPDEST SWAP2 POP PUSH2 0xD2A PUSH1 0x20 DUP5 ADD PUSH2 0xBE8 JUMP JUMPDEST SWAP1 POP SWAP3 POP SWAP3 SWAP1 POP JUMP JUMPDEST PUSH1 0x1 DUP2 DUP2 SHR SWAP1 DUP3 AND DUP1 PUSH2 0xD47 JUMPI PUSH1 0x7F DUP3 AND SWAP2 POP JUMPDEST PUSH1 0x20 DUP3 LT DUP2 SUB PUSH2 0xD67 JUMPI PUSH4 0x4E487B71 PUSH1 0xE0 SHL PUSH1 0x0 MSTORE PUSH1 0x22 PUSH1 0x4 MSTORE PUSH1 0x24 PUSH1 0x0 REVERT JUMPDEST POP SWAP2 SWAP1 POP JUMP JUMPDEST DUP1 DUP3 ADD DUP1 DUP3 GT ISZERO PUSH2 0x41F JUMPI PUSH4 0x4E487B71 PUSH1 0xE0 SHL PUSH1 0x0 MSTORE PUSH1 0x11 PUSH1 0x4 MSTORE PUSH1 0x24 PUSH1 0x0 REVERT JUMPDEST PUSH1 0x20 DUP1 DUP3 MSTORE PUSH1 0x2B SWAP1 DUP3 ADD MSTORE PUSH32 0x496E697469616C697A61626C653A20636F6E7472616374206973206E6F742069 PUSH1 0x40 DUP3 ADD MSTORE PUSH11 0x6E697469616C697A696E67 PUSH1 0xA8 SHL PUSH1 0x60 DUP3 ADD MSTORE PUSH1 0x80 ADD SWAP1 JUMP JUMPDEST PUSH1 0x1F DUP3 GT ISZERO PUSH2 0xAF2 JUMPI PUSH1 0x0 DUP2 DUP2 MSTORE PUSH1 0x20 DUP2 KECCAK256 PUSH1 0x1F DUP6 ADD PUSH1 0x5 SHR DUP2 ADD PUSH1 0x20 DUP7 LT ISZERO PUSH2 0xE00 JUMPI POP DUP1 JUMPDEST PUSH1 0x1F DUP6 ADD PUSH1 0x5 SHR DUP3 ADD SWAP2 POP JUMPDEST DUP2 DUP2 LT ISZERO PUSH2 0xE1F JUMPI DUP3 DUP2 SSTORE PUSH1 0x1 ADD PUSH2 0xE0C JUMP JUMPDEST POP POP POP POP POP POP JUMP JUMPDEST DUP2 MLOAD PUSH8 0xFFFFFFFFFFFFFFFF DUP2 GT ISZERO PUSH2 0xE41 JUMPI PUSH2 0xE41 PUSH2 0xB45 JUMP JUMPDEST PUSH2 0xE55 DUP2 PUSH2 0xE4F DUP5 SLOAD PUSH2 0xD33 JUMP JUMPDEST DUP5 PUSH2 0xDD9 JUMP JUMPDEST PUSH1 0x20 DUP1 PUSH1 0x1F DUP4 GT PUSH1 0x1 DUP2 EQ PUSH2 0xE8A JUMPI PUSH1 0x0 DUP5 ISZERO PUSH2 0xE72 JUMPI POP DUP6 DUP4 ADD MLOAD JUMPDEST PUSH1 0x0 NOT PUSH1 0x3 DUP7 SWAP1 SHL SHR NOT AND PUSH1 0x1 DUP6 SWAP1 SHL OR DUP6 SSTORE PUSH2 0xE1F JUMP JUMPDEST PUSH1 0x0 DUP6 DUP2 MSTORE PUSH1 0x20 DUP2 KECCAK256 PUSH1 0x1F NOT DUP7 AND SWAP2 JUMPDEST DUP3 DUP2 LT ISZERO PUSH2 0xEB9 JUMPI DUP9 DUP7 ADD MLOAD DUP3 SSTORE SWAP5 DUP5 ADD SWAP5 PUSH1 0x1 SWAP1 SWAP2 ADD SWAP1 DUP5 ADD PUSH2 0xE9A JUMP JUMPDEST POP DUP6 DUP3 LT ISZERO PUSH2 0xED7 JUMPI DUP8 DUP6 ADD MLOAD PUSH1 0x0 NOT PUSH1 0x3 DUP9 SWAP1 SHL PUSH1 0xF8 AND SHR NOT AND DUP2 SSTORE JUMPDEST POP POP POP POP POP PUSH1 0x1 SWAP1 DUP2 SHL ADD SWAP1 SSTORE POP JUMP INVALID LOG2 PUSH5 0x6970667358 0x22 SLT KECCAK256 0xA6 RETURNDATASIZE 0xF PUSH20 0xF4511EEA4A1E98FDDE47555BD40C8BAFBDC61032 PUSH23 0x7E8255CBA8BBE864736F6C634300081300330000000000 "
				},
				"gasEstimates": {
					"creation": {
						"codeDepositCost": "773800",
						"executionCost": "805",
						"totalCost": "774605"
					},
					"external": {
						"allowance(address,address)": "infinite",
						"approve(address,uint256)": "24673",
						"balanceOf(address)": "2560",
						"decimals()": "222",
						"decreaseAllowance(address,uint256)": "26972",
						"increaseAllowance(address,uint256)": "infinite",
						"initialize(string,string,address)": "infinite",
						"mint(address,uint256)": "53061",
						"name()": "infinite",
						"owner()": "2368",
						"renounceOwnership()": "infinite",
						"symbol()": "infinite",
						"totalSupply()": "2371",
						"transfer(address,uint256)": "51103",
						"transferFrom(address,address,uint256)": "infinite",
						"transferOwnership(address)": "28424"
					}
				},
				"methodIdentifiers": {
					"allowance(address,address)": "dd62ed3e",
					"approve(address,uint256)": "095ea7b3",
					"balanceOf(address)": "70a08231",
					"decimals()": "313ce567",
					"decreaseAllowance(address,uint256)": "a457c2d7",
					"increaseAllowance(address,uint256)": "39509351",
					"initialize(string,string,address)": "077f224a",
					"mint(address,uint256)": "40c10f19",
					"name()": "06fdde03",
					"owner()": "8da5cb5b",
					"renounceOwnership()": "715018a6",
					"symbol()": "95d89b41",
					"totalSupply()": "18160ddd",
					"transfer(address,uint256)": "a9059cbb",
					"transferFrom(address,address,uint256)": "23b872dd",
					"transferOwnership(address)": "f2fde38b"
				}
			},
			"storageLayout": {
				"storage": [
					{
						"astId": 138,
						"contract": "src/project/ProjectToken.sol:ProjectToken",
						"label": "_initialized",
						"offset": 0,
						"slot": "0",
						"type": "t_uint8"
					},
					{
						"astId": 141,
						"contract": "src/project/ProjectToken.sol:ProjectToken",
						"label": "_initializing",
						"offset": 1,
						"slot": "0",
						"type": "t_bool"
					},
					{
						"astId": 1386,
						"contract": "src/project/ProjectToken.sol:ProjectToken",
						"label": "__gap",
						"offset": 0,
						"slot": "1",
						"type": "t_array(t_uint256)50_storage"
					},
					{
						"astId": 10,
						"contract": "src/project/ProjectToken.sol:ProjectToken",
						"label": "_owner",
						"offset": 0,
						"slot": "51",
						"type": "t_address"
					},
					{
						"astId": 130,
						"contract": "src/project/ProjectToken.sol:ProjectToken",
						"label": "__gap",
						"offset": 0,
						"slot": "52",
						"type": "t_array(t_uint256)49_storage"
					},
					{
						"astId": 319,
						"contract": "src/project/ProjectToken.sol:ProjectToken",
						"label": "_balances",
						"offset": 0,
						"slot": "101",
						"type": "t_mapping(t_address,t_uint256)"
					},
					{
						"astId": 325,
						"contract": "src/project/ProjectToken.sol:ProjectToken",
						"label": "_allowances",
						"offset": 0,
						"slot": "102",
						"type": "t_mapping(t_address,t_mapping(t_address,t_uint256))"
					},
					{
						"astId": 327,
						"contract": "src/project/ProjectToken.sol:ProjectToken",
						"label": "_totalSupply",
						"offset": 0,
						"slot": "103",
						"type": "t_uint256"
					},
					{
						"astId": 329,
						"contract": "src/project/ProjectToken.sol:ProjectToken",
						"label": "_name",
						"offset": 0,
						"slot": "104",
						"type": "t_string_storage"
					},
					{
						"astId": 331,
						"contract": "src/project/ProjectToken.sol:ProjectToken",
						"label": "_symbol",
						"offset": 0,
						"slot": "105",
						"type": "t_string_storage"
					},
					{
						"astId": 911,
						"contract": "src/project/ProjectToken.sol:ProjectToken",
						"label": "__gap",
						"offset": 0,
						"slot": "106",
						"type": "t_array(t_uint256)45_storage"
					}
				],
				"types": {
					"t_address": {
						"encoding": "inplace",
						"label": "address",
						"numberOfBytes": "20"
					},
					"t_array(t_uint256)45_storage": {
						"base": "t_uint256",
						"encoding": "inplace",
						"label": "uint256[45]",
						"numberOfBytes": "1440"
					},
					"t_array(t_uint256)49_storage": {
						"base": "t_uint256",
						"encoding": "inplace",
						"label": "uint256[49]",
						"numberOfBytes": "1568"
					},
					"t_array(t_uint256)50_storage": {
						"base": "t_uint256",
						"encoding": "inplace",
						"label": "uint256[50]",
						"numberOfBytes": "1600"
					},
					"t_bool": {
						"encoding": "inplace",
						"label": "bool",
						"numberOfBytes": "1"
					},
					"t_mapping(t_address,t_mapping(t_address,t_uint256))": {
						"encoding": "mapping",
						"key": "t_address",
						"label": "mapping(address => mapping(address => uint256))",
						"numberOfBytes": "32",
						"value": "t_mapping(t_address,t_uint256)"
					},
					"t_mapping(t_address,t_uint256)": {
						"encoding": "mapping",
						"key": "t_address",
						"label": "mapping(address => uint256)",
						"numberOfBytes": "32",
						"value": "t_uint256"
					},
					"t_string_storage": {
						"encoding": "bytes",
						"label": "string",
						"numberOfBytes": "32"
					},
					"t_uint256": {
						"encoding": "inplace",
						"label": "uint256",
						"numberOfBytes": "32"
					},
					"t_uint8": {
						"encoding": "inplace",
						"label": "uint8",
						"numberOfBytes": "1"
					}
				}
			},
			"userdoc": {
				"kind": "user",
				"methods": {},
				"version": 1
			}
		}
	}
}