{
	"src/project/ProjectRegister.sol": {
		"ProjectRegistry": {
			"abi": [
				{
					"anonymous": false,
					"inputs": [
						{
							"indexed": false,
							"internalType": "uint8",
							"name": "version",
							"type": "uint8"
						}
					],
					"name": "Initialized",
					"type": "event"
				},
				{
					"anonymous": false,
					"inputs": [
						{
							"indexed": true,
							"internalType": "address",
							"name": "previousOwner",
							"type": "address"
						},
						{
							"indexed": true,
							"internalType": "address",
							"name": "newOwner",
							"type": "address"
						}
					],
					"name": "OwnershipTransferred",
					"type": "event"
				},
				{
					"anonymous": false,
					"inputs": [
						{
							"indexed": true,
							"internalType": "address",
							"name": "projectAddress",
							"type": "address"
						},
						{
							"indexed": true,
							"internalType": "address",
							"name": "implementation",
							"type": "address"
						},
						{
							"indexed": false,
							"internalType": "uint256",
							"name": "index",
							"type": "uint256"
						}
					],
					"name": "ProjectCreated",
					"type": "event"
				},
				{
					"anonymous": false,
					"inputs": [
						{
							"indexed": true,
							"internalType": "address",
							"name": "operator",
							"type": "address"
						},
						{
							"indexed": true,
							"internalType": "address",
							"name": "from",
							"type": "address"
						},
						{
							"indexed": true,
							"internalType": "address",
							"name": "to",
							"type": "address"
						}
					],
					"name": "ProjectTemplateChanged",
					"type": "event"
				},
				{
					"anonymous": false,
					"inputs": [
						{
							"indexed": true,
							"internalType": "address",
							"name": "operator",
							"type": "address"
						},
						{
							"indexed": true,
							"internalType": "address",
							"name": "from",
							"type": "address"
						},
						{
							"indexed": true,
							"internalType": "address",
							"name": "to",
							"type": "address"
						}
					],
					"name": "ProjectTokenTemplateChanged",
					"type": "event"
				},
				{
					"anonymous": false,
					"inputs": [
						{
							"indexed": true,
							"internalType": "address",
							"name": "operator",
							"type": "address"
						},
						{
							"indexed": true,
							"internalType": "address",
							"name": "from",
							"type": "address"
						},
						{
							"indexed": true,
							"internalType": "address",
							"name": "to",
							"type": "address"
						}
					],
					"name": "SignerChanged",
					"type": "event"
				},
				{
					"inputs": [
						{
							"components": [
								{
									"internalType": "address",
									"name": "admin",
									"type": "address"
								},
								{
									"internalType": "address[]",
									"name": "members",
									"type": "address[]"
								},
								{
									"internalType": "string",
									"name": "tokenName",
									"type": "string"
								},
								{
									"internalType": "string",
									"name": "tokenSymbol",
									"type": "string"
								},
								{
									"internalType": "address",
									"name": "voteStrategy",
									"type": "address"
								},
								{
									"internalType": "bytes",
									"name": "voteStrategyData",
									"type": "bytes"
								},
								{
									"internalType": "uint256",
									"name": "votePassingRate",
									"type": "uint256"
								}
							],
							"internalType": "struct CreateParams",
							"name": "params",
							"type": "tuple"
						}
					],
					"name": "create",
					"outputs": [
						{
							"internalType": "address",
							"name": "projectAddress",
							"type": "address"
						}
					],
					"stateMutability": "nonpayable",
					"type": "function"
				},
				{
					"inputs": [
						{
							"internalType": "address",
							"name": "owner",
							"type": "address"
						},
						{
							"internalType": "uint256",
							"name": "startIndex",
							"type": "uint256"
						},
						{
							"internalType": "uint256",
							"name": "endIndex",
							"type": "uint256"
						}
					],
					"name": "getOwnerLatestProject",
					"outputs": [
						{
							"internalType": "address",
							"name": "",
							"type": "address"
						}
					],
					"stateMutability": "view",
					"type": "function"
				},
				{
					"inputs": [],
					"name": "getProjectTemplate",
					"outputs": [
						{
							"internalType": "address",
							"name": "",
							"type": "address"
						}
					],
					"stateMutability": "view",
					"type": "function"
				},
				{
					"inputs": [],
					"name": "getProjectTokenTemplate",
					"outputs": [
						{
							"internalType": "address",
							"name": "",
							"type": "address"
						}
					],
					"stateMutability": "view",
					"type": "function"
				},
				{
					"inputs": [],
					"name": "getSigner",
					"outputs": [
						{
							"internalType": "address",
							"name": "",
							"type": "address"
						}
					],
					"stateMutability": "view",
					"type": "function"
				},
				{
					"inputs": [
						{
							"internalType": "address",
							"name": "_owner",
							"type": "address"
						},
						{
							"internalType": "address",
							"name": "_signer",
							"type": "address"
						},
						{
							"internalType": "address",
							"name": "_projectTemplate",
							"type": "address"
						},
						{
							"internalType": "address",
							"name": "_projectTokenTemplate",
							"type": "address"
						}
					],
					"name": "initialize",
					"outputs": [],
					"stateMutability": "nonpayable",
					"type": "function"
				},
				{
					"inputs": [],
					"name": "owner",
					"outputs": [
						{
							"internalType": "address",
							"name": "",
							"type": "address"
						}
					],
					"stateMutability": "view",
					"type": "function"
				},
				{
					"inputs": [],
					"name": "projectsCount",
					"outputs": [
						{
							"internalType": "uint256",
							"name": "",
							"type": "uint256"
						}
					],
					"stateMutability": "view",
					"type": "function"
				},
				{
					"inputs": [
						{
							"internalType": "uint256",
							"name": "",
							"type": "uint256"
						}
					],
					"name": "projectsIndexer",
					"outputs": [
						{
							"internalType": "address",
							"name": "",
							"type": "address"
						}
					],
					"stateMutability": "view",
					"type": "function"
				},
				{
					"inputs": [],
					"name": "renounceOwnership",
					"outputs": [],
					"stateMutability": "nonpayable",
					"type": "function"
				},
				{
					"inputs": [
						{
							"internalType": "address",
							"name": "newOwner",
							"type": "address"
						}
					],
					"name": "transferOwnership",
					"outputs": [],
					"stateMutability": "nonpayable",
					"type": "function"
				},
				{
					"inputs": [
						{
							"internalType": "address",
							"name": "_projectTemplate",
							"type": "address"
						}
					],
					"name": "updateProjectTemplate",
					"outputs": [],
					"stateMutability": "nonpayable",
					"type": "function"
				},
				{
					"inputs": [
						{
							"internalType": "address",
							"name": "_projectTokenTemplate",
							"type": "address"
						}
					],
					"name": "updateProjectTokenTemplate",
					"outputs": [],
					"stateMutability": "nonpayable",
					"type": "function"
				},
				{
					"inputs": [
						{
							"internalType": "address",
							"name": "_signer",
							"type": "address"
						}
					],
					"name": "updateSigner",
					"outputs": [],
					"stateMutability": "nonpayable",
					"type": "function"
				},
				{
					"inputs": [],
					"name": "version",
					"outputs": [
						{
							"internalType": "string",
							"name": "",
							"type": "string"
						}
					],
					"stateMutability": "pure",
					"type": "function"
				}
			],
			"devdoc": {
				"events": {
					"Initialized(uint8)": {
						"details": "Triggered when the contract has been initialized or reinitialized."
					},
					"ProjectCreated(address,address,uint256)": {
						"details": "Emitted when project template changed."
					},
					"ProjectTemplateChanged(address,address,address)": {
						"details": "Emitted when project template changed."
					},
					"ProjectTokenTemplateChanged(address,address,address)": {
						"details": "Emitted when project token template changed."
					},
					"SignerChanged(address,address,address)": {
						"details": "Emitted when signer changed."
					}
				},
				"kind": "dev",
				"methods": {
					"create((address,address[],string,string,address,bytes,uint256))": {
						"details": "Create project by anyone Voting strategy default is DefaultVotingStrategy"
					},
					"getOwnerLatestProject(address,uint256,uint256)": {
						"details": "Use to get the owner's latest project in off-chain"
					},
					"getProjectTemplate()": {
						"details": "Get project template"
					},
					"getProjectTokenTemplate()": {
						"details": "Get project token template"
					},
					"getSigner()": {
						"details": "Get signer"
					},
					"initialize(address,address,address,address)": {
						"details": "Constructors are replaced by initialize function"
					},
					"owner()": {
						"details": "Returns the address of the current owner."
					},
					"renounceOwnership()": {
						"details": "Leaves the contract without owner. It will not be possible to call `onlyOwner` functions. Can only be called by the current owner. NOTE: Renouncing ownership will leave the contract without an owner, thereby disabling any functionality that is only available to the owner."
					},
					"transferOwnership(address)": {
						"details": "Transfers ownership of the contract to a new account (`newOwner`). Can only be called by the current owner."
					},
					"updateProjectTemplate(address)": {
						"details": "Update project template, only owner."
					},
					"updateProjectTokenTemplate(address)": {
						"details": "Update project token template, only owner."
					},
					"updateSigner(address)": {
						"details": "Update signer, only owner."
					},
					"version()": {
						"details": "Version of the ProjectRegistry contract. Default: \"1.0.0\""
					}
				},
				"version": 1
			},
			"evm": {
				"assembly": "    /* \"src/project/ProjectRegister.sol\":385:6256  contract ProjectRegistry is OwnableUpgradeable, IProjectRegister {... */\n  mstore(0x40, 0x80)\n  callvalue\n  dup1\n  iszero\n  tag_1\n  jumpi\n  0x00\n  dup1\n  revert\ntag_1:\n  pop\n  dataSize(sub_0)\n  dup1\n  dataOffset(sub_0)\n  0x00\n  codecopy\n  0x00\n  return\nstop\n\nsub_0: assembly {\n        /* \"src/project/ProjectRegister.sol\":385:6256  contract ProjectRegistry is OwnableUpgradeable, IProjectRegister {... */\n      mstore(0x40, 0x80)\n      callvalue\n      dup1\n      iszero\n      tag_1\n      jumpi\n      0x00\n      dup1\n      revert\n    tag_1:\n      pop\n      jumpi(tag_2, lt(calldatasize, 0x04))\n      shr(0xe0, calldataload(0x00))\n      dup1\n      0xa59052c2\n      gt\n      tag_18\n      jumpi\n      dup1\n      0xe8160f84\n      gt\n      tag_19\n      jumpi\n      dup1\n      0xe8160f84\n      eq\n      tag_14\n      jumpi\n      dup1\n      0xf2fde38b\n      eq\n      tag_15\n      jumpi\n      dup1\n      0xf8c8765e\n      eq\n      tag_16\n      jumpi\n      dup1\n      0xfd80a63c\n      eq\n      tag_17\n      jumpi\n      0x00\n      dup1\n      revert\n    tag_19:\n      dup1\n      0xa59052c2\n      eq\n      tag_10\n      jumpi\n      dup1\n      0xa7ecd37e\n      eq\n      tag_11\n      jumpi\n      dup1\n      0xb45b34b9\n      eq\n      tag_12\n      jumpi\n      dup1\n      0xc73b302e\n      eq\n      tag_13\n      jumpi\n      0x00\n      dup1\n      revert\n    tag_18:\n      dup1\n      0x54fd4d50\n      gt\n      tag_20\n      jumpi\n      dup1\n      0x54fd4d50\n      eq\n      tag_6\n      jumpi\n      dup1\n      0x715018a6\n      eq\n      tag_7\n      jumpi\n      dup1\n      0x7ac3c02f\n      eq\n      tag_8\n      jumpi\n      dup1\n      0x8da5cb5b\n      eq\n      tag_9\n      jumpi\n      0x00\n      dup1\n      revert\n    tag_20:\n      dup1\n      0x07a0b930\n      eq\n      tag_3\n      jumpi\n      dup1\n      0x134a09d0\n      eq\n      tag_4\n      jumpi\n      dup1\n      0x4530e3fc\n      eq\n      tag_5\n      jumpi\n    tag_2:\n      0x00\n      dup1\n      revert\n        /* \"src/project/ProjectRegister.sol\":2701:2802  function getProjectTemplate() external view returns (address) {... */\n    tag_3:\n        /* \"src/project/ProjectRegister.sol\":2780:2795  projectTemplate */\n      and(sub(shl(0xa0, 0x01), 0x01), sload(0x68))\n        /* \"src/project/ProjectRegister.sol\":2701:2802  function getProjectTemplate() external view returns (address) {... */\n    tag_21:\n      mload(0x40)\n      sub(shl(0xa0, 0x01), 0x01)\n        /* \"#utility.yul\":287:319   */\n      swap1\n      swap2\n      and\n        /* \"#utility.yul\":269:320   */\n      dup2\n      mstore\n        /* \"#utility.yul\":257:259   */\n      0x20\n        /* \"#utility.yul\":242:260   */\n      add\n        /* \"src/project/ProjectRegister.sol\":2701:2802  function getProjectTemplate() external view returns (address) {... */\n    tag_23:\n      mload(0x40)\n      dup1\n      swap2\n      sub\n      swap1\n      return\n        /* \"src/project/ProjectRegister.sol\":480:530  mapping(uint256 => address) public projectsIndexer */\n    tag_4:\n      tag_21\n      tag_26\n      calldatasize\n      0x04\n      tag_27\n      jump\t// in\n    tag_26:\n      mstore(0x20, 0x65)\n      0x00\n      swap1\n      dup2\n      mstore\n      0x40\n      swap1\n      keccak256\n      sload\n      sub(shl(0xa0, 0x01), 0x01)\n      and\n      dup2\n      jump\n        /* \"src/project/ProjectRegister.sol\":5308:6068  function getOwnerLatestProject(... */\n    tag_5:\n      tag_21\n      tag_31\n      calldatasize\n      0x04\n      tag_32\n      jump\t// in\n    tag_31:\n      tag_33\n      jump\t// in\n        /* \"src/project/ProjectRegister.sol\":6160:6254  function version() public pure virtual returns (string memory) {... */\n    tag_6:\n        /* \"src/project/ProjectRegister.sol\":6233:6247  return \"1.0.0\" */\n      0x40\n      dup1\n      mload\n      dup1\n      dup3\n      add\n      dup3\n      mstore\n      0x05\n      dup2\n      mstore\n      shl(0xdc, 0x0312e302e3)\n      0x20\n      dup3\n      add\n      mstore\n        /* \"src/project/ProjectRegister.sol\":6160:6254  function version() public pure virtual returns (string memory) {... */\n      swap1\n      mload\n      tag_23\n      swap2\n        /* \"src/project/ProjectRegister.sol\":6233:6247  return \"1.0.0\" */\n      swap1\n        /* \"src/project/ProjectRegister.sol\":6160:6254  function version() public pure virtual returns (string memory) {... */\n      tag_38\n      jump\t// in\n        /* \"@openzeppelin/contracts-upgradeable/access/OwnableUpgradeable.sol\":2064:2165  function renounceOwnership() public virtual onlyOwner {... */\n    tag_7:\n      tag_39\n      tag_40\n      jump\t// in\n    tag_39:\n      stop\n        /* \"src/project/ProjectRegister.sol\":2278:2359  function getSigner() public view returns (address) {... */\n    tag_8:\n        /* \"src/project/ProjectRegister.sol\":2346:2352  signer */\n      and(sub(shl(0xa0, 0x01), 0x01), sload(0x67))\n        /* \"src/project/ProjectRegister.sol\":2278:2359  function getSigner() public view returns (address) {... */\n      jump(tag_21)\n        /* \"@openzeppelin/contracts-upgradeable/access/OwnableUpgradeable.sol\":1441:1526  function owner() public view virtual returns (address) {... */\n    tag_9:\n        /* \"@openzeppelin/contracts-upgradeable/access/OwnableUpgradeable.sol\":1513:1519  _owner */\n      and(sub(shl(0xa0, 0x01), 0x01), sload(0x33))\n        /* \"@openzeppelin/contracts-upgradeable/access/OwnableUpgradeable.sol\":1441:1526  function owner() public view virtual returns (address) {... */\n      jump(tag_21)\n        /* \"src/project/ProjectRegister.sol\":3995:5223  function create(CreateParams calldata params) external returns (address projectAddress) {... */\n    tag_10:\n      tag_21\n      tag_48\n      calldatasize\n      0x04\n      tag_49\n      jump\t// in\n    tag_48:\n      tag_50\n      jump\t// in\n        /* \"src/project/ProjectRegister.sol\":2420:2646  function updateSigner(address _signer) external onlyOwner {... */\n    tag_11:\n      tag_39\n      tag_53\n      calldatasize\n      0x04\n      tag_54\n      jump\t// in\n    tag_53:\n      tag_55\n      jump\t// in\n        /* \"src/project/ProjectRegister.sol\":3250:3361  function getProjectTokenTemplate() external view returns (address) {... */\n    tag_12:\n        /* \"src/project/ProjectRegister.sol\":3334:3354  projectTokenTemplate */\n      and(sub(shl(0xa0, 0x01), 0x01), sload(0x69))\n        /* \"src/project/ProjectRegister.sol\":3250:3361  function getProjectTokenTemplate() external view returns (address) {... */\n      jump(tag_21)\n        /* \"src/project/ProjectRegister.sol\":619:647  uint256 public projectsCount */\n    tag_13:\n      tag_59\n      sload(0x66)\n      dup2\n      jump\n    tag_59:\n      mload(0x40)\n        /* \"#utility.yul\":2488:2513   */\n      swap1\n      dup2\n      mstore\n        /* \"#utility.yul\":2476:2478   */\n      0x20\n        /* \"#utility.yul\":2461:2479   */\n      add\n        /* \"src/project/ProjectRegister.sol\":619:647  uint256 public projectsCount */\n      tag_23\n        /* \"#utility.yul\":2342:2519   */\n      jump\n        /* \"src/project/ProjectRegister.sol\":2873:3189  function updateProjectTemplate(address _projectTemplate) external onlyOwner {... */\n    tag_14:\n      tag_39\n      tag_64\n      calldatasize\n      0x04\n      tag_54\n      jump\t// in\n    tag_64:\n      tag_65\n      jump\t// in\n        /* \"@openzeppelin/contracts-upgradeable/access/OwnableUpgradeable.sol\":2314:2512  function transferOwnership(address newOwner) public virtual onlyOwner {... */\n    tag_15:\n      tag_39\n      tag_67\n      calldatasize\n      0x04\n      tag_54\n      jump\t// in\n    tag_67:\n      tag_68\n      jump\t// in\n        /* \"src/project/ProjectRegister.sol\":1717:2233  function initialize(... */\n    tag_16:\n      tag_39\n      tag_70\n      calldatasize\n      0x04\n      tag_71\n      jump\t// in\n    tag_70:\n      tag_72\n      jump\t// in\n        /* \"src/project/ProjectRegister.sol\":3438:3866  function updateProjectTokenTemplate(address _projectTokenTemplate) external onlyOwner {... */\n    tag_17:\n      tag_39\n      tag_74\n      calldatasize\n      0x04\n      tag_54\n      jump\t// in\n    tag_74:\n      tag_75\n      jump\t// in\n        /* \"src/project/ProjectRegister.sol\":5308:6068  function getOwnerLatestProject(... */\n    tag_33:\n        /* \"src/project/ProjectRegister.sol\":5445:5452  address */\n      0x00\n      dup1\n        /* \"src/project/ProjectRegister.sol\":5533:5541  endIndex */\n      dup3\n        /* \"src/project/ProjectRegister.sol\":5519:5529  startIndex */\n      dup5\n        /* \"src/project/ProjectRegister.sol\":5519:5541  startIndex <= endIndex */\n      gt\n      iszero\n        /* \"src/project/ProjectRegister.sol\":5500:5569  startIndex >= 0 && startIndex <= endIndex && endIndex < projectsCount */\n      dup1\n      iszero\n      tag_79\n      jumpi\n      pop\n        /* \"src/project/ProjectRegister.sol\":5556:5569  projectsCount */\n      sload(0x66)\n        /* \"src/project/ProjectRegister.sol\":5545:5553  endIndex */\n      dup4\n        /* \"src/project/ProjectRegister.sol\":5545:5569  endIndex < projectsCount */\n      lt\n        /* \"src/project/ProjectRegister.sol\":5500:5569  startIndex >= 0 && startIndex <= endIndex && endIndex < projectsCount */\n    tag_79:\n        /* \"src/project/ProjectRegister.sol\":5496:6031  if (startIndex >= 0 && startIndex <= endIndex && endIndex < projectsCount) {... */\n      iszero\n      tag_80\n      jumpi\n        /* \"src/project/ProjectRegister.sol\":5602:5610  endIndex */\n      dup3\n        /* \"src/project/ProjectRegister.sol\":5585:5944  for (uint256 i = endIndex; i >= startIndex; ) {... */\n    tag_81:\n        /* \"src/project/ProjectRegister.sol\":5617:5627  startIndex */\n      dup5\n        /* \"src/project/ProjectRegister.sol\":5612:5613  i */\n      dup2\n        /* \"src/project/ProjectRegister.sol\":5612:5627  i >= startIndex */\n      lt\n        /* \"src/project/ProjectRegister.sol\":5585:5944  for (uint256 i = endIndex; i >= startIndex; ) {... */\n      tag_89\n      jumpi\n        /* \"src/project/ProjectRegister.sol\":5671:5689  projectsIndexer[i] */\n      0x00\n      dup2\n      dup2\n      mstore\n        /* \"src/project/ProjectRegister.sol\":5671:5686  projectsIndexer */\n      0x65\n        /* \"src/project/ProjectRegister.sol\":5671:5689  projectsIndexer[i] */\n      0x20\n      swap1\n      dup2\n      mstore\n      0x40\n      swap2\n      dup3\n      swap1\n      keccak256\n      sload\n        /* \"src/project/ProjectRegister.sol\":5662:5701  IProject(projectsIndexer[i]).getOwner() */\n      dup3\n      mload\n      shl(0xe3, 0x1127a41d)\n      dup2\n      mstore\n      swap3\n      mload\n      sub(shl(0xa0, 0x01), 0x01)\n        /* \"src/project/ProjectRegister.sol\":5671:5689  projectsIndexer[i] */\n      swap1\n      swap2\n      and\n      swap3\n        /* \"src/project/ProjectRegister.sol\":5662:5699  IProject(projectsIndexer[i]).getOwner */\n      0x893d20e8\n      swap3\n        /* \"src/project/ProjectRegister.sol\":5662:5701  IProject(projectsIndexer[i]).getOwner() */\n      0x04\n      dup1\n      dup4\n      add\n      swap4\n        /* \"src/project/ProjectRegister.sol\":5671:5689  projectsIndexer[i] */\n      swap2\n      swap3\n        /* \"src/project/ProjectRegister.sol\":5662:5701  IProject(projectsIndexer[i]).getOwner() */\n      dup3\n      swap1\n      sub\n      add\n      dup2\n        /* \"src/project/ProjectRegister.sol\":5671:5689  projectsIndexer[i] */\n      dup7\n        /* \"src/project/ProjectRegister.sol\":5662:5701  IProject(projectsIndexer[i]).getOwner() */\n      gas\n      staticcall\n      iszero\n      dup1\n      iszero\n      tag_85\n      jumpi\n      returndatasize\n      0x00\n      dup1\n      returndatacopy\n      revert(0x00, returndatasize)\n    tag_85:\n      pop\n      pop\n      pop\n      pop\n      mload(0x40)\n      returndatasize\n      not(0x1f)\n      0x1f\n      dup3\n      add\n      and\n      dup3\n      add\n      dup1\n      0x40\n      mstore\n      pop\n      dup2\n      add\n      swap1\n      tag_86\n      swap2\n      swap1\n      tag_87\n      jump\t// in\n    tag_86:\n      sub(shl(0xa0, 0x01), 0x01)\n        /* \"src/project/ProjectRegister.sol\":5653:5701  owner == IProject(projectsIndexer[i]).getOwner() */\n      and\n        /* \"src/project/ProjectRegister.sol\":5653:5658  owner */\n      dup7\n      sub(shl(0xa0, 0x01), 0x01)\n        /* \"src/project/ProjectRegister.sol\":5653:5701  owner == IProject(projectsIndexer[i]).getOwner() */\n      and\n      sub\n        /* \"src/project/ProjectRegister.sol\":5649:5806  if (owner == IProject(projectsIndexer[i]).getOwner()) {... */\n      tag_88\n      jumpi\n        /* \"src/project/ProjectRegister.sol\":5742:5760  projectsIndexer[i] */\n      0x00\n      dup2\n      dup2\n      mstore\n        /* \"src/project/ProjectRegister.sol\":5742:5757  projectsIndexer */\n      0x65\n        /* \"src/project/ProjectRegister.sol\":5742:5760  projectsIndexer[i] */\n      0x20\n      mstore\n      0x40\n      swap1\n      keccak256\n      sload\n      sub(shl(0xa0, 0x01), 0x01)\n      and\n      swap2\n      pop\n        /* \"src/project/ProjectRegister.sol\":5782:5787  break */\n      jump(tag_89)\n        /* \"src/project/ProjectRegister.sol\":5649:5806  if (owner == IProject(projectsIndexer[i]).getOwner()) {... */\n    tag_88:\n        /* \"src/project/ProjectRegister.sol\":5827:5832  i > 0 */\n      dup1\n      iszero\n        /* \"src/project/ProjectRegister.sol\":5823:5930  if (i > 0) {... */\n      tag_89\n      jumpi\n        /* \"src/project/ProjectRegister.sol\":5856:5859  i-- */\n      dup1\n      tag_90\n      dup2\n      tag_91\n      jump\t// in\n    tag_90:\n      swap2\n      pop\n      pop\n        /* \"src/project/ProjectRegister.sol\":5585:5944  for (uint256 i = endIndex; i >= startIndex; ) {... */\n      jump(tag_81)\n        /* \"src/project/ProjectRegister.sol\":5823:5930  if (i > 0) {... */\n    tag_89:\n        /* \"src/project/ProjectRegister.sol\":5585:5944  for (uint256 i = endIndex; i >= startIndex; ) {... */\n      pop\n        /* \"src/project/ProjectRegister.sol\":5496:6031  if (startIndex >= 0 && startIndex <= endIndex && endIndex < projectsCount) {... */\n      jump(tag_93)\n    tag_80:\n        /* \"src/project/ProjectRegister.sol\":5974:6020  revert(\"startIndex or endIndex out of range.\") */\n      mload(0x40)\n      shl(0xe5, 0x461bcd)\n      dup2\n      mstore\n        /* \"#utility.yul\":3931:3933   */\n      0x20\n        /* \"src/project/ProjectRegister.sol\":5974:6020  revert(\"startIndex or endIndex out of range.\") */\n      0x04\n      dup3\n      add\n        /* \"#utility.yul\":3913:3934   */\n      mstore\n        /* \"#utility.yul\":3970:3972   */\n      0x24\n        /* \"#utility.yul\":3950:3968   */\n      dup1\n      dup3\n      add\n        /* \"#utility.yul\":3943:3973   */\n      mstore\n        /* \"#utility.yul\":4009:4043   */\n      0x7374617274496e646578206f7220656e64496e646578206f7574206f66207261\n        /* \"#utility.yul\":3989:4007   */\n      0x44\n      dup3\n      add\n        /* \"#utility.yul\":3982:4044   */\n      mstore\n      shl(0xe1, 0x3733b297)\n        /* \"#utility.yul\":4060:4078   */\n      0x64\n      dup3\n      add\n        /* \"#utility.yul\":4053:4087   */\n      mstore\n        /* \"#utility.yul\":4104:4123   */\n      0x84\n      add\n        /* \"src/project/ProjectRegister.sol\":5974:6020  revert(\"startIndex or endIndex out of range.\") */\n    tag_94:\n      mload(0x40)\n      dup1\n      swap2\n      sub\n      swap1\n      revert\n        /* \"src/project/ProjectRegister.sol\":5496:6031  if (startIndex >= 0 && startIndex <= endIndex && endIndex < projectsCount) {... */\n    tag_93:\n        /* \"src/project/ProjectRegister.sol\":6047:6061  projectAddress */\n      swap5\n        /* \"src/project/ProjectRegister.sol\":5308:6068  function getOwnerLatestProject(... */\n      swap4\n      pop\n      pop\n      pop\n      pop\n      jump\t// out\n        /* \"@openzeppelin/contracts-upgradeable/access/OwnableUpgradeable.sol\":2064:2165  function renounceOwnership() public virtual onlyOwner {... */\n    tag_40:\n        /* \"@openzeppelin/contracts-upgradeable/access/OwnableUpgradeable.sol\":1334:1347  _checkOwner() */\n      tag_98\n        /* \"@openzeppelin/contracts-upgradeable/access/OwnableUpgradeable.sol\":1334:1345  _checkOwner */\n      tag_99\n        /* \"@openzeppelin/contracts-upgradeable/access/OwnableUpgradeable.sol\":1334:1347  _checkOwner() */\n      jump\t// in\n    tag_98:\n        /* \"@openzeppelin/contracts-upgradeable/access/OwnableUpgradeable.sol\":2128:2158  _transferOwnership(address(0)) */\n      tag_101\n        /* \"@openzeppelin/contracts-upgradeable/access/OwnableUpgradeable.sol\":2155:2156  0 */\n      0x00\n        /* \"@openzeppelin/contracts-upgradeable/access/OwnableUpgradeable.sol\":2128:2146  _transferOwnership */\n      tag_102\n        /* \"@openzeppelin/contracts-upgradeable/access/OwnableUpgradeable.sol\":2128:2158  _transferOwnership(address(0)) */\n      jump\t// in\n    tag_101:\n        /* \"@openzeppelin/contracts-upgradeable/access/OwnableUpgradeable.sol\":2064:2165  function renounceOwnership() public virtual onlyOwner {... */\n      jump\t// out\n        /* \"src/project/ProjectRegister.sol\":3995:5223  function create(CreateParams calldata params) external returns (address projectAddress) {... */\n    tag_50:\n        /* \"src/project/ProjectRegister.sol\":4109:4122  projectsCount */\n      sload(0x66)\n        /* \"src/project/ProjectRegister.sol\":4198:4218  projectTokenTemplate */\n      sload(0x69)\n        /* \"src/project/ProjectRegister.sol\":4059:4081  address projectAddress */\n      0x00\n      swap2\n        /* \"src/project/ProjectRegister.sol\":4109:4122  projectsCount */\n      swap1\n        /* \"src/project/ProjectRegister.sol\":4059:4081  address projectAddress */\n      dup3\n      swap1\n        /* \"src/project/ProjectRegister.sol\":4148:4296  ClonesUpgradeable.cloneDeterministic(... */\n      tag_106\n      swap1\n      sub(shl(0xa0, 0x01), 0x01)\n        /* \"src/project/ProjectRegister.sol\":4198:4218  projectTokenTemplate */\n      and\n        /* \"src/project/ProjectRegister.sol\":4109:4122  projectsCount */\n      dup4\n        /* \"src/project/ProjectRegister.sol\":4266:4284  params.tokenSymbol */\n      tag_107\n      0x60\n      dup9\n      add\n        /* \"src/project/ProjectRegister.sol\":4266:4272  params */\n      dup9\n        /* \"src/project/ProjectRegister.sol\":4266:4284  params.tokenSymbol */\n      tag_108\n      jump\t// in\n    tag_107:\n        /* \"src/project/ProjectRegister.sol\":4242:4285  abi.encodePacked(index, params.tokenSymbol) */\n      add(0x20, mload(0x40))\n      tag_109\n      swap4\n      swap3\n      swap2\n      swap1\n      tag_110\n      jump\t// in\n    tag_109:\n      mload(0x40)\n      0x20\n      dup2\n      dup4\n      sub\n      sub\n      dup2\n      mstore\n      swap1\n      0x40\n      mstore\n        /* \"src/project/ProjectRegister.sol\":4232:4286  keccak256(abi.encodePacked(index, params.tokenSymbol)) */\n      dup1\n      mload\n      swap1\n      0x20\n      add\n      keccak256\n        /* \"src/project/ProjectRegister.sol\":4148:4184  ClonesUpgradeable.cloneDeterministic */\n      tag_111\n        /* \"src/project/ProjectRegister.sol\":4148:4296  ClonesUpgradeable.cloneDeterministic(... */\n      jump\t// in\n    tag_106:\n        /* \"src/project/ProjectRegister.sol\":4374:4389  projectTemplate */\n      sload(0x68)\n        /* \"src/project/ProjectRegister.sol\":4413:4436  abi.encodePacked(index) */\n      0x40\n      dup1\n      mload\n      0x20\n      dup2\n      add\n        /* \"#utility.yul\":5142:5161   */\n      dup7\n      swap1\n      mstore\n        /* \"src/project/ProjectRegister.sol\":4132:4296  address token = ClonesUpgradeable.cloneDeterministic(... */\n      swap3\n      swap4\n      pop\n        /* \"src/project/ProjectRegister.sol\":4324:4447  ClonesUpgradeable.cloneDeterministic(... */\n      tag_112\n      swap3\n      sub(shl(0xa0, 0x01), 0x01)\n        /* \"src/project/ProjectRegister.sol\":4374:4389  projectTemplate */\n      swap1\n      swap3\n      and\n      swap2\n        /* \"#utility.yul\":5177:5189   */\n      add\n        /* \"src/project/ProjectRegister.sol\":4413:4436  abi.encodePacked(index) */\n      tag_109\n        /* \"#utility.yul\":5013:5195   */\n      jump\n        /* \"src/project/ProjectRegister.sol\":4324:4447  ClonesUpgradeable.cloneDeterministic(... */\n    tag_112:\n        /* \"src/project/ProjectRegister.sol\":4495:4859  InitializeParams({... */\n      0x40\n      dup1\n      mload\n      0xa0\n      dup2\n      add\n      swap1\n      swap2\n      mstore\n        /* \"src/project/ProjectRegister.sol\":4544:4548  this */\n      address\n        /* \"src/project/ProjectRegister.sol\":4495:4859  InitializeParams({... */\n      dup2\n      mstore\n        /* \"src/project/ProjectRegister.sol\":4307:4447  projectAddress = ClonesUpgradeable.cloneDeterministic(... */\n      swap1\n      swap4\n      pop\n        /* \"src/project/ProjectRegister.sol\":4458:4492  InitializeParams memory initParams */\n      0x00\n      swap1\n        /* \"src/project/ProjectRegister.sol\":4495:4859  InitializeParams({... */\n      0x20\n      dup1\n      dup3\n      add\n      swap1\n        /* \"src/project/ProjectRegister.sol\":4570:4582  params.admin */\n      tag_115\n      swap1\n      dup9\n      add\n        /* \"src/project/ProjectRegister.sol\":4570:4576  params */\n      dup9\n        /* \"src/project/ProjectRegister.sol\":4570:4582  params.admin */\n      tag_54\n      jump\t// in\n    tag_115:\n      sub(shl(0xa0, 0x01), 0x01)\n        /* \"src/project/ProjectRegister.sol\":4495:4859  InitializeParams({... */\n      and\n      dup2\n      mstore\n      0x20\n      add\n        /* \"src/project/ProjectRegister.sol\":4605:4611  params */\n      dup7\n        /* \"src/project/ProjectRegister.sol\":4605:4619  params.members */\n      dup1\n      0x20\n      add\n      swap1\n      tag_116\n      swap2\n      swap1\n      tag_117\n      jump\t// in\n    tag_116:\n        /* \"src/project/ProjectRegister.sol\":4495:4859  InitializeParams({... */\n      dup1\n      dup1\n      0x20\n      mul\n      0x20\n      add\n      mload(0x40)\n      swap1\n      dup2\n      add\n      0x40\n      mstore\n      dup1\n      swap4\n      swap3\n      swap2\n      swap1\n      dup2\n      dup2\n      mstore\n      0x20\n      add\n      dup4\n      dup4\n      0x20\n      mul\n      dup1\n      dup3\n      dup5\n      calldatacopy\n      0x00\n      swap3\n      add\n      swap2\n      swap1\n      swap2\n      mstore\n      pop\n      pop\n      pop\n      swap1\n      dup3\n      mstore\n      pop\n        /* \"src/project/ProjectRegister.sol\":4649:4822  VotingStrategy({... */\n      0x40\n      dup1\n      mload\n      0x60\n      dup2\n      add\n      swap1\n      swap2\n      mstore\n        /* \"src/project/ProjectRegister.sol\":4495:4859  InitializeParams({... */\n      0x20\n      swap1\n      swap2\n      add\n      swap1\n        /* \"src/project/ProjectRegister.sol\":4649:4822  VotingStrategy({... */\n      dup1\n        /* \"src/project/ProjectRegister.sol\":4688:4707  params.voteStrategy */\n      tag_118\n      0xa0\n      dup11\n      add\n      0x80\n      dup12\n      add\n      tag_54\n      jump\t// in\n    tag_118:\n      sub(shl(0xa0, 0x01), 0x01)\n        /* \"src/project/ProjectRegister.sol\":4649:4822  VotingStrategy({... */\n      and\n      dup2\n      mstore\n      0x20\n      add\n        /* \"src/project/ProjectRegister.sol\":4731:4754  params.voteStrategyData */\n      tag_119\n      0xa0\n      dup11\n      add\n        /* \"src/project/ProjectRegister.sol\":4731:4737  params */\n      dup11\n        /* \"src/project/ProjectRegister.sol\":4731:4754  params.voteStrategyData */\n      tag_108\n      jump\t// in\n    tag_119:\n        /* \"src/project/ProjectRegister.sol\":4649:4822  VotingStrategy({... */\n      dup1\n      dup1\n      0x1f\n      add\n      0x20\n      dup1\n      swap2\n      div\n      mul\n      0x20\n      add\n      mload(0x40)\n      swap1\n      dup2\n      add\n      0x40\n      mstore\n      dup1\n      swap4\n      swap3\n      swap2\n      swap1\n      dup2\n      dup2\n      mstore\n      0x20\n      add\n      dup4\n      dup4\n      dup1\n      dup3\n      dup5\n      calldatacopy\n      0x00\n      swap3\n      add\n      swap2\n      swap1\n      swap2\n      mstore\n      pop\n      pop\n      pop\n      swap1\n      dup3\n      mstore\n      pop\n        /* \"src/project/ProjectRegister.sol\":4785:4807  params.votePassingRate */\n      0xc0\n      dup10\n      add\n      calldataload\n        /* \"src/project/ProjectRegister.sol\":4649:4822  VotingStrategy({... */\n      0x20\n      swap2\n      dup3\n      add\n      mstore\n        /* \"src/project/ProjectRegister.sol\":4495:4859  InitializeParams({... */\n      swap1\n      dup3\n      mstore\n      sub(shl(0xa0, 0x01), 0x01)\n      dup1\n      dup7\n      and\n      swap3\n      swap1\n      swap2\n      add\n      swap2\n      swap1\n      swap2\n      mstore\n        /* \"src/project/ProjectRegister.sol\":4900:4947  IProject(projectAddress).initialize(initParams) */\n      mload(0x40)\n      shl(0xe1, 0x6f16be6d)\n      dup2\n      mstore\n        /* \"src/project/ProjectRegister.sol\":4458:4859  InitializeParams memory initParams = InitializeParams({... */\n      swap2\n      swap3\n      pop\n        /* \"src/project/ProjectRegister.sol\":4900:4935  IProject(projectAddress).initialize */\n      dup6\n      and\n      swap1\n      0xde2d7cda\n      swap1\n        /* \"src/project/ProjectRegister.sol\":4900:4947  IProject(projectAddress).initialize(initParams) */\n      tag_121\n      swap1\n        /* \"src/project/ProjectRegister.sol\":4458:4859  InitializeParams memory initParams = InitializeParams({... */\n      dup5\n      swap1\n        /* \"src/project/ProjectRegister.sol\":4900:4947  IProject(projectAddress).initialize(initParams) */\n      0x04\n      add\n      tag_122\n      jump\t// in\n    tag_121:\n      0x00\n      mload(0x40)\n      dup1\n      dup4\n      sub\n      dup2\n      0x00\n      dup8\n      dup1\n      extcodesize\n      iszero\n      dup1\n      iszero\n      tag_123\n      jumpi\n      0x00\n      dup1\n      revert\n    tag_123:\n      pop\n      gas\n      call\n      iszero\n      dup1\n      iszero\n      tag_125\n      jumpi\n      returndatasize\n      0x00\n      dup1\n      returndatacopy\n      revert(0x00, returndatasize)\n    tag_125:\n      pop\n      pop\n      pop\n      sub(shl(0xa0, 0x01), 0x01)\n        /* \"src/project/ProjectRegister.sol\":4986:5017  IProjectToken(token).initialize */\n      dup4\n      and\n      swap1\n      pop\n      0x077f224a\n        /* \"src/project/ProjectRegister.sol\":5018:5034  params.tokenName */\n      tag_126\n      0x40\n      dup9\n      add\n      dup9\n      tag_108\n      jump\t// in\n    tag_126:\n        /* \"src/project/ProjectRegister.sol\":5036:5054  params.tokenSymbol */\n      tag_127\n      0x60\n      dup11\n      add\n        /* \"src/project/ProjectRegister.sol\":5036:5042  params */\n      dup11\n        /* \"src/project/ProjectRegister.sol\":5036:5054  params.tokenSymbol */\n      tag_108\n      jump\t// in\n    tag_127:\n        /* \"src/project/ProjectRegister.sol\":5056:5070  projectAddress */\n      dup10\n        /* \"src/project/ProjectRegister.sol\":4986:5071  IProjectToken(token).initialize(params.tokenName, params.tokenSymbol, projectAddress) */\n      mload(0x40)\n      dup7\n      0xffffffff\n      and\n      0xe0\n      shl\n      dup2\n      mstore\n      0x04\n      add\n      tag_128\n      swap6\n      swap5\n      swap4\n      swap3\n      swap2\n      swap1\n      tag_129\n      jump\t// in\n    tag_128:\n      0x00\n      mload(0x40)\n      dup1\n      dup4\n      sub\n      dup2\n      0x00\n      dup8\n      dup1\n      extcodesize\n      iszero\n      dup1\n      iszero\n      tag_130\n      jumpi\n      0x00\n      dup1\n      revert\n    tag_130:\n      pop\n      gas\n      call\n      iszero\n      dup1\n      iszero\n      tag_132\n      jumpi\n      returndatasize\n      0x00\n      dup1\n      returndatacopy\n      revert(0x00, returndatasize)\n    tag_132:\n      pop\n      pop\n        /* \"src/project/ProjectRegister.sol\":5118:5133  projectTemplate */\n      sload(0x68)\n        /* \"src/project/ProjectRegister.sol\":5087:5141  ProjectCreated(projectAddress, projectTemplate, index) */\n      mload(0x40)\n        /* \"#utility.yul\":2488:2513   */\n      dup7\n      dup2\n      mstore\n      sub(shl(0xa0, 0x01), 0x01)\n        /* \"src/project/ProjectRegister.sol\":5118:5133  projectTemplate */\n      swap2\n      dup3\n      and\n      swap4\n      pop\n        /* \"src/project/ProjectRegister.sol\":5087:5141  ProjectCreated(projectAddress, projectTemplate, index) */\n      swap1\n      dup8\n      and\n      swap2\n      pop\n      0x3f7f2605a4860b57de4b2bb7500ef93af42fbcdac9c6d8a0f71a8134e45823b0\n      swap1\n        /* \"#utility.yul\":2476:2478   */\n      0x20\n        /* \"#utility.yul\":2461:2479   */\n      add\n        /* \"src/project/ProjectRegister.sol\":5087:5141  ProjectCreated(projectAddress, projectTemplate, index) */\n      mload(0x40)\n      dup1\n      swap2\n      sub\n      swap1\n      log3\n        /* \"src/project/ProjectRegister.sol\":5152:5174  projectsIndexer[index] */\n      0x00\n      dup4\n      dup2\n      mstore\n        /* \"src/project/ProjectRegister.sol\":5152:5167  projectsIndexer */\n      0x65\n        /* \"src/project/ProjectRegister.sol\":5152:5174  projectsIndexer[index] */\n      0x20\n      mstore\n      0x40\n      dup2\n      keccak256\n        /* \"src/project/ProjectRegister.sol\":5152:5191  projectsIndexer[index] = projectAddress */\n      dup1\n      sload\n      not(sub(shl(0xa0, 0x01), 0x01))\n      and\n      sub(shl(0xa0, 0x01), 0x01)\n      dup8\n      and\n      or\n      swap1\n      sstore\n        /* \"src/project/ProjectRegister.sol\":5201:5214  projectsCount */\n      0x66\n        /* \"src/project/ProjectRegister.sol\":5201:5216  projectsCount++ */\n      dup1\n      sload\n      swap2\n      tag_134\n      dup4\n      tag_135\n      jump\t// in\n    tag_134:\n      swap2\n      swap1\n      pop\n      sstore\n      pop\n        /* \"src/project/ProjectRegister.sol\":4083:5223  {... */\n      pop\n      pop\n      pop\n        /* \"src/project/ProjectRegister.sol\":3995:5223  function create(CreateParams calldata params) external returns (address projectAddress) {... */\n      swap2\n      swap1\n      pop\n      jump\t// out\n        /* \"src/project/ProjectRegister.sol\":2420:2646  function updateSigner(address _signer) external onlyOwner {... */\n    tag_55:\n        /* \"@openzeppelin/contracts-upgradeable/access/OwnableUpgradeable.sol\":1334:1347  _checkOwner() */\n      tag_137\n        /* \"@openzeppelin/contracts-upgradeable/access/OwnableUpgradeable.sol\":1334:1345  _checkOwner */\n      tag_99\n        /* \"@openzeppelin/contracts-upgradeable/access/OwnableUpgradeable.sol\":1334:1347  _checkOwner() */\n      jump\t// in\n    tag_137:\n      sub(shl(0xa0, 0x01), 0x01)\n        /* \"src/project/ProjectRegister.sol\":2492:2513  _signer != address(0) */\n      dup2\n      and\n      iszero\n      dup1\n      iszero\n      swap1\n        /* \"src/project/ProjectRegister.sol\":2492:2534  _signer != address(0) && _signer != signer */\n      tag_139\n      jumpi\n      pop\n        /* \"src/project/ProjectRegister.sol\":2528:2534  signer */\n      sload(0x67)\n      sub(shl(0xa0, 0x01), 0x01)\n        /* \"src/project/ProjectRegister.sol\":2517:2534  _signer != signer */\n      dup3\n      dup2\n      and\n        /* \"src/project/ProjectRegister.sol\":2528:2534  signer */\n      swap2\n      and\n        /* \"src/project/ProjectRegister.sol\":2517:2534  _signer != signer */\n      eq\n      iszero\n        /* \"src/project/ProjectRegister.sol\":2492:2534  _signer != address(0) && _signer != signer */\n    tag_139:\n        /* \"src/project/ProjectRegister.sol\":2488:2640  if (_signer != address(0) && _signer != signer) {... */\n      iszero\n      tag_140\n      jumpi\n        /* \"src/project/ProjectRegister.sol\":2583:2589  signer */\n      sload(0x67)\n        /* \"src/project/ProjectRegister.sol\":2555:2599  SignerChanged(_msgSender(), signer, _signer) */\n      mload(0x40)\n      sub(shl(0xa0, 0x01), 0x01)\n      dup4\n      dup2\n      and\n      swap3\n        /* \"src/project/ProjectRegister.sol\":2583:2589  signer */\n      and\n      swap1\n        /* \"@openzeppelin/contracts-upgradeable/utils/ContextUpgradeable.sol\":929:939  msg.sender */\n      caller\n      swap1\n        /* \"src/project/ProjectRegister.sol\":2555:2599  SignerChanged(_msgSender(), signer, _signer) */\n      0x24779ce5fe2429146fb350e3dc834be089e40e789d4f53dac6905a26cbc97a8b\n      swap1\n      0x00\n      swap1\n      log4\n        /* \"src/project/ProjectRegister.sol\":2613:2619  signer */\n      0x67\n        /* \"src/project/ProjectRegister.sol\":2613:2629  signer = _signer */\n      dup1\n      sload\n      not(sub(shl(0xa0, 0x01), 0x01))\n      and\n      sub(shl(0xa0, 0x01), 0x01)\n      dup4\n      and\n      or\n      swap1\n      sstore\n        /* \"src/project/ProjectRegister.sol\":2488:2640  if (_signer != address(0) && _signer != signer) {... */\n    tag_140:\n        /* \"src/project/ProjectRegister.sol\":2420:2646  function updateSigner(address _signer) external onlyOwner {... */\n      pop\n      jump\t// out\n        /* \"src/project/ProjectRegister.sol\":2873:3189  function updateProjectTemplate(address _projectTemplate) external onlyOwner {... */\n    tag_65:\n        /* \"@openzeppelin/contracts-upgradeable/access/OwnableUpgradeable.sol\":1334:1347  _checkOwner() */\n      tag_145\n        /* \"@openzeppelin/contracts-upgradeable/access/OwnableUpgradeable.sol\":1334:1345  _checkOwner */\n      tag_99\n        /* \"@openzeppelin/contracts-upgradeable/access/OwnableUpgradeable.sol\":1334:1347  _checkOwner() */\n      jump\t// in\n    tag_145:\n      sub(shl(0xa0, 0x01), 0x01)\n        /* \"src/project/ProjectRegister.sol\":2963:2993  _projectTemplate != address(0) */\n      dup2\n      and\n      iszero\n      dup1\n      iszero\n      swap1\n        /* \"src/project/ProjectRegister.sol\":2963:3032  _projectTemplate != address(0) && _projectTemplate != projectTemplate */\n      tag_147\n      jumpi\n      pop\n        /* \"src/project/ProjectRegister.sol\":3017:3032  projectTemplate */\n      sload(0x68)\n      sub(shl(0xa0, 0x01), 0x01)\n        /* \"src/project/ProjectRegister.sol\":2997:3032  _projectTemplate != projectTemplate */\n      dup3\n      dup2\n      and\n        /* \"src/project/ProjectRegister.sol\":3017:3032  projectTemplate */\n      swap2\n      and\n        /* \"src/project/ProjectRegister.sol\":2997:3032  _projectTemplate != projectTemplate */\n      eq\n      iszero\n        /* \"src/project/ProjectRegister.sol\":2963:3032  _projectTemplate != address(0) && _projectTemplate != projectTemplate */\n    tag_147:\n        /* \"src/project/ProjectRegister.sol\":2959:3183  if (_projectTemplate != address(0) && _projectTemplate != projectTemplate) {... */\n      iszero\n      tag_140\n      jumpi\n        /* \"src/project/ProjectRegister.sol\":3090:3105  projectTemplate */\n      sload(0x68)\n        /* \"src/project/ProjectRegister.sol\":3053:3124  ProjectTemplateChanged(_msgSender(), projectTemplate, _projectTemplate) */\n      mload(0x40)\n      sub(shl(0xa0, 0x01), 0x01)\n      dup4\n      dup2\n      and\n      swap3\n        /* \"src/project/ProjectRegister.sol\":3090:3105  projectTemplate */\n      and\n      swap1\n        /* \"@openzeppelin/contracts-upgradeable/utils/ContextUpgradeable.sol\":929:939  msg.sender */\n      caller\n      swap1\n        /* \"src/project/ProjectRegister.sol\":3053:3124  ProjectTemplateChanged(_msgSender(), projectTemplate, _projectTemplate) */\n      0x6bf8ae1450db343ba817d7c1b09f7053496158e4af244fb7174a6c308502c4f5\n      swap1\n      0x00\n      swap1\n      log4\n        /* \"src/project/ProjectRegister.sol\":3138:3153  projectTemplate */\n      0x68\n        /* \"src/project/ProjectRegister.sol\":3138:3172  projectTemplate = _projectTemplate */\n      dup1\n      sload\n      sub(shl(0xa0, 0x01), 0x01)\n      dup4\n      and\n      not(sub(shl(0xa0, 0x01), 0x01))\n      swap1\n      swap2\n      and\n      or\n      swap1\n      sstore\n        /* \"src/project/ProjectRegister.sol\":2873:3189  function updateProjectTemplate(address _projectTemplate) external onlyOwner {... */\n      pop\n      jump\t// out\n        /* \"@openzeppelin/contracts-upgradeable/access/OwnableUpgradeable.sol\":2314:2512  function transferOwnership(address newOwner) public virtual onlyOwner {... */\n    tag_68:\n        /* \"@openzeppelin/contracts-upgradeable/access/OwnableUpgradeable.sol\":1334:1347  _checkOwner() */\n      tag_151\n        /* \"@openzeppelin/contracts-upgradeable/access/OwnableUpgradeable.sol\":1334:1345  _checkOwner */\n      tag_99\n        /* \"@openzeppelin/contracts-upgradeable/access/OwnableUpgradeable.sol\":1334:1347  _checkOwner() */\n      jump\t// in\n    tag_151:\n      sub(shl(0xa0, 0x01), 0x01)\n        /* \"@openzeppelin/contracts-upgradeable/access/OwnableUpgradeable.sol\":2402:2424  newOwner != address(0) */\n      dup2\n      and\n        /* \"@openzeppelin/contracts-upgradeable/access/OwnableUpgradeable.sol\":2394:2467  require(newOwner != address(0), \"Ownable: new owner is the zero address\") */\n      tag_153\n      jumpi\n      mload(0x40)\n      shl(0xe5, 0x461bcd)\n      dup2\n      mstore\n        /* \"#utility.yul\":9056:9058   */\n      0x20\n        /* \"@openzeppelin/contracts-upgradeable/access/OwnableUpgradeable.sol\":2394:2467  require(newOwner != address(0), \"Ownable: new owner is the zero address\") */\n      0x04\n      dup3\n      add\n        /* \"#utility.yul\":9038:9059   */\n      mstore\n        /* \"#utility.yul\":9095:9097   */\n      0x26\n        /* \"#utility.yul\":9075:9093   */\n      0x24\n      dup3\n      add\n        /* \"#utility.yul\":9068:9098   */\n      mstore\n        /* \"#utility.yul\":9134:9168   */\n      0x4f776e61626c653a206e6577206f776e657220697320746865207a65726f2061\n        /* \"#utility.yul\":9114:9132   */\n      0x44\n      dup3\n      add\n        /* \"#utility.yul\":9107:9169   */\n      mstore\n      shl(0xd0, 0x646472657373)\n        /* \"#utility.yul\":9185:9203   */\n      0x64\n      dup3\n      add\n        /* \"#utility.yul\":9178:9214   */\n      mstore\n        /* \"#utility.yul\":9231:9250   */\n      0x84\n      add\n        /* \"@openzeppelin/contracts-upgradeable/access/OwnableUpgradeable.sol\":2394:2467  require(newOwner != address(0), \"Ownable: new owner is the zero address\") */\n      tag_94\n        /* \"#utility.yul\":8854:9256   */\n      jump\n        /* \"@openzeppelin/contracts-upgradeable/access/OwnableUpgradeable.sol\":2394:2467  require(newOwner != address(0), \"Ownable: new owner is the zero address\") */\n    tag_153:\n        /* \"@openzeppelin/contracts-upgradeable/access/OwnableUpgradeable.sol\":2477:2505  _transferOwnership(newOwner) */\n      tag_140\n        /* \"@openzeppelin/contracts-upgradeable/access/OwnableUpgradeable.sol\":2496:2504  newOwner */\n      dup2\n        /* \"@openzeppelin/contracts-upgradeable/access/OwnableUpgradeable.sol\":2477:2495  _transferOwnership */\n      tag_102\n        /* \"@openzeppelin/contracts-upgradeable/access/OwnableUpgradeable.sol\":2477:2505  _transferOwnership(newOwner) */\n      jump\t// in\n        /* \"src/project/ProjectRegister.sol\":1717:2233  function initialize(... */\n    tag_72:\n        /* \"@openzeppelin/contracts-upgradeable/proxy/utils/Initializable.sol\":3279:3298  bool isTopLevelCall */\n      0x00\n        /* \"@openzeppelin/contracts-upgradeable/proxy/utils/Initializable.sol\":3302:3315  _initializing */\n      sload\n      0x0100\n      swap1\n      div\n      0xff\n      and\n        /* \"@openzeppelin/contracts-upgradeable/proxy/utils/Initializable.sol\":3301:3315  !_initializing */\n      iszero\n      dup1\n        /* \"@openzeppelin/contracts-upgradeable/proxy/utils/Initializable.sol\":3347:3381  isTopLevelCall && _initialized < 1 */\n      dup1\n      iszero\n      tag_158\n      jumpi\n      pop\n        /* \"@openzeppelin/contracts-upgradeable/proxy/utils/Initializable.sol\":3365:3377  _initialized */\n      sload(0x00)\n        /* \"@openzeppelin/contracts-upgradeable/proxy/utils/Initializable.sol\":3380:3381  1 */\n      0x01\n        /* \"@openzeppelin/contracts-upgradeable/proxy/utils/Initializable.sol\":3365:3377  _initialized */\n      0xff\n      swap1\n      swap2\n      and\n        /* \"@openzeppelin/contracts-upgradeable/proxy/utils/Initializable.sol\":3365:3381  _initialized < 1 */\n      lt\n        /* \"@openzeppelin/contracts-upgradeable/proxy/utils/Initializable.sol\":3347:3381  isTopLevelCall && _initialized < 1 */\n    tag_158:\n        /* \"@openzeppelin/contracts-upgradeable/proxy/utils/Initializable.sol\":3346:3454  (isTopLevelCall && _initialized < 1) || (!AddressUpgradeable.isContract(address(this)) && _initialized == 1) */\n      dup1\n      tag_162\n      jumpi\n      pop\n        /* \"@openzeppelin/contracts-upgradeable/proxy/utils/Initializable.sol\":3426:3430  this */\n      address\n        /* \"@openzeppelin/contracts-upgradeable/utils/AddressUpgradeable.sol\":1713:1732  account.code.length */\n      extcodesize\n        /* \"@openzeppelin/contracts-upgradeable/utils/AddressUpgradeable.sol\":1713:1736  account.code.length > 0 */\n      iszero\n      dup1\n      iszero\n        /* \"@openzeppelin/contracts-upgradeable/proxy/utils/Initializable.sol\":3387:3453  !AddressUpgradeable.isContract(address(this)) && _initialized == 1 */\n      tag_162\n      jumpi\n      pop\n        /* \"@openzeppelin/contracts-upgradeable/proxy/utils/Initializable.sol\":3436:3448  _initialized */\n      and(0xff, sload(0x00))\n      0x01\n        /* \"@openzeppelin/contracts-upgradeable/proxy/utils/Initializable.sol\":3436:3453  _initialized == 1 */\n      eq\n        /* \"@openzeppelin/contracts-upgradeable/proxy/utils/Initializable.sol\":3387:3453  !AddressUpgradeable.isContract(address(this)) && _initialized == 1 */\n    tag_162:\n        /* \"@openzeppelin/contracts-upgradeable/proxy/utils/Initializable.sol\":3325:3526  require(... */\n      tag_163\n      jumpi\n      mload(0x40)\n      shl(0xe5, 0x461bcd)\n      dup2\n      mstore\n        /* \"#utility.yul\":9463:9465   */\n      0x20\n        /* \"@openzeppelin/contracts-upgradeable/proxy/utils/Initializable.sol\":3325:3526  require(... */\n      0x04\n      dup3\n      add\n        /* \"#utility.yul\":9445:9466   */\n      mstore\n        /* \"#utility.yul\":9502:9504   */\n      0x2e\n        /* \"#utility.yul\":9482:9500   */\n      0x24\n      dup3\n      add\n        /* \"#utility.yul\":9475:9505   */\n      mstore\n        /* \"#utility.yul\":9541:9575   */\n      0x496e697469616c697a61626c653a20636f6e747261637420697320616c726561\n        /* \"#utility.yul\":9521:9539   */\n      0x44\n      dup3\n      add\n        /* \"#utility.yul\":9514:9576   */\n      mstore\n      shl(0x92, 0x191e481a5b9a5d1a585b1a5e9959)\n        /* \"#utility.yul\":9592:9610   */\n      0x64\n      dup3\n      add\n        /* \"#utility.yul\":9585:9629   */\n      mstore\n        /* \"#utility.yul\":9646:9665   */\n      0x84\n      add\n        /* \"@openzeppelin/contracts-upgradeable/proxy/utils/Initializable.sol\":3325:3526  require(... */\n      tag_94\n        /* \"#utility.yul\":9261:9671   */\n      jump\n        /* \"@openzeppelin/contracts-upgradeable/proxy/utils/Initializable.sol\":3325:3526  require(... */\n    tag_163:\n        /* \"@openzeppelin/contracts-upgradeable/proxy/utils/Initializable.sol\":3536:3548  _initialized */\n      0x00\n        /* \"@openzeppelin/contracts-upgradeable/proxy/utils/Initializable.sol\":3536:3552  _initialized = 1 */\n      dup1\n      sload\n      not(0xff)\n      and\n        /* \"@openzeppelin/contracts-upgradeable/proxy/utils/Initializable.sol\":3551:3552  1 */\n      0x01\n        /* \"@openzeppelin/contracts-upgradeable/proxy/utils/Initializable.sol\":3536:3552  _initialized = 1 */\n      or\n      swap1\n      sstore\n        /* \"@openzeppelin/contracts-upgradeable/proxy/utils/Initializable.sol\":3562:3627  if (isTopLevelCall) {... */\n      dup1\n      iszero\n      tag_166\n      jumpi\n        /* \"@openzeppelin/contracts-upgradeable/proxy/utils/Initializable.sol\":3596:3609  _initializing */\n      0x00\n        /* \"@openzeppelin/contracts-upgradeable/proxy/utils/Initializable.sol\":3596:3616  _initializing = true */\n      dup1\n      sload\n      not(0xff00)\n      and\n      0x0100\n      or\n      swap1\n      sstore\n        /* \"@openzeppelin/contracts-upgradeable/proxy/utils/Initializable.sol\":3562:3627  if (isTopLevelCall) {... */\n    tag_166:\n      sub(shl(0xa0, 0x01), 0x01)\n        /* \"src/project/ProjectRegister.sol\":1921:1941  _owner != address(0) */\n      dup6\n      and\n        /* \"src/project/ProjectRegister.sol\":1913:1983  require(_owner != address(0), \"The owner cannot be initialized zero.\") */\n      tag_168\n      jumpi\n      mload(0x40)\n      shl(0xe5, 0x461bcd)\n      dup2\n      mstore\n        /* \"#utility.yul\":9878:9880   */\n      0x20\n        /* \"src/project/ProjectRegister.sol\":1913:1983  require(_owner != address(0), \"The owner cannot be initialized zero.\") */\n      0x04\n      dup3\n      add\n        /* \"#utility.yul\":9860:9881   */\n      mstore\n        /* \"#utility.yul\":9917:9919   */\n      0x25\n        /* \"#utility.yul\":9897:9915   */\n      0x24\n      dup3\n      add\n        /* \"#utility.yul\":9890:9920   */\n      mstore\n        /* \"#utility.yul\":9956:9990   */\n      0x546865206f776e65722063616e6e6f7420626520696e697469616c697a656420\n        /* \"#utility.yul\":9936:9954   */\n      0x44\n      dup3\n      add\n        /* \"#utility.yul\":9929:9991   */\n      mstore\n      shl(0xd9, 0x3d32b93797)\n        /* \"#utility.yul\":10007:10025   */\n      0x64\n      dup3\n      add\n        /* \"#utility.yul\":10000:10035   */\n      mstore\n        /* \"#utility.yul\":10052:10071   */\n      0x84\n      add\n        /* \"src/project/ProjectRegister.sol\":1913:1983  require(_owner != address(0), \"The owner cannot be initialized zero.\") */\n      tag_94\n        /* \"#utility.yul\":9676:10077   */\n      jump\n        /* \"src/project/ProjectRegister.sol\":1913:1983  require(_owner != address(0), \"The owner cannot be initialized zero.\") */\n    tag_168:\n        /* \"src/project/ProjectRegister.sol\":1993:2019  _transferOwnership(_owner) */\n      tag_171\n        /* \"src/project/ProjectRegister.sol\":2012:2018  _owner */\n      dup6\n        /* \"src/project/ProjectRegister.sol\":1993:2011  _transferOwnership */\n      tag_102\n        /* \"src/project/ProjectRegister.sol\":1993:2019  _transferOwnership(_owner) */\n      jump\t// in\n    tag_171:\n        /* \"src/project/ProjectRegister.sol\":2048:2054  signer */\n      0x67\n        /* \"src/project/ProjectRegister.sol\":2048:2064  signer = _signer */\n      dup1\n      sload\n      sub(shl(0xa0, 0x01), 0x01)\n      dup1\n      dup8\n      and\n      not(sub(shl(0xa0, 0x01), 0x01))\n      swap3\n      dup4\n      and\n      or\n      swap1\n      swap3\n      sstore\n        /* \"src/project/ProjectRegister.sol\":2103:2118  projectTemplate */\n      0x68\n        /* \"src/project/ProjectRegister.sol\":2103:2137  projectTemplate = _projectTemplate */\n      dup1\n      sload\n      dup7\n      dup5\n      and\n      swap1\n      dup4\n      and\n      or\n      swap1\n      sstore\n        /* \"src/project/ProjectRegister.sol\":2182:2202  projectTokenTemplate */\n      0x69\n        /* \"src/project/ProjectRegister.sol\":2182:2226  projectTokenTemplate = _projectTokenTemplate */\n      dup1\n      sload\n      swap3\n      dup6\n      and\n      swap3\n      swap1\n      swap2\n      and\n      swap2\n      swap1\n      swap2\n      or\n      swap1\n      sstore\n        /* \"@openzeppelin/contracts-upgradeable/proxy/utils/Initializable.sol\":3647:3746  if (isTopLevelCall) {... */\n      dup1\n      iszero\n      tag_172\n      jumpi\n        /* \"@openzeppelin/contracts-upgradeable/proxy/utils/Initializable.sol\":3697:3702  false */\n      0x00\n        /* \"@openzeppelin/contracts-upgradeable/proxy/utils/Initializable.sol\":3681:3702  _initializing = false */\n      dup1\n      sload\n      not(0xff00)\n      and\n      swap1\n      sstore\n        /* \"@openzeppelin/contracts-upgradeable/proxy/utils/Initializable.sol\":3721:3735  Initialized(1) */\n      mload(0x40)\n      0x01\n        /* \"#utility.yul\":10234:10270   */\n      dup2\n      mstore\n        /* \"@openzeppelin/contracts-upgradeable/proxy/utils/Initializable.sol\":3721:3735  Initialized(1) */\n      0x7f26b83ff96e1f2b6a682f133852f6798a09c465da95921460cefb3847402498\n      swap1\n        /* \"#utility.yul\":10222:10224   */\n      0x20\n        /* \"#utility.yul\":10207:10225   */\n      add\n        /* \"@openzeppelin/contracts-upgradeable/proxy/utils/Initializable.sol\":3721:3735  Initialized(1) */\n      mload(0x40)\n      dup1\n      swap2\n      sub\n      swap1\n      log1\n        /* \"@openzeppelin/contracts-upgradeable/proxy/utils/Initializable.sol\":3647:3746  if (isTopLevelCall) {... */\n    tag_172:\n        /* \"@openzeppelin/contracts-upgradeable/proxy/utils/Initializable.sol\":3269:3752  {... */\n      pop\n        /* \"src/project/ProjectRegister.sol\":1717:2233  function initialize(... */\n      pop\n      pop\n      pop\n      pop\n      jump\t// out\n        /* \"src/project/ProjectRegister.sol\":3438:3866  function updateProjectTokenTemplate(address _projectTokenTemplate) external onlyOwner {... */\n    tag_75:\n        /* \"@openzeppelin/contracts-upgradeable/access/OwnableUpgradeable.sol\":1334:1347  _checkOwner() */\n      tag_176\n        /* \"@openzeppelin/contracts-upgradeable/access/OwnableUpgradeable.sol\":1334:1345  _checkOwner */\n      tag_99\n        /* \"@openzeppelin/contracts-upgradeable/access/OwnableUpgradeable.sol\":1334:1347  _checkOwner() */\n      jump\t// in\n    tag_176:\n      sub(shl(0xa0, 0x01), 0x01)\n        /* \"src/project/ProjectRegister.sol\":3538:3573  _projectTokenTemplate != address(0) */\n      dup2\n      and\n      iszero\n      dup1\n      iszero\n      swap1\n        /* \"src/project/ProjectRegister.sol\":3538:3622  _projectTokenTemplate != address(0) && _projectTokenTemplate != projectTokenTemplate */\n      tag_178\n      jumpi\n      pop\n        /* \"src/project/ProjectRegister.sol\":3602:3622  projectTokenTemplate */\n      sload(0x69)\n      sub(shl(0xa0, 0x01), 0x01)\n        /* \"src/project/ProjectRegister.sol\":3577:3622  _projectTokenTemplate != projectTokenTemplate */\n      dup3\n      dup2\n      and\n        /* \"src/project/ProjectRegister.sol\":3602:3622  projectTokenTemplate */\n      swap2\n      and\n        /* \"src/project/ProjectRegister.sol\":3577:3622  _projectTokenTemplate != projectTokenTemplate */\n      eq\n      iszero\n        /* \"src/project/ProjectRegister.sol\":3538:3622  _projectTokenTemplate != address(0) && _projectTokenTemplate != projectTokenTemplate */\n    tag_178:\n        /* \"src/project/ProjectRegister.sol\":3534:3860  if (_projectTokenTemplate != address(0) && _projectTokenTemplate != projectTokenTemplate) {... */\n      iszero\n      tag_140\n      jumpi\n        /* \"src/project/ProjectRegister.sol\":3718:3738  projectTokenTemplate */\n      sload(0x69)\n        /* \"src/project/ProjectRegister.sol\":3643:3791  ProjectTokenTemplateChanged(... */\n      mload(0x40)\n      sub(shl(0xa0, 0x01), 0x01)\n      dup4\n      dup2\n      and\n      swap3\n        /* \"src/project/ProjectRegister.sol\":3718:3738  projectTokenTemplate */\n      and\n      swap1\n        /* \"@openzeppelin/contracts-upgradeable/utils/ContextUpgradeable.sol\":929:939  msg.sender */\n      caller\n      swap1\n        /* \"src/project/ProjectRegister.sol\":3643:3791  ProjectTokenTemplateChanged(... */\n      0xbf4979bf30872a2dcc1e3221cb5a3ac0b7c2ca51369b60597374f51fb916d5da\n      swap1\n      0x00\n      swap1\n      log4\n        /* \"src/project/ProjectRegister.sol\":3805:3825  projectTokenTemplate */\n      0x69\n        /* \"src/project/ProjectRegister.sol\":3805:3849  projectTokenTemplate = _projectTokenTemplate */\n      dup1\n      sload\n      sub(shl(0xa0, 0x01), 0x01)\n      dup4\n      and\n      not(sub(shl(0xa0, 0x01), 0x01))\n      swap1\n      swap2\n      and\n      or\n      swap1\n      sstore\n        /* \"src/project/ProjectRegister.sol\":3438:3866  function updateProjectTokenTemplate(address _projectTokenTemplate) external onlyOwner {... */\n      pop\n      jump\t// out\n        /* \"@openzeppelin/contracts-upgradeable/access/OwnableUpgradeable.sol\":1599:1729  function _checkOwner() internal view virtual {... */\n    tag_99:\n        /* \"@openzeppelin/contracts-upgradeable/access/OwnableUpgradeable.sol\":1513:1519  _owner */\n      and(sub(shl(0xa0, 0x01), 0x01), sload(0x33))\n        /* \"@openzeppelin/contracts-upgradeable/utils/ContextUpgradeable.sol\":929:939  msg.sender */\n      caller\n        /* \"@openzeppelin/contracts-upgradeable/access/OwnableUpgradeable.sol\":1662:1685  owner() == _msgSender() */\n      eq\n        /* \"@openzeppelin/contracts-upgradeable/access/OwnableUpgradeable.sol\":1654:1722  require(owner() == _msgSender(), \"Ownable: caller is not the owner\") */\n      tag_101\n      jumpi\n      mload(0x40)\n      shl(0xe5, 0x461bcd)\n      dup2\n      mstore\n        /* \"#utility.yul\":10483:10485   */\n      0x20\n        /* \"@openzeppelin/contracts-upgradeable/access/OwnableUpgradeable.sol\":1654:1722  require(owner() == _msgSender(), \"Ownable: caller is not the owner\") */\n      0x04\n      dup3\n      add\n        /* \"#utility.yul\":10465:10486   */\n      dup2\n      swap1\n      mstore\n        /* \"#utility.yul\":10502:10520   */\n      0x24\n      dup3\n      add\n        /* \"#utility.yul\":10495:10525   */\n      mstore\n        /* \"#utility.yul\":10561:10595   */\n      0x4f776e61626c653a2063616c6c6572206973206e6f7420746865206f776e6572\n        /* \"#utility.yul\":10541:10559   */\n      0x44\n      dup3\n      add\n        /* \"#utility.yul\":10534:10596   */\n      mstore\n        /* \"#utility.yul\":10613:10631   */\n      0x64\n      add\n        /* \"@openzeppelin/contracts-upgradeable/access/OwnableUpgradeable.sol\":1654:1722  require(owner() == _msgSender(), \"Ownable: caller is not the owner\") */\n      tag_94\n        /* \"#utility.yul\":10281:10637   */\n      jump\n        /* \"@openzeppelin/contracts-upgradeable/access/OwnableUpgradeable.sol\":2666:2853  function _transferOwnership(address newOwner) internal virtual {... */\n    tag_102:\n        /* \"@openzeppelin/contracts-upgradeable/access/OwnableUpgradeable.sol\":2758:2764  _owner */\n      0x33\n      dup1\n      sload\n      sub(shl(0xa0, 0x01), 0x01)\n        /* \"@openzeppelin/contracts-upgradeable/access/OwnableUpgradeable.sol\":2774:2791  _owner = newOwner */\n      dup4\n      dup2\n      and\n      not(sub(shl(0xa0, 0x01), 0x01))\n      dup4\n      and\n      dup2\n      or\n      swap1\n      swap4\n      sstore\n        /* \"@openzeppelin/contracts-upgradeable/access/OwnableUpgradeable.sol\":2806:2846  OwnershipTransferred(oldOwner, newOwner) */\n      mload(0x40)\n        /* \"@openzeppelin/contracts-upgradeable/access/OwnableUpgradeable.sol\":2758:2764  _owner */\n      swap2\n      and\n      swap2\n        /* \"@openzeppelin/contracts-upgradeable/access/OwnableUpgradeable.sol\":2774:2791  _owner = newOwner */\n      swap1\n        /* \"@openzeppelin/contracts-upgradeable/access/OwnableUpgradeable.sol\":2758:2764  _owner */\n      dup3\n      swap1\n        /* \"@openzeppelin/contracts-upgradeable/access/OwnableUpgradeable.sol\":2806:2846  OwnershipTransferred(oldOwner, newOwner) */\n      0x8be0079c531659141344cd1fd0a4f28419497f9722a3daafe3b4186f6b6457e0\n      swap1\n        /* \"@openzeppelin/contracts-upgradeable/access/OwnableUpgradeable.sol\":2739:2755  address oldOwner */\n      0x00\n      swap1\n        /* \"@openzeppelin/contracts-upgradeable/access/OwnableUpgradeable.sol\":2806:2846  OwnershipTransferred(oldOwner, newOwner) */\n      log3\n        /* \"@openzeppelin/contracts-upgradeable/access/OwnableUpgradeable.sol\":2729:2853  {... */\n      pop\n        /* \"@openzeppelin/contracts-upgradeable/access/OwnableUpgradeable.sol\":2666:2853  function _transferOwnership(address newOwner) internal virtual {... */\n      pop\n      jump\t// out\n        /* \"@openzeppelin/contracts-upgradeable/proxy/ClonesUpgradeable.sol\":2118:2912  function cloneDeterministic(address implementation, bytes32 salt) internal returns (address instance) {... */\n    tag_111:\n        /* \"@openzeppelin/contracts-upgradeable/proxy/ClonesUpgradeable.sol\":2202:2218  address instance */\n      0x00\n        /* \"@openzeppelin/contracts-upgradeable/proxy/ClonesUpgradeable.sol\":2534:2582  0x3d602d80600a3d3981f3363d3d373d3d3d363d73000000 */\n      0x3d602d80600a3d3981f3363d3d373d3d3d363d73000000\n        /* \"@openzeppelin/contracts-upgradeable/proxy/ClonesUpgradeable.sol\":2516:2530  implementation */\n      dup4\n        /* \"@openzeppelin/contracts-upgradeable/proxy/ClonesUpgradeable.sol\":2510:2514  0x60 */\n      0x60\n        /* \"@openzeppelin/contracts-upgradeable/proxy/ClonesUpgradeable.sol\":2506:2531  shl(0x60, implementation) */\n      shl\n        /* \"@openzeppelin/contracts-upgradeable/proxy/ClonesUpgradeable.sol\":2500:2504  0xe8 */\n      0xe8\n        /* \"@openzeppelin/contracts-upgradeable/proxy/ClonesUpgradeable.sol\":2496:2532  shr(0xe8, shl(0x60, implementation)) */\n      shr\n        /* \"@openzeppelin/contracts-upgradeable/proxy/ClonesUpgradeable.sol\":2493:2583  or(shr(0xe8, shl(0x60, implementation)), 0x3d602d80600a3d3981f3363d3d373d3d3d363d73000000) */\n      or\n        /* \"@openzeppelin/contracts-upgradeable/proxy/ClonesUpgradeable.sol\":2487:2491  0x00 */\n      0x00\n        /* \"@openzeppelin/contracts-upgradeable/proxy/ClonesUpgradeable.sol\":2480:2584  mstore(0x00, or(shr(0xe8, shl(0x60, implementation)), 0x3d602d80600a3d3981f3363d3d373d3d3d363d73000000)) */\n      mstore\n        /* \"@openzeppelin/contracts-upgradeable/proxy/ClonesUpgradeable.sol\":2741:2773  0x5af43d82803e903d91602b57fd5bf3 */\n      0x5af43d82803e903d91602b57fd5bf3\n        /* \"@openzeppelin/contracts-upgradeable/proxy/ClonesUpgradeable.sol\":2724:2738  implementation */\n      dup4\n        /* \"@openzeppelin/contracts-upgradeable/proxy/ClonesUpgradeable.sol\":2718:2722  0x78 */\n      0x78\n        /* \"@openzeppelin/contracts-upgradeable/proxy/ClonesUpgradeable.sol\":2714:2739  shl(0x78, implementation) */\n      shl\n        /* \"@openzeppelin/contracts-upgradeable/proxy/ClonesUpgradeable.sol\":2711:2774  or(shl(0x78, implementation), 0x5af43d82803e903d91602b57fd5bf3) */\n      or\n        /* \"@openzeppelin/contracts-upgradeable/proxy/ClonesUpgradeable.sol\":2705:2709  0x20 */\n      0x20\n        /* \"@openzeppelin/contracts-upgradeable/proxy/ClonesUpgradeable.sol\":2698:2775  mstore(0x20, or(shl(0x78, implementation), 0x5af43d82803e903d91602b57fd5bf3)) */\n      mstore\n        /* \"@openzeppelin/contracts-upgradeable/proxy/ClonesUpgradeable.sol\":2823:2827  salt */\n      dup2\n        /* \"@openzeppelin/contracts-upgradeable/proxy/ClonesUpgradeable.sol\":2817:2821  0x37 */\n      0x37\n        /* \"@openzeppelin/contracts-upgradeable/proxy/ClonesUpgradeable.sol\":2811:2815  0x09 */\n      0x09\n        /* \"@openzeppelin/contracts-upgradeable/proxy/ClonesUpgradeable.sol\":2808:2809  0 */\n      0x00\n        /* \"@openzeppelin/contracts-upgradeable/proxy/ClonesUpgradeable.sol\":2800:2828  create2(0, 0x09, 0x37, salt) */\n      create2\n        /* \"@openzeppelin/contracts-upgradeable/proxy/ClonesUpgradeable.sol\":2788:2828  instance := create2(0, 0x09, 0x37, salt) */\n      swap1\n      pop\n      sub(shl(0xa0, 0x01), 0x01)\n        /* \"@openzeppelin/contracts-upgradeable/proxy/ClonesUpgradeable.sol\":2855:2877  instance != address(0) */\n      dup2\n      and\n        /* \"@openzeppelin/contracts-upgradeable/proxy/ClonesUpgradeable.sol\":2847:2905  require(instance != address(0), \"ERC1167: create2 failed\") */\n      tag_189\n      jumpi\n      mload(0x40)\n      shl(0xe5, 0x461bcd)\n      dup2\n      mstore\n        /* \"#utility.yul\":10844:10846   */\n      0x20\n        /* \"@openzeppelin/contracts-upgradeable/proxy/ClonesUpgradeable.sol\":2847:2905  require(instance != address(0), \"ERC1167: create2 failed\") */\n      0x04\n      dup3\n      add\n        /* \"#utility.yul\":10826:10847   */\n      mstore\n        /* \"#utility.yul\":10883:10885   */\n      0x17\n        /* \"#utility.yul\":10863:10881   */\n      0x24\n      dup3\n      add\n        /* \"#utility.yul\":10856:10886   */\n      mstore\n        /* \"#utility.yul\":10922:10947   */\n      0x455243313136373a2063726561746532206661696c6564000000000000000000\n        /* \"#utility.yul\":10902:10920   */\n      0x44\n      dup3\n      add\n        /* \"#utility.yul\":10895:10948   */\n      mstore\n        /* \"#utility.yul\":10965:10983   */\n      0x64\n      add\n        /* \"@openzeppelin/contracts-upgradeable/proxy/ClonesUpgradeable.sol\":2847:2905  require(instance != address(0), \"ERC1167: create2 failed\") */\n      tag_94\n        /* \"#utility.yul\":10642:10989   */\n      jump\n        /* \"@openzeppelin/contracts-upgradeable/proxy/ClonesUpgradeable.sol\":2847:2905  require(instance != address(0), \"ERC1167: create2 failed\") */\n    tag_189:\n        /* \"@openzeppelin/contracts-upgradeable/proxy/ClonesUpgradeable.sol\":2118:2912  function cloneDeterministic(address implementation, bytes32 salt) internal returns (address instance) {... */\n      swap3\n      swap2\n      pop\n      pop\n      jump\t// out\n        /* \"#utility.yul\":331:511   */\n    tag_27:\n        /* \"#utility.yul\":390:396   */\n      0x00\n        /* \"#utility.yul\":443:445   */\n      0x20\n        /* \"#utility.yul\":431:440   */\n      dup3\n        /* \"#utility.yul\":422:429   */\n      dup5\n        /* \"#utility.yul\":418:441   */\n      sub\n        /* \"#utility.yul\":414:446   */\n      slt\n        /* \"#utility.yul\":411:463   */\n      iszero\n      tag_204\n      jumpi\n        /* \"#utility.yul\":459:460   */\n      0x00\n        /* \"#utility.yul\":456:457   */\n      dup1\n        /* \"#utility.yul\":449:461   */\n      revert\n        /* \"#utility.yul\":411:463   */\n    tag_204:\n      pop\n        /* \"#utility.yul\":482:505   */\n      calldataload\n      swap2\n        /* \"#utility.yul\":331:511   */\n      swap1\n      pop\n      jump\t// out\n        /* \"#utility.yul\":516:647   */\n    tag_195:\n      sub(shl(0xa0, 0x01), 0x01)\n        /* \"#utility.yul\":591:622   */\n      dup2\n      and\n        /* \"#utility.yul\":581:623   */\n      dup2\n      eq\n        /* \"#utility.yul\":571:641   */\n      tag_140\n      jumpi\n        /* \"#utility.yul\":637:638   */\n      0x00\n        /* \"#utility.yul\":634:635   */\n      dup1\n        /* \"#utility.yul\":627:639   */\n      revert\n        /* \"#utility.yul\":652:1035   */\n    tag_32:\n        /* \"#utility.yul\":729:735   */\n      0x00\n        /* \"#utility.yul\":737:743   */\n      dup1\n        /* \"#utility.yul\":745:751   */\n      0x00\n        /* \"#utility.yul\":798:800   */\n      0x60\n        /* \"#utility.yul\":786:795   */\n      dup5\n        /* \"#utility.yul\":777:784   */\n      dup7\n        /* \"#utility.yul\":773:796   */\n      sub\n        /* \"#utility.yul\":769:801   */\n      slt\n        /* \"#utility.yul\":766:818   */\n      iszero\n      tag_208\n      jumpi\n        /* \"#utility.yul\":814:815   */\n      0x00\n        /* \"#utility.yul\":811:812   */\n      dup1\n        /* \"#utility.yul\":804:816   */\n      revert\n        /* \"#utility.yul\":766:818   */\n    tag_208:\n        /* \"#utility.yul\":853:862   */\n      dup4\n        /* \"#utility.yul\":840:863   */\n      calldataload\n        /* \"#utility.yul\":872:903   */\n      tag_209\n        /* \"#utility.yul\":897:902   */\n      dup2\n        /* \"#utility.yul\":872:903   */\n      tag_195\n      jump\t// in\n    tag_209:\n        /* \"#utility.yul\":922:927   */\n      swap6\n        /* \"#utility.yul\":974:976   */\n      0x20\n        /* \"#utility.yul\":959:977   */\n      dup6\n      add\n        /* \"#utility.yul\":946:978   */\n      calldataload\n      swap6\n      pop\n        /* \"#utility.yul\":1025:1027   */\n      0x40\n        /* \"#utility.yul\":1010:1028   */\n      swap1\n      swap5\n      add\n        /* \"#utility.yul\":997:1029   */\n      calldataload\n      swap4\n        /* \"#utility.yul\":652:1035   */\n      swap3\n      pop\n      pop\n      pop\n      jump\t// out\n        /* \"#utility.yul\":1040:1463   */\n    tag_196:\n        /* \"#utility.yul\":1082:1085   */\n      0x00\n        /* \"#utility.yul\":1120:1125   */\n      dup2\n        /* \"#utility.yul\":1114:1126   */\n      mload\n        /* \"#utility.yul\":1147:1153   */\n      dup1\n        /* \"#utility.yul\":1142:1145   */\n      dup5\n        /* \"#utility.yul\":1135:1154   */\n      mstore\n        /* \"#utility.yul\":1172:1173   */\n      0x00\n        /* \"#utility.yul\":1182:1344   */\n    tag_211:\n        /* \"#utility.yul\":1196:1202   */\n      dup2\n        /* \"#utility.yul\":1193:1194   */\n      dup2\n        /* \"#utility.yul\":1190:1203   */\n      lt\n        /* \"#utility.yul\":1182:1344   */\n      iszero\n      tag_213\n      jumpi\n        /* \"#utility.yul\":1258:1262   */\n      0x20\n        /* \"#utility.yul\":1314:1327   */\n      dup2\n      dup6\n      add\n        /* \"#utility.yul\":1310:1332   */\n      dup2\n      add\n        /* \"#utility.yul\":1304:1333   */\n      mload\n        /* \"#utility.yul\":1286:1297   */\n      dup7\n      dup4\n      add\n        /* \"#utility.yul\":1282:1302   */\n      dup3\n      add\n        /* \"#utility.yul\":1275:1334   */\n      mstore\n        /* \"#utility.yul\":1211:1223   */\n      add\n        /* \"#utility.yul\":1182:1344   */\n      jump(tag_211)\n    tag_213:\n        /* \"#utility.yul\":1186:1189   */\n      pop\n        /* \"#utility.yul\":1389:1390   */\n      0x00\n        /* \"#utility.yul\":1382:1386   */\n      0x20\n        /* \"#utility.yul\":1373:1379   */\n      dup3\n        /* \"#utility.yul\":1368:1371   */\n      dup7\n        /* \"#utility.yul\":1364:1380   */\n      add\n        /* \"#utility.yul\":1360:1387   */\n      add\n        /* \"#utility.yul\":1353:1391   */\n      mstore\n        /* \"#utility.yul\":1452:1456   */\n      0x20\n        /* \"#utility.yul\":1445:1447   */\n      0x1f\n        /* \"#utility.yul\":1441:1448   */\n      not\n        /* \"#utility.yul\":1436:1438   */\n      0x1f\n        /* \"#utility.yul\":1428:1434   */\n      dup4\n        /* \"#utility.yul\":1424:1439   */\n      add\n        /* \"#utility.yul\":1420:1449   */\n      and\n        /* \"#utility.yul\":1415:1418   */\n      dup6\n        /* \"#utility.yul\":1411:1450   */\n      add\n        /* \"#utility.yul\":1407:1457   */\n      add\n        /* \"#utility.yul\":1400:1457   */\n      swap2\n      pop\n      pop\n        /* \"#utility.yul\":1040:1463   */\n      swap3\n      swap2\n      pop\n      pop\n      jump\t// out\n        /* \"#utility.yul\":1468:1688   */\n    tag_38:\n        /* \"#utility.yul\":1617:1619   */\n      0x20\n        /* \"#utility.yul\":1606:1615   */\n      dup2\n        /* \"#utility.yul\":1599:1620   */\n      mstore\n        /* \"#utility.yul\":1580:1584   */\n      0x00\n        /* \"#utility.yul\":1637:1682   */\n      tag_215\n        /* \"#utility.yul\":1678:1680   */\n      0x20\n        /* \"#utility.yul\":1667:1676   */\n      dup4\n        /* \"#utility.yul\":1663:1681   */\n      add\n        /* \"#utility.yul\":1655:1661   */\n      dup5\n        /* \"#utility.yul\":1637:1682   */\n      tag_196\n      jump\t// in\n    tag_215:\n        /* \"#utility.yul\":1629:1682   */\n      swap4\n        /* \"#utility.yul\":1468:1688   */\n      swap3\n      pop\n      pop\n      pop\n      jump\t// out\n        /* \"#utility.yul\":1693:2085   */\n    tag_49:\n        /* \"#utility.yul\":1784:1790   */\n      0x00\n        /* \"#utility.yul\":1837:1839   */\n      0x20\n        /* \"#utility.yul\":1825:1834   */\n      dup3\n        /* \"#utility.yul\":1816:1823   */\n      dup5\n        /* \"#utility.yul\":1812:1835   */\n      sub\n        /* \"#utility.yul\":1808:1840   */\n      slt\n        /* \"#utility.yul\":1805:1857   */\n      iszero\n      tag_217\n      jumpi\n        /* \"#utility.yul\":1853:1854   */\n      0x00\n        /* \"#utility.yul\":1850:1851   */\n      dup1\n        /* \"#utility.yul\":1843:1855   */\n      revert\n        /* \"#utility.yul\":1805:1857   */\n    tag_217:\n        /* \"#utility.yul\":1893:1902   */\n      dup2\n        /* \"#utility.yul\":1880:1903   */\n      calldataload\n        /* \"#utility.yul\":1926:1944   */\n      0xffffffffffffffff\n        /* \"#utility.yul\":1918:1924   */\n      dup2\n        /* \"#utility.yul\":1915:1945   */\n      gt\n        /* \"#utility.yul\":1912:1962   */\n      iszero\n      tag_218\n      jumpi\n        /* \"#utility.yul\":1958:1959   */\n      0x00\n        /* \"#utility.yul\":1955:1956   */\n      dup1\n        /* \"#utility.yul\":1948:1960   */\n      revert\n        /* \"#utility.yul\":1912:1962   */\n    tag_218:\n        /* \"#utility.yul\":1981:2003   */\n      dup3\n      add\n        /* \"#utility.yul\":2037:2040   */\n      0xe0\n        /* \"#utility.yul\":2019:2035   */\n      dup2\n      dup6\n      sub\n        /* \"#utility.yul\":2015:2041   */\n      slt\n        /* \"#utility.yul\":2012:2058   */\n      iszero\n      tag_215\n      jumpi\n        /* \"#utility.yul\":2054:2055   */\n      0x00\n        /* \"#utility.yul\":2051:2052   */\n      dup1\n        /* \"#utility.yul\":2044:2056   */\n      revert\n        /* \"#utility.yul\":2090:2337   */\n    tag_54:\n        /* \"#utility.yul\":2149:2155   */\n      0x00\n        /* \"#utility.yul\":2202:2204   */\n      0x20\n        /* \"#utility.yul\":2190:2199   */\n      dup3\n        /* \"#utility.yul\":2181:2188   */\n      dup5\n        /* \"#utility.yul\":2177:2200   */\n      sub\n        /* \"#utility.yul\":2173:2205   */\n      slt\n        /* \"#utility.yul\":2170:2222   */\n      iszero\n      tag_221\n      jumpi\n        /* \"#utility.yul\":2218:2219   */\n      0x00\n        /* \"#utility.yul\":2215:2216   */\n      dup1\n        /* \"#utility.yul\":2208:2220   */\n      revert\n        /* \"#utility.yul\":2170:2222   */\n    tag_221:\n        /* \"#utility.yul\":2257:2266   */\n      dup2\n        /* \"#utility.yul\":2244:2267   */\n      calldataload\n        /* \"#utility.yul\":2276:2307   */\n      tag_215\n        /* \"#utility.yul\":2301:2306   */\n      dup2\n        /* \"#utility.yul\":2276:2307   */\n      tag_195\n      jump\t// in\n        /* \"#utility.yul\":2524:3195   */\n    tag_71:\n        /* \"#utility.yul\":2610:2616   */\n      0x00\n        /* \"#utility.yul\":2618:2624   */\n      dup1\n        /* \"#utility.yul\":2626:2632   */\n      0x00\n        /* \"#utility.yul\":2634:2640   */\n      dup1\n        /* \"#utility.yul\":2687:2690   */\n      0x80\n        /* \"#utility.yul\":2675:2684   */\n      dup6\n        /* \"#utility.yul\":2666:2673   */\n      dup8\n        /* \"#utility.yul\":2662:2685   */\n      sub\n        /* \"#utility.yul\":2658:2691   */\n      slt\n        /* \"#utility.yul\":2655:2708   */\n      iszero\n      tag_225\n      jumpi\n        /* \"#utility.yul\":2704:2705   */\n      0x00\n        /* \"#utility.yul\":2701:2702   */\n      dup1\n        /* \"#utility.yul\":2694:2706   */\n      revert\n        /* \"#utility.yul\":2655:2708   */\n    tag_225:\n        /* \"#utility.yul\":2743:2752   */\n      dup5\n        /* \"#utility.yul\":2730:2753   */\n      calldataload\n        /* \"#utility.yul\":2762:2793   */\n      tag_226\n        /* \"#utility.yul\":2787:2792   */\n      dup2\n        /* \"#utility.yul\":2762:2793   */\n      tag_195\n      jump\t// in\n    tag_226:\n        /* \"#utility.yul\":2812:2817   */\n      swap4\n      pop\n        /* \"#utility.yul\":2869:2871   */\n      0x20\n        /* \"#utility.yul\":2854:2872   */\n      dup6\n      add\n        /* \"#utility.yul\":2841:2873   */\n      calldataload\n        /* \"#utility.yul\":2882:2915   */\n      tag_227\n        /* \"#utility.yul\":2841:2873   */\n      dup2\n        /* \"#utility.yul\":2882:2915   */\n      tag_195\n      jump\t// in\n    tag_227:\n        /* \"#utility.yul\":2934:2941   */\n      swap3\n      pop\n        /* \"#utility.yul\":2993:2995   */\n      0x40\n        /* \"#utility.yul\":2978:2996   */\n      dup6\n      add\n        /* \"#utility.yul\":2965:2997   */\n      calldataload\n        /* \"#utility.yul\":3006:3039   */\n      tag_228\n        /* \"#utility.yul\":2965:2997   */\n      dup2\n        /* \"#utility.yul\":3006:3039   */\n      tag_195\n      jump\t// in\n    tag_228:\n        /* \"#utility.yul\":3058:3065   */\n      swap2\n      pop\n        /* \"#utility.yul\":3117:3119   */\n      0x60\n        /* \"#utility.yul\":3102:3120   */\n      dup6\n      add\n        /* \"#utility.yul\":3089:3121   */\n      calldataload\n        /* \"#utility.yul\":3130:3163   */\n      tag_229\n        /* \"#utility.yul\":3089:3121   */\n      dup2\n        /* \"#utility.yul\":3130:3163   */\n      tag_195\n      jump\t// in\n    tag_229:\n        /* \"#utility.yul\":2524:3195   */\n      swap4\n      swap7\n      swap3\n      swap6\n      pop\n      swap1\n      swap4\n      pop\n      pop\n      jump\t// out\n        /* \"#utility.yul\":3200:3451   */\n    tag_87:\n        /* \"#utility.yul\":3270:3276   */\n      0x00\n        /* \"#utility.yul\":3323:3325   */\n      0x20\n        /* \"#utility.yul\":3311:3320   */\n      dup3\n        /* \"#utility.yul\":3302:3309   */\n      dup5\n        /* \"#utility.yul\":3298:3321   */\n      sub\n        /* \"#utility.yul\":3294:3326   */\n      slt\n        /* \"#utility.yul\":3291:3343   */\n      iszero\n      tag_231\n      jumpi\n        /* \"#utility.yul\":3339:3340   */\n      0x00\n        /* \"#utility.yul\":3336:3337   */\n      dup1\n        /* \"#utility.yul\":3329:3341   */\n      revert\n        /* \"#utility.yul\":3291:3343   */\n    tag_231:\n        /* \"#utility.yul\":3371:3380   */\n      dup2\n        /* \"#utility.yul\":3365:3381   */\n      mload\n        /* \"#utility.yul\":3390:3421   */\n      tag_215\n        /* \"#utility.yul\":3415:3420   */\n      dup2\n        /* \"#utility.yul\":3390:3421   */\n      tag_195\n      jump\t// in\n        /* \"#utility.yul\":3456:3583   */\n    tag_197:\n        /* \"#utility.yul\":3517:3527   */\n      0x4e487b71\n        /* \"#utility.yul\":3512:3515   */\n      0xe0\n        /* \"#utility.yul\":3508:3528   */\n      shl\n        /* \"#utility.yul\":3505:3506   */\n      0x00\n        /* \"#utility.yul\":3498:3529   */\n      mstore\n        /* \"#utility.yul\":3548:3552   */\n      0x11\n        /* \"#utility.yul\":3545:3546   */\n      0x04\n        /* \"#utility.yul\":3538:3553   */\n      mstore\n        /* \"#utility.yul\":3572:3576   */\n      0x24\n        /* \"#utility.yul\":3569:3570   */\n      0x00\n        /* \"#utility.yul\":3562:3577   */\n      revert\n        /* \"#utility.yul\":3588:3724   */\n    tag_91:\n        /* \"#utility.yul\":3627:3630   */\n      0x00\n        /* \"#utility.yul\":3655:3660   */\n      dup2\n        /* \"#utility.yul\":3645:3684   */\n      tag_236\n      jumpi\n        /* \"#utility.yul\":3664:3682   */\n      tag_236\n      tag_197\n      jump\t// in\n    tag_236:\n      pop\n      not(0x00)\n        /* \"#utility.yul\":3700:3718   */\n      add\n      swap1\n        /* \"#utility.yul\":3588:3724   */\n      jump\t// out\n        /* \"#utility.yul\":4134:4656   */\n    tag_108:\n        /* \"#utility.yul\":4212:4216   */\n      0x00\n        /* \"#utility.yul\":4218:4224   */\n      dup1\n        /* \"#utility.yul\":4278:4289   */\n      dup4\n        /* \"#utility.yul\":4265:4290   */\n      calldataload\n        /* \"#utility.yul\":4372:4374   */\n      0x1e\n        /* \"#utility.yul\":4368:4375   */\n      not\n        /* \"#utility.yul\":4357:4365   */\n      dup5\n        /* \"#utility.yul\":4341:4355   */\n      calldatasize\n        /* \"#utility.yul\":4337:4366   */\n      sub\n        /* \"#utility.yul\":4333:4376   */\n      add\n        /* \"#utility.yul\":4313:4331   */\n      dup2\n        /* \"#utility.yul\":4309:4377   */\n      slt\n        /* \"#utility.yul\":4299:4395   */\n      tag_239\n      jumpi\n        /* \"#utility.yul\":4391:4392   */\n      0x00\n        /* \"#utility.yul\":4388:4389   */\n      dup1\n        /* \"#utility.yul\":4381:4393   */\n      revert\n        /* \"#utility.yul\":4299:4395   */\n    tag_239:\n        /* \"#utility.yul\":4418:4451   */\n      dup4\n      add\n        /* \"#utility.yul\":4470:4490   */\n      dup1\n      calldataload\n      swap2\n      pop\n        /* \"#utility.yul\":4513:4531   */\n      0xffffffffffffffff\n        /* \"#utility.yul\":4502:4532   */\n      dup3\n      gt\n        /* \"#utility.yul\":4499:4549   */\n      iszero\n      tag_240\n      jumpi\n        /* \"#utility.yul\":4545:4546   */\n      0x00\n        /* \"#utility.yul\":4542:4543   */\n      dup1\n        /* \"#utility.yul\":4535:4547   */\n      revert\n        /* \"#utility.yul\":4499:4549   */\n    tag_240:\n        /* \"#utility.yul\":4578:4582   */\n      0x20\n        /* \"#utility.yul\":4566:4583   */\n      add\n      swap2\n      pop\n        /* \"#utility.yul\":4609:4623   */\n      calldatasize\n        /* \"#utility.yul\":4605:4632   */\n      dup2\n      swap1\n      sub\n        /* \"#utility.yul\":4595:4633   */\n      dup3\n      sgt\n        /* \"#utility.yul\":4592:4650   */\n      iszero\n      tag_241\n      jumpi\n        /* \"#utility.yul\":4646:4647   */\n      0x00\n        /* \"#utility.yul\":4643:4644   */\n      dup1\n        /* \"#utility.yul\":4636:4648   */\n      revert\n        /* \"#utility.yul\":4592:4650   */\n    tag_241:\n        /* \"#utility.yul\":4134:4656   */\n      swap3\n      pop\n      swap3\n      swap1\n      pop\n      jump\t// out\n        /* \"#utility.yul\":4661:5008   */\n    tag_110:\n        /* \"#utility.yul\":4860:4866   */\n      dup4\n        /* \"#utility.yul\":4855:4858   */\n      dup2\n        /* \"#utility.yul\":4848:4867   */\n      mstore\n        /* \"#utility.yul\":4911:4917   */\n      dup2\n        /* \"#utility.yul\":4903:4909   */\n      dup4\n        /* \"#utility.yul\":4898:4900   */\n      0x20\n        /* \"#utility.yul\":4893:4896   */\n      dup4\n        /* \"#utility.yul\":4889:4901   */\n      add\n        /* \"#utility.yul\":4876:4918   */\n      calldatacopy\n        /* \"#utility.yul\":4830:4833   */\n      0x00\n        /* \"#utility.yul\":4941:4957   */\n      swap2\n      add\n        /* \"#utility.yul\":4959:4961   */\n      0x20\n        /* \"#utility.yul\":4937:4962   */\n      add\n        /* \"#utility.yul\":4971:4984   */\n      swap1\n      dup2\n      mstore\n        /* \"#utility.yul\":4937:4962   */\n      swap3\n        /* \"#utility.yul\":4661:5008   */\n      swap2\n      pop\n      pop\n      jump\t// out\n        /* \"#utility.yul\":5200:5745   */\n    tag_117:\n        /* \"#utility.yul\":5293:5297   */\n      0x00\n        /* \"#utility.yul\":5299:5305   */\n      dup1\n        /* \"#utility.yul\":5359:5370   */\n      dup4\n        /* \"#utility.yul\":5346:5371   */\n      calldataload\n        /* \"#utility.yul\":5453:5455   */\n      0x1e\n        /* \"#utility.yul\":5449:5456   */\n      not\n        /* \"#utility.yul\":5438:5446   */\n      dup5\n        /* \"#utility.yul\":5422:5436   */\n      calldatasize\n        /* \"#utility.yul\":5418:5447   */\n      sub\n        /* \"#utility.yul\":5414:5457   */\n      add\n        /* \"#utility.yul\":5394:5412   */\n      dup2\n        /* \"#utility.yul\":5390:5458   */\n      slt\n        /* \"#utility.yul\":5380:5476   */\n      tag_245\n      jumpi\n        /* \"#utility.yul\":5472:5473   */\n      0x00\n        /* \"#utility.yul\":5469:5470   */\n      dup1\n        /* \"#utility.yul\":5462:5474   */\n      revert\n        /* \"#utility.yul\":5380:5476   */\n    tag_245:\n        /* \"#utility.yul\":5499:5532   */\n      dup4\n      add\n        /* \"#utility.yul\":5551:5571   */\n      dup1\n      calldataload\n      swap2\n      pop\n        /* \"#utility.yul\":5594:5612   */\n      0xffffffffffffffff\n        /* \"#utility.yul\":5583:5613   */\n      dup3\n      gt\n        /* \"#utility.yul\":5580:5630   */\n      iszero\n      tag_246\n      jumpi\n        /* \"#utility.yul\":5626:5627   */\n      0x00\n        /* \"#utility.yul\":5623:5624   */\n      dup1\n        /* \"#utility.yul\":5616:5628   */\n      revert\n        /* \"#utility.yul\":5580:5630   */\n    tag_246:\n        /* \"#utility.yul\":5659:5663   */\n      0x20\n        /* \"#utility.yul\":5647:5664   */\n      add\n      swap2\n      pop\n        /* \"#utility.yul\":5710:5711   */\n      0x05\n        /* \"#utility.yul\":5706:5720   */\n      dup2\n      swap1\n      shl\n        /* \"#utility.yul\":5690:5704   */\n      calldatasize\n        /* \"#utility.yul\":5686:5721   */\n      sub\n        /* \"#utility.yul\":5676:5722   */\n      dup3\n      sgt\n        /* \"#utility.yul\":5673:5739   */\n      iszero\n      tag_241\n      jumpi\n        /* \"#utility.yul\":5735:5736   */\n      0x00\n        /* \"#utility.yul\":5732:5733   */\n      dup1\n        /* \"#utility.yul\":5725:5737   */\n      revert\n        /* \"#utility.yul\":6276:6641   */\n    tag_198:\n        /* \"#utility.yul\":6398:6399   */\n      0x01\n        /* \"#utility.yul\":6394:6395   */\n      dup1\n        /* \"#utility.yul\":6389:6392   */\n      0xa0\n        /* \"#utility.yul\":6385:6396   */\n      shl\n        /* \"#utility.yul\":6381:6400   */\n      sub\n        /* \"#utility.yul\":6373:6378   */\n      dup2\n        /* \"#utility.yul\":6367:6379   */\n      mload\n        /* \"#utility.yul\":6363:6401   */\n      and\n        /* \"#utility.yul\":6358:6361   */\n      dup3\n        /* \"#utility.yul\":6351:6402   */\n      mstore\n        /* \"#utility.yul\":6333:6336   */\n      0x00\n        /* \"#utility.yul\":6448:6452   */\n      0x20\n        /* \"#utility.yul\":6441:6446   */\n      dup3\n        /* \"#utility.yul\":6437:6453   */\n      add\n        /* \"#utility.yul\":6431:6454   */\n      mload\n        /* \"#utility.yul\":6486:6490   */\n      0x60\n        /* \"#utility.yul\":6479:6483   */\n      0x20\n        /* \"#utility.yul\":6474:6477   */\n      dup6\n        /* \"#utility.yul\":6470:6484   */\n      add\n        /* \"#utility.yul\":6463:6491   */\n      mstore\n        /* \"#utility.yul\":6512:6559   */\n      tag_253\n        /* \"#utility.yul\":6553:6557   */\n      0x60\n        /* \"#utility.yul\":6548:6551   */\n      dup6\n        /* \"#utility.yul\":6544:6558   */\n      add\n        /* \"#utility.yul\":6530:6542   */\n      dup3\n        /* \"#utility.yul\":6512:6559   */\n      tag_196\n      jump\t// in\n    tag_253:\n        /* \"#utility.yul\":6608:6612   */\n      0x40\n        /* \"#utility.yul\":6597:6613   */\n      swap4\n      dup5\n      add\n        /* \"#utility.yul\":6591:6614   */\n      mload\n        /* \"#utility.yul\":6575:6589   */\n      swap5\n      swap1\n      swap4\n      add\n        /* \"#utility.yul\":6568:6615   */\n      swap4\n      swap1\n      swap4\n      mstore\n      pop\n        /* \"#utility.yul\":6500:6559   */\n      swap2\n        /* \"#utility.yul\":6276:6641   */\n      swap1\n      pop\n      jump\t// out\n        /* \"#utility.yul\":6646:7898   */\n    tag_122:\n        /* \"#utility.yul\":6835:6837   */\n      0x20\n        /* \"#utility.yul\":6846:6867   */\n      dup1\n      dup3\n      mstore\n        /* \"#utility.yul\":6987:7000   */\n      dup3\n      mload\n      sub(shl(0xa0, 0x01), 0x01)\n        /* \"#utility.yul\":6983:7005   */\n      swap1\n      dup2\n      and\n        /* \"#utility.yul\":6963:6981   */\n      dup4\n      dup4\n      add\n        /* \"#utility.yul\":6956:7006   */\n      mstore\n        /* \"#utility.yul\":7052:7067   */\n      dup4\n      dup3\n      add\n        /* \"#utility.yul\":7046:7068   */\n      mload\n        /* \"#utility.yul\":7042:7073   */\n      dup2\n      and\n        /* \"#utility.yul\":7037:7039   */\n      0x40\n        /* \"#utility.yul\":7022:7040   */\n      dup1\n      dup6\n      add\n        /* \"#utility.yul\":7015:7074   */\n      swap2\n      swap1\n      swap2\n      mstore\n        /* \"#utility.yul\":7109:7124   */\n      dup5\n      add\n        /* \"#utility.yul\":7103:7125   */\n      mload\n        /* \"#utility.yul\":6936:6939   */\n      0xa0\n        /* \"#utility.yul\":7156:7158   */\n      0x60\n        /* \"#utility.yul\":7141:7159   */\n      dup6\n      add\n        /* \"#utility.yul\":7134:7166   */\n      mstore\n        /* \"#utility.yul\":7215:7234   */\n      dup1\n      mload\n        /* \"#utility.yul\":6905:6908   */\n      0xc0\n        /* \"#utility.yul\":6890:6909   */\n      dup6\n      add\n        /* \"#utility.yul\":7243:7265   */\n      dup2\n      swap1\n      mstore\n        /* \"#utility.yul\":6806:6810   */\n      0x00\n      swap4\n        /* \"#utility.yul\":6835:6837   */\n      swap3\n        /* \"#utility.yul\":7323:7344   */\n      swap2\n      dup4\n      add\n      swap2\n        /* \"#utility.yul\":6928:6947   */\n      swap1\n        /* \"#utility.yul\":6806:6810   */\n      dup5\n      swap1\n        /* \"#utility.yul\":7296:7299   */\n      0xe0\n        /* \"#utility.yul\":7281:7300   */\n      dup8\n      add\n      swap1\n        /* \"#utility.yul\":7372:7550   */\n    tag_255:\n        /* \"#utility.yul\":7386:7392   */\n      dup1\n        /* \"#utility.yul\":7383:7384   */\n      dup4\n        /* \"#utility.yul\":7380:7393   */\n      lt\n        /* \"#utility.yul\":7372:7550   */\n      iszero\n      tag_257\n      jumpi\n        /* \"#utility.yul\":7451:7464   */\n      dup5\n      mload\n        /* \"#utility.yul\":7447:7469   */\n      dup5\n      and\n        /* \"#utility.yul\":7435:7470   */\n      dup3\n      mstore\n        /* \"#utility.yul\":7525:7540   */\n      swap4\n      dup6\n      add\n      swap4\n        /* \"#utility.yul\":7408:7409   */\n      0x01\n        /* \"#utility.yul\":7401:7410   */\n      swap3\n      swap1\n      swap3\n      add\n      swap2\n        /* \"#utility.yul\":7490:7502   */\n      swap1\n      dup6\n      add\n      swap1\n        /* \"#utility.yul\":7372:7550   */\n      jump(tag_255)\n    tag_257:\n      pop\n        /* \"#utility.yul\":7599:7601   */\n      0x60\n        /* \"#utility.yul\":7587:7602   */\n      dup9\n      add\n        /* \"#utility.yul\":7581:7603   */\n      mload\n        /* \"#utility.yul\":7644:7663   */\n      dup8\n      dup3\n      sub\n      not(0x1f)\n        /* \"#utility.yul\":7640:7673   */\n      add\n        /* \"#utility.yul\":7634:7637   */\n      0x80\n        /* \"#utility.yul\":7619:7638   */\n      dup10\n      add\n        /* \"#utility.yul\":7612:7674   */\n      mstore\n        /* \"#utility.yul\":7581:7603   */\n      swap5\n      pop\n        /* \"#utility.yul\":7697:7750   */\n      tag_258\n        /* \"#utility.yul\":7648:7651   */\n      dup2\n        /* \"#utility.yul\":7581:7603   */\n      dup7\n        /* \"#utility.yul\":7697:7750   */\n      tag_198\n      jump\t// in\n    tag_258:\n        /* \"#utility.yul\":7683:7750   */\n      swap5\n      pop\n      pop\n      pop\n      pop\n      pop\n        /* \"#utility.yul\":7799:7802   */\n      0x80\n        /* \"#utility.yul\":7791:7797   */\n      dup5\n        /* \"#utility.yul\":7787:7803   */\n      add\n        /* \"#utility.yul\":7781:7804   */\n      mload\n        /* \"#utility.yul\":7813:7869   */\n      tag_259\n        /* \"#utility.yul\":7863:7867   */\n      0xa0\n        /* \"#utility.yul\":7852:7861   */\n      dup6\n        /* \"#utility.yul\":7848:7868   */\n      add\n        /* \"#utility.yul\":7832:7846   */\n      dup3\n      sub(shl(0xa0, 0x01), 0x01)\n        /* \"#utility.yul\":80:111   */\n      and\n        /* \"#utility.yul\":68:112   */\n      swap1\n      mstore\n        /* \"#utility.yul\":14:118   */\n      jump\n        /* \"#utility.yul\":7813:7869   */\n    tag_259:\n      pop\n        /* \"#utility.yul\":7886:7892   */\n      swap4\n        /* \"#utility.yul\":6646:7898   */\n      swap3\n      pop\n      pop\n      pop\n      jump\t// out\n        /* \"#utility.yul\":7903:8170   */\n    tag_199:\n        /* \"#utility.yul\":7992:7998   */\n      dup2\n        /* \"#utility.yul\":7987:7990   */\n      dup4\n        /* \"#utility.yul\":7980:7999   */\n      mstore\n        /* \"#utility.yul\":8044:8050   */\n      dup2\n        /* \"#utility.yul\":8037:8042   */\n      dup2\n        /* \"#utility.yul\":8030:8034   */\n      0x20\n        /* \"#utility.yul\":8025:8028   */\n      dup6\n        /* \"#utility.yul\":8021:8035   */\n      add\n        /* \"#utility.yul\":8008:8051   */\n      calldatacopy\n      pop\n        /* \"#utility.yul\":8096:8097   */\n      0x00\n        /* \"#utility.yul\":8071:8087   */\n      dup3\n      dup3\n      add\n        /* \"#utility.yul\":8089:8093   */\n      0x20\n        /* \"#utility.yul\":8067:8094   */\n      swap1\n      dup2\n      add\n        /* \"#utility.yul\":8060:8098   */\n      swap2\n      swap1\n      swap2\n      mstore\n        /* \"#utility.yul\":8152:8154   */\n      0x1f\n        /* \"#utility.yul\":8131:8146   */\n      swap1\n      swap2\n      add\n      not(0x1f)\n        /* \"#utility.yul\":8127:8156   */\n      and\n        /* \"#utility.yul\":8118:8157   */\n      swap1\n      swap2\n      add\n        /* \"#utility.yul\":8114:8164   */\n      add\n      swap1\n        /* \"#utility.yul\":7903:8170   */\n      jump\t// out\n        /* \"#utility.yul\":8175:8709   */\n    tag_129:\n        /* \"#utility.yul\":8420:8422   */\n      0x60\n        /* \"#utility.yul\":8409:8418   */\n      dup2\n        /* \"#utility.yul\":8402:8423   */\n      mstore\n        /* \"#utility.yul\":8383:8387   */\n      0x00\n        /* \"#utility.yul\":8446:8508   */\n      tag_262\n        /* \"#utility.yul\":8504:8506   */\n      0x60\n        /* \"#utility.yul\":8493:8502   */\n      dup4\n        /* \"#utility.yul\":8489:8507   */\n      add\n        /* \"#utility.yul\":8481:8487   */\n      dup8\n        /* \"#utility.yul\":8473:8479   */\n      dup10\n        /* \"#utility.yul\":8446:8508   */\n      tag_199\n      jump\t// in\n    tag_262:\n        /* \"#utility.yul\":8556:8565   */\n      dup3\n        /* \"#utility.yul\":8548:8554   */\n      dup2\n        /* \"#utility.yul\":8544:8566   */\n      sub\n        /* \"#utility.yul\":8539:8541   */\n      0x20\n        /* \"#utility.yul\":8528:8537   */\n      dup5\n        /* \"#utility.yul\":8524:8542   */\n      add\n        /* \"#utility.yul\":8517:8567   */\n      mstore\n        /* \"#utility.yul\":8584:8634   */\n      tag_263\n        /* \"#utility.yul\":8627:8633   */\n      dup2\n        /* \"#utility.yul\":8619:8625   */\n      dup7\n        /* \"#utility.yul\":8611:8617   */\n      dup9\n        /* \"#utility.yul\":8584:8634   */\n      tag_199\n      jump\t// in\n    tag_263:\n        /* \"#utility.yul\":8576:8634   */\n      swap2\n      pop\n      pop\n        /* \"#utility.yul\":8699:8700   */\n      0x01\n        /* \"#utility.yul\":8695:8696   */\n      dup1\n        /* \"#utility.yul\":8690:8693   */\n      0xa0\n        /* \"#utility.yul\":8686:8697   */\n      shl\n        /* \"#utility.yul\":8682:8701   */\n      sub\n        /* \"#utility.yul\":8674:8680   */\n      dup4\n        /* \"#utility.yul\":8670:8702   */\n      and\n        /* \"#utility.yul\":8665:8667   */\n      0x40\n        /* \"#utility.yul\":8654:8663   */\n      dup4\n        /* \"#utility.yul\":8650:8668   */\n      add\n        /* \"#utility.yul\":8643:8703   */\n      mstore\n        /* \"#utility.yul\":8175:8709   */\n      swap7\n      swap6\n      pop\n      pop\n      pop\n      pop\n      pop\n      pop\n      jump\t// out\n        /* \"#utility.yul\":8714:8849   */\n    tag_135:\n        /* \"#utility.yul\":8753:8756   */\n      0x00\n        /* \"#utility.yul\":8774:8791   */\n      0x01\n      dup3\n      add\n        /* \"#utility.yul\":8771:8814   */\n      tag_266\n      jumpi\n        /* \"#utility.yul\":8794:8812   */\n      tag_266\n      tag_197\n      jump\t// in\n    tag_266:\n      pop\n        /* \"#utility.yul\":8841:8842   */\n      0x01\n        /* \"#utility.yul\":8830:8843   */\n      add\n      swap1\n        /* \"#utility.yul\":8714:8849   */\n      jump\t// out\n\n    auxdata: 0xa2646970667358221220529966cb3a7aa6e1dfc6ca37391e00aaccd94bdb2bcc850a9b9d32cb72a4d2f364736f6c63430008130033\n}\n",
				"bytecode": {
					"linkReferences": {},
					"object": "608060405234801561001057600080fd5b50610fd8806100206000396000f3fe608060405234801561001057600080fd5b50600436106100f55760003560e01c8063a59052c211610097578063e8160f8411610066578063e8160f8414610201578063f2fde38b14610214578063f8c8765e14610227578063fd80a63c1461023a57600080fd5b8063a59052c2146101b3578063a7ecd37e146101c6578063b45b34b9146101d9578063c73b302e146101ea57600080fd5b806354fd4d50116100d357806354fd4d5014610160578063715018a6146101875780637ac3c02f146101915780638da5cb5b146101a257600080fd5b806307a0b930146100fa578063134a09d0146101245780634530e3fc1461014d575b600080fd5b6068546001600160a01b03165b6040516001600160a01b0390911681526020015b60405180910390f35b610107610132366004610bbf565b6065602052600090815260409020546001600160a01b031681565b61010761015b366004610bed565b61024d565b60408051808201825260058152640312e302e360dc1b6020820152905161011b9190610c68565b61018f61039d565b005b6067546001600160a01b0316610107565b6033546001600160a01b0316610107565b6101076101c1366004610c82565b6103b1565b61018f6101d4366004610cbd565b610697565b6069546001600160a01b0316610107565b6101f360665481565b60405190815260200161011b565b61018f61020f366004610cbd565b610725565b61018f610222366004610cbd565b6107b4565b61018f610235366004610cda565b61082a565b61018f610248366004610cbd565b6109e1565b600080828411158015610261575060665483105b1561033c57825b84811061033657600081815260656020908152604091829020548251631127a41d60e31b815292516001600160a01b039091169263893d20e89260048083019391928290030181865afa1580156102c3573d6000803e3d6000fd5b505050506040513d601f19601f820116820180604052508101906102e79190610d36565b6001600160a01b0316866001600160a01b03160361031e576000818152606560205260409020546001600160a01b03169150610336565b8015610336578061032e81610d69565b915050610268565b50610395565b60405162461bcd60e51b8152602060048201526024808201527f7374617274496e646578206f7220656e64496e646578206f7574206f662072616044820152633733b29760e11b60648201526084015b60405180910390fd5b949350505050565b6103a5610a70565b6103af6000610aca565b565b606654606954600091908290610405906001600160a01b0316836103d86060880188610d80565b6040516020016103ea93929190610dce565b60405160208183030381529060405280519060200120610b1c565b606854604080516020810186905292935061042c926001600160a01b0390921691016103ea565b6040805160a0810190915230815290935060009060208082019061045290880188610cbd565b6001600160a01b031681526020018680602001906104709190610de8565b808060200260200160405190810160405280939291908181526020018383602002808284376000920191909152505050908252506040805160608101909152602090910190806104c660a08a0160808b01610cbd565b6001600160a01b031681526020016104e160a08a018a610d80565b8080601f01602080910402602001604051908101604052809392919081815260200183838082843760009201919091525050509082525060c08901356020918201529082526001600160a01b038086169290910191909152604051636f16be6d60e11b815291925085169063de2d7cda90610560908490600401610e6d565b600060405180830381600087803b15801561057a57600080fd5b505af115801561058e573d6000803e3d6000fd5b5050506001600160a01b038316905063077f224a6105af6040880188610d80565b6105bc60608a018a610d80565b896040518663ffffffff1660e01b81526004016105dd959493929190610f47565b600060405180830381600087803b1580156105f757600080fd5b505af115801561060b573d6000803e3d6000fd5b50506068546040518681526001600160a01b03918216935090871691507f3f7f2605a4860b57de4b2bb7500ef93af42fbcdac9c6d8a0f71a8134e45823b09060200160405180910390a3600083815260656020526040812080546001600160a01b0319166001600160a01b038716179055606680549161068a83610f89565b9190505550505050919050565b61069f610a70565b6001600160a01b038116158015906106c557506067546001600160a01b03828116911614155b15610722576067546040516001600160a01b0383811692169033907f24779ce5fe2429146fb350e3dc834be089e40e789d4f53dac6905a26cbc97a8b90600090a4606780546001600160a01b0319166001600160a01b0383161790555b50565b61072d610a70565b6001600160a01b0381161580159061075357506068546001600160a01b03828116911614155b15610722576068546040516001600160a01b0383811692169033907f6bf8ae1450db343ba817d7c1b09f7053496158e4af244fb7174a6c308502c4f590600090a4606880546001600160a01b0383166001600160a01b031990911617905550565b6107bc610a70565b6001600160a01b0381166108215760405162461bcd60e51b815260206004820152602660248201527f4f776e61626c653a206e6577206f776e657220697320746865207a65726f206160448201526564647265737360d01b606482015260840161038c565b61072281610aca565b600054610100900460ff161580801561084a5750600054600160ff909116105b806108645750303b158015610864575060005460ff166001145b6108c75760405162461bcd60e51b815260206004820152602e60248201527f496e697469616c697a61626c653a20636f6e747261637420697320616c72656160448201526d191e481a5b9a5d1a585b1a5e995960921b606482015260840161038c565b6000805460ff1916600117905580156108ea576000805461ff0019166101001790555b6001600160a01b03851661094e5760405162461bcd60e51b815260206004820152602560248201527f546865206f776e65722063616e6e6f7420626520696e697469616c697a6564206044820152643d32b9379760d91b606482015260840161038c565b61095785610aca565b606780546001600160a01b038087166001600160a01b03199283161790925560688054868416908316179055606980549285169290911691909117905580156109da576000805461ff0019169055604051600181527f7f26b83ff96e1f2b6a682f133852f6798a09c465da95921460cefb38474024989060200160405180910390a15b5050505050565b6109e9610a70565b6001600160a01b03811615801590610a0f57506069546001600160a01b03828116911614155b15610722576069546040516001600160a01b0383811692169033907fbf4979bf30872a2dcc1e3221cb5a3ac0b7c2ca51369b60597374f51fb916d5da90600090a4606980546001600160a01b0383166001600160a01b031990911617905550565b6033546001600160a01b031633146103af5760405162461bcd60e51b815260206004820181905260248201527f4f776e61626c653a2063616c6c6572206973206e6f7420746865206f776e6572604482015260640161038c565b603380546001600160a01b038381166001600160a01b0319831681179093556040519116919082907f8be0079c531659141344cd1fd0a4f28419497f9722a3daafe3b4186f6b6457e090600090a35050565b6000763d602d80600a3d3981f3363d3d373d3d3d363d730000008360601b60e81c176000526e5af43d82803e903d91602b57fd5bf38360781b1760205281603760096000f590506001600160a01b038116610bb95760405162461bcd60e51b815260206004820152601760248201527f455243313136373a2063726561746532206661696c6564000000000000000000604482015260640161038c565b92915050565b600060208284031215610bd157600080fd5b5035919050565b6001600160a01b038116811461072257600080fd5b600080600060608486031215610c0257600080fd5b8335610c0d81610bd8565b95602085013595506040909401359392505050565b6000815180845260005b81811015610c4857602081850181015186830182015201610c2c565b506000602082860101526020601f19601f83011685010191505092915050565b602081526000610c7b6020830184610c22565b9392505050565b600060208284031215610c9457600080fd5b813567ffffffffffffffff811115610cab57600080fd5b820160e08185031215610c7b57600080fd5b600060208284031215610ccf57600080fd5b8135610c7b81610bd8565b60008060008060808587031215610cf057600080fd5b8435610cfb81610bd8565b93506020850135610d0b81610bd8565b92506040850135610d1b81610bd8565b91506060850135610d2b81610bd8565b939692955090935050565b600060208284031215610d4857600080fd5b8151610c7b81610bd8565b634e487b7160e01b600052601160045260246000fd5b600081610d7857610d78610d53565b506000190190565b6000808335601e19843603018112610d9757600080fd5b83018035915067ffffffffffffffff821115610db257600080fd5b602001915036819003821315610dc757600080fd5b9250929050565b838152818360208301376000910160200190815292915050565b6000808335601e19843603018112610dff57600080fd5b83018035915067ffffffffffffffff821115610e1a57600080fd5b6020019150600581901b3603821315610dc757600080fd5b60018060a01b0381511682526000602082015160606020850152610e596060850182610c22565b604093840151949093019390935250919050565b602080825282516001600160a01b039081168383015283820151811660408085019190915284015160a06060850152805160c08501819052600093929183019190849060e08701905b80831015610ed857845184168252938501936001929092019190850190610eb6565b506060880151878203601f190160808901529450610ef68186610e32565b9450505050506080840151610f1660a08501826001600160a01b03169052565b509392505050565b81835281816020850137506000828201602090810191909152601f909101601f19169091010190565b606081526000610f5b606083018789610f1e565b8281036020840152610f6e818688610f1e565b91505060018060a01b03831660408301529695505050505050565b600060018201610f9b57610f9b610d53565b506001019056fea2646970667358221220529966cb3a7aa6e1dfc6ca37391e00aaccd94bdb2bcc850a9b9d32cb72a4d2f364736f6c63430008130033",
					"opcodes": "PUSH1 0x80 PUSH1 0x40 MSTORE CALLVALUE DUP1 ISZERO PUSH2 0x10 JUMPI PUSH1 0x0 DUP1 REVERT JUMPDEST POP PUSH2 0xFD8 DUP1 PUSH2 0x20 PUSH1 0x0 CODECOPY PUSH1 0x0 RETURN INVALID PUSH1 0x80 PUSH1 0x40 MSTORE CALLVALUE DUP1 ISZERO PUSH2 0x10 JUMPI PUSH1 0x0 DUP1 REVERT JUMPDEST POP PUSH1 0x4 CALLDATASIZE LT PUSH2 0xF5 JUMPI PUSH1 0x0 CALLDATALOAD PUSH1 0xE0 SHR DUP1 PUSH4 0xA59052C2 GT PUSH2 0x97 JUMPI DUP1 PUSH4 0xE8160F84 GT PUSH2 0x66 JUMPI DUP1 PUSH4 0xE8160F84 EQ PUSH2 0x201 JUMPI DUP1 PUSH4 0xF2FDE38B EQ PUSH2 0x214 JUMPI DUP1 PUSH4 0xF8C8765E EQ PUSH2 0x227 JUMPI DUP1 PUSH4 0xFD80A63C EQ PUSH2 0x23A JUMPI PUSH1 0x0 DUP1 REVERT JUMPDEST DUP1 PUSH4 0xA59052C2 EQ PUSH2 0x1B3 JUMPI DUP1 PUSH4 0xA7ECD37E EQ PUSH2 0x1C6 JUMPI DUP1 PUSH4 0xB45B34B9 EQ PUSH2 0x1D9 JUMPI DUP1 PUSH4 0xC73B302E EQ PUSH2 0x1EA JUMPI PUSH1 0x0 DUP1 REVERT JUMPDEST DUP1 PUSH4 0x54FD4D50 GT PUSH2 0xD3 JUMPI DUP1 PUSH4 0x54FD4D50 EQ PUSH2 0x160 JUMPI DUP1 PUSH4 0x715018A6 EQ PUSH2 0x187 JUMPI DUP1 PUSH4 0x7AC3C02F EQ PUSH2 0x191 JUMPI DUP1 PUSH4 0x8DA5CB5B EQ PUSH2 0x1A2 JUMPI PUSH1 0x0 DUP1 REVERT JUMPDEST DUP1 PUSH4 0x7A0B930 EQ PUSH2 0xFA JUMPI DUP1 PUSH4 0x134A09D0 EQ PUSH2 0x124 JUMPI DUP1 PUSH4 0x4530E3FC EQ PUSH2 0x14D JUMPI JUMPDEST PUSH1 0x0 DUP1 REVERT JUMPDEST PUSH1 0x68 SLOAD PUSH1 0x1 PUSH1 0x1 PUSH1 0xA0 SHL SUB AND JUMPDEST PUSH1 0x40 MLOAD PUSH1 0x1 PUSH1 0x1 PUSH1 0xA0 SHL SUB SWAP1 SWAP2 AND DUP2 MSTORE PUSH1 0x20 ADD JUMPDEST PUSH1 0x40 MLOAD DUP1 SWAP2 SUB SWAP1 RETURN JUMPDEST PUSH2 0x107 PUSH2 0x132 CALLDATASIZE PUSH1 0x4 PUSH2 0xBBF JUMP JUMPDEST PUSH1 0x65 PUSH1 0x20 MSTORE PUSH1 0x0 SWAP1 DUP2 MSTORE PUSH1 0x40 SWAP1 KECCAK256 SLOAD PUSH1 0x1 PUSH1 0x1 PUSH1 0xA0 SHL SUB AND DUP2 JUMP JUMPDEST PUSH2 0x107 PUSH2 0x15B CALLDATASIZE PUSH1 0x4 PUSH2 0xBED JUMP JUMPDEST PUSH2 0x24D JUMP JUMPDEST PUSH1 0x40 DUP1 MLOAD DUP1 DUP3 ADD DUP3 MSTORE PUSH1 0x5 DUP2 MSTORE PUSH5 0x312E302E3 PUSH1 0xDC SHL PUSH1 0x20 DUP3 ADD MSTORE SWAP1 MLOAD PUSH2 0x11B SWAP2 SWAP1 PUSH2 0xC68 JUMP JUMPDEST PUSH2 0x18F PUSH2 0x39D JUMP JUMPDEST STOP JUMPDEST PUSH1 0x67 SLOAD PUSH1 0x1 PUSH1 0x1 PUSH1 0xA0 SHL SUB AND PUSH2 0x107 JUMP JUMPDEST PUSH1 0x33 SLOAD PUSH1 0x1 PUSH1 0x1 PUSH1 0xA0 SHL SUB AND PUSH2 0x107 JUMP JUMPDEST PUSH2 0x107 PUSH2 0x1C1 CALLDATASIZE PUSH1 0x4 PUSH2 0xC82 JUMP JUMPDEST PUSH2 0x3B1 JUMP JUMPDEST PUSH2 0x18F PUSH2 0x1D4 CALLDATASIZE PUSH1 0x4 PUSH2 0xCBD JUMP JUMPDEST PUSH2 0x697 JUMP JUMPDEST PUSH1 0x69 SLOAD PUSH1 0x1 PUSH1 0x1 PUSH1 0xA0 SHL SUB AND PUSH2 0x107 JUMP JUMPDEST PUSH2 0x1F3 PUSH1 0x66 SLOAD DUP2 JUMP JUMPDEST PUSH1 0x40 MLOAD SWAP1 DUP2 MSTORE PUSH1 0x20 ADD PUSH2 0x11B JUMP JUMPDEST PUSH2 0x18F PUSH2 0x20F CALLDATASIZE PUSH1 0x4 PUSH2 0xCBD JUMP JUMPDEST PUSH2 0x725 JUMP JUMPDEST PUSH2 0x18F PUSH2 0x222 CALLDATASIZE PUSH1 0x4 PUSH2 0xCBD JUMP JUMPDEST PUSH2 0x7B4 JUMP JUMPDEST PUSH2 0x18F PUSH2 0x235 CALLDATASIZE PUSH1 0x4 PUSH2 0xCDA JUMP JUMPDEST PUSH2 0x82A JUMP JUMPDEST PUSH2 0x18F PUSH2 0x248 CALLDATASIZE PUSH1 0x4 PUSH2 0xCBD JUMP JUMPDEST PUSH2 0x9E1 JUMP JUMPDEST PUSH1 0x0 DUP1 DUP3 DUP5 GT ISZERO DUP1 ISZERO PUSH2 0x261 JUMPI POP PUSH1 0x66 SLOAD DUP4 LT JUMPDEST ISZERO PUSH2 0x33C JUMPI DUP3 JUMPDEST DUP5 DUP2 LT PUSH2 0x336 JUMPI PUSH1 0x0 DUP2 DUP2 MSTORE PUSH1 0x65 PUSH1 0x20 SWAP1 DUP2 MSTORE PUSH1 0x40 SWAP2 DUP3 SWAP1 KECCAK256 SLOAD DUP3 MLOAD PUSH4 0x1127A41D PUSH1 0xE3 SHL DUP2 MSTORE SWAP3 MLOAD PUSH1 0x1 PUSH1 0x1 PUSH1 0xA0 SHL SUB SWAP1 SWAP2 AND SWAP3 PUSH4 0x893D20E8 SWAP3 PUSH1 0x4 DUP1 DUP4 ADD SWAP4 SWAP2 SWAP3 DUP3 SWAP1 SUB ADD DUP2 DUP7 GAS STATICCALL ISZERO DUP1 ISZERO PUSH2 0x2C3 JUMPI RETURNDATASIZE PUSH1 0x0 DUP1 RETURNDATACOPY RETURNDATASIZE PUSH1 0x0 REVERT JUMPDEST POP POP POP POP PUSH1 0x40 MLOAD RETURNDATASIZE PUSH1 0x1F NOT PUSH1 0x1F DUP3 ADD AND DUP3 ADD DUP1 PUSH1 0x40 MSTORE POP DUP2 ADD SWAP1 PUSH2 0x2E7 SWAP2 SWAP1 PUSH2 0xD36 JUMP JUMPDEST PUSH1 0x1 PUSH1 0x1 PUSH1 0xA0 SHL SUB AND DUP7 PUSH1 0x1 PUSH1 0x1 PUSH1 0xA0 SHL SUB AND SUB PUSH2 0x31E JUMPI PUSH1 0x0 DUP2 DUP2 MSTORE PUSH1 0x65 PUSH1 0x20 MSTORE PUSH1 0x40 SWAP1 KECCAK256 SLOAD PUSH1 0x1 PUSH1 0x1 PUSH1 0xA0 SHL SUB AND SWAP2 POP PUSH2 0x336 JUMP JUMPDEST DUP1 ISZERO PUSH2 0x336 JUMPI DUP1 PUSH2 0x32E DUP2 PUSH2 0xD69 JUMP JUMPDEST SWAP2 POP POP PUSH2 0x268 JUMP JUMPDEST POP PUSH2 0x395 JUMP JUMPDEST PUSH1 0x40 MLOAD PUSH3 0x461BCD PUSH1 0xE5 SHL DUP2 MSTORE PUSH1 0x20 PUSH1 0x4 DUP3 ADD MSTORE PUSH1 0x24 DUP1 DUP3 ADD MSTORE PUSH32 0x7374617274496E646578206F7220656E64496E646578206F7574206F66207261 PUSH1 0x44 DUP3 ADD MSTORE PUSH4 0x3733B297 PUSH1 0xE1 SHL PUSH1 0x64 DUP3 ADD MSTORE PUSH1 0x84 ADD JUMPDEST PUSH1 0x40 MLOAD DUP1 SWAP2 SUB SWAP1 REVERT JUMPDEST SWAP5 SWAP4 POP POP POP POP JUMP JUMPDEST PUSH2 0x3A5 PUSH2 0xA70 JUMP JUMPDEST PUSH2 0x3AF PUSH1 0x0 PUSH2 0xACA JUMP JUMPDEST JUMP JUMPDEST PUSH1 0x66 SLOAD PUSH1 0x69 SLOAD PUSH1 0x0 SWAP2 SWAP1 DUP3 SWAP1 PUSH2 0x405 SWAP1 PUSH1 0x1 PUSH1 0x1 PUSH1 0xA0 SHL SUB AND DUP4 PUSH2 0x3D8 PUSH1 0x60 DUP9 ADD DUP9 PUSH2 0xD80 JUMP JUMPDEST PUSH1 0x40 MLOAD PUSH1 0x20 ADD PUSH2 0x3EA SWAP4 SWAP3 SWAP2 SWAP1 PUSH2 0xDCE JUMP JUMPDEST PUSH1 0x40 MLOAD PUSH1 0x20 DUP2 DUP4 SUB SUB DUP2 MSTORE SWAP1 PUSH1 0x40 MSTORE DUP1 MLOAD SWAP1 PUSH1 0x20 ADD KECCAK256 PUSH2 0xB1C JUMP JUMPDEST PUSH1 0x68 SLOAD PUSH1 0x40 DUP1 MLOAD PUSH1 0x20 DUP2 ADD DUP7 SWAP1 MSTORE SWAP3 SWAP4 POP PUSH2 0x42C SWAP3 PUSH1 0x1 PUSH1 0x1 PUSH1 0xA0 SHL SUB SWAP1 SWAP3 AND SWAP2 ADD PUSH2 0x3EA JUMP JUMPDEST PUSH1 0x40 DUP1 MLOAD PUSH1 0xA0 DUP2 ADD SWAP1 SWAP2 MSTORE ADDRESS DUP2 MSTORE SWAP1 SWAP4 POP PUSH1 0x0 SWAP1 PUSH1 0x20 DUP1 DUP3 ADD SWAP1 PUSH2 0x452 SWAP1 DUP9 ADD DUP9 PUSH2 0xCBD JUMP JUMPDEST PUSH1 0x1 PUSH1 0x1 PUSH1 0xA0 SHL SUB AND DUP2 MSTORE PUSH1 0x20 ADD DUP7 DUP1 PUSH1 0x20 ADD SWAP1 PUSH2 0x470 SWAP2 SWAP1 PUSH2 0xDE8 JUMP JUMPDEST DUP1 DUP1 PUSH1 0x20 MUL PUSH1 0x20 ADD PUSH1 0x40 MLOAD SWAP1 DUP2 ADD PUSH1 0x40 MSTORE DUP1 SWAP4 SWAP3 SWAP2 SWAP1 DUP2 DUP2 MSTORE PUSH1 0x20 ADD DUP4 DUP4 PUSH1 0x20 MUL DUP1 DUP3 DUP5 CALLDATACOPY PUSH1 0x0 SWAP3 ADD SWAP2 SWAP1 SWAP2 MSTORE POP POP POP SWAP1 DUP3 MSTORE POP PUSH1 0x40 DUP1 MLOAD PUSH1 0x60 DUP2 ADD SWAP1 SWAP2 MSTORE PUSH1 0x20 SWAP1 SWAP2 ADD SWAP1 DUP1 PUSH2 0x4C6 PUSH1 0xA0 DUP11 ADD PUSH1 0x80 DUP12 ADD PUSH2 0xCBD JUMP JUMPDEST PUSH1 0x1 PUSH1 0x1 PUSH1 0xA0 SHL SUB AND DUP2 MSTORE PUSH1 0x20 ADD PUSH2 0x4E1 PUSH1 0xA0 DUP11 ADD DUP11 PUSH2 0xD80 JUMP JUMPDEST DUP1 DUP1 PUSH1 0x1F ADD PUSH1 0x20 DUP1 SWAP2 DIV MUL PUSH1 0x20 ADD PUSH1 0x40 MLOAD SWAP1 DUP2 ADD PUSH1 0x40 MSTORE DUP1 SWAP4 SWAP3 SWAP2 SWAP1 DUP2 DUP2 MSTORE PUSH1 0x20 ADD DUP4 DUP4 DUP1 DUP3 DUP5 CALLDATACOPY PUSH1 0x0 SWAP3 ADD SWAP2 SWAP1 SWAP2 MSTORE POP POP POP SWAP1 DUP3 MSTORE POP PUSH1 0xC0 DUP10 ADD CALLDATALOAD PUSH1 0x20 SWAP2 DUP3 ADD MSTORE SWAP1 DUP3 MSTORE PUSH1 0x1 PUSH1 0x1 PUSH1 0xA0 SHL SUB DUP1 DUP7 AND SWAP3 SWAP1 SWAP2 ADD SWAP2 SWAP1 SWAP2 MSTORE PUSH1 0x40 MLOAD PUSH4 0x6F16BE6D PUSH1 0xE1 SHL DUP2 MSTORE SWAP2 SWAP3 POP DUP6 AND SWAP1 PUSH4 0xDE2D7CDA SWAP1 PUSH2 0x560 SWAP1 DUP5 SWAP1 PUSH1 0x4 ADD PUSH2 0xE6D JUMP JUMPDEST PUSH1 0x0 PUSH1 0x40 MLOAD DUP1 DUP4 SUB DUP2 PUSH1 0x0 DUP8 DUP1 EXTCODESIZE ISZERO DUP1 ISZERO PUSH2 0x57A JUMPI PUSH1 0x0 DUP1 REVERT JUMPDEST POP GAS CALL ISZERO DUP1 ISZERO PUSH2 0x58E JUMPI RETURNDATASIZE PUSH1 0x0 DUP1 RETURNDATACOPY RETURNDATASIZE PUSH1 0x0 REVERT JUMPDEST POP POP POP PUSH1 0x1 PUSH1 0x1 PUSH1 0xA0 SHL SUB DUP4 AND SWAP1 POP PUSH4 0x77F224A PUSH2 0x5AF PUSH1 0x40 DUP9 ADD DUP9 PUSH2 0xD80 JUMP JUMPDEST PUSH2 0x5BC PUSH1 0x60 DUP11 ADD DUP11 PUSH2 0xD80 JUMP JUMPDEST DUP10 PUSH1 0x40 MLOAD DUP7 PUSH4 0xFFFFFFFF AND PUSH1 0xE0 SHL DUP2 MSTORE PUSH1 0x4 ADD PUSH2 0x5DD SWAP6 SWAP5 SWAP4 SWAP3 SWAP2 SWAP1 PUSH2 0xF47 JUMP JUMPDEST PUSH1 0x0 PUSH1 0x40 MLOAD DUP1 DUP4 SUB DUP2 PUSH1 0x0 DUP8 DUP1 EXTCODESIZE ISZERO DUP1 ISZERO PUSH2 0x5F7 JUMPI PUSH1 0x0 DUP1 REVERT JUMPDEST POP GAS CALL ISZERO DUP1 ISZERO PUSH2 0x60B JUMPI RETURNDATASIZE PUSH1 0x0 DUP1 RETURNDATACOPY RETURNDATASIZE PUSH1 0x0 REVERT JUMPDEST POP POP PUSH1 0x68 SLOAD PUSH1 0x40 MLOAD DUP7 DUP2 MSTORE PUSH1 0x1 PUSH1 0x1 PUSH1 0xA0 SHL SUB SWAP2 DUP3 AND SWAP4 POP SWAP1 DUP8 AND SWAP2 POP PUSH32 0x3F7F2605A4860B57DE4B2BB7500EF93AF42FBCDAC9C6D8A0F71A8134E45823B0 SWAP1 PUSH1 0x20 ADD PUSH1 0x40 MLOAD DUP1 SWAP2 SUB SWAP1 LOG3 PUSH1 0x0 DUP4 DUP2 MSTORE PUSH1 0x65 PUSH1 0x20 MSTORE PUSH1 0x40 DUP2 KECCAK256 DUP1 SLOAD PUSH1 0x1 PUSH1 0x1 PUSH1 0xA0 SHL SUB NOT AND PUSH1 0x1 PUSH1 0x1 PUSH1 0xA0 SHL SUB DUP8 AND OR SWAP1 SSTORE PUSH1 0x66 DUP1 SLOAD SWAP2 PUSH2 0x68A DUP4 PUSH2 0xF89 JUMP JUMPDEST SWAP2 SWAP1 POP SSTORE POP POP POP POP SWAP2 SWAP1 POP JUMP JUMPDEST PUSH2 0x69F PUSH2 0xA70 JUMP JUMPDEST PUSH1 0x1 PUSH1 0x1 PUSH1 0xA0 SHL SUB DUP2 AND ISZERO DUP1 ISZERO SWAP1 PUSH2 0x6C5 JUMPI POP PUSH1 0x67 SLOAD PUSH1 0x1 PUSH1 0x1 PUSH1 0xA0 SHL SUB DUP3 DUP2 AND SWAP2 AND EQ ISZERO JUMPDEST ISZERO PUSH2 0x722 JUMPI PUSH1 0x67 SLOAD PUSH1 0x40 MLOAD PUSH1 0x1 PUSH1 0x1 PUSH1 0xA0 SHL SUB DUP4 DUP2 AND SWAP3 AND SWAP1 CALLER SWAP1 PUSH32 0x24779CE5FE2429146FB350E3DC834BE089E40E789D4F53DAC6905A26CBC97A8B SWAP1 PUSH1 0x0 SWAP1 LOG4 PUSH1 0x67 DUP1 SLOAD PUSH1 0x1 PUSH1 0x1 PUSH1 0xA0 SHL SUB NOT AND PUSH1 0x1 PUSH1 0x1 PUSH1 0xA0 SHL SUB DUP4 AND OR SWAP1 SSTORE JUMPDEST POP JUMP JUMPDEST PUSH2 0x72D PUSH2 0xA70 JUMP JUMPDEST PUSH1 0x1 PUSH1 0x1 PUSH1 0xA0 SHL SUB DUP2 AND ISZERO DUP1 ISZERO SWAP1 PUSH2 0x753 JUMPI POP PUSH1 0x68 SLOAD PUSH1 0x1 PUSH1 0x1 PUSH1 0xA0 SHL SUB DUP3 DUP2 AND SWAP2 AND EQ ISZERO JUMPDEST ISZERO PUSH2 0x722 JUMPI PUSH1 0x68 SLOAD PUSH1 0x40 MLOAD PUSH1 0x1 PUSH1 0x1 PUSH1 0xA0 SHL SUB DUP4 DUP2 AND SWAP3 AND SWAP1 CALLER SWAP1 PUSH32 0x6BF8AE1450DB343BA817D7C1B09F7053496158E4AF244FB7174A6C308502C4F5 SWAP1 PUSH1 0x0 SWAP1 LOG4 PUSH1 0x68 DUP1 SLOAD PUSH1 0x1 PUSH1 0x1 PUSH1 0xA0 SHL SUB DUP4 AND PUSH1 0x1 PUSH1 0x1 PUSH1 0xA0 SHL SUB NOT SWAP1 SWAP2 AND OR SWAP1 SSTORE POP JUMP JUMPDEST PUSH2 0x7BC PUSH2 0xA70 JUMP JUMPDEST PUSH1 0x1 PUSH1 0x1 PUSH1 0xA0 SHL SUB DUP2 AND PUSH2 0x821 JUMPI PUSH1 0x40 MLOAD PUSH3 0x461BCD PUSH1 0xE5 SHL DUP2 MSTORE PUSH1 0x20 PUSH1 0x4 DUP3 ADD MSTORE PUSH1 0x26 PUSH1 0x24 DUP3 ADD MSTORE PUSH32 0x4F776E61626C653A206E6577206F776E657220697320746865207A65726F2061 PUSH1 0x44 DUP3 ADD MSTORE PUSH6 0x646472657373 PUSH1 0xD0 SHL PUSH1 0x64 DUP3 ADD MSTORE PUSH1 0x84 ADD PUSH2 0x38C JUMP JUMPDEST PUSH2 0x722 DUP2 PUSH2 0xACA JUMP JUMPDEST PUSH1 0x0 SLOAD PUSH2 0x100 SWAP1 DIV PUSH1 0xFF AND ISZERO DUP1 DUP1 ISZERO PUSH2 0x84A JUMPI POP PUSH1 0x0 SLOAD PUSH1 0x1 PUSH1 0xFF SWAP1 SWAP2 AND LT JUMPDEST DUP1 PUSH2 0x864 JUMPI POP ADDRESS EXTCODESIZE ISZERO DUP1 ISZERO PUSH2 0x864 JUMPI POP PUSH1 0x0 SLOAD PUSH1 0xFF AND PUSH1 0x1 EQ JUMPDEST PUSH2 0x8C7 JUMPI PUSH1 0x40 MLOAD PUSH3 0x461BCD PUSH1 0xE5 SHL DUP2 MSTORE PUSH1 0x20 PUSH1 0x4 DUP3 ADD MSTORE PUSH1 0x2E PUSH1 0x24 DUP3 ADD MSTORE PUSH32 0x496E697469616C697A61626C653A20636F6E747261637420697320616C726561 PUSH1 0x44 DUP3 ADD MSTORE PUSH14 0x191E481A5B9A5D1A585B1A5E9959 PUSH1 0x92 SHL PUSH1 0x64 DUP3 ADD MSTORE PUSH1 0x84 ADD PUSH2 0x38C JUMP JUMPDEST PUSH1 0x0 DUP1 SLOAD PUSH1 0xFF NOT AND PUSH1 0x1 OR SWAP1 SSTORE DUP1 ISZERO PUSH2 0x8EA JUMPI PUSH1 0x0 DUP1 SLOAD PUSH2 0xFF00 NOT AND PUSH2 0x100 OR SWAP1 SSTORE JUMPDEST PUSH1 0x1 PUSH1 0x1 PUSH1 0xA0 SHL SUB DUP6 AND PUSH2 0x94E JUMPI PUSH1 0x40 MLOAD PUSH3 0x461BCD PUSH1 0xE5 SHL DUP2 MSTORE PUSH1 0x20 PUSH1 0x4 DUP3 ADD MSTORE PUSH1 0x25 PUSH1 0x24 DUP3 ADD MSTORE PUSH32 0x546865206F776E65722063616E6E6F7420626520696E697469616C697A656420 PUSH1 0x44 DUP3 ADD MSTORE PUSH5 0x3D32B93797 PUSH1 0xD9 SHL PUSH1 0x64 DUP3 ADD MSTORE PUSH1 0x84 ADD PUSH2 0x38C JUMP JUMPDEST PUSH2 0x957 DUP6 PUSH2 0xACA JUMP JUMPDEST PUSH1 0x67 DUP1 SLOAD PUSH1 0x1 PUSH1 0x1 PUSH1 0xA0 SHL SUB DUP1 DUP8 AND PUSH1 0x1 PUSH1 0x1 PUSH1 0xA0 SHL SUB NOT SWAP3 DUP4 AND OR SWAP1 SWAP3 SSTORE PUSH1 0x68 DUP1 SLOAD DUP7 DUP5 AND SWAP1 DUP4 AND OR SWAP1 SSTORE PUSH1 0x69 DUP1 SLOAD SWAP3 DUP6 AND SWAP3 SWAP1 SWAP2 AND SWAP2 SWAP1 SWAP2 OR SWAP1 SSTORE DUP1 ISZERO PUSH2 0x9DA JUMPI PUSH1 0x0 DUP1 SLOAD PUSH2 0xFF00 NOT AND SWAP1 SSTORE PUSH1 0x40 MLOAD PUSH1 0x1 DUP2 MSTORE PUSH32 0x7F26B83FF96E1F2B6A682F133852F6798A09C465DA95921460CEFB3847402498 SWAP1 PUSH1 0x20 ADD PUSH1 0x40 MLOAD DUP1 SWAP2 SUB SWAP1 LOG1 JUMPDEST POP POP POP POP POP JUMP JUMPDEST PUSH2 0x9E9 PUSH2 0xA70 JUMP JUMPDEST PUSH1 0x1 PUSH1 0x1 PUSH1 0xA0 SHL SUB DUP2 AND ISZERO DUP1 ISZERO SWAP1 PUSH2 0xA0F JUMPI POP PUSH1 0x69 SLOAD PUSH1 0x1 PUSH1 0x1 PUSH1 0xA0 SHL SUB DUP3 DUP2 AND SWAP2 AND EQ ISZERO JUMPDEST ISZERO PUSH2 0x722 JUMPI PUSH1 0x69 SLOAD PUSH1 0x40 MLOAD PUSH1 0x1 PUSH1 0x1 PUSH1 0xA0 SHL SUB DUP4 DUP2 AND SWAP3 AND SWAP1 CALLER SWAP1 PUSH32 0xBF4979BF30872A2DCC1E3221CB5A3AC0B7C2CA51369B60597374F51FB916D5DA SWAP1 PUSH1 0x0 SWAP1 LOG4 PUSH1 0x69 DUP1 SLOAD PUSH1 0x1 PUSH1 0x1 PUSH1 0xA0 SHL SUB DUP4 AND PUSH1 0x1 PUSH1 0x1 PUSH1 0xA0 SHL SUB NOT SWAP1 SWAP2 AND OR SWAP1 SSTORE POP JUMP JUMPDEST PUSH1 0x33 SLOAD PUSH1 0x1 PUSH1 0x1 PUSH1 0xA0 SHL SUB AND CALLER EQ PUSH2 0x3AF JUMPI PUSH1 0x40 MLOAD PUSH3 0x461BCD PUSH1 0xE5 SHL DUP2 MSTORE PUSH1 0x20 PUSH1 0x4 DUP3 ADD DUP2 SWAP1 MSTORE PUSH1 0x24 DUP3 ADD MSTORE PUSH32 0x4F776E61626C653A2063616C6C6572206973206E6F7420746865206F776E6572 PUSH1 0x44 DUP3 ADD MSTORE PUSH1 0x64 ADD PUSH2 0x38C JUMP JUMPDEST PUSH1 0x33 DUP1 SLOAD PUSH1 0x1 PUSH1 0x1 PUSH1 0xA0 SHL SUB DUP4 DUP2 AND PUSH1 0x1 PUSH1 0x1 PUSH1 0xA0 SHL SUB NOT DUP4 AND DUP2 OR SWAP1 SWAP4 SSTORE PUSH1 0x40 MLOAD SWAP2 AND SWAP2 SWAP1 DUP3 SWAP1 PUSH32 0x8BE0079C531659141344CD1FD0A4F28419497F9722A3DAAFE3B4186F6B6457E0 SWAP1 PUSH1 0x0 SWAP1 LOG3 POP POP JUMP JUMPDEST PUSH1 0x0 PUSH23 0x3D602D80600A3D3981F3363D3D373D3D3D363D73000000 DUP4 PUSH1 0x60 SHL PUSH1 0xE8 SHR OR PUSH1 0x0 MSTORE PUSH15 0x5AF43D82803E903D91602B57FD5BF3 DUP4 PUSH1 0x78 SHL OR PUSH1 0x20 MSTORE DUP2 PUSH1 0x37 PUSH1 0x9 PUSH1 0x0 CREATE2 SWAP1 POP PUSH1 0x1 PUSH1 0x1 PUSH1 0xA0 SHL SUB DUP2 AND PUSH2 0xBB9 JUMPI PUSH1 0x40 MLOAD PUSH3 0x461BCD PUSH1 0xE5 SHL DUP2 MSTORE PUSH1 0x20 PUSH1 0x4 DUP3 ADD MSTORE PUSH1 0x17 PUSH1 0x24 DUP3 ADD MSTORE PUSH32 0x455243313136373A2063726561746532206661696C6564000000000000000000 PUSH1 0x44 DUP3 ADD MSTORE PUSH1 0x64 ADD PUSH2 0x38C JUMP JUMPDEST SWAP3 SWAP2 POP POP JUMP JUMPDEST PUSH1 0x0 PUSH1 0x20 DUP3 DUP5 SUB SLT ISZERO PUSH2 0xBD1 JUMPI PUSH1 0x0 DUP1 REVERT JUMPDEST POP CALLDATALOAD SWAP2 SWAP1 POP JUMP JUMPDEST PUSH1 0x1 PUSH1 0x1 PUSH1 0xA0 SHL SUB DUP2 AND DUP2 EQ PUSH2 0x722 JUMPI PUSH1 0x0 DUP1 REVERT JUMPDEST PUSH1 0x0 DUP1 PUSH1 0x0 PUSH1 0x60 DUP5 DUP7 SUB SLT ISZERO PUSH2 0xC02 JUMPI PUSH1 0x0 DUP1 REVERT JUMPDEST DUP4 CALLDATALOAD PUSH2 0xC0D DUP2 PUSH2 0xBD8 JUMP JUMPDEST SWAP6 PUSH1 0x20 DUP6 ADD CALLDATALOAD SWAP6 POP PUSH1 0x40 SWAP1 SWAP5 ADD CALLDATALOAD SWAP4 SWAP3 POP POP POP JUMP JUMPDEST PUSH1 0x0 DUP2 MLOAD DUP1 DUP5 MSTORE PUSH1 0x0 JUMPDEST DUP2 DUP2 LT ISZERO PUSH2 0xC48 JUMPI PUSH1 0x20 DUP2 DUP6 ADD DUP2 ADD MLOAD DUP7 DUP4 ADD DUP3 ADD MSTORE ADD PUSH2 0xC2C JUMP JUMPDEST POP PUSH1 0x0 PUSH1 0x20 DUP3 DUP7 ADD ADD MSTORE PUSH1 0x20 PUSH1 0x1F NOT PUSH1 0x1F DUP4 ADD AND DUP6 ADD ADD SWAP2 POP POP SWAP3 SWAP2 POP POP JUMP JUMPDEST PUSH1 0x20 DUP2 MSTORE PUSH1 0x0 PUSH2 0xC7B PUSH1 0x20 DUP4 ADD DUP5 PUSH2 0xC22 JUMP JUMPDEST SWAP4 SWAP3 POP POP POP JUMP JUMPDEST PUSH1 0x0 PUSH1 0x20 DUP3 DUP5 SUB SLT ISZERO PUSH2 0xC94 JUMPI PUSH1 0x0 DUP1 REVERT JUMPDEST DUP2 CALLDATALOAD PUSH8 0xFFFFFFFFFFFFFFFF DUP2 GT ISZERO PUSH2 0xCAB JUMPI PUSH1 0x0 DUP1 REVERT JUMPDEST DUP3 ADD PUSH1 0xE0 DUP2 DUP6 SUB SLT ISZERO PUSH2 0xC7B JUMPI PUSH1 0x0 DUP1 REVERT JUMPDEST PUSH1 0x0 PUSH1 0x20 DUP3 DUP5 SUB SLT ISZERO PUSH2 0xCCF JUMPI PUSH1 0x0 DUP1 REVERT JUMPDEST DUP2 CALLDATALOAD PUSH2 0xC7B DUP2 PUSH2 0xBD8 JUMP JUMPDEST PUSH1 0x0 DUP1 PUSH1 0x0 DUP1 PUSH1 0x80 DUP6 DUP8 SUB SLT ISZERO PUSH2 0xCF0 JUMPI PUSH1 0x0 DUP1 REVERT JUMPDEST DUP5 CALLDATALOAD PUSH2 0xCFB DUP2 PUSH2 0xBD8 JUMP JUMPDEST SWAP4 POP PUSH1 0x20 DUP6 ADD CALLDATALOAD PUSH2 0xD0B DUP2 PUSH2 0xBD8 JUMP JUMPDEST SWAP3 POP PUSH1 0x40 DUP6 ADD CALLDATALOAD PUSH2 0xD1B DUP2 PUSH2 0xBD8 JUMP JUMPDEST SWAP2 POP PUSH1 0x60 DUP6 ADD CALLDATALOAD PUSH2 0xD2B DUP2 PUSH2 0xBD8 JUMP JUMPDEST SWAP4 SWAP7 SWAP3 SWAP6 POP SWAP1 SWAP4 POP POP JUMP JUMPDEST PUSH1 0x0 PUSH1 0x20 DUP3 DUP5 SUB SLT ISZERO PUSH2 0xD48 JUMPI PUSH1 0x0 DUP1 REVERT JUMPDEST DUP2 MLOAD PUSH2 0xC7B DUP2 PUSH2 0xBD8 JUMP JUMPDEST PUSH4 0x4E487B71 PUSH1 0xE0 SHL PUSH1 0x0 MSTORE PUSH1 0x11 PUSH1 0x4 MSTORE PUSH1 0x24 PUSH1 0x0 REVERT JUMPDEST PUSH1 0x0 DUP2 PUSH2 0xD78 JUMPI PUSH2 0xD78 PUSH2 0xD53 JUMP JUMPDEST POP PUSH1 0x0 NOT ADD SWAP1 JUMP JUMPDEST PUSH1 0x0 DUP1 DUP4 CALLDATALOAD PUSH1 0x1E NOT DUP5 CALLDATASIZE SUB ADD DUP2 SLT PUSH2 0xD97 JUMPI PUSH1 0x0 DUP1 REVERT JUMPDEST DUP4 ADD DUP1 CALLDATALOAD SWAP2 POP PUSH8 0xFFFFFFFFFFFFFFFF DUP3 GT ISZERO PUSH2 0xDB2 JUMPI PUSH1 0x0 DUP1 REVERT JUMPDEST PUSH1 0x20 ADD SWAP2 POP CALLDATASIZE DUP2 SWAP1 SUB DUP3 SGT ISZERO PUSH2 0xDC7 JUMPI PUSH1 0x0 DUP1 REVERT JUMPDEST SWAP3 POP SWAP3 SWAP1 POP JUMP JUMPDEST DUP4 DUP2 MSTORE DUP2 DUP4 PUSH1 0x20 DUP4 ADD CALLDATACOPY PUSH1 0x0 SWAP2 ADD PUSH1 0x20 ADD SWAP1 DUP2 MSTORE SWAP3 SWAP2 POP POP JUMP JUMPDEST PUSH1 0x0 DUP1 DUP4 CALLDATALOAD PUSH1 0x1E NOT DUP5 CALLDATASIZE SUB ADD DUP2 SLT PUSH2 0xDFF JUMPI PUSH1 0x0 DUP1 REVERT JUMPDEST DUP4 ADD DUP1 CALLDATALOAD SWAP2 POP PUSH8 0xFFFFFFFFFFFFFFFF DUP3 GT ISZERO PUSH2 0xE1A JUMPI PUSH1 0x0 DUP1 REVERT JUMPDEST PUSH1 0x20 ADD SWAP2 POP PUSH1 0x5 DUP2 SWAP1 SHL CALLDATASIZE SUB DUP3 SGT ISZERO PUSH2 0xDC7 JUMPI PUSH1 0x0 DUP1 REVERT JUMPDEST PUSH1 0x1 DUP1 PUSH1 0xA0 SHL SUB DUP2 MLOAD AND DUP3 MSTORE PUSH1 0x0 PUSH1 0x20 DUP3 ADD MLOAD PUSH1 0x60 PUSH1 0x20 DUP6 ADD MSTORE PUSH2 0xE59 PUSH1 0x60 DUP6 ADD DUP3 PUSH2 0xC22 JUMP JUMPDEST PUSH1 0x40 SWAP4 DUP5 ADD MLOAD SWAP5 SWAP1 SWAP4 ADD SWAP4 SWAP1 SWAP4 MSTORE POP SWAP2 SWAP1 POP JUMP JUMPDEST PUSH1 0x20 DUP1 DUP3 MSTORE DUP3 MLOAD PUSH1 0x1 PUSH1 0x1 PUSH1 0xA0 SHL SUB SWAP1 DUP2 AND DUP4 DUP4 ADD MSTORE DUP4 DUP3 ADD MLOAD DUP2 AND PUSH1 0x40 DUP1 DUP6 ADD SWAP2 SWAP1 SWAP2 MSTORE DUP5 ADD MLOAD PUSH1 0xA0 PUSH1 0x60 DUP6 ADD MSTORE DUP1 MLOAD PUSH1 0xC0 DUP6 ADD DUP2 SWAP1 MSTORE PUSH1 0x0 SWAP4 SWAP3 SWAP2 DUP4 ADD SWAP2 SWAP1 DUP5 SWAP1 PUSH1 0xE0 DUP8 ADD SWAP1 JUMPDEST DUP1 DUP4 LT ISZERO PUSH2 0xED8 JUMPI DUP5 MLOAD DUP5 AND DUP3 MSTORE SWAP4 DUP6 ADD SWAP4 PUSH1 0x1 SWAP3 SWAP1 SWAP3 ADD SWAP2 SWAP1 DUP6 ADD SWAP1 PUSH2 0xEB6 JUMP JUMPDEST POP PUSH1 0x60 DUP9 ADD MLOAD DUP8 DUP3 SUB PUSH1 0x1F NOT ADD PUSH1 0x80 DUP10 ADD MSTORE SWAP5 POP PUSH2 0xEF6 DUP2 DUP7 PUSH2 0xE32 JUMP JUMPDEST SWAP5 POP POP POP POP POP PUSH1 0x80 DUP5 ADD MLOAD PUSH2 0xF16 PUSH1 0xA0 DUP6 ADD DUP3 PUSH1 0x1 PUSH1 0x1 PUSH1 0xA0 SHL SUB AND SWAP1 MSTORE JUMP JUMPDEST POP SWAP4 SWAP3 POP POP POP JUMP JUMPDEST DUP2 DUP4 MSTORE DUP2 DUP2 PUSH1 0x20 DUP6 ADD CALLDATACOPY POP PUSH1 0x0 DUP3 DUP3 ADD PUSH1 0x20 SWAP1 DUP2 ADD SWAP2 SWAP1 SWAP2 MSTORE PUSH1 0x1F SWAP1 SWAP2 ADD PUSH1 0x1F NOT AND SWAP1 SWAP2 ADD ADD SWAP1 JUMP JUMPDEST PUSH1 0x60 DUP2 MSTORE PUSH1 0x0 PUSH2 0xF5B PUSH1 0x60 DUP4 ADD DUP8 DUP10 PUSH2 0xF1E JUMP JUMPDEST DUP3 DUP2 SUB PUSH1 0x20 DUP5 ADD MSTORE PUSH2 0xF6E DUP2 DUP7 DUP9 PUSH2 0xF1E JUMP JUMPDEST SWAP2 POP POP PUSH1 0x1 DUP1 PUSH1 0xA0 SHL SUB DUP4 AND PUSH1 0x40 DUP4 ADD MSTORE SWAP7 SWAP6 POP POP POP POP POP POP JUMP JUMPDEST PUSH1 0x0 PUSH1 0x1 DUP3 ADD PUSH2 0xF9B JUMPI PUSH2 0xF9B PUSH2 0xD53 JUMP JUMPDEST POP PUSH1 0x1 ADD SWAP1 JUMP INVALID LOG2 PUSH5 0x6970667358 0x22 SLT KECCAK256 MSTORE SWAP10 PUSH7 0xCB3A7AA6E1DFC6 0xCA CALLDATACOPY CODECOPY 0x1E STOP 0xAA 0xCC 0xD9 0x4B 0xDB 0x2B 0xCC DUP6 EXP SWAP12 SWAP14 ORIGIN 0xCB PUSH19 0xA4D2F364736F6C634300081300330000000000 "
				},
				"gasEstimates": {
					"creation": {
						"codeDepositCost": "811200",
						"executionCost": "844",
						"totalCost": "812044"
					},
					"external": {
						"create((address,address[],string,string,address,bytes,uint256))": "infinite",
						"getOwnerLatestProject(address,uint256,uint256)": "infinite",
						"getProjectTemplate()": "2333",
						"getProjectTokenTemplate()": "2387",
						"getSigner()": "2387",
						"initialize(address,address,address,address)": "infinite",
						"owner()": "2409",
						"projectsCount()": "2384",
						"projectsIndexer(uint256)": "2512",
						"renounceOwnership()": "infinite",
						"transferOwnership(address)": "infinite",
						"updateProjectTemplate(address)": "infinite",
						"updateProjectTokenTemplate(address)": "infinite",
						"updateSigner(address)": "infinite",
						"version()": "infinite"
					}
				},
				"methodIdentifiers": {
					"create((address,address[],string,string,address,bytes,uint256))": "a59052c2",
					"getOwnerLatestProject(address,uint256,uint256)": "4530e3fc",
					"getProjectTemplate()": "07a0b930",
					"getProjectTokenTemplate()": "b45b34b9",
					"getSigner()": "7ac3c02f",
					"initialize(address,address,address,address)": "f8c8765e",
					"owner()": "8da5cb5b",
					"projectsCount()": "c73b302e",
					"projectsIndexer(uint256)": "134a09d0",
					"renounceOwnership()": "715018a6",
					"transferOwnership(address)": "f2fde38b",
					"updateProjectTemplate(address)": "e8160f84",
					"updateProjectTokenTemplate(address)": "fd80a63c",
					"updateSigner(address)": "a7ecd37e",
					"version()": "54fd4d50"
				}
			},
			"storageLayout": {
				"storage": [
					{
						"astId": 666,
						"contract": "src/project/ProjectRegister.sol:ProjectRegistry",
						"label": "_initialized",
						"offset": 0,
						"slot": "0",
						"type": "t_uint8"
					},
					{
						"astId": 669,
						"contract": "src/project/ProjectRegister.sol:ProjectRegistry",
						"label": "_initializing",
						"offset": 1,
						"slot": "0",
						"type": "t_bool"
					},
					{
						"astId": 1914,
						"contract": "src/project/ProjectRegister.sol:ProjectRegistry",
						"label": "__gap",
						"offset": 0,
						"slot": "1",
						"type": "t_array(t_uint256)50_storage"
					},
					{
						"astId": 458,
						"contract": "src/project/ProjectRegister.sol:ProjectRegistry",
						"label": "_owner",
						"offset": 0,
						"slot": "51",
						"type": "t_address"
					},
					{
						"astId": 578,
						"contract": "src/project/ProjectRegister.sol:ProjectRegistry",
						"label": "__gap",
						"offset": 0,
						"slot": "52",
						"type": "t_array(t_uint256)49_storage"
					},
					{
						"astId": 2263,
						"contract": "src/project/ProjectRegister.sol:ProjectRegistry",
						"label": "projectsIndexer",
						"offset": 0,
						"slot": "101",
						"type": "t_mapping(t_uint256,t_address)"
					},
					{
						"astId": 2265,
						"contract": "src/project/ProjectRegister.sol:ProjectRegistry",
						"label": "projectsCount",
						"offset": 0,
						"slot": "102",
						"type": "t_uint256"
					},
					{
						"astId": 2267,
						"contract": "src/project/ProjectRegister.sol:ProjectRegistry",
						"label": "signer",
						"offset": 0,
						"slot": "103",
						"type": "t_address"
					},
					{
						"astId": 2269,
						"contract": "src/project/ProjectRegister.sol:ProjectRegistry",
						"label": "projectTemplate",
						"offset": 0,
						"slot": "104",
						"type": "t_address"
					},
					{
						"astId": 2271,
						"contract": "src/project/ProjectRegister.sol:ProjectRegistry",
						"label": "projectTokenTemplate",
						"offset": 0,
						"slot": "105",
						"type": "t_address"
					}
				],
				"types": {
					"t_address": {
						"encoding": "inplace",
						"label": "address",
						"numberOfBytes": "20"
					},
					"t_array(t_uint256)49_storage": {
						"base": "t_uint256",
						"encoding": "inplace",
						"label": "uint256[49]",
						"numberOfBytes": "1568"
					},
					"t_array(t_uint256)50_storage": {
						"base": "t_uint256",
						"encoding": "inplace",
						"label": "uint256[50]",
						"numberOfBytes": "1600"
					},
					"t_bool": {
						"encoding": "inplace",
						"label": "bool",
						"numberOfBytes": "1"
					},
					"t_mapping(t_uint256,t_address)": {
						"encoding": "mapping",
						"key": "t_uint256",
						"label": "mapping(uint256 => address)",
						"numberOfBytes": "32",
						"value": "t_address"
					},
					"t_uint256": {
						"encoding": "inplace",
						"label": "uint256",
						"numberOfBytes": "32"
					},
					"t_uint8": {
						"encoding": "inplace",
						"label": "uint8",
						"numberOfBytes": "1"
					}
				}
			},
			"userdoc": {
				"kind": "user",
				"methods": {},
				"version": 1
			}
		}
	}
}