{
	"data": {
		"bytecode": {
			"linkReferences": {},
			"object": "608060405234801561001057600080fd5b506102f3806100206000396000f3fe608060405234801561001057600080fd5b506004361061002b5760003560e01c8063234e8b5114610030575b600080fd5b61004361003e36600461012b565b610057565b604051901515815260200160405180910390f35b600080805b868110156100b5576001888883818110610078576100786101fc565b905060200201602081019061008d9190610212565b60ff16036100a3576100a0826001610252565b91505b806100ad8161026b565b91505061005c565b506000866100c4836064610284565b6100ce919061029b565b909311159998505050505050505050565b60008083601f8401126100f157600080fd5b50813567ffffffffffffffff81111561010957600080fd5b6020830191508360208260051b850101111561012457600080fd5b9250929050565b60008060008060008060006080888a03121561014657600080fd5b873567ffffffffffffffff8082111561015e57600080fd5b61016a8b838c016100df565b909950975060208a013591508082111561018357600080fd5b61018f8b838c016100df565b909750955060408a01359150808211156101a857600080fd5b818a0191508a601f8301126101bc57600080fd5b8135818111156101cb57600080fd5b8b60208285010111156101dd57600080fd5b6020830195508094505050506060880135905092959891949750929550565b634e487b7160e01b600052603260045260246000fd5b60006020828403121561022457600080fd5b813560ff8116811461023557600080fd5b9392505050565b634e487b7160e01b600052601160045260246000fd5b808201808211156102655761026561023c565b92915050565b60006001820161027d5761027d61023c565b5060010190565b80820281158282048414176102655761026561023c565b6000826102b857634e487b7160e01b600052601260045260246000fd5b50049056fea2646970667358221220b2d2705cc278a31f39594f33decb4915c19d9ff93d506455a6968f69354c999c64736f6c63430008130033",
			"opcodes": "PUSH1 0x80 PUSH1 0x40 MSTORE CALLVALUE DUP1 ISZERO PUSH2 0x10 JUMPI PUSH1 0x0 DUP1 REVERT JUMPDEST POP PUSH2 0x2F3 DUP1 PUSH2 0x20 PUSH1 0x0 CODECOPY PUSH1 0x0 RETURN INVALID PUSH1 0x80 PUSH1 0x40 MSTORE CALLVALUE DUP1 ISZERO PUSH2 0x10 JUMPI PUSH1 0x0 DUP1 REVERT JUMPDEST POP PUSH1 0x4 CALLDATASIZE LT PUSH2 0x2B JUMPI PUSH1 0x0 CALLDATALOAD PUSH1 0xE0 SHR DUP1 PUSH4 0x234E8B51 EQ PUSH2 0x30 JUMPI JUMPDEST PUSH1 0x0 DUP1 REVERT JUMPDEST PUSH2 0x43 PUSH2 0x3E CALLDATASIZE PUSH1 0x4 PUSH2 0x12B JUMP JUMPDEST PUSH2 0x57 JUMP JUMPDEST PUSH1 0x40 MLOAD SWAP1 ISZERO ISZERO DUP2 MSTORE PUSH1 0x20 ADD PUSH1 0x40 MLOAD DUP1 SWAP2 SUB SWAP1 RETURN JUMPDEST PUSH1 0x0 DUP1 DUP1 JUMPDEST DUP7 DUP2 LT ISZERO PUSH2 0xB5 JUMPI PUSH1 0x1 DUP9 DUP9 DUP4 DUP2 DUP2 LT PUSH2 0x78 JUMPI PUSH2 0x78 PUSH2 0x1FC JUMP JUMPDEST SWAP1 POP PUSH1 0x20 MUL ADD PUSH1 0x20 DUP2 ADD SWAP1 PUSH2 0x8D SWAP2 SWAP1 PUSH2 0x212 JUMP JUMPDEST PUSH1 0xFF AND SUB PUSH2 0xA3 JUMPI PUSH2 0xA0 DUP3 PUSH1 0x1 PUSH2 0x252 JUMP JUMPDEST SWAP2 POP JUMPDEST DUP1 PUSH2 0xAD DUP2 PUSH2 0x26B JUMP JUMPDEST SWAP2 POP POP PUSH2 0x5C JUMP JUMPDEST POP PUSH1 0x0 DUP7 PUSH2 0xC4 DUP4 PUSH1 0x64 PUSH2 0x284 JUMP JUMPDEST PUSH2 0xCE SWAP2 SWAP1 PUSH2 0x29B JUMP JUMPDEST SWAP1 SWAP4 GT ISZERO SWAP10 SWAP9 POP POP POP POP POP POP POP POP POP JUMP JUMPDEST PUSH1 0x0 DUP1 DUP4 PUSH1 0x1F DUP5 ADD SLT PUSH2 0xF1 JUMPI PUSH1 0x0 DUP1 REVERT JUMPDEST POP DUP2 CALLDATALOAD PUSH8 0xFFFFFFFFFFFFFFFF DUP2 GT ISZERO PUSH2 0x109 JUMPI PUSH1 0x0 DUP1 REVERT JUMPDEST PUSH1 0x20 DUP4 ADD SWAP2 POP DUP4 PUSH1 0x20 DUP3 PUSH1 0x5 SHL DUP6 ADD ADD GT ISZERO PUSH2 0x124 JUMPI PUSH1 0x0 DUP1 REVERT JUMPDEST SWAP3 POP SWAP3 SWAP1 POP JUMP JUMPDEST PUSH1 0x0 DUP1 PUSH1 0x0 DUP1 PUSH1 0x0 DUP1 PUSH1 0x0 PUSH1 0x80 DUP9 DUP11 SUB SLT ISZERO PUSH2 0x146 JUMPI PUSH1 0x0 DUP1 REVERT JUMPDEST DUP8 CALLDATALOAD PUSH8 0xFFFFFFFFFFFFFFFF DUP1 DUP3 GT ISZERO PUSH2 0x15E JUMPI PUSH1 0x0 DUP1 REVERT JUMPDEST PUSH2 0x16A DUP12 DUP4 DUP13 ADD PUSH2 0xDF JUMP JUMPDEST SWAP1 SWAP10 POP SWAP8 POP PUSH1 0x20 DUP11 ADD CALLDATALOAD SWAP2 POP DUP1 DUP3 GT ISZERO PUSH2 0x183 JUMPI PUSH1 0x0 DUP1 REVERT JUMPDEST PUSH2 0x18F DUP12 DUP4 DUP13 ADD PUSH2 0xDF JUMP JUMPDEST SWAP1 SWAP8 POP SWAP6 POP PUSH1 0x40 DUP11 ADD CALLDATALOAD SWAP2 POP DUP1 DUP3 GT ISZERO PUSH2 0x1A8 JUMPI PUSH1 0x0 DUP1 REVERT JUMPDEST DUP2 DUP11 ADD SWAP2 POP DUP11 PUSH1 0x1F DUP4 ADD SLT PUSH2 0x1BC JUMPI PUSH1 0x0 DUP1 REVERT JUMPDEST DUP2 CALLDATALOAD DUP2 DUP2 GT ISZERO PUSH2 0x1CB JUMPI PUSH1 0x0 DUP1 REVERT JUMPDEST DUP12 PUSH1 0x20 DUP3 DUP6 ADD ADD GT ISZERO PUSH2 0x1DD JUMPI PUSH1 0x0 DUP1 REVERT JUMPDEST PUSH1 0x20 DUP4 ADD SWAP6 POP DUP1 SWAP5 POP POP POP POP PUSH1 0x60 DUP9 ADD CALLDATALOAD SWAP1 POP SWAP3 SWAP6 SWAP9 SWAP2 SWAP5 SWAP8 POP SWAP3 SWAP6 POP JUMP JUMPDEST PUSH4 0x4E487B71 PUSH1 0xE0 SHL PUSH1 0x0 MSTORE PUSH1 0x32 PUSH1 0x4 MSTORE PUSH1 0x24 PUSH1 0x0 REVERT JUMPDEST PUSH1 0x0 PUSH1 0x20 DUP3 DUP5 SUB SLT ISZERO PUSH2 0x224 JUMPI PUSH1 0x0 DUP1 REVERT JUMPDEST DUP2 CALLDATALOAD PUSH1 0xFF DUP2 AND DUP2 EQ PUSH2 0x235 JUMPI PUSH1 0x0 DUP1 REVERT JUMPDEST SWAP4 SWAP3 POP POP POP JUMP JUMPDEST PUSH4 0x4E487B71 PUSH1 0xE0 SHL PUSH1 0x0 MSTORE PUSH1 0x11 PUSH1 0x4 MSTORE PUSH1 0x24 PUSH1 0x0 REVERT JUMPDEST DUP1 DUP3 ADD DUP1 DUP3 GT ISZERO PUSH2 0x265 JUMPI PUSH2 0x265 PUSH2 0x23C JUMP JUMPDEST SWAP3 SWAP2 POP POP JUMP JUMPDEST PUSH1 0x0 PUSH1 0x1 DUP3 ADD PUSH2 0x27D JUMPI PUSH2 0x27D PUSH2 0x23C JUMP JUMPDEST POP PUSH1 0x1 ADD SWAP1 JUMP JUMPDEST DUP1 DUP3 MUL DUP2 ISZERO DUP3 DUP3 DIV DUP5 EQ OR PUSH2 0x265 JUMPI PUSH2 0x265 PUSH2 0x23C JUMP JUMPDEST PUSH1 0x0 DUP3 PUSH2 0x2B8 JUMPI PUSH4 0x4E487B71 PUSH1 0xE0 SHL PUSH1 0x0 MSTORE PUSH1 0x12 PUSH1 0x4 MSTORE PUSH1 0x24 PUSH1 0x0 REVERT JUMPDEST POP DIV SWAP1 JUMP INVALID LOG2 PUSH5 0x6970667358 0x22 SLT KECCAK256 0xB2 0xD2 PUSH17 0x5CC278A31F39594F33DECB4915C19D9FF9 RETURNDATASIZE POP PUSH5 0x55A6968F69 CALLDATALOAD 0x4C SWAP10 SWAP13 PUSH5 0x736F6C6343 STOP ADDMOD SGT STOP CALLER "
		},
		"gasEstimates": {
			"creation": {
				"codeDepositCost": "151000",
				"executionCost": "196",
				"totalCost": "151196"
			},
			"external": {
				"getResult(address[],uint8[],bytes,uint256)": "infinite"
			}
		},
		"methodIdentifiers": {
			"getResult(address[],uint8[],bytes,uint256)": "234e8b51"
		}
	},
	"abi": [
		{
			"inputs": [],
			"stateMutability": "nonpayable",
			"type": "constructor"
		},
		{
			"inputs": [
				{
					"internalType": "address[]",
					"name": "",
					"type": "address[]"
				},
				{
					"internalType": "uint8[]",
					"name": "values",
					"type": "uint8[]"
				},
				{
					"internalType": "bytes",
					"name": "",
					"type": "bytes"
				},
				{
					"internalType": "uint256",
					"name": "passingRate",
					"type": "uint256"
				}
			],
			"name": "getResult",
			"outputs": [
				{
					"internalType": "bool",
					"name": "",
					"type": "bool"
				}
			],
			"stateMutability": "pure",
			"type": "function"
		}
	]
}