{
	"src/resolver/VoteResolver.sol": {
		"VoteResolver": {
			"abi": [
				{
					"inputs": [
						{
							"internalType": "contract IEAS",
							"name": "eas",
							"type": "address"
						}
					],
					"stateMutability": "nonpayable",
					"type": "constructor"
				},
				{
					"inputs": [],
					"name": "AccessDenied",
					"type": "error"
				},
				{
					"inputs": [],
					"name": "InsufficientValue",
					"type": "error"
				},
				{
					"inputs": [],
					"name": "InvalidEAS",
					"type": "error"
				},
				{
					"inputs": [],
					"name": "NotPayable",
					"type": "error"
				},
				{
					"anonymous": false,
					"inputs": [
						{
							"indexed": true,
							"internalType": "address",
							"name": "previousOwner",
							"type": "address"
						},
						{
							"indexed": true,
							"internalType": "address",
							"name": "newOwner",
							"type": "address"
						}
					],
					"name": "OwnershipTransferred",
					"type": "event"
				},
				{
					"inputs": [
						{
							"components": [
								{
									"internalType": "bytes32",
									"name": "uid",
									"type": "bytes32"
								},
								{
									"internalType": "bytes32",
									"name": "schema",
									"type": "bytes32"
								},
								{
									"internalType": "uint64",
									"name": "time",
									"type": "uint64"
								},
								{
									"internalType": "uint64",
									"name": "expirationTime",
									"type": "uint64"
								},
								{
									"internalType": "uint64",
									"name": "revocationTime",
									"type": "uint64"
								},
								{
									"internalType": "bytes32",
									"name": "refUID",
									"type": "bytes32"
								},
								{
									"internalType": "address",
									"name": "recipient",
									"type": "address"
								},
								{
									"internalType": "address",
									"name": "attester",
									"type": "address"
								},
								{
									"internalType": "bool",
									"name": "revocable",
									"type": "bool"
								},
								{
									"internalType": "bytes",
									"name": "data",
									"type": "bytes"
								}
							],
							"internalType": "struct Attestation",
							"name": "attestation",
							"type": "tuple"
						}
					],
					"name": "attest",
					"outputs": [
						{
							"internalType": "bool",
							"name": "",
							"type": "bool"
						}
					],
					"stateMutability": "payable",
					"type": "function"
				},
				{
					"inputs": [],
					"name": "isPayable",
					"outputs": [
						{
							"internalType": "bool",
							"name": "",
							"type": "bool"
						}
					],
					"stateMutability": "pure",
					"type": "function"
				},
				{
					"inputs": [
						{
							"components": [
								{
									"internalType": "bytes32",
									"name": "uid",
									"type": "bytes32"
								},
								{
									"internalType": "bytes32",
									"name": "schema",
									"type": "bytes32"
								},
								{
									"internalType": "uint64",
									"name": "time",
									"type": "uint64"
								},
								{
									"internalType": "uint64",
									"name": "expirationTime",
									"type": "uint64"
								},
								{
									"internalType": "uint64",
									"name": "revocationTime",
									"type": "uint64"
								},
								{
									"internalType": "bytes32",
									"name": "refUID",
									"type": "bytes32"
								},
								{
									"internalType": "address",
									"name": "recipient",
									"type": "address"
								},
								{
									"internalType": "address",
									"name": "attester",
									"type": "address"
								},
								{
									"internalType": "bool",
									"name": "revocable",
									"type": "bool"
								},
								{
									"internalType": "bytes",
									"name": "data",
									"type": "bytes"
								}
							],
							"internalType": "struct Attestation[]",
							"name": "attestations",
							"type": "tuple[]"
						},
						{
							"internalType": "uint256[]",
							"name": "values",
							"type": "uint256[]"
						}
					],
					"name": "multiAttest",
					"outputs": [
						{
							"internalType": "bool",
							"name": "",
							"type": "bool"
						}
					],
					"stateMutability": "payable",
					"type": "function"
				},
				{
					"inputs": [
						{
							"components": [
								{
									"internalType": "bytes32",
									"name": "uid",
									"type": "bytes32"
								},
								{
									"internalType": "bytes32",
									"name": "schema",
									"type": "bytes32"
								},
								{
									"internalType": "uint64",
									"name": "time",
									"type": "uint64"
								},
								{
									"internalType": "uint64",
									"name": "expirationTime",
									"type": "uint64"
								},
								{
									"internalType": "uint64",
									"name": "revocationTime",
									"type": "uint64"
								},
								{
									"internalType": "bytes32",
									"name": "refUID",
									"type": "bytes32"
								},
								{
									"internalType": "address",
									"name": "recipient",
									"type": "address"
								},
								{
									"internalType": "address",
									"name": "attester",
									"type": "address"
								},
								{
									"internalType": "bool",
									"name": "revocable",
									"type": "bool"
								},
								{
									"internalType": "bytes",
									"name": "data",
									"type": "bytes"
								}
							],
							"internalType": "struct Attestation[]",
							"name": "attestations",
							"type": "tuple[]"
						},
						{
							"internalType": "uint256[]",
							"name": "values",
							"type": "uint256[]"
						}
					],
					"name": "multiRevoke",
					"outputs": [
						{
							"internalType": "bool",
							"name": "",
							"type": "bool"
						}
					],
					"stateMutability": "payable",
					"type": "function"
				},
				{
					"inputs": [],
					"name": "owner",
					"outputs": [
						{
							"internalType": "address",
							"name": "",
							"type": "address"
						}
					],
					"stateMutability": "view",
					"type": "function"
				},
				{
					"inputs": [],
					"name": "renounceOwnership",
					"outputs": [],
					"stateMutability": "nonpayable",
					"type": "function"
				},
				{
					"inputs": [
						{
							"components": [
								{
									"internalType": "bytes32",
									"name": "uid",
									"type": "bytes32"
								},
								{
									"internalType": "bytes32",
									"name": "schema",
									"type": "bytes32"
								},
								{
									"internalType": "uint64",
									"name": "time",
									"type": "uint64"
								},
								{
									"internalType": "uint64",
									"name": "expirationTime",
									"type": "uint64"
								},
								{
									"internalType": "uint64",
									"name": "revocationTime",
									"type": "uint64"
								},
								{
									"internalType": "bytes32",
									"name": "refUID",
									"type": "bytes32"
								},
								{
									"internalType": "address",
									"name": "recipient",
									"type": "address"
								},
								{
									"internalType": "address",
									"name": "attester",
									"type": "address"
								},
								{
									"internalType": "bool",
									"name": "revocable",
									"type": "bool"
								},
								{
									"internalType": "bytes",
									"name": "data",
									"type": "bytes"
								}
							],
							"internalType": "struct Attestation",
							"name": "attestation",
							"type": "tuple"
						}
					],
					"name": "revoke",
					"outputs": [
						{
							"internalType": "bool",
							"name": "",
							"type": "bool"
						}
					],
					"stateMutability": "payable",
					"type": "function"
				},
				{
					"inputs": [
						{
							"internalType": "address",
							"name": "newOwner",
							"type": "address"
						}
					],
					"name": "transferOwnership",
					"outputs": [],
					"stateMutability": "nonpayable",
					"type": "function"
				},
				{
					"inputs": [],
					"name": "version",
					"outputs": [
						{
							"internalType": "string",
							"name": "",
							"type": "string"
						}
					],
					"stateMutability": "view",
					"type": "function"
				},
				{
					"stateMutability": "payable",
					"type": "receive"
				}
			],
			"devdoc": {
				"kind": "dev",
				"methods": {
					"attest((bytes32,bytes32,uint64,uint64,uint64,bytes32,address,address,bool,bytes))": {
						"details": "Processes an attestation and verifies whether it's valid.",
						"params": {
							"attestation": "The new attestation."
						},
						"returns": {
							"_0": "Whether the attestation is valid."
						}
					},
					"isPayable()": {
						"details": "Returns whether the resolver supports ETH transfers."
					},
					"multiAttest((bytes32,bytes32,uint64,uint64,uint64,bytes32,address,address,bool,bytes)[],uint256[])": {
						"details": "Processes multiple attestations and verifies whether they are valid.",
						"params": {
							"attestations": "The new attestations.",
							"values": "Explicit ETH amounts which were sent with each attestation."
						},
						"returns": {
							"_0": "Whether all the attestations are valid."
						}
					},
					"multiRevoke((bytes32,bytes32,uint64,uint64,uint64,bytes32,address,address,bool,bytes)[],uint256[])": {
						"details": "Processes revocation of multiple attestation and verifies they can be revoked.",
						"params": {
							"attestations": "The existing attestations to be revoked.",
							"values": "Explicit ETH amounts which were sent with each revocation."
						},
						"returns": {
							"_0": "Whether the attestations can be revoked."
						}
					},
					"owner()": {
						"details": "Returns the address of the current owner."
					},
					"renounceOwnership()": {
						"details": "Leaves the contract without owner. It will not be possible to call `onlyOwner` functions. Can only be called by the current owner. NOTE: Renouncing ownership will leave the contract without an owner, thereby disabling any functionality that is only available to the owner."
					},
					"revoke((bytes32,bytes32,uint64,uint64,uint64,bytes32,address,address,bool,bytes))": {
						"details": "Processes an attestation revocation and verifies if it can be revoked.",
						"params": {
							"attestation": "The existing attestation to be revoked."
						},
						"returns": {
							"_0": "Whether the attestation can be revoked."
						}
					},
					"transferOwnership(address)": {
						"details": "Transfers ownership of the contract to a new account (`newOwner`). Can only be called by the current owner."
					},
					"version()": {
						"returns": {
							"_0": "Semver contract version as a string."
						}
					}
				},
				"version": 1
			},
			"evm": {
				"assembly": "    /* \"src/resolver/VoteResolver.sol\":238:1037  contract VoteResolver is Ownable, SchemaResolver {... */\n  mstore(0x40, 0x0100)\n    /* \"src/resolver/VoteResolver.sol\":293:337  constructor(IEAS eas) SchemaResolver(eas) {} */\n  callvalue\n  dup1\n  iszero\n  tag_1\n  jumpi\n  0x00\n  dup1\n  revert\ntag_1:\n  pop\n  mload(0x40)\n  sub(codesize, bytecodeSize)\n  dup1\n  bytecodeSize\n  dup4\n  codecopy\n  dup2\n  add\n  0x40\n  dup2\n  swap1\n  mstore\n  tag_2\n  swap2\n  tag_3\n  jump\t// in\ntag_2:\n    /* \"src/resolver/VoteResolver.sol\":330:333  eas */\n  dup1\n    /* \"@ethereum-attestation-service/eas-contracts/contracts/resolver/SchemaResolver.sol\":668:669  1 */\n  0x01\n    /* \"@ethereum-attestation-service/eas-contracts/contracts/resolver/SchemaResolver.sol\":671:672  0 */\n  0x00\n  dup1\n    /* \"@openzeppelin/contracts/access/Ownable.sol\":936:968  _transferOwnership(_msgSender()) */\n  tag_9\n    /* \"@openzeppelin/contracts/utils/Context.sol\":719:729  msg.sender */\n  caller\n    /* \"@openzeppelin/contracts/access/Ownable.sol\":936:954  _transferOwnership */\n  tag_12\n    /* \"@openzeppelin/contracts/access/Ownable.sol\":936:968  _transferOwnership(_msgSender()) */\n  jump\t// in\ntag_9:\n    /* \"@ethereum-attestation-service/eas-contracts/contracts/Semver.sol\":661:675  _major = major */\n  0x80\n  swap3\n  swap1\n  swap3\n  mstore\n    /* \"@ethereum-attestation-service/eas-contracts/contracts/Semver.sol\":685:699  _minor = minor */\n  0xa0\n  mstore\n    /* \"@ethereum-attestation-service/eas-contracts/contracts/Semver.sol\":709:722  _path = patch */\n  0xc0\n  mstore\n  sub(shl(0xa0, 0x01), 0x01)\n    /* \"@ethereum-attestation-service/eas-contracts/contracts/resolver/SchemaResolver.sol\":691:717  address(eas) == address(0) */\n  dup2\n  and\n    /* \"@ethereum-attestation-service/eas-contracts/contracts/resolver/SchemaResolver.sol\":687:763  if (address(eas) == address(0)) {... */\n  tag_15\n  jumpi\n    /* \"@ethereum-attestation-service/eas-contracts/contracts/resolver/SchemaResolver.sol\":740:752  InvalidEAS() */\n  mload(0x40)\n  shl(0xe1, 0x41bc07ff)\n  dup2\n  mstore\n  0x04\n  add\n  mload(0x40)\n  dup1\n  swap2\n  sub\n  swap1\n  revert\n    /* \"@ethereum-attestation-service/eas-contracts/contracts/resolver/SchemaResolver.sol\":687:763  if (address(eas) == address(0)) {... */\ntag_15:\n  sub(shl(0xa0, 0x01), 0x01)\n    /* \"@ethereum-attestation-service/eas-contracts/contracts/resolver/SchemaResolver.sol\":773:783  _eas = eas */\n  and\n  0xe0\n  mstore\n  pop\n    /* \"src/resolver/VoteResolver.sol\":238:1037  contract VoteResolver is Ownable, SchemaResolver {... */\n  jump(tag_20)\n    /* \"@openzeppelin/contracts/access/Ownable.sol\":2426:2613  function _transferOwnership(address newOwner) internal virtual {... */\ntag_12:\n    /* \"@openzeppelin/contracts/access/Ownable.sol\":2499:2515  address oldOwner */\n  0x00\n    /* \"@openzeppelin/contracts/access/Ownable.sol\":2518:2524  _owner */\n  dup1\n  sload\n  sub(shl(0xa0, 0x01), 0x01)\n    /* \"@openzeppelin/contracts/access/Ownable.sol\":2534:2551  _owner = newOwner */\n  dup4\n  dup2\n  and\n  not(sub(shl(0xa0, 0x01), 0x01))\n  dup4\n  and\n  dup2\n  or\n  dup5\n  sstore\n    /* \"@openzeppelin/contracts/access/Ownable.sol\":2566:2606  OwnershipTransferred(oldOwner, newOwner) */\n  mload(0x40)\n    /* \"@openzeppelin/contracts/access/Ownable.sol\":2518:2524  _owner */\n  swap2\n  swap1\n  swap3\n  and\n  swap3\n  dup4\n  swap2\n    /* \"@openzeppelin/contracts/access/Ownable.sol\":2566:2606  OwnershipTransferred(oldOwner, newOwner) */\n  0x8be0079c531659141344cd1fd0a4f28419497f9722a3daafe3b4186f6b6457e0\n  swap2\n    /* \"@openzeppelin/contracts/access/Ownable.sol\":2499:2515  address oldOwner */\n  swap1\n    /* \"@openzeppelin/contracts/access/Ownable.sol\":2566:2606  OwnershipTransferred(oldOwner, newOwner) */\n  log3\n    /* \"@openzeppelin/contracts/access/Ownable.sol\":2489:2613  {... */\n  pop\n    /* \"@openzeppelin/contracts/access/Ownable.sol\":2426:2613  function _transferOwnership(address newOwner) internal virtual {... */\n  pop\n  jump\t// out\n    /* \"#utility.yul\":14:316   */\ntag_3:\n    /* \"#utility.yul\":96:102   */\n  0x00\n    /* \"#utility.yul\":149:151   */\n  0x20\n    /* \"#utility.yul\":137:146   */\n  dup3\n    /* \"#utility.yul\":128:135   */\n  dup5\n    /* \"#utility.yul\":124:147   */\n  sub\n    /* \"#utility.yul\":120:152   */\n  slt\n    /* \"#utility.yul\":117:169   */\n  iszero\n  tag_22\n  jumpi\n    /* \"#utility.yul\":165:166   */\n  0x00\n    /* \"#utility.yul\":162:163   */\n  dup1\n    /* \"#utility.yul\":155:167   */\n  revert\n    /* \"#utility.yul\":117:169   */\ntag_22:\n    /* \"#utility.yul\":191:207   */\n  dup2\n  mload\n  sub(shl(0xa0, 0x01), 0x01)\n    /* \"#utility.yul\":236:267   */\n  dup2\n  and\n    /* \"#utility.yul\":226:268   */\n  dup2\n  eq\n    /* \"#utility.yul\":216:286   */\n  tag_23\n  jumpi\n    /* \"#utility.yul\":282:283   */\n  0x00\n    /* \"#utility.yul\":279:280   */\n  dup1\n    /* \"#utility.yul\":272:284   */\n  revert\n    /* \"#utility.yul\":216:286   */\ntag_23:\n    /* \"#utility.yul\":305:310   */\n  swap4\n    /* \"#utility.yul\":14:316   */\n  swap3\n  pop\n  pop\n  pop\n  jump\t// out\ntag_20:\n    /* \"src/resolver/VoteResolver.sol\":238:1037  contract VoteResolver is Ownable, SchemaResolver {... */\n  mload(0x80)\n  mload(0xa0)\n  mload(0xc0)\n  mload(0xe0)\n  codecopy(0x00, dataOffset(sub_0), dataSize(sub_0))\n  0x00\n  assignImmutable(\"0x0f1bcf290b66a2cfed5f23463bc63e98c2b29d8093b3c4b39be593d60dfd3630\")\n  0x00\n  assignImmutable(\"0x813b56a8b59ac1b40dbf9e6a694feb8ff7f8a2c267abab63bb2cfebe723029cd\")\n  0x00\n  assignImmutable(\"0x2ff1b1d67490f2e0bfc25fd2c7e96598b7cb14bab781f7735f2046e8958c761b\")\n  0x00\n  assignImmutable(\"0xa895709e4de0f20648ccd0795f1a5625e1f3ab1f71fa6d8f47473d6c8c14e427\")\n  return(0x00, dataSize(sub_0))\nstop\n\nsub_0: assembly {\n        /* \"src/resolver/VoteResolver.sol\":238:1037  contract VoteResolver is Ownable, SchemaResolver {... */\n      mstore(0x40, 0x80)\n      jumpi(tag_1, lt(calldatasize, 0x04))\n      shr(0xe0, calldataload(0x00))\n      dup1\n      0x91db0b7e\n      gt\n      tag_12\n      jumpi\n      dup1\n      0x91db0b7e\n      eq\n      tag_7\n      jumpi\n      dup1\n      0xce46e046\n      eq\n      tag_8\n      jumpi\n      dup1\n      0xe49617e1\n      eq\n      tag_9\n      jumpi\n      dup1\n      0xe60c3505\n      eq\n      tag_10\n      jumpi\n      dup1\n      0xf2fde38b\n      eq\n      tag_11\n      jumpi\n      0x00\n      dup1\n      revert\n    tag_12:\n      dup1\n      0x54fd4d50\n      eq\n      tag_3\n      jumpi\n      dup1\n      0x715018a6\n      eq\n      tag_4\n      jumpi\n      dup1\n      0x88e5b2d9\n      eq\n      tag_5\n      jumpi\n      dup1\n      0x8da5cb5b\n      eq\n      tag_6\n      jumpi\n      0x00\n      dup1\n      revert\n    tag_1:\n      jumpi(tag_2, calldatasize)\n      stop\n        /* \"@ethereum-attestation-service/eas-contracts/contracts/resolver/SchemaResolver.sol\":1172:1234  if (!isPayable()) {... */\n    tag_17:\n        /* \"src/resolver/VoteResolver.sol\":238:1037  contract VoteResolver is Ownable, SchemaResolver {... */\n      stop\n    tag_2:\n      0x00\n      dup1\n      revert\n        /* \"@ethereum-attestation-service/eas-contracts/contracts/Semver.sol\":867:1101  function version() external view returns (string memory) {... */\n    tag_3:\n      callvalue\n      dup1\n      iszero\n      tag_18\n      jumpi\n      0x00\n      dup1\n      revert\n    tag_18:\n      pop\n      tag_19\n      tag_20\n      jump\t// in\n    tag_19:\n      mload(0x40)\n      tag_21\n      swap2\n      swap1\n      tag_22\n      jump\t// in\n    tag_21:\n      mload(0x40)\n      dup1\n      swap2\n      sub\n      swap1\n      return\n        /* \"@openzeppelin/contracts/access/Ownable.sol\":1824:1925  function renounceOwnership() public virtual onlyOwner {... */\n    tag_4:\n      callvalue\n      dup1\n      iszero\n      tag_23\n      jumpi\n      0x00\n      dup1\n      revert\n    tag_23:\n      pop\n      tag_17\n      tag_25\n      jump\t// in\n        /* \"@ethereum-attestation-service/eas-contracts/contracts/resolver/SchemaResolver.sol\":3130:4499  function multiRevoke(... */\n    tag_5:\n      tag_26\n      tag_27\n      calldatasize\n      0x04\n      tag_28\n      jump\t// in\n    tag_27:\n      tag_29\n      jump\t// in\n    tag_26:\n      mload(0x40)\n        /* \"#utility.yul\":2170:2184   */\n      swap1\n      iszero\n        /* \"#utility.yul\":2163:2185   */\n      iszero\n        /* \"#utility.yul\":2145:2186   */\n      dup2\n      mstore\n        /* \"#utility.yul\":2133:2135   */\n      0x20\n        /* \"#utility.yul\":2118:2136   */\n      add\n        /* \"@ethereum-attestation-service/eas-contracts/contracts/resolver/SchemaResolver.sol\":3130:4499  function multiRevoke(... */\n      tag_21\n        /* \"#utility.yul\":2005:2192   */\n      jump\n        /* \"@openzeppelin/contracts/access/Ownable.sol\":1201:1286  function owner() public view virtual returns (address) {... */\n    tag_6:\n      callvalue\n      dup1\n      iszero\n      tag_32\n      jumpi\n      0x00\n      dup1\n      revert\n    tag_32:\n      pop\n        /* \"@openzeppelin/contracts/access/Ownable.sol\":1247:1254  address */\n      0x00\n        /* \"@openzeppelin/contracts/access/Ownable.sol\":1273:1279  _owner */\n      sload\n        /* \"@openzeppelin/contracts/access/Ownable.sol\":1201:1286  function owner() public view virtual returns (address) {... */\n      mload(0x40)\n      sub(shl(0xa0, 0x01), 0x01)\n        /* \"@openzeppelin/contracts/access/Ownable.sol\":1273:1279  _owner */\n      swap1\n      swap2\n      and\n        /* \"#utility.yul\":2452:2503   */\n      dup2\n      mstore\n        /* \"#utility.yul\":2440:2442   */\n      0x20\n        /* \"#utility.yul\":2425:2443   */\n      add\n        /* \"@openzeppelin/contracts/access/Ownable.sol\":1201:1286  function owner() public view virtual returns (address) {... */\n      tag_21\n        /* \"#utility.yul\":2306:2509   */\n      jump\n        /* \"@ethereum-attestation-service/eas-contracts/contracts/resolver/SchemaResolver.sol\":1500:2870  function multiAttest(... */\n    tag_7:\n      tag_26\n      tag_38\n      calldatasize\n      0x04\n      tag_28\n      jump\t// in\n    tag_38:\n      tag_39\n      jump\t// in\n        /* \"src/resolver/VoteResolver.sol\":343:428  function isPayable() public pure override returns (bool) {... */\n    tag_8:\n      callvalue\n      dup1\n      iszero\n      tag_41\n      jumpi\n      0x00\n      dup1\n      revert\n    tag_41:\n      pop\n        /* \"src/resolver/VoteResolver.sol\":417:421  true */\n      0x01\n        /* \"src/resolver/VoteResolver.sol\":343:428  function isPayable() public pure override returns (bool) {... */\n      jump(tag_26)\n        /* \"@ethereum-attestation-service/eas-contracts/contracts/resolver/SchemaResolver.sol\":2927:3073  function revoke(Attestation calldata attestation) external payable onlyEAS returns (bool) {... */\n    tag_9:\n      tag_26\n      tag_45\n      calldatasize\n      0x04\n      tag_46\n      jump\t// in\n    tag_45:\n      tag_47\n      jump\t// in\n        /* \"@ethereum-attestation-service/eas-contracts/contracts/resolver/SchemaResolver.sol\":1297:1443  function attest(Attestation calldata attestation) external payable onlyEAS returns (bool) {... */\n    tag_10:\n      tag_26\n      tag_50\n      calldatasize\n      0x04\n      tag_46\n      jump\t// in\n    tag_50:\n      tag_51\n      jump\t// in\n        /* \"@openzeppelin/contracts/access/Ownable.sol\":2074:2272  function transferOwnership(address newOwner) public virtual onlyOwner {... */\n    tag_11:\n      callvalue\n      dup1\n      iszero\n      tag_53\n      jumpi\n      0x00\n      dup1\n      revert\n    tag_53:\n      pop\n      tag_17\n      tag_55\n      calldatasize\n      0x04\n      tag_56\n      jump\t// in\n    tag_55:\n      tag_57\n      jump\t// in\n        /* \"@ethereum-attestation-service/eas-contracts/contracts/Semver.sol\":867:1101  function version() external view returns (string memory) {... */\n    tag_20:\n        /* \"@ethereum-attestation-service/eas-contracts/contracts/Semver.sol\":909:922  string memory */\n      0x60\n        /* \"@ethereum-attestation-service/eas-contracts/contracts/Semver.sol\":994:1018  Strings.toString(_major) */\n      tag_60\n        /* \"@ethereum-attestation-service/eas-contracts/contracts/Semver.sol\":1011:1017  _major */\n      immutable(\"0xa895709e4de0f20648ccd0795f1a5625e1f3ab1f71fa6d8f47473d6c8c14e427\")\n        /* \"@ethereum-attestation-service/eas-contracts/contracts/Semver.sol\":994:1010  Strings.toString */\n      tag_61\n        /* \"@ethereum-attestation-service/eas-contracts/contracts/Semver.sol\":994:1018  Strings.toString(_major) */\n      jump\t// in\n    tag_60:\n        /* \"@ethereum-attestation-service/eas-contracts/contracts/Semver.sol\":1025:1049  Strings.toString(_minor) */\n      tag_62\n        /* \"@ethereum-attestation-service/eas-contracts/contracts/Semver.sol\":1042:1048  _minor */\n      immutable(\"0x2ff1b1d67490f2e0bfc25fd2c7e96598b7cb14bab781f7735f2046e8958c761b\")\n        /* \"@ethereum-attestation-service/eas-contracts/contracts/Semver.sol\":1025:1041  Strings.toString */\n      tag_61\n        /* \"@ethereum-attestation-service/eas-contracts/contracts/Semver.sol\":1025:1049  Strings.toString(_minor) */\n      jump\t// in\n    tag_62:\n        /* \"@ethereum-attestation-service/eas-contracts/contracts/Semver.sol\":1056:1079  Strings.toString(_path) */\n      tag_63\n        /* \"@ethereum-attestation-service/eas-contracts/contracts/Semver.sol\":1073:1078  _path */\n      immutable(\"0x813b56a8b59ac1b40dbf9e6a694feb8ff7f8a2c267abab63bb2cfebe723029cd\")\n        /* \"@ethereum-attestation-service/eas-contracts/contracts/Semver.sol\":1056:1072  Strings.toString */\n      tag_61\n        /* \"@ethereum-attestation-service/eas-contracts/contracts/Semver.sol\":1056:1079  Strings.toString(_path) */\n      jump\t// in\n    tag_63:\n        /* \"@ethereum-attestation-service/eas-contracts/contracts/Semver.sol\":977:1080  abi.encodePacked(Strings.toString(_major), \".\", Strings.toString(_minor), \".\", Strings.toString(_path)) */\n      add(0x20, mload(0x40))\n      tag_64\n      swap4\n      swap3\n      swap2\n      swap1\n      tag_65\n      jump\t// in\n    tag_64:\n      mload(0x40)\n      0x20\n      dup2\n      dup4\n      sub\n      sub\n      dup2\n      mstore\n      swap1\n      0x40\n      mstore\n        /* \"@ethereum-attestation-service/eas-contracts/contracts/Semver.sol\":934:1094  return... */\n      swap1\n      pop\n        /* \"@ethereum-attestation-service/eas-contracts/contracts/Semver.sol\":867:1101  function version() external view returns (string memory) {... */\n      swap1\n      jump\t// out\n        /* \"@openzeppelin/contracts/access/Ownable.sol\":1824:1925  function renounceOwnership() public virtual onlyOwner {... */\n    tag_25:\n        /* \"@openzeppelin/contracts/access/Ownable.sol\":1094:1107  _checkOwner() */\n      tag_67\n        /* \"@openzeppelin/contracts/access/Ownable.sol\":1094:1105  _checkOwner */\n      tag_68\n        /* \"@openzeppelin/contracts/access/Ownable.sol\":1094:1107  _checkOwner() */\n      jump\t// in\n    tag_67:\n        /* \"@openzeppelin/contracts/access/Ownable.sol\":1888:1918  _transferOwnership(address(0)) */\n      tag_70\n        /* \"@openzeppelin/contracts/access/Ownable.sol\":1915:1916  0 */\n      0x00\n        /* \"@openzeppelin/contracts/access/Ownable.sol\":1888:1906  _transferOwnership */\n      tag_71\n        /* \"@openzeppelin/contracts/access/Ownable.sol\":1888:1918  _transferOwnership(address(0)) */\n      jump\t// in\n    tag_70:\n        /* \"@openzeppelin/contracts/access/Ownable.sol\":1824:1925  function renounceOwnership() public virtual onlyOwner {... */\n      jump\t// out\n        /* \"@ethereum-attestation-service/eas-contracts/contracts/resolver/SchemaResolver.sol\":3130:4499  function multiRevoke(... */\n    tag_29:\n        /* \"@ethereum-attestation-service/eas-contracts/contracts/resolver/SchemaResolver.sol\":3271:3275  bool */\n      0x00\n        /* \"@ethereum-attestation-service/eas-contracts/contracts/resolver/SchemaResolver.sol\":908:918  _onlyEAS() */\n      tag_73\n        /* \"@ethereum-attestation-service/eas-contracts/contracts/resolver/SchemaResolver.sol\":908:916  _onlyEAS */\n      tag_74\n        /* \"@ethereum-attestation-service/eas-contracts/contracts/resolver/SchemaResolver.sol\":908:918  _onlyEAS() */\n      jump\t// in\n    tag_73:\n        /* \"@ethereum-attestation-service/eas-contracts/contracts/resolver/SchemaResolver.sol\":3304:3316  attestations */\n      dup4\n        /* \"@ethereum-attestation-service/eas-contracts/contracts/resolver/SchemaResolver.sol\":3756:3765  msg.value */\n      callvalue\n        /* \"@ethereum-attestation-service/eas-contracts/contracts/resolver/SchemaResolver.sol\":3287:3301  uint256 length */\n      0x00\n        /* \"@ethereum-attestation-service/eas-contracts/contracts/resolver/SchemaResolver.sol\":3776:4471  for (uint256 i = 0; i < length; i = uncheckedInc(i)) {... */\n    tag_76:\n        /* \"@ethereum-attestation-service/eas-contracts/contracts/resolver/SchemaResolver.sol\":3800:3806  length */\n      dup3\n        /* \"@ethereum-attestation-service/eas-contracts/contracts/resolver/SchemaResolver.sol\":3796:3797  i */\n      dup2\n        /* \"@ethereum-attestation-service/eas-contracts/contracts/resolver/SchemaResolver.sol\":3796:3806  i < length */\n      lt\n        /* \"@ethereum-attestation-service/eas-contracts/contracts/resolver/SchemaResolver.sol\":3776:4471  for (uint256 i = 0; i < length; i = uncheckedInc(i)) {... */\n      iszero\n      tag_77\n      jumpi\n        /* \"@ethereum-attestation-service/eas-contracts/contracts/resolver/SchemaResolver.sol\":3933:3946  uint256 value */\n      0x00\n        /* \"@ethereum-attestation-service/eas-contracts/contracts/resolver/SchemaResolver.sol\":3949:3955  values */\n      dup7\n      dup7\n        /* \"@ethereum-attestation-service/eas-contracts/contracts/resolver/SchemaResolver.sol\":3956:3957  i */\n      dup4\n        /* \"@ethereum-attestation-service/eas-contracts/contracts/resolver/SchemaResolver.sol\":3949:3958  values[i] */\n      dup2\n      dup2\n      lt\n      tag_80\n      jumpi\n      tag_80\n      tag_81\n      jump\t// in\n    tag_80:\n      swap1\n      pop\n      0x20\n      mul\n      add\n      calldataload\n        /* \"@ethereum-attestation-service/eas-contracts/contracts/resolver/SchemaResolver.sol\":3933:3958  uint256 value = values[i] */\n      swap1\n      pop\n        /* \"@ethereum-attestation-service/eas-contracts/contracts/resolver/SchemaResolver.sol\":3984:3998  remainingValue */\n      dup3\n        /* \"@ethereum-attestation-service/eas-contracts/contracts/resolver/SchemaResolver.sol\":3976:3981  value */\n      dup2\n        /* \"@ethereum-attestation-service/eas-contracts/contracts/resolver/SchemaResolver.sol\":3976:3998  value > remainingValue */\n      gt\n        /* \"@ethereum-attestation-service/eas-contracts/contracts/resolver/SchemaResolver.sol\":3972:4059  if (value > remainingValue) {... */\n      iszero\n      tag_82\n      jumpi\n        /* \"@ethereum-attestation-service/eas-contracts/contracts/resolver/SchemaResolver.sol\":4025:4044  InsufficientValue() */\n      mload(0x40)\n      shl(0xe2, 0x044044a5)\n      dup2\n      mstore\n      0x04\n      add\n      mload(0x40)\n      dup1\n      swap2\n      sub\n      swap1\n      revert\n        /* \"@ethereum-attestation-service/eas-contracts/contracts/resolver/SchemaResolver.sol\":3972:4059  if (value > remainingValue) {... */\n    tag_82:\n        /* \"@ethereum-attestation-service/eas-contracts/contracts/resolver/SchemaResolver.sol\":4181:4213  onRevoke(attestations[i], value) */\n      tag_83\n        /* \"@ethereum-attestation-service/eas-contracts/contracts/resolver/SchemaResolver.sol\":4190:4202  attestations */\n      dup10\n      dup10\n        /* \"@ethereum-attestation-service/eas-contracts/contracts/resolver/SchemaResolver.sol\":4203:4204  i */\n      dup5\n        /* \"@ethereum-attestation-service/eas-contracts/contracts/resolver/SchemaResolver.sol\":4190:4205  attestations[i] */\n      dup2\n      dup2\n      lt\n      tag_85\n      jumpi\n      tag_85\n      tag_81\n      jump\t// in\n    tag_85:\n      swap1\n      pop\n      0x20\n      mul\n      dup2\n      add\n      swap1\n      tag_86\n      swap2\n      swap1\n      tag_87\n      jump\t// in\n    tag_86:\n      pop\n        /* \"src/resolver/VoteResolver.sol\":1024:1028  true */\n      0x01\n      swap1\n        /* \"src/resolver/VoteResolver.sol\":872:1035  function onRevoke(... */\n      jump\n        /* \"@ethereum-attestation-service/eas-contracts/contracts/resolver/SchemaResolver.sol\":4181:4213  onRevoke(attestations[i], value) */\n    tag_83:\n        /* \"@ethereum-attestation-service/eas-contracts/contracts/resolver/SchemaResolver.sol\":4176:4260  if (!onRevoke(attestations[i], value)) {... */\n      tag_89\n      jumpi\n        /* \"@ethereum-attestation-service/eas-contracts/contracts/resolver/SchemaResolver.sol\":4240:4245  false */\n      0x00\n        /* \"@ethereum-attestation-service/eas-contracts/contracts/resolver/SchemaResolver.sol\":4233:4245  return false */\n      swap5\n      pop\n      pop\n      pop\n      pop\n      pop\n      jump(tag_75)\n        /* \"@ethereum-attestation-service/eas-contracts/contracts/resolver/SchemaResolver.sol\":4176:4260  if (!onRevoke(attestations[i], value)) {... */\n    tag_89:\n        /* \"@ethereum-attestation-service/eas-contracts/contracts/resolver/SchemaResolver.sol\":4423:4446  remainingValue -= value */\n      swap1\n      swap2\n      sub\n      swap1\n        /* \"@ethereum-attestation-service/eas-contracts/contracts/Common.sol\":1483:1484  1 */\n      0x01\n        /* \"@ethereum-attestation-service/eas-contracts/contracts/Common.sol\":1479:1484  i + 1 */\n      add\n        /* \"@ethereum-attestation-service/eas-contracts/contracts/resolver/SchemaResolver.sol\":3776:4471  for (uint256 i = 0; i < length; i = uncheckedInc(i)) {... */\n      jump(tag_76)\n    tag_77:\n      pop\n        /* \"@ethereum-attestation-service/eas-contracts/contracts/resolver/SchemaResolver.sol\":4488:4492  true */\n      0x01\n        /* \"@ethereum-attestation-service/eas-contracts/contracts/resolver/SchemaResolver.sol\":4481:4492  return true */\n      swap3\n      pop\n      pop\n      pop\n        /* \"@ethereum-attestation-service/eas-contracts/contracts/resolver/SchemaResolver.sol\":929:930  _ */\n    tag_75:\n        /* \"@ethereum-attestation-service/eas-contracts/contracts/resolver/SchemaResolver.sol\":3130:4499  function multiRevoke(... */\n      swap5\n      swap4\n      pop\n      pop\n      pop\n      pop\n      jump\t// out\n        /* \"@ethereum-attestation-service/eas-contracts/contracts/resolver/SchemaResolver.sol\":1500:2870  function multiAttest(... */\n    tag_39:\n        /* \"@ethereum-attestation-service/eas-contracts/contracts/resolver/SchemaResolver.sol\":1641:1645  bool */\n      0x00\n        /* \"@ethereum-attestation-service/eas-contracts/contracts/resolver/SchemaResolver.sol\":908:918  _onlyEAS() */\n      tag_94\n        /* \"@ethereum-attestation-service/eas-contracts/contracts/resolver/SchemaResolver.sol\":908:916  _onlyEAS */\n      tag_74\n        /* \"@ethereum-attestation-service/eas-contracts/contracts/resolver/SchemaResolver.sol\":908:918  _onlyEAS() */\n      jump\t// in\n    tag_94:\n        /* \"@ethereum-attestation-service/eas-contracts/contracts/resolver/SchemaResolver.sol\":1674:1686  attestations */\n      dup4\n        /* \"@ethereum-attestation-service/eas-contracts/contracts/resolver/SchemaResolver.sol\":2126:2135  msg.value */\n      callvalue\n        /* \"@ethereum-attestation-service/eas-contracts/contracts/resolver/SchemaResolver.sol\":1657:1671  uint256 length */\n      0x00\n        /* \"@ethereum-attestation-service/eas-contracts/contracts/resolver/SchemaResolver.sol\":2146:2842  for (uint256 i = 0; i < length; i = uncheckedInc(i)) {... */\n    tag_96:\n        /* \"@ethereum-attestation-service/eas-contracts/contracts/resolver/SchemaResolver.sol\":2170:2176  length */\n      dup3\n        /* \"@ethereum-attestation-service/eas-contracts/contracts/resolver/SchemaResolver.sol\":2166:2167  i */\n      dup2\n        /* \"@ethereum-attestation-service/eas-contracts/contracts/resolver/SchemaResolver.sol\":2166:2176  i < length */\n      lt\n        /* \"@ethereum-attestation-service/eas-contracts/contracts/resolver/SchemaResolver.sol\":2146:2842  for (uint256 i = 0; i < length; i = uncheckedInc(i)) {... */\n      iszero\n      tag_77\n      jumpi\n        /* \"@ethereum-attestation-service/eas-contracts/contracts/resolver/SchemaResolver.sol\":2303:2316  uint256 value */\n      0x00\n        /* \"@ethereum-attestation-service/eas-contracts/contracts/resolver/SchemaResolver.sol\":2319:2325  values */\n      dup7\n      dup7\n        /* \"@ethereum-attestation-service/eas-contracts/contracts/resolver/SchemaResolver.sol\":2326:2327  i */\n      dup4\n        /* \"@ethereum-attestation-service/eas-contracts/contracts/resolver/SchemaResolver.sol\":2319:2328  values[i] */\n      dup2\n      dup2\n      lt\n      tag_100\n      jumpi\n      tag_100\n      tag_81\n      jump\t// in\n    tag_100:\n      swap1\n      pop\n      0x20\n      mul\n      add\n      calldataload\n        /* \"@ethereum-attestation-service/eas-contracts/contracts/resolver/SchemaResolver.sol\":2303:2328  uint256 value = values[i] */\n      swap1\n      pop\n        /* \"@ethereum-attestation-service/eas-contracts/contracts/resolver/SchemaResolver.sol\":2354:2368  remainingValue */\n      dup3\n        /* \"@ethereum-attestation-service/eas-contracts/contracts/resolver/SchemaResolver.sol\":2346:2351  value */\n      dup2\n        /* \"@ethereum-attestation-service/eas-contracts/contracts/resolver/SchemaResolver.sol\":2346:2368  value > remainingValue */\n      gt\n        /* \"@ethereum-attestation-service/eas-contracts/contracts/resolver/SchemaResolver.sol\":2342:2429  if (value > remainingValue) {... */\n      iszero\n      tag_101\n      jumpi\n        /* \"@ethereum-attestation-service/eas-contracts/contracts/resolver/SchemaResolver.sol\":2395:2414  InsufficientValue() */\n      mload(0x40)\n      shl(0xe2, 0x044044a5)\n      dup2\n      mstore\n      0x04\n      add\n      mload(0x40)\n      dup1\n      swap2\n      sub\n      swap1\n      revert\n        /* \"@ethereum-attestation-service/eas-contracts/contracts/resolver/SchemaResolver.sol\":2342:2429  if (value > remainingValue) {... */\n    tag_101:\n        /* \"@ethereum-attestation-service/eas-contracts/contracts/resolver/SchemaResolver.sol\":2552:2584  onAttest(attestations[i], value) */\n      tag_102\n        /* \"@ethereum-attestation-service/eas-contracts/contracts/resolver/SchemaResolver.sol\":2561:2573  attestations */\n      dup10\n      dup10\n        /* \"@ethereum-attestation-service/eas-contracts/contracts/resolver/SchemaResolver.sol\":2574:2575  i */\n      dup5\n        /* \"@ethereum-attestation-service/eas-contracts/contracts/resolver/SchemaResolver.sol\":2561:2576  attestations[i] */\n      dup2\n      dup2\n      lt\n      tag_104\n      jumpi\n      tag_104\n      tag_81\n      jump\t// in\n    tag_104:\n      swap1\n      pop\n      0x20\n      mul\n      dup2\n      add\n      swap1\n      tag_105\n      swap2\n      swap1\n      tag_87\n      jump\t// in\n    tag_105:\n        /* \"@ethereum-attestation-service/eas-contracts/contracts/resolver/SchemaResolver.sol\":2578:2583  value */\n      dup3\n        /* \"@ethereum-attestation-service/eas-contracts/contracts/resolver/SchemaResolver.sol\":2552:2560  onAttest */\n      tag_106\n        /* \"@ethereum-attestation-service/eas-contracts/contracts/resolver/SchemaResolver.sol\":2552:2584  onAttest(attestations[i], value) */\n      jump\t// in\n    tag_102:\n        /* \"@ethereum-attestation-service/eas-contracts/contracts/resolver/SchemaResolver.sol\":2547:2631  if (!onAttest(attestations[i], value)) {... */\n      tag_107\n      jumpi\n        /* \"@ethereum-attestation-service/eas-contracts/contracts/resolver/SchemaResolver.sol\":2611:2616  false */\n      0x00\n        /* \"@ethereum-attestation-service/eas-contracts/contracts/resolver/SchemaResolver.sol\":2604:2616  return false */\n      swap5\n      pop\n      pop\n      pop\n      pop\n      pop\n      jump(tag_75)\n        /* \"@ethereum-attestation-service/eas-contracts/contracts/resolver/SchemaResolver.sol\":2547:2631  if (!onAttest(attestations[i], value)) {... */\n    tag_107:\n        /* \"@ethereum-attestation-service/eas-contracts/contracts/resolver/SchemaResolver.sol\":2794:2817  remainingValue -= value */\n      swap1\n      swap2\n      sub\n      swap1\n        /* \"@ethereum-attestation-service/eas-contracts/contracts/Common.sol\":1483:1484  1 */\n      0x01\n        /* \"@ethereum-attestation-service/eas-contracts/contracts/Common.sol\":1479:1484  i + 1 */\n      add\n        /* \"@ethereum-attestation-service/eas-contracts/contracts/resolver/SchemaResolver.sol\":2146:2842  for (uint256 i = 0; i < length; i = uncheckedInc(i)) {... */\n      jump(tag_96)\n        /* \"@ethereum-attestation-service/eas-contracts/contracts/resolver/SchemaResolver.sol\":2927:3073  function revoke(Attestation calldata attestation) external payable onlyEAS returns (bool) {... */\n    tag_47:\n        /* \"@ethereum-attestation-service/eas-contracts/contracts/resolver/SchemaResolver.sol\":3011:3015  bool */\n      0x00\n        /* \"@ethereum-attestation-service/eas-contracts/contracts/resolver/SchemaResolver.sol\":908:918  _onlyEAS() */\n      tag_110\n        /* \"@ethereum-attestation-service/eas-contracts/contracts/resolver/SchemaResolver.sol\":908:916  _onlyEAS */\n      tag_74\n        /* \"@ethereum-attestation-service/eas-contracts/contracts/resolver/SchemaResolver.sol\":908:918  _onlyEAS() */\n      jump\t// in\n    tag_110:\n        /* \"src/resolver/VoteResolver.sol\":1024:1028  true */\n      0x01\n        /* \"@ethereum-attestation-service/eas-contracts/contracts/resolver/SchemaResolver.sol\":3034:3066  onRevoke(attestation, msg.value) */\n    tag_112:\n        /* \"@ethereum-attestation-service/eas-contracts/contracts/resolver/SchemaResolver.sol\":3027:3066  return onRevoke(attestation, msg.value) */\n      swap1\n      pop\n        /* \"@ethereum-attestation-service/eas-contracts/contracts/resolver/SchemaResolver.sol\":929:930  _ */\n    tag_111:\n        /* \"@ethereum-attestation-service/eas-contracts/contracts/resolver/SchemaResolver.sol\":2927:3073  function revoke(Attestation calldata attestation) external payable onlyEAS returns (bool) {... */\n      swap2\n      swap1\n      pop\n      jump\t// out\n        /* \"@ethereum-attestation-service/eas-contracts/contracts/resolver/SchemaResolver.sol\":1297:1443  function attest(Attestation calldata attestation) external payable onlyEAS returns (bool) {... */\n    tag_51:\n        /* \"@ethereum-attestation-service/eas-contracts/contracts/resolver/SchemaResolver.sol\":1381:1385  bool */\n      0x00\n        /* \"@ethereum-attestation-service/eas-contracts/contracts/resolver/SchemaResolver.sol\":908:918  _onlyEAS() */\n      tag_114\n        /* \"@ethereum-attestation-service/eas-contracts/contracts/resolver/SchemaResolver.sol\":908:916  _onlyEAS */\n      tag_74\n        /* \"@ethereum-attestation-service/eas-contracts/contracts/resolver/SchemaResolver.sol\":908:918  _onlyEAS() */\n      jump\t// in\n    tag_114:\n        /* \"@ethereum-attestation-service/eas-contracts/contracts/resolver/SchemaResolver.sol\":1404:1436  onAttest(attestation, msg.value) */\n      tag_112\n        /* \"@ethereum-attestation-service/eas-contracts/contracts/resolver/SchemaResolver.sol\":1413:1424  attestation */\n      dup3\n        /* \"@ethereum-attestation-service/eas-contracts/contracts/resolver/SchemaResolver.sol\":1426:1435  msg.value */\n      callvalue\n        /* \"@ethereum-attestation-service/eas-contracts/contracts/resolver/SchemaResolver.sol\":1404:1412  onAttest */\n      tag_106\n        /* \"@ethereum-attestation-service/eas-contracts/contracts/resolver/SchemaResolver.sol\":1404:1436  onAttest(attestation, msg.value) */\n      jump\t// in\n        /* \"@openzeppelin/contracts/access/Ownable.sol\":2074:2272  function transferOwnership(address newOwner) public virtual onlyOwner {... */\n    tag_57:\n        /* \"@openzeppelin/contracts/access/Ownable.sol\":1094:1107  _checkOwner() */\n      tag_118\n        /* \"@openzeppelin/contracts/access/Ownable.sol\":1094:1105  _checkOwner */\n      tag_68\n        /* \"@openzeppelin/contracts/access/Ownable.sol\":1094:1107  _checkOwner() */\n      jump\t// in\n    tag_118:\n      sub(shl(0xa0, 0x01), 0x01)\n        /* \"@openzeppelin/contracts/access/Ownable.sol\":2162:2184  newOwner != address(0) */\n      dup2\n      and\n        /* \"@openzeppelin/contracts/access/Ownable.sol\":2154:2227  require(newOwner != address(0), \"Ownable: new owner is the zero address\") */\n      tag_120\n      jumpi\n      mload(0x40)\n      shl(0xe5, 0x461bcd)\n      dup2\n      mstore\n        /* \"#utility.yul\":5105:5107   */\n      0x20\n        /* \"@openzeppelin/contracts/access/Ownable.sol\":2154:2227  require(newOwner != address(0), \"Ownable: new owner is the zero address\") */\n      0x04\n      dup3\n      add\n        /* \"#utility.yul\":5087:5108   */\n      mstore\n        /* \"#utility.yul\":5144:5146   */\n      0x26\n        /* \"#utility.yul\":5124:5142   */\n      0x24\n      dup3\n      add\n        /* \"#utility.yul\":5117:5147   */\n      mstore\n        /* \"#utility.yul\":5183:5217   */\n      0x4f776e61626c653a206e6577206f776e657220697320746865207a65726f2061\n        /* \"#utility.yul\":5163:5181   */\n      0x44\n      dup3\n      add\n        /* \"#utility.yul\":5156:5218   */\n      mstore\n      shl(0xd0, 0x646472657373)\n        /* \"#utility.yul\":5234:5252   */\n      0x64\n      dup3\n      add\n        /* \"#utility.yul\":5227:5263   */\n      mstore\n        /* \"#utility.yul\":5280:5299   */\n      0x84\n      add\n        /* \"@openzeppelin/contracts/access/Ownable.sol\":2154:2227  require(newOwner != address(0), \"Ownable: new owner is the zero address\") */\n    tag_121:\n      mload(0x40)\n      dup1\n      swap2\n      sub\n      swap1\n      revert\n    tag_120:\n        /* \"@openzeppelin/contracts/access/Ownable.sol\":2237:2265  _transferOwnership(newOwner) */\n      tag_123\n        /* \"@openzeppelin/contracts/access/Ownable.sol\":2256:2264  newOwner */\n      dup2\n        /* \"@openzeppelin/contracts/access/Ownable.sol\":2237:2255  _transferOwnership */\n      tag_71\n        /* \"@openzeppelin/contracts/access/Ownable.sol\":2237:2265  _transferOwnership(newOwner) */\n      jump\t// in\n    tag_123:\n        /* \"@openzeppelin/contracts/access/Ownable.sol\":2074:2272  function transferOwnership(address newOwner) public virtual onlyOwner {... */\n      pop\n      jump\t// out\n        /* \"@openzeppelin/contracts/utils/Strings.sol\":447:1143  function toString(uint256 value) internal pure returns (string memory) {... */\n    tag_61:\n        /* \"@openzeppelin/contracts/utils/Strings.sol\":503:516  string memory */\n      0x60\n        /* \"@openzeppelin/contracts/utils/Strings.sol\":552:566  uint256 length */\n      0x00\n        /* \"@openzeppelin/contracts/utils/Strings.sol\":569:586  Math.log10(value) */\n      tag_125\n        /* \"@openzeppelin/contracts/utils/Strings.sol\":580:585  value */\n      dup4\n        /* \"@openzeppelin/contracts/utils/Strings.sol\":569:579  Math.log10 */\n      tag_126\n        /* \"@openzeppelin/contracts/utils/Strings.sol\":569:586  Math.log10(value) */\n      jump\t// in\n    tag_125:\n        /* \"@openzeppelin/contracts/utils/Strings.sol\":589:590  1 */\n      0x01\n        /* \"@openzeppelin/contracts/utils/Strings.sol\":569:590  Math.log10(value) + 1 */\n      add\n        /* \"@openzeppelin/contracts/utils/Strings.sol\":552:590  uint256 length = Math.log10(value) + 1 */\n      swap1\n      pop\n        /* \"@openzeppelin/contracts/utils/Strings.sol\":604:624  string memory buffer */\n      0x00\n        /* \"@openzeppelin/contracts/utils/Strings.sol\":638:644  length */\n      dup2\n        /* \"@openzeppelin/contracts/utils/Strings.sol\":627:645  new string(length) */\n      0xffffffffffffffff\n      dup2\n      gt\n      iszero\n      tag_128\n      jumpi\n      tag_128\n      tag_129\n      jump\t// in\n    tag_128:\n      mload(0x40)\n      swap1\n      dup1\n      dup3\n      mstore\n      dup1\n      0x1f\n      add\n      not(0x1f)\n      and\n      0x20\n      add\n      dup3\n      add\n      0x40\n      mstore\n      dup1\n      iszero\n      tag_130\n      jumpi\n      0x20\n      dup3\n      add\n      dup2\n      dup1\n      calldatasize\n      dup4\n      calldatacopy\n      add\n      swap1\n      pop\n    tag_130:\n      pop\n        /* \"@openzeppelin/contracts/utils/Strings.sol\":604:645  string memory buffer = new string(length) */\n      swap1\n      pop\n        /* \"@openzeppelin/contracts/utils/Strings.sol\":765:793  add(buffer, add(32, length)) */\n      dup2\n      dup2\n      add\n        /* \"@openzeppelin/contracts/utils/Strings.sol\":781:783  32 */\n      0x20\n        /* \"@openzeppelin/contracts/utils/Strings.sol\":765:793  add(buffer, add(32, length)) */\n      add\n        /* \"@openzeppelin/contracts/utils/Strings.sol\":820:1100  while (true) {... */\n    tag_131:\n      not(0x00)\n        /* \"@openzeppelin/contracts/utils/Strings.sol\":851:856  ptr-- */\n      add\n      shl(0x81, 0x181899199a1a9b1b9c1cb0b131b232b3)\n        /* \"@openzeppelin/contracts/utils/Strings.sol\":985:987  10 */\n      0x0a\n        /* \"@openzeppelin/contracts/utils/Strings.sol\":974:988  mod(value, 10) */\n      dup7\n      mod\n        /* \"@openzeppelin/contracts/utils/Strings.sol\":969:999  byte(mod(value, 10), _SYMBOLS) */\n      byte\n        /* \"@openzeppelin/contracts/utils/Strings.sol\":851:856  ptr-- */\n      dup2\n        /* \"@openzeppelin/contracts/utils/Strings.sol\":956:1000  mstore8(ptr, byte(mod(value, 10), _SYMBOLS)) */\n      mstore8\n        /* \"@openzeppelin/contracts/utils/Strings.sol\":1044:1046  10 */\n      0x0a\n        /* \"@openzeppelin/contracts/utils/Strings.sol\":1035:1046  value /= 10 */\n      dup6\n      div\n      swap5\n      pop\n        /* \"@openzeppelin/contracts/utils/Strings.sol\":1064:1085  if (value == 0) break */\n      dup5\n        /* \"@openzeppelin/contracts/utils/Strings.sol\":820:1100  while (true) {... */\n      tag_131\n        /* \"@openzeppelin/contracts/utils/Strings.sol\":1064:1085  if (value == 0) break */\n      jumpi\n      pop\n        /* \"@openzeppelin/contracts/utils/Strings.sol\":1120:1126  buffer */\n      swap4\n        /* \"@openzeppelin/contracts/utils/Strings.sol\":447:1143  function toString(uint256 value) internal pure returns (string memory) {... */\n      swap3\n      pop\n      pop\n      pop\n      jump\t// out\n        /* \"@openzeppelin/contracts/access/Ownable.sol\":1359:1489  function _checkOwner() internal view virtual {... */\n    tag_68:\n        /* \"@openzeppelin/contracts/access/Ownable.sol\":1247:1254  address */\n      0x00\n        /* \"@openzeppelin/contracts/access/Ownable.sol\":1273:1279  _owner */\n      sload\n      sub(shl(0xa0, 0x01), 0x01)\n      and\n        /* \"@openzeppelin/contracts/utils/Context.sol\":719:729  msg.sender */\n      caller\n        /* \"@openzeppelin/contracts/access/Ownable.sol\":1422:1445  owner() == _msgSender() */\n      eq\n        /* \"@openzeppelin/contracts/access/Ownable.sol\":1414:1482  require(owner() == _msgSender(), \"Ownable: caller is not the owner\") */\n      tag_70\n      jumpi\n      mload(0x40)\n      shl(0xe5, 0x461bcd)\n      dup2\n      mstore\n        /* \"#utility.yul\":5776:5778   */\n      0x20\n        /* \"@openzeppelin/contracts/access/Ownable.sol\":1414:1482  require(owner() == _msgSender(), \"Ownable: caller is not the owner\") */\n      0x04\n      dup3\n      add\n        /* \"#utility.yul\":5758:5779   */\n      dup2\n      swap1\n      mstore\n        /* \"#utility.yul\":5795:5813   */\n      0x24\n      dup3\n      add\n        /* \"#utility.yul\":5788:5818   */\n      mstore\n        /* \"#utility.yul\":5854:5888   */\n      0x4f776e61626c653a2063616c6c6572206973206e6f7420746865206f776e6572\n        /* \"#utility.yul\":5834:5852   */\n      0x44\n      dup3\n      add\n        /* \"#utility.yul\":5827:5889   */\n      mstore\n        /* \"#utility.yul\":5906:5924   */\n      0x64\n      add\n        /* \"@openzeppelin/contracts/access/Ownable.sol\":1414:1482  require(owner() == _msgSender(), \"Ownable: caller is not the owner\") */\n      tag_121\n        /* \"#utility.yul\":5574:5930   */\n      jump\n        /* \"@openzeppelin/contracts/access/Ownable.sol\":2426:2613  function _transferOwnership(address newOwner) internal virtual {... */\n    tag_71:\n        /* \"@openzeppelin/contracts/access/Ownable.sol\":2499:2515  address oldOwner */\n      0x00\n        /* \"@openzeppelin/contracts/access/Ownable.sol\":2518:2524  _owner */\n      dup1\n      sload\n      sub(shl(0xa0, 0x01), 0x01)\n        /* \"@openzeppelin/contracts/access/Ownable.sol\":2534:2551  _owner = newOwner */\n      dup4\n      dup2\n      and\n      not(sub(shl(0xa0, 0x01), 0x01))\n      dup4\n      and\n      dup2\n      or\n      dup5\n      sstore\n        /* \"@openzeppelin/contracts/access/Ownable.sol\":2566:2606  OwnershipTransferred(oldOwner, newOwner) */\n      mload(0x40)\n        /* \"@openzeppelin/contracts/access/Ownable.sol\":2518:2524  _owner */\n      swap2\n      swap1\n      swap3\n      and\n      swap3\n      dup4\n      swap2\n        /* \"@openzeppelin/contracts/access/Ownable.sol\":2566:2606  OwnershipTransferred(oldOwner, newOwner) */\n      0x8be0079c531659141344cd1fd0a4f28419497f9722a3daafe3b4186f6b6457e0\n      swap2\n        /* \"@openzeppelin/contracts/access/Ownable.sol\":2499:2515  address oldOwner */\n      swap1\n        /* \"@openzeppelin/contracts/access/Ownable.sol\":2566:2606  OwnershipTransferred(oldOwner, newOwner) */\n      log3\n        /* \"@openzeppelin/contracts/access/Ownable.sol\":2489:2613  {... */\n      pop\n        /* \"@openzeppelin/contracts/access/Ownable.sol\":2426:2613  function _transferOwnership(address newOwner) internal virtual {... */\n      pop\n      jump\t// out\n        /* \"@ethereum-attestation-service/eas-contracts/contracts/resolver/SchemaResolver.sol\":5977:6105  function _onlyEAS() private view {... */\n    tag_74:\n        /* \"@ethereum-attestation-service/eas-contracts/contracts/resolver/SchemaResolver.sol\":6024:6034  msg.sender */\n      caller\n      sub(shl(0xa0, 0x01), 0x01)\n        /* \"@ethereum-attestation-service/eas-contracts/contracts/resolver/SchemaResolver.sol\":6046:6050  _eas */\n      immutable(\"0x0f1bcf290b66a2cfed5f23463bc63e98c2b29d8093b3c4b39be593d60dfd3630\")\n        /* \"@ethereum-attestation-service/eas-contracts/contracts/resolver/SchemaResolver.sol\":6024:6051  msg.sender != address(_eas) */\n      and\n      eq\n        /* \"@ethereum-attestation-service/eas-contracts/contracts/resolver/SchemaResolver.sol\":6020:6099  if (msg.sender != address(_eas)) {... */\n      tag_70\n      jumpi\n        /* \"@ethereum-attestation-service/eas-contracts/contracts/resolver/SchemaResolver.sol\":6074:6088  AccessDenied() */\n      mload(0x40)\n      shl(0xe0, 0x4ca88867)\n      dup2\n      mstore\n      0x04\n      add\n      mload(0x40)\n      dup1\n      swap2\n      sub\n      swap1\n      revert\n        /* \"src/resolver/VoteResolver.sol\":434:866  function onAttest(... */\n    tag_106:\n        /* \"src/resolver/VoteResolver.sol\":554:558  bool */\n      0x00\n      dup1\n        /* \"src/resolver/VoteResolver.sol\":627:643  attestation.data */\n      tag_150\n      0x0120\n      dup6\n      add\n        /* \"src/resolver/VoteResolver.sol\":627:638  attestation */\n      dup6\n        /* \"src/resolver/VoteResolver.sol\":627:643  attestation.data */\n      tag_151\n      jump\t// in\n    tag_150:\n        /* \"src/resolver/VoteResolver.sol\":603:699  abi.decode(... */\n      dup2\n      add\n      swap1\n      tag_152\n      swap2\n      swap1\n      tag_153\n      jump\t// in\n    tag_152:\n      pop\n        /* \"src/resolver/VoteResolver.sol\":570:699  (address projectAddress, , , ) = abi.decode(... */\n      swap2\n      swap3\n      pop\n      pop\n      sub(shl(0xa0, 0x01), 0x01)\n        /* \"src/resolver/VoteResolver.sol\":718:746  projectAddress != address(0) */\n      dup3\n      and\n      swap1\n      pop\n        /* \"src/resolver/VoteResolver.sol\":710:782  require(projectAddress != address(0), \"Contribution project not found.\") */\n      tag_154\n      jumpi\n      mload(0x40)\n      shl(0xe5, 0x461bcd)\n      dup2\n      mstore\n        /* \"#utility.yul\":8147:8149   */\n      0x20\n        /* \"src/resolver/VoteResolver.sol\":710:782  require(projectAddress != address(0), \"Contribution project not found.\") */\n      0x04\n      dup3\n      add\n        /* \"#utility.yul\":8129:8150   */\n      mstore\n        /* \"#utility.yul\":8186:8188   */\n      0x1f\n        /* \"#utility.yul\":8166:8184   */\n      0x24\n      dup3\n      add\n        /* \"#utility.yul\":8159:8189   */\n      mstore\n        /* \"#utility.yul\":8225:8258   */\n      0x436f6e747269627574696f6e2070726f6a656374206e6f7420666f756e642e00\n        /* \"#utility.yul\":8205:8223   */\n      0x44\n      dup3\n      add\n        /* \"#utility.yul\":8198:8259   */\n      mstore\n        /* \"#utility.yul\":8276:8294   */\n      0x64\n      add\n        /* \"src/resolver/VoteResolver.sol\":710:782  require(projectAddress != address(0), \"Contribution project not found.\") */\n      tag_121\n        /* \"#utility.yul\":7945:8300   */\n      jump\n        /* \"src/resolver/VoteResolver.sol\":710:782  require(projectAddress != address(0), \"Contribution project not found.\") */\n    tag_154:\n        /* \"src/resolver/VoteResolver.sol\":799:859  IProject(projectAddress).onPassVoteContribution(attestation) */\n      mload(0x40)\n      shl(0xe0, 0x8ac014d7)\n      dup2\n      mstore\n      sub(shl(0xa0, 0x01), 0x01)\n        /* \"src/resolver/VoteResolver.sol\":799:846  IProject(projectAddress).onPassVoteContribution */\n      dup3\n      and\n      swap1\n      0x8ac014d7\n      swap1\n        /* \"src/resolver/VoteResolver.sol\":799:859  IProject(projectAddress).onPassVoteContribution(attestation) */\n      tag_157\n      swap1\n        /* \"src/resolver/VoteResolver.sol\":847:858  attestation */\n      dup8\n      swap1\n        /* \"src/resolver/VoteResolver.sol\":799:859  IProject(projectAddress).onPassVoteContribution(attestation) */\n      0x04\n      add\n      tag_158\n      jump\t// in\n    tag_157:\n      0x20\n      mload(0x40)\n      dup1\n      dup4\n      sub\n      dup2\n      0x00\n      dup8\n      gas\n      call\n      iszero\n      dup1\n      iszero\n      tag_160\n      jumpi\n      returndatasize\n      0x00\n      dup1\n      returndatacopy\n      revert(0x00, returndatasize)\n    tag_160:\n      pop\n      pop\n      pop\n      pop\n      mload(0x40)\n      returndatasize\n      not(0x1f)\n      0x1f\n      dup3\n      add\n      and\n      dup3\n      add\n      dup1\n      0x40\n      mstore\n      pop\n      dup2\n      add\n      swap1\n      tag_75\n      swap2\n      swap1\n      tag_162\n      jump\t// in\n        /* \"@openzeppelin/contracts/utils/math/Math.sol\":10139:11055  function log10(uint256 value) internal pure returns (uint256) {... */\n    tag_126:\n        /* \"@openzeppelin/contracts/utils/math/Math.sol\":10192:10199  uint256 */\n      0x00\n      dup1\n      shl(0x40, 0x184f03e93ff9f4daa797ed6e38ed64bf6a1f01)\n        /* \"@openzeppelin/contracts/utils/math/Math.sol\":10267:10284  value >= 10 ** 64 */\n      dup4\n      lt\n        /* \"@openzeppelin/contracts/utils/math/Math.sol\":10263:10366  if (value >= 10 ** 64) {... */\n      tag_164\n      jumpi\n      shl(0x40, 0x184f03e93ff9f4daa797ed6e38ed64bf6a1f01)\n        /* \"@openzeppelin/contracts/utils/math/Math.sol\":10304:10321  value /= 10 ** 64 */\n      dup4\n      div\n      swap3\n      pop\n        /* \"@openzeppelin/contracts/utils/math/Math.sol\":10349:10351  64 */\n      0x40\n        /* \"@openzeppelin/contracts/utils/math/Math.sol\":10339:10351  result += 64 */\n      add\n        /* \"@openzeppelin/contracts/utils/math/Math.sol\":10263:10366  if (value >= 10 ** 64) {... */\n    tag_164:\n        /* \"@openzeppelin/contracts/utils/math/Math.sol\":10392:10400  10 ** 32 */\n      0x04ee2d6d415b85acef8100000000\n        /* \"@openzeppelin/contracts/utils/math/Math.sol\":10383:10388  value */\n      dup4\n        /* \"@openzeppelin/contracts/utils/math/Math.sol\":10383:10400  value >= 10 ** 32 */\n      lt\n        /* \"@openzeppelin/contracts/utils/math/Math.sol\":10379:10482  if (value >= 10 ** 32) {... */\n      tag_167\n      jumpi\n        /* \"@openzeppelin/contracts/utils/math/Math.sol\":10429:10437  10 ** 32 */\n      0x04ee2d6d415b85acef8100000000\n        /* \"@openzeppelin/contracts/utils/math/Math.sol\":10420:10437  value /= 10 ** 32 */\n      dup4\n      div\n      swap3\n      pop\n        /* \"@openzeppelin/contracts/utils/math/Math.sol\":10465:10467  32 */\n      0x20\n        /* \"@openzeppelin/contracts/utils/math/Math.sol\":10455:10467  result += 32 */\n      add\n        /* \"@openzeppelin/contracts/utils/math/Math.sol\":10379:10482  if (value >= 10 ** 32) {... */\n    tag_167:\n        /* \"@openzeppelin/contracts/utils/math/Math.sol\":10508:10516  10 ** 16 */\n      0x2386f26fc10000\n        /* \"@openzeppelin/contracts/utils/math/Math.sol\":10499:10504  value */\n      dup4\n        /* \"@openzeppelin/contracts/utils/math/Math.sol\":10499:10516  value >= 10 ** 16 */\n      lt\n        /* \"@openzeppelin/contracts/utils/math/Math.sol\":10495:10598  if (value >= 10 ** 16) {... */\n      tag_170\n      jumpi\n        /* \"@openzeppelin/contracts/utils/math/Math.sol\":10545:10553  10 ** 16 */\n      0x2386f26fc10000\n        /* \"@openzeppelin/contracts/utils/math/Math.sol\":10536:10553  value /= 10 ** 16 */\n      dup4\n      div\n      swap3\n      pop\n        /* \"@openzeppelin/contracts/utils/math/Math.sol\":10581:10583  16 */\n      0x10\n        /* \"@openzeppelin/contracts/utils/math/Math.sol\":10571:10583  result += 16 */\n      add\n        /* \"@openzeppelin/contracts/utils/math/Math.sol\":10495:10598  if (value >= 10 ** 16) {... */\n    tag_170:\n        /* \"@openzeppelin/contracts/utils/math/Math.sol\":10624:10631  10 ** 8 */\n      0x05f5e100\n        /* \"@openzeppelin/contracts/utils/math/Math.sol\":10615:10620  value */\n      dup4\n        /* \"@openzeppelin/contracts/utils/math/Math.sol\":10615:10631  value >= 10 ** 8 */\n      lt\n        /* \"@openzeppelin/contracts/utils/math/Math.sol\":10611:10711  if (value >= 10 ** 8) {... */\n      tag_173\n      jumpi\n        /* \"@openzeppelin/contracts/utils/math/Math.sol\":10660:10667  10 ** 8 */\n      0x05f5e100\n        /* \"@openzeppelin/contracts/utils/math/Math.sol\":10651:10667  value /= 10 ** 8 */\n      dup4\n      div\n      swap3\n      pop\n        /* \"@openzeppelin/contracts/utils/math/Math.sol\":10695:10696  8 */\n      0x08\n        /* \"@openzeppelin/contracts/utils/math/Math.sol\":10685:10696  result += 8 */\n      add\n        /* \"@openzeppelin/contracts/utils/math/Math.sol\":10611:10711  if (value >= 10 ** 8) {... */\n    tag_173:\n        /* \"@openzeppelin/contracts/utils/math/Math.sol\":10737:10744  10 ** 4 */\n      0x2710\n        /* \"@openzeppelin/contracts/utils/math/Math.sol\":10728:10733  value */\n      dup4\n        /* \"@openzeppelin/contracts/utils/math/Math.sol\":10728:10744  value >= 10 ** 4 */\n      lt\n        /* \"@openzeppelin/contracts/utils/math/Math.sol\":10724:10824  if (value >= 10 ** 4) {... */\n      tag_176\n      jumpi\n        /* \"@openzeppelin/contracts/utils/math/Math.sol\":10773:10780  10 ** 4 */\n      0x2710\n        /* \"@openzeppelin/contracts/utils/math/Math.sol\":10764:10780  value /= 10 ** 4 */\n      dup4\n      div\n      swap3\n      pop\n        /* \"@openzeppelin/contracts/utils/math/Math.sol\":10808:10809  4 */\n      0x04\n        /* \"@openzeppelin/contracts/utils/math/Math.sol\":10798:10809  result += 4 */\n      add\n        /* \"@openzeppelin/contracts/utils/math/Math.sol\":10724:10824  if (value >= 10 ** 4) {... */\n    tag_176:\n        /* \"@openzeppelin/contracts/utils/math/Math.sol\":10850:10857  10 ** 2 */\n      0x64\n        /* \"@openzeppelin/contracts/utils/math/Math.sol\":10841:10846  value */\n      dup4\n        /* \"@openzeppelin/contracts/utils/math/Math.sol\":10841:10857  value >= 10 ** 2 */\n      lt\n        /* \"@openzeppelin/contracts/utils/math/Math.sol\":10837:10937  if (value >= 10 ** 2) {... */\n      tag_179\n      jumpi\n        /* \"@openzeppelin/contracts/utils/math/Math.sol\":10886:10893  10 ** 2 */\n      0x64\n        /* \"@openzeppelin/contracts/utils/math/Math.sol\":10877:10893  value /= 10 ** 2 */\n      dup4\n      div\n      swap3\n      pop\n        /* \"@openzeppelin/contracts/utils/math/Math.sol\":10921:10922  2 */\n      0x02\n        /* \"@openzeppelin/contracts/utils/math/Math.sol\":10911:10922  result += 2 */\n      add\n        /* \"@openzeppelin/contracts/utils/math/Math.sol\":10837:10937  if (value >= 10 ** 2) {... */\n    tag_179:\n        /* \"@openzeppelin/contracts/utils/math/Math.sol\":10963:10970  10 ** 1 */\n      0x0a\n        /* \"@openzeppelin/contracts/utils/math/Math.sol\":10954:10959  value */\n      dup4\n        /* \"@openzeppelin/contracts/utils/math/Math.sol\":10954:10970  value >= 10 ** 1 */\n      lt\n        /* \"@openzeppelin/contracts/utils/math/Math.sol\":10950:11016  if (value >= 10 ** 1) {... */\n      tag_182\n      jumpi\n        /* \"@openzeppelin/contracts/utils/math/Math.sol\":11000:11001  1 */\n      0x01\n        /* \"@openzeppelin/contracts/utils/math/Math.sol\":10990:11001  result += 1 */\n      add\n        /* \"@openzeppelin/contracts/utils/math/Math.sol\":10950:11016  if (value >= 10 ** 1) {... */\n    tag_182:\n        /* \"@openzeppelin/contracts/utils/math/Math.sol\":11042:11048  result */\n      swap3\n        /* \"@openzeppelin/contracts/utils/math/Math.sol\":10139:11055  function log10(uint256 value) internal pure returns (uint256) {... */\n      swap2\n      pop\n      pop\n      jump\t// out\n        /* \"#utility.yul\":14:264   */\n    tag_184:\n        /* \"#utility.yul\":99:100   */\n      0x00\n        /* \"#utility.yul\":109:222   */\n    tag_198:\n        /* \"#utility.yul\":123:129   */\n      dup4\n        /* \"#utility.yul\":120:121   */\n      dup2\n        /* \"#utility.yul\":117:130   */\n      lt\n        /* \"#utility.yul\":109:222   */\n      iszero\n      tag_200\n      jumpi\n        /* \"#utility.yul\":199:210   */\n      dup2\n      dup2\n      add\n        /* \"#utility.yul\":193:211   */\n      mload\n        /* \"#utility.yul\":180:191   */\n      dup4\n      dup3\n      add\n        /* \"#utility.yul\":173:212   */\n      mstore\n        /* \"#utility.yul\":145:147   */\n      0x20\n        /* \"#utility.yul\":138:148   */\n      add\n        /* \"#utility.yul\":109:222   */\n      jump(tag_198)\n    tag_200:\n      pop\n      pop\n        /* \"#utility.yul\":256:257   */\n      0x00\n        /* \"#utility.yul\":238:254   */\n      swap2\n      add\n        /* \"#utility.yul\":231:258   */\n      mstore\n        /* \"#utility.yul\":14:264   */\n      jump\t// out\n        /* \"#utility.yul\":269:665   */\n    tag_22:\n        /* \"#utility.yul\":418:420   */\n      0x20\n        /* \"#utility.yul\":407:416   */\n      dup2\n        /* \"#utility.yul\":400:421   */\n      mstore\n        /* \"#utility.yul\":381:385   */\n      0x00\n        /* \"#utility.yul\":450:456   */\n      dup3\n        /* \"#utility.yul\":444:457   */\n      mload\n        /* \"#utility.yul\":493:499   */\n      dup1\n        /* \"#utility.yul\":488:490   */\n      0x20\n        /* \"#utility.yul\":477:486   */\n      dup5\n        /* \"#utility.yul\":473:491   */\n      add\n        /* \"#utility.yul\":466:500   */\n      mstore\n        /* \"#utility.yul\":509:588   */\n      tag_202\n        /* \"#utility.yul\":581:587   */\n      dup2\n        /* \"#utility.yul\":576:578   */\n      0x40\n        /* \"#utility.yul\":565:574   */\n      dup6\n        /* \"#utility.yul\":561:579   */\n      add\n        /* \"#utility.yul\":556:558   */\n      0x20\n        /* \"#utility.yul\":548:554   */\n      dup8\n        /* \"#utility.yul\":544:559   */\n      add\n        /* \"#utility.yul\":509:588   */\n      tag_184\n      jump\t// in\n    tag_202:\n        /* \"#utility.yul\":649:651   */\n      0x1f\n        /* \"#utility.yul\":628:643   */\n      add\n      not(0x1f)\n        /* \"#utility.yul\":624:653   */\n      and\n        /* \"#utility.yul\":609:654   */\n      swap2\n      swap1\n      swap2\n      add\n        /* \"#utility.yul\":656:658   */\n      0x40\n        /* \"#utility.yul\":605:659   */\n      add\n      swap3\n        /* \"#utility.yul\":269:665   */\n      swap2\n      pop\n      pop\n      jump\t// out\n        /* \"#utility.yul\":670:1057   */\n    tag_185:\n        /* \"#utility.yul\":753:761   */\n      0x00\n        /* \"#utility.yul\":763:769   */\n      dup1\n        /* \"#utility.yul\":817:820   */\n      dup4\n        /* \"#utility.yul\":810:814   */\n      0x1f\n        /* \"#utility.yul\":802:808   */\n      dup5\n        /* \"#utility.yul\":798:815   */\n      add\n        /* \"#utility.yul\":794:821   */\n      slt\n        /* \"#utility.yul\":784:839   */\n      tag_204\n      jumpi\n        /* \"#utility.yul\":835:836   */\n      0x00\n        /* \"#utility.yul\":832:833   */\n      dup1\n        /* \"#utility.yul\":825:837   */\n      revert\n        /* \"#utility.yul\":784:839   */\n    tag_204:\n      pop\n        /* \"#utility.yul\":858:878   */\n      dup2\n      calldataload\n        /* \"#utility.yul\":901:919   */\n      0xffffffffffffffff\n        /* \"#utility.yul\":890:920   */\n      dup2\n      gt\n        /* \"#utility.yul\":887:937   */\n      iszero\n      tag_205\n      jumpi\n        /* \"#utility.yul\":933:934   */\n      0x00\n        /* \"#utility.yul\":930:931   */\n      dup1\n        /* \"#utility.yul\":923:935   */\n      revert\n        /* \"#utility.yul\":887:937   */\n    tag_205:\n        /* \"#utility.yul\":970:974   */\n      0x20\n        /* \"#utility.yul\":962:968   */\n      dup4\n        /* \"#utility.yul\":958:975   */\n      add\n        /* \"#utility.yul\":946:975   */\n      swap2\n      pop\n        /* \"#utility.yul\":1030:1033   */\n      dup4\n        /* \"#utility.yul\":1023:1027   */\n      0x20\n        /* \"#utility.yul\":1013:1019   */\n      dup3\n        /* \"#utility.yul\":1010:1011   */\n      0x05\n        /* \"#utility.yul\":1006:1020   */\n      shl\n        /* \"#utility.yul\":998:1004   */\n      dup6\n        /* \"#utility.yul\":994:1021   */\n      add\n        /* \"#utility.yul\":990:1028   */\n      add\n        /* \"#utility.yul\":987:1034   */\n      gt\n        /* \"#utility.yul\":984:1051   */\n      iszero\n      tag_206\n      jumpi\n        /* \"#utility.yul\":1047:1048   */\n      0x00\n        /* \"#utility.yul\":1044:1045   */\n      dup1\n        /* \"#utility.yul\":1037:1049   */\n      revert\n        /* \"#utility.yul\":984:1051   */\n    tag_206:\n        /* \"#utility.yul\":670:1057   */\n      swap3\n      pop\n      swap3\n      swap1\n      pop\n      jump\t// out\n        /* \"#utility.yul\":1062:1904   */\n    tag_28:\n        /* \"#utility.yul\":1213:1219   */\n      0x00\n        /* \"#utility.yul\":1221:1227   */\n      dup1\n        /* \"#utility.yul\":1229:1235   */\n      0x00\n        /* \"#utility.yul\":1237:1243   */\n      dup1\n        /* \"#utility.yul\":1290:1292   */\n      0x40\n        /* \"#utility.yul\":1278:1287   */\n      dup6\n        /* \"#utility.yul\":1269:1276   */\n      dup8\n        /* \"#utility.yul\":1265:1288   */\n      sub\n        /* \"#utility.yul\":1261:1293   */\n      slt\n        /* \"#utility.yul\":1258:1310   */\n      iszero\n      tag_208\n      jumpi\n        /* \"#utility.yul\":1306:1307   */\n      0x00\n        /* \"#utility.yul\":1303:1304   */\n      dup1\n        /* \"#utility.yul\":1296:1308   */\n      revert\n        /* \"#utility.yul\":1258:1310   */\n    tag_208:\n        /* \"#utility.yul\":1346:1355   */\n      dup5\n        /* \"#utility.yul\":1333:1356   */\n      calldataload\n        /* \"#utility.yul\":1375:1393   */\n      0xffffffffffffffff\n        /* \"#utility.yul\":1416:1418   */\n      dup1\n        /* \"#utility.yul\":1408:1414   */\n      dup3\n        /* \"#utility.yul\":1405:1419   */\n      gt\n        /* \"#utility.yul\":1402:1436   */\n      iszero\n      tag_209\n      jumpi\n        /* \"#utility.yul\":1432:1433   */\n      0x00\n        /* \"#utility.yul\":1429:1430   */\n      dup1\n        /* \"#utility.yul\":1422:1434   */\n      revert\n        /* \"#utility.yul\":1402:1436   */\n    tag_209:\n        /* \"#utility.yul\":1471:1561   */\n      tag_210\n        /* \"#utility.yul\":1553:1560   */\n      dup9\n        /* \"#utility.yul\":1544:1550   */\n      dup4\n        /* \"#utility.yul\":1533:1542   */\n      dup10\n        /* \"#utility.yul\":1529:1551   */\n      add\n        /* \"#utility.yul\":1471:1561   */\n      tag_185\n      jump\t// in\n    tag_210:\n        /* \"#utility.yul\":1580:1588   */\n      swap1\n      swap7\n      pop\n        /* \"#utility.yul\":1445:1561   */\n      swap5\n      pop\n        /* \"#utility.yul\":1668:1670   */\n      0x20\n        /* \"#utility.yul\":1653:1671   */\n      dup8\n      add\n        /* \"#utility.yul\":1640:1672   */\n      calldataload\n      swap2\n      pop\n        /* \"#utility.yul\":1684:1700   */\n      dup1\n      dup3\n      gt\n        /* \"#utility.yul\":1681:1717   */\n      iszero\n      tag_211\n      jumpi\n        /* \"#utility.yul\":1713:1714   */\n      0x00\n        /* \"#utility.yul\":1710:1711   */\n      dup1\n        /* \"#utility.yul\":1703:1715   */\n      revert\n        /* \"#utility.yul\":1681:1717   */\n    tag_211:\n      pop\n        /* \"#utility.yul\":1752:1844   */\n      tag_212\n        /* \"#utility.yul\":1836:1843   */\n      dup8\n        /* \"#utility.yul\":1825:1833   */\n      dup3\n        /* \"#utility.yul\":1814:1823   */\n      dup9\n        /* \"#utility.yul\":1810:1834   */\n      add\n        /* \"#utility.yul\":1752:1844   */\n      tag_185\n      jump\t// in\n    tag_212:\n        /* \"#utility.yul\":1062:1904   */\n      swap6\n      swap9\n      swap5\n      swap8\n      pop\n        /* \"#utility.yul\":1863:1871   */\n      swap6\n      pop\n      pop\n      pop\n      pop\n        /* \"#utility.yul\":1062:1904   */\n      jump\t// out\n        /* \"#utility.yul\":2514:2903   */\n    tag_46:\n        /* \"#utility.yul\":2602:2608   */\n      0x00\n        /* \"#utility.yul\":2655:2657   */\n      0x20\n        /* \"#utility.yul\":2643:2652   */\n      dup3\n        /* \"#utility.yul\":2634:2641   */\n      dup5\n        /* \"#utility.yul\":2630:2653   */\n      sub\n        /* \"#utility.yul\":2626:2658   */\n      slt\n        /* \"#utility.yul\":2623:2675   */\n      iszero\n      tag_218\n      jumpi\n        /* \"#utility.yul\":2671:2672   */\n      0x00\n        /* \"#utility.yul\":2668:2669   */\n      dup1\n        /* \"#utility.yul\":2661:2673   */\n      revert\n        /* \"#utility.yul\":2623:2675   */\n    tag_218:\n        /* \"#utility.yul\":2711:2720   */\n      dup2\n        /* \"#utility.yul\":2698:2721   */\n      calldataload\n        /* \"#utility.yul\":2744:2762   */\n      0xffffffffffffffff\n        /* \"#utility.yul\":2736:2742   */\n      dup2\n        /* \"#utility.yul\":2733:2763   */\n      gt\n        /* \"#utility.yul\":2730:2780   */\n      iszero\n      tag_219\n      jumpi\n        /* \"#utility.yul\":2776:2777   */\n      0x00\n        /* \"#utility.yul\":2773:2774   */\n      dup1\n        /* \"#utility.yul\":2766:2778   */\n      revert\n        /* \"#utility.yul\":2730:2780   */\n    tag_219:\n        /* \"#utility.yul\":2799:2821   */\n      dup3\n      add\n        /* \"#utility.yul\":2855:2858   */\n      0x0140\n        /* \"#utility.yul\":2837:2853   */\n      dup2\n      dup6\n      sub\n        /* \"#utility.yul\":2833:2859   */\n      slt\n        /* \"#utility.yul\":2830:2876   */\n      iszero\n      tag_220\n      jumpi\n        /* \"#utility.yul\":2872:2873   */\n      0x00\n        /* \"#utility.yul\":2869:2870   */\n      dup1\n        /* \"#utility.yul\":2862:2874   */\n      revert\n        /* \"#utility.yul\":2830:2876   */\n    tag_220:\n        /* \"#utility.yul\":2895:2897   */\n      swap4\n        /* \"#utility.yul\":2514:2903   */\n      swap3\n      pop\n      pop\n      pop\n      jump\t// out\n        /* \"#utility.yul\":2908:3039   */\n    tag_188:\n      sub(shl(0xa0, 0x01), 0x01)\n        /* \"#utility.yul\":2983:3014   */\n      dup2\n      and\n        /* \"#utility.yul\":2973:3015   */\n      dup2\n      eq\n        /* \"#utility.yul\":2963:3033   */\n      tag_123\n      jumpi\n        /* \"#utility.yul\":3029:3030   */\n      0x00\n        /* \"#utility.yul\":3026:3027   */\n      dup1\n        /* \"#utility.yul\":3019:3031   */\n      revert\n        /* \"#utility.yul\":3044:3178   */\n    tag_189:\n        /* \"#utility.yul\":3112:3132   */\n      dup1\n      calldataload\n        /* \"#utility.yul\":3141:3172   */\n      tag_111\n        /* \"#utility.yul\":3112:3132   */\n      dup2\n        /* \"#utility.yul\":3141:3172   */\n      tag_188\n      jump\t// in\n        /* \"#utility.yul\":3183:3430   */\n    tag_56:\n        /* \"#utility.yul\":3242:3248   */\n      0x00\n        /* \"#utility.yul\":3295:3297   */\n      0x20\n        /* \"#utility.yul\":3283:3292   */\n      dup3\n        /* \"#utility.yul\":3274:3281   */\n      dup5\n        /* \"#utility.yul\":3270:3293   */\n      sub\n        /* \"#utility.yul\":3266:3298   */\n      slt\n        /* \"#utility.yul\":3263:3315   */\n      iszero\n      tag_226\n      jumpi\n        /* \"#utility.yul\":3311:3312   */\n      0x00\n        /* \"#utility.yul\":3308:3309   */\n      dup1\n        /* \"#utility.yul\":3301:3313   */\n      revert\n        /* \"#utility.yul\":3263:3315   */\n    tag_226:\n        /* \"#utility.yul\":3350:3359   */\n      dup2\n        /* \"#utility.yul\":3337:3360   */\n      calldataload\n        /* \"#utility.yul\":3369:3400   */\n      tag_220\n        /* \"#utility.yul\":3394:3399   */\n      dup2\n        /* \"#utility.yul\":3369:3400   */\n      tag_188\n      jump\t// in\n        /* \"#utility.yul\":3435:4434   */\n    tag_65:\n        /* \"#utility.yul\":3864:3867   */\n      0x00\n        /* \"#utility.yul\":3902:3908   */\n      dup5\n        /* \"#utility.yul\":3896:3909   */\n      mload\n        /* \"#utility.yul\":3918:3984   */\n      tag_229\n        /* \"#utility.yul\":3977:3983   */\n      dup2\n        /* \"#utility.yul\":3972:3975   */\n      dup5\n        /* \"#utility.yul\":3965:3969   */\n      0x20\n        /* \"#utility.yul\":3957:3963   */\n      dup10\n        /* \"#utility.yul\":3953:3970   */\n      add\n        /* \"#utility.yul\":3918:3984   */\n      tag_184\n      jump\t// in\n    tag_229:\n        /* \"#utility.yul\":4015:4021   */\n      dup1\n        /* \"#utility.yul\":4010:4013   */\n      dup4\n        /* \"#utility.yul\":4006:4022   */\n      add\n        /* \"#utility.yul\":3993:4022   */\n      swap1\n      pop\n      shl(0xf9, 0x17)\n        /* \"#utility.yul\":4067:4069   */\n      dup1\n        /* \"#utility.yul\":4060:4065   */\n      dup3\n        /* \"#utility.yul\":4053:4070   */\n      mstore\n        /* \"#utility.yul\":4101:4107   */\n      dup6\n        /* \"#utility.yul\":4095:4108   */\n      mload\n        /* \"#utility.yul\":4117:4195   */\n      tag_230\n        /* \"#utility.yul\":4186:4194   */\n      dup2\n        /* \"#utility.yul\":4182:4183   */\n      0x01\n        /* \"#utility.yul\":4175:4180   */\n      dup6\n        /* \"#utility.yul\":4171:4184   */\n      add\n        /* \"#utility.yul\":4164:4168   */\n      0x20\n        /* \"#utility.yul\":4156:4162   */\n      dup11\n        /* \"#utility.yul\":4152:4169   */\n      add\n        /* \"#utility.yul\":4117:4195   */\n      tag_184\n      jump\t// in\n    tag_230:\n        /* \"#utility.yul\":4258:4259   */\n      0x01\n        /* \"#utility.yul\":4214:4234   */\n      swap3\n      add\n        /* \"#utility.yul\":4250:4260   */\n      swap2\n      dup3\n      add\n        /* \"#utility.yul\":4243:4265   */\n      mstore\n        /* \"#utility.yul\":4290:4303   */\n      dup4\n      mload\n        /* \"#utility.yul\":4312:4387   */\n      tag_231\n        /* \"#utility.yul\":4290:4303   */\n      dup2\n        /* \"#utility.yul\":4374:4375   */\n      0x02\n        /* \"#utility.yul\":4366:4376   */\n      dup5\n      add\n        /* \"#utility.yul\":4359:4363   */\n      0x20\n        /* \"#utility.yul\":4347:4364   */\n      dup9\n      add\n        /* \"#utility.yul\":4312:4387   */\n      tag_184\n      jump\t// in\n    tag_231:\n        /* \"#utility.yul\":4407:4424   */\n      add\n        /* \"#utility.yul\":4426:4427   */\n      0x02\n        /* \"#utility.yul\":4403:4428   */\n      add\n      swap6\n        /* \"#utility.yul\":3435:4434   */\n      swap5\n      pop\n      pop\n      pop\n      pop\n      pop\n      jump\t// out\n        /* \"#utility.yul\":4439:4566   */\n    tag_81:\n        /* \"#utility.yul\":4500:4510   */\n      0x4e487b71\n        /* \"#utility.yul\":4495:4498   */\n      0xe0\n        /* \"#utility.yul\":4491:4511   */\n      shl\n        /* \"#utility.yul\":4488:4489   */\n      0x00\n        /* \"#utility.yul\":4481:4512   */\n      mstore\n        /* \"#utility.yul\":4531:4535   */\n      0x32\n        /* \"#utility.yul\":4528:4529   */\n      0x04\n        /* \"#utility.yul\":4521:4536   */\n      mstore\n        /* \"#utility.yul\":4555:4559   */\n      0x24\n        /* \"#utility.yul\":4552:4553   */\n      0x00\n        /* \"#utility.yul\":4545:4560   */\n      revert\n        /* \"#utility.yul\":4571:4898   */\n    tag_87:\n        /* \"#utility.yul\":4666:4670   */\n      0x00\n        /* \"#utility.yul\":4724:4735   */\n      dup3\n        /* \"#utility.yul\":4711:4736   */\n      calldataload\n        /* \"#utility.yul\":4818:4821   */\n      0x013e\n        /* \"#utility.yul\":4814:4822   */\n      not\n        /* \"#utility.yul\":4803:4811   */\n      dup4\n        /* \"#utility.yul\":4787:4801   */\n      calldatasize\n        /* \"#utility.yul\":4783:4812   */\n      sub\n        /* \"#utility.yul\":4779:4823   */\n      add\n        /* \"#utility.yul\":4759:4777   */\n      dup2\n        /* \"#utility.yul\":4755:4824   */\n      slt\n        /* \"#utility.yul\":4745:4842   */\n      tag_234\n      jumpi\n        /* \"#utility.yul\":4838:4839   */\n      0x00\n        /* \"#utility.yul\":4835:4836   */\n      dup1\n        /* \"#utility.yul\":4828:4840   */\n      revert\n        /* \"#utility.yul\":4745:4842   */\n    tag_234:\n        /* \"#utility.yul\":4859:4892   */\n      swap2\n      swap1\n      swap2\n      add\n      swap3\n        /* \"#utility.yul\":4571:4898   */\n      swap2\n      pop\n      pop\n      jump\t// out\n        /* \"#utility.yul\":5310:5437   */\n    tag_129:\n        /* \"#utility.yul\":5371:5381   */\n      0x4e487b71\n        /* \"#utility.yul\":5366:5369   */\n      0xe0\n        /* \"#utility.yul\":5362:5382   */\n      shl\n        /* \"#utility.yul\":5359:5360   */\n      0x00\n        /* \"#utility.yul\":5352:5383   */\n      mstore\n        /* \"#utility.yul\":5402:5406   */\n      0x41\n        /* \"#utility.yul\":5399:5400   */\n      0x04\n        /* \"#utility.yul\":5392:5407   */\n      mstore\n        /* \"#utility.yul\":5426:5430   */\n      0x24\n        /* \"#utility.yul\":5423:5424   */\n      0x00\n        /* \"#utility.yul\":5416:5431   */\n      revert\n        /* \"#utility.yul\":5935:6456   */\n    tag_151:\n        /* \"#utility.yul\":6012:6016   */\n      0x00\n        /* \"#utility.yul\":6018:6024   */\n      dup1\n        /* \"#utility.yul\":6078:6089   */\n      dup4\n        /* \"#utility.yul\":6065:6090   */\n      calldataload\n        /* \"#utility.yul\":6172:6174   */\n      0x1e\n        /* \"#utility.yul\":6168:6175   */\n      not\n        /* \"#utility.yul\":6157:6165   */\n      dup5\n        /* \"#utility.yul\":6141:6155   */\n      calldatasize\n        /* \"#utility.yul\":6137:6166   */\n      sub\n        /* \"#utility.yul\":6133:6176   */\n      add\n        /* \"#utility.yul\":6113:6131   */\n      dup2\n        /* \"#utility.yul\":6109:6177   */\n      slt\n        /* \"#utility.yul\":6099:6195   */\n      tag_240\n      jumpi\n        /* \"#utility.yul\":6191:6192   */\n      0x00\n        /* \"#utility.yul\":6188:6189   */\n      dup1\n        /* \"#utility.yul\":6181:6193   */\n      revert\n        /* \"#utility.yul\":6099:6195   */\n    tag_240:\n        /* \"#utility.yul\":6218:6251   */\n      dup4\n      add\n        /* \"#utility.yul\":6270:6290   */\n      dup1\n      calldataload\n      swap2\n      pop\n        /* \"#utility.yul\":6313:6331   */\n      0xffffffffffffffff\n        /* \"#utility.yul\":6302:6332   */\n      dup3\n      gt\n        /* \"#utility.yul\":6299:6349   */\n      iszero\n      tag_241\n      jumpi\n        /* \"#utility.yul\":6345:6346   */\n      0x00\n        /* \"#utility.yul\":6342:6343   */\n      dup1\n        /* \"#utility.yul\":6335:6347   */\n      revert\n        /* \"#utility.yul\":6299:6349   */\n    tag_241:\n        /* \"#utility.yul\":6378:6382   */\n      0x20\n        /* \"#utility.yul\":6366:6383   */\n      add\n      swap2\n      pop\n        /* \"#utility.yul\":6409:6423   */\n      calldatasize\n        /* \"#utility.yul\":6405:6432   */\n      dup2\n      swap1\n      sub\n        /* \"#utility.yul\":6395:6433   */\n      dup3\n      sgt\n        /* \"#utility.yul\":6392:6450   */\n      iszero\n      tag_206\n      jumpi\n        /* \"#utility.yul\":6446:6447   */\n      0x00\n        /* \"#utility.yul\":6443:6444   */\n      dup1\n        /* \"#utility.yul\":6436:6448   */\n      revert\n        /* \"#utility.yul\":6461:6632   */\n    tag_190:\n        /* \"#utility.yul\":6528:6548   */\n      dup1\n      calldataload\n        /* \"#utility.yul\":6588:6606   */\n      0xffffffffffffffff\n        /* \"#utility.yul\":6577:6607   */\n      dup2\n      and\n        /* \"#utility.yul\":6567:6608   */\n      dup2\n      eq\n        /* \"#utility.yul\":6557:6626   */\n      tag_111\n      jumpi\n        /* \"#utility.yul\":6622:6623   */\n      0x00\n        /* \"#utility.yul\":6619:6620   */\n      dup1\n        /* \"#utility.yul\":6612:6624   */\n      revert\n        /* \"#utility.yul\":6637:7940   */\n    tag_153:\n        /* \"#utility.yul\":6738:6744   */\n      0x00\n        /* \"#utility.yul\":6746:6752   */\n      dup1\n        /* \"#utility.yul\":6754:6760   */\n      0x00\n        /* \"#utility.yul\":6762:6768   */\n      dup1\n        /* \"#utility.yul\":6815:6818   */\n      0x80\n        /* \"#utility.yul\":6803:6812   */\n      dup6\n        /* \"#utility.yul\":6794:6801   */\n      dup8\n        /* \"#utility.yul\":6790:6813   */\n      sub\n        /* \"#utility.yul\":6786:6819   */\n      slt\n        /* \"#utility.yul\":6783:6836   */\n      iszero\n      tag_246\n      jumpi\n        /* \"#utility.yul\":6832:6833   */\n      0x00\n        /* \"#utility.yul\":6829:6830   */\n      dup1\n        /* \"#utility.yul\":6822:6834   */\n      revert\n        /* \"#utility.yul\":6783:6836   */\n    tag_246:\n        /* \"#utility.yul\":6871:6880   */\n      dup5\n        /* \"#utility.yul\":6858:6881   */\n      calldataload\n        /* \"#utility.yul\":6890:6921   */\n      tag_247\n        /* \"#utility.yul\":6915:6920   */\n      dup2\n        /* \"#utility.yul\":6890:6921   */\n      tag_188\n      jump\t// in\n    tag_247:\n        /* \"#utility.yul\":6940:6945   */\n      swap4\n      pop\n        /* \"#utility.yul\":6964:7001   */\n      tag_248\n        /* \"#utility.yul\":6997:6999   */\n      0x20\n        /* \"#utility.yul\":6982:7000   */\n      dup7\n      add\n        /* \"#utility.yul\":6964:7001   */\n      tag_190\n      jump\t// in\n    tag_248:\n        /* \"#utility.yul\":6954:7001   */\n      swap3\n      pop\n        /* \"#utility.yul\":7053:7055   */\n      0x40\n        /* \"#utility.yul\":7042:7051   */\n      dup6\n        /* \"#utility.yul\":7038:7056   */\n      add\n        /* \"#utility.yul\":7025:7057   */\n      calldataload\n        /* \"#utility.yul\":7101:7105   */\n      0xff\n        /* \"#utility.yul\":7092:7099   */\n      dup2\n        /* \"#utility.yul\":7088:7106   */\n      and\n        /* \"#utility.yul\":7079:7086   */\n      dup2\n        /* \"#utility.yul\":7076:7107   */\n      eq\n        /* \"#utility.yul\":7066:7125   */\n      tag_249\n      jumpi\n        /* \"#utility.yul\":7121:7122   */\n      0x00\n        /* \"#utility.yul\":7118:7119   */\n      dup1\n        /* \"#utility.yul\":7111:7123   */\n      revert\n        /* \"#utility.yul\":7066:7125   */\n    tag_249:\n        /* \"#utility.yul\":7144:7151   */\n      swap2\n      pop\n        /* \"#utility.yul\":7202:7204   */\n      0x60\n        /* \"#utility.yul\":7187:7205   */\n      dup6\n      add\n        /* \"#utility.yul\":7174:7206   */\n      calldataload\n        /* \"#utility.yul\":7225:7243   */\n      0xffffffffffffffff\n        /* \"#utility.yul\":7255:7269   */\n      dup1\n      dup3\n      gt\n        /* \"#utility.yul\":7252:7286   */\n      iszero\n      tag_250\n      jumpi\n        /* \"#utility.yul\":7282:7283   */\n      0x00\n        /* \"#utility.yul\":7279:7280   */\n      dup1\n        /* \"#utility.yul\":7272:7284   */\n      revert\n        /* \"#utility.yul\":7252:7286   */\n    tag_250:\n        /* \"#utility.yul\":7320:7326   */\n      dup2\n        /* \"#utility.yul\":7309:7318   */\n      dup8\n        /* \"#utility.yul\":7305:7327   */\n      add\n        /* \"#utility.yul\":7295:7327   */\n      swap2\n      pop\n        /* \"#utility.yul\":7365:7372   */\n      dup8\n        /* \"#utility.yul\":7358:7362   */\n      0x1f\n        /* \"#utility.yul\":7354:7356   */\n      dup4\n        /* \"#utility.yul\":7350:7363   */\n      add\n        /* \"#utility.yul\":7346:7373   */\n      slt\n        /* \"#utility.yul\":7336:7391   */\n      tag_251\n      jumpi\n        /* \"#utility.yul\":7387:7388   */\n      0x00\n        /* \"#utility.yul\":7384:7385   */\n      dup1\n        /* \"#utility.yul\":7377:7389   */\n      revert\n        /* \"#utility.yul\":7336:7391   */\n    tag_251:\n        /* \"#utility.yul\":7423:7425   */\n      dup2\n        /* \"#utility.yul\":7410:7426   */\n      calldataload\n        /* \"#utility.yul\":7445:7447   */\n      dup2\n        /* \"#utility.yul\":7441:7443   */\n      dup2\n        /* \"#utility.yul\":7438:7448   */\n      gt\n        /* \"#utility.yul\":7435:7471   */\n      iszero\n      tag_253\n      jumpi\n        /* \"#utility.yul\":7451:7469   */\n      tag_253\n      tag_129\n      jump\t// in\n    tag_253:\n        /* \"#utility.yul\":7526:7528   */\n      0x40\n        /* \"#utility.yul\":7520:7529   */\n      mload\n        /* \"#utility.yul\":7494:7496   */\n      0x1f\n        /* \"#utility.yul\":7580:7593   */\n      dup3\n      add\n      not(0x1f)\n        /* \"#utility.yul\":7576:7598   */\n      swap1\n      dup2\n      and\n        /* \"#utility.yul\":7600:7602   */\n      0x3f\n        /* \"#utility.yul\":7572:7603   */\n      add\n        /* \"#utility.yul\":7568:7608   */\n      and\n        /* \"#utility.yul\":7556:7609   */\n      dup2\n      add\n      swap1\n        /* \"#utility.yul\":7624:7642   */\n      dup4\n      dup3\n      gt\n        /* \"#utility.yul\":7644:7666   */\n      dup2\n      dup4\n      lt\n        /* \"#utility.yul\":7621:7667   */\n      or\n        /* \"#utility.yul\":7618:7690   */\n      iszero\n      tag_255\n      jumpi\n        /* \"#utility.yul\":7670:7688   */\n      tag_255\n      tag_129\n      jump\t// in\n    tag_255:\n        /* \"#utility.yul\":7710:7720   */\n      dup2\n        /* \"#utility.yul\":7706:7708   */\n      0x40\n        /* \"#utility.yul\":7699:7721   */\n      mstore\n        /* \"#utility.yul\":7745:7747   */\n      dup3\n        /* \"#utility.yul\":7737:7743   */\n      dup2\n        /* \"#utility.yul\":7730:7748   */\n      mstore\n        /* \"#utility.yul\":7785:7792   */\n      dup11\n        /* \"#utility.yul\":7780:7782   */\n      0x20\n        /* \"#utility.yul\":7775:7777   */\n      dup5\n        /* \"#utility.yul\":7771:7773   */\n      dup8\n        /* \"#utility.yul\":7767:7778   */\n      add\n        /* \"#utility.yul\":7763:7783   */\n      add\n        /* \"#utility.yul\":7760:7793   */\n      gt\n        /* \"#utility.yul\":7757:7810   */\n      iszero\n      tag_256\n      jumpi\n        /* \"#utility.yul\":7806:7807   */\n      0x00\n        /* \"#utility.yul\":7803:7804   */\n      dup1\n        /* \"#utility.yul\":7796:7808   */\n      revert\n        /* \"#utility.yul\":7757:7810   */\n    tag_256:\n        /* \"#utility.yul\":7862:7864   */\n      dup3\n        /* \"#utility.yul\":7857:7859   */\n      0x20\n        /* \"#utility.yul\":7853:7855   */\n      dup7\n        /* \"#utility.yul\":7849:7860   */\n      add\n        /* \"#utility.yul\":7844:7846   */\n      0x20\n        /* \"#utility.yul\":7836:7842   */\n      dup4\n        /* \"#utility.yul\":7832:7847   */\n      add\n        /* \"#utility.yul\":7819:7865   */\n      calldatacopy\n        /* \"#utility.yul\":7907:7908   */\n      0x00\n        /* \"#utility.yul\":7902:7904   */\n      0x20\n        /* \"#utility.yul\":7897:7899   */\n      dup5\n        /* \"#utility.yul\":7889:7895   */\n      dup4\n        /* \"#utility.yul\":7885:7900   */\n      add\n        /* \"#utility.yul\":7881:7905   */\n      add\n        /* \"#utility.yul\":7874:7909   */\n      mstore\n        /* \"#utility.yul\":7928:7934   */\n      dup1\n        /* \"#utility.yul\":7918:7934   */\n      swap6\n      pop\n      pop\n      pop\n      pop\n      pop\n      pop\n        /* \"#utility.yul\":6637:7940   */\n      swap3\n      swap6\n      swap2\n      swap5\n      pop\n      swap3\n      pop\n      jump\t// out\n        /* \"#utility.yul\":8412:8530   */\n    tag_192:\n        /* \"#utility.yul\":8498:8503   */\n      dup1\n        /* \"#utility.yul\":8491:8504   */\n      iszero\n        /* \"#utility.yul\":8484:8505   */\n      iszero\n        /* \"#utility.yul\":8477:8482   */\n      dup2\n        /* \"#utility.yul\":8474:8506   */\n      eq\n        /* \"#utility.yul\":8464:8524   */\n      tag_123\n      jumpi\n        /* \"#utility.yul\":8520:8521   */\n      0x00\n        /* \"#utility.yul\":8517:8518   */\n      dup1\n        /* \"#utility.yul\":8510:8522   */\n      revert\n        /* \"#utility.yul\":8535:8663   */\n    tag_193:\n        /* \"#utility.yul\":8600:8620   */\n      dup1\n      calldataload\n        /* \"#utility.yul\":8629:8657   */\n      tag_111\n        /* \"#utility.yul\":8600:8620   */\n      dup2\n        /* \"#utility.yul\":8629:8657   */\n      tag_192\n      jump\t// in\n        /* \"#utility.yul\":8668:9168   */\n    tag_194:\n        /* \"#utility.yul\":8726:8731   */\n      0x00\n        /* \"#utility.yul\":8733:8739   */\n      dup1\n        /* \"#utility.yul\":8793:8796   */\n      dup4\n        /* \"#utility.yul\":8780:8797   */\n      calldataload\n        /* \"#utility.yul\":8879:8881   */\n      0x1e\n        /* \"#utility.yul\":8875:8882   */\n      not\n        /* \"#utility.yul\":8864:8872   */\n      dup5\n        /* \"#utility.yul\":8848:8862   */\n      calldatasize\n        /* \"#utility.yul\":8844:8873   */\n      sub\n        /* \"#utility.yul\":8840:8883   */\n      add\n        /* \"#utility.yul\":8820:8838   */\n      dup2\n        /* \"#utility.yul\":8816:8884   */\n      slt\n        /* \"#utility.yul\":8806:8902   */\n      tag_264\n      jumpi\n        /* \"#utility.yul\":8898:8899   */\n      0x00\n        /* \"#utility.yul\":8895:8896   */\n      dup1\n        /* \"#utility.yul\":8888:8900   */\n      revert\n        /* \"#utility.yul\":8806:8902   */\n    tag_264:\n        /* \"#utility.yul\":8926:8959   */\n      dup4\n      add\n        /* \"#utility.yul\":9030:9034   */\n      0x20\n        /* \"#utility.yul\":9017:9035   */\n      dup2\n      add\n      swap3\n      pop\n        /* \"#utility.yul\":8978:8999   */\n      calldataload\n      swap1\n      pop\n        /* \"#utility.yul\":9058:9076   */\n      0xffffffffffffffff\n        /* \"#utility.yul\":9047:9077   */\n      dup2\n      gt\n        /* \"#utility.yul\":9044:9094   */\n      iszero\n      tag_265\n      jumpi\n        /* \"#utility.yul\":9090:9091   */\n      0x00\n        /* \"#utility.yul\":9087:9088   */\n      dup1\n        /* \"#utility.yul\":9080:9092   */\n      revert\n        /* \"#utility.yul\":9044:9094   */\n    tag_265:\n        /* \"#utility.yul\":9137:9143   */\n      dup1\n        /* \"#utility.yul\":9121:9135   */\n      calldatasize\n        /* \"#utility.yul\":9117:9144   */\n      sub\n        /* \"#utility.yul\":9110:9115   */\n      dup3\n        /* \"#utility.yul\":9106:9145   */\n      sgt\n        /* \"#utility.yul\":9103:9162   */\n      iszero\n      tag_206\n      jumpi\n        /* \"#utility.yul\":9158:9159   */\n      0x00\n        /* \"#utility.yul\":9155:9156   */\n      dup1\n        /* \"#utility.yul\":9148:9160   */\n      revert\n        /* \"#utility.yul\":9173:9439   */\n    tag_195:\n        /* \"#utility.yul\":9261:9267   */\n      dup2\n        /* \"#utility.yul\":9256:9259   */\n      dup4\n        /* \"#utility.yul\":9249:9268   */\n      mstore\n        /* \"#utility.yul\":9313:9319   */\n      dup2\n        /* \"#utility.yul\":9306:9311   */\n      dup2\n        /* \"#utility.yul\":9299:9303   */\n      0x20\n        /* \"#utility.yul\":9294:9297   */\n      dup6\n        /* \"#utility.yul\":9290:9304   */\n      add\n        /* \"#utility.yul\":9277:9320   */\n      calldatacopy\n      pop\n        /* \"#utility.yul\":9365:9366   */\n      0x00\n        /* \"#utility.yul\":9340:9356   */\n      dup3\n      dup3\n      add\n        /* \"#utility.yul\":9358:9362   */\n      0x20\n        /* \"#utility.yul\":9336:9363   */\n      swap1\n      dup2\n      add\n        /* \"#utility.yul\":9329:9367   */\n      swap2\n      swap1\n      swap2\n      mstore\n        /* \"#utility.yul\":9421:9423   */\n      0x1f\n        /* \"#utility.yul\":9400:9415   */\n      swap1\n      swap2\n      add\n      not(0x1f)\n        /* \"#utility.yul\":9396:9425   */\n      and\n        /* \"#utility.yul\":9387:9426   */\n      swap1\n      swap2\n      add\n        /* \"#utility.yul\":9383:9433   */\n      add\n      swap1\n        /* \"#utility.yul\":9173:9439   */\n      jump\t// out\n        /* \"#utility.yul\":9444:10894   */\n    tag_158:\n        /* \"#utility.yul\":9629:9631   */\n      0x20\n        /* \"#utility.yul\":9618:9627   */\n      dup2\n        /* \"#utility.yul\":9611:9632   */\n      mstore\n        /* \"#utility.yul\":9681:9687   */\n      dup2\n        /* \"#utility.yul\":9668:9688   */\n      calldataload\n        /* \"#utility.yul\":9663:9665   */\n      0x20\n        /* \"#utility.yul\":9652:9661   */\n      dup3\n        /* \"#utility.yul\":9648:9666   */\n      add\n        /* \"#utility.yul\":9641:9689   */\n      mstore\n        /* \"#utility.yul\":9750:9752   */\n      0x20\n        /* \"#utility.yul\":9742:9748   */\n      dup3\n        /* \"#utility.yul\":9738:9753   */\n      add\n        /* \"#utility.yul\":9725:9754   */\n      calldataload\n        /* \"#utility.yul\":9720:9722   */\n      0x40\n        /* \"#utility.yul\":9709:9718   */\n      dup3\n        /* \"#utility.yul\":9705:9723   */\n      add\n        /* \"#utility.yul\":9698:9755   */\n      mstore\n        /* \"#utility.yul\":9592:9596   */\n      0x00\n        /* \"#utility.yul\":9784:9818   */\n      tag_269\n        /* \"#utility.yul\":9814:9816   */\n      0x40\n        /* \"#utility.yul\":9806:9812   */\n      dup5\n        /* \"#utility.yul\":9802:9817   */\n      add\n        /* \"#utility.yul\":9784:9818   */\n      tag_190\n      jump\t// in\n    tag_269:\n        /* \"#utility.yul\":8381:8399   */\n      0xffffffffffffffff\n        /* \"#utility.yul\":8370:8400   */\n      dup2\n      and\n        /* \"#utility.yul\":9874:9876   */\n      0x60\n        /* \"#utility.yul\":9859:9877   */\n      dup5\n      add\n        /* \"#utility.yul\":8358:8401   */\n      mstore\n        /* \"#utility.yul\":9827:9878   */\n      pop\n        /* \"#utility.yul\":9909:9943   */\n      tag_271\n        /* \"#utility.yul\":9939:9941   */\n      0x60\n        /* \"#utility.yul\":9931:9937   */\n      dup5\n        /* \"#utility.yul\":9927:9942   */\n      add\n        /* \"#utility.yul\":9909:9943   */\n      tag_190\n      jump\t// in\n    tag_271:\n        /* \"#utility.yul\":8381:8399   */\n      0xffffffffffffffff\n        /* \"#utility.yul\":8370:8400   */\n      dup2\n      and\n        /* \"#utility.yul\":10001:10004   */\n      0x80\n        /* \"#utility.yul\":9986:10005   */\n      dup5\n      add\n        /* \"#utility.yul\":8358:8401   */\n      mstore\n        /* \"#utility.yul\":9952:10006   */\n      pop\n        /* \"#utility.yul\":10037:10072   */\n      tag_273\n        /* \"#utility.yul\":10067:10070   */\n      0x80\n        /* \"#utility.yul\":10059:10065   */\n      dup5\n        /* \"#utility.yul\":10055:10071   */\n      add\n        /* \"#utility.yul\":10037:10072   */\n      tag_190\n      jump\t// in\n    tag_273:\n        /* \"#utility.yul\":8381:8399   */\n      0xffffffffffffffff\n        /* \"#utility.yul\":8370:8400   */\n      dup2\n      and\n        /* \"#utility.yul\":10130:10133   */\n      0xa0\n        /* \"#utility.yul\":10115:10134   */\n      dup5\n      add\n        /* \"#utility.yul\":8358:8401   */\n      mstore\n        /* \"#utility.yul\":10081:10135   */\n      pop\n        /* \"#utility.yul\":10197:10200   */\n      0xa0\n        /* \"#utility.yul\":10189:10195   */\n      dup4\n        /* \"#utility.yul\":10185:10201   */\n      add\n        /* \"#utility.yul\":10172:10202   */\n      calldataload\n        /* \"#utility.yul\":10166:10169   */\n      0xc0\n        /* \"#utility.yul\":10155:10164   */\n      dup4\n        /* \"#utility.yul\":10151:10170   */\n      add\n        /* \"#utility.yul\":10144:10203   */\n      mstore\n        /* \"#utility.yul\":10234:10270   */\n      tag_275\n        /* \"#utility.yul\":10265:10268   */\n      0xc0\n        /* \"#utility.yul\":10257:10263   */\n      dup5\n        /* \"#utility.yul\":10253:10269   */\n      add\n        /* \"#utility.yul\":10234:10270   */\n      tag_189\n      jump\t// in\n    tag_275:\n      sub(shl(0xa0, 0x01), 0x01)\n        /* \"#utility.yul\":2263:2294   */\n      dup2\n      and\n        /* \"#utility.yul\":10329:10332   */\n      0xe0\n        /* \"#utility.yul\":10314:10333   */\n      dup5\n      add\n        /* \"#utility.yul\":2251:2295   */\n      mstore\n        /* \"#utility.yul\":10279:10334   */\n      pop\n        /* \"#utility.yul\":10365:10401   */\n      tag_277\n        /* \"#utility.yul\":10396:10399   */\n      0xe0\n        /* \"#utility.yul\":10388:10394   */\n      dup5\n        /* \"#utility.yul\":10384:10400   */\n      add\n        /* \"#utility.yul\":10365:10401   */\n      tag_189\n      jump\t// in\n    tag_277:\n        /* \"#utility.yul\":10420:10423   */\n      0x0100\n        /* \"#utility.yul\":10432:10486   */\n      tag_278\n        /* \"#utility.yul\":10482:10484   */\n      dup2\n        /* \"#utility.yul\":10471:10480   */\n      dup6\n        /* \"#utility.yul\":10467:10485   */\n      add\n        /* \"#utility.yul\":10451:10465   */\n      dup4\n      sub(shl(0xa0, 0x01), 0x01)\n        /* \"#utility.yul\":2263:2294   */\n      and\n        /* \"#utility.yul\":2251:2295   */\n      swap1\n      mstore\n        /* \"#utility.yul\":2197:2301   */\n      jump\n        /* \"#utility.yul\":10432:10486   */\n    tag_278:\n        /* \"#utility.yul\":10517:10549   */\n      tag_279\n        /* \"#utility.yul\":10545:10547   */\n      dup2\n        /* \"#utility.yul\":10537:10543   */\n      dup7\n        /* \"#utility.yul\":10533:10548   */\n      add\n        /* \"#utility.yul\":10517:10549   */\n      tag_193\n      jump\t// in\n    tag_279:\n        /* \"#utility.yul\":10495:10549   */\n      swap2\n      pop\n      pop\n        /* \"#utility.yul\":10568:10571   */\n      0x0120\n        /* \"#utility.yul\":10580:10631   */\n      tag_280\n        /* \"#utility.yul\":10627:10629   */\n      dup2\n        /* \"#utility.yul\":10616:10625   */\n      dup6\n        /* \"#utility.yul\":10612:10630   */\n      add\n        /* \"#utility.yul\":10596:10610   */\n      dup4\n        /* \"#utility.yul\":1979:1992   */\n      iszero\n        /* \"#utility.yul\":1972:1993   */\n      iszero\n        /* \"#utility.yul\":1960:1994   */\n      swap1\n      mstore\n        /* \"#utility.yul\":1909:2000   */\n      jump\n        /* \"#utility.yul\":10580:10631   */\n    tag_280:\n        /* \"#utility.yul\":10676:10731   */\n      tag_281\n        /* \"#utility.yul\":10727:10729   */\n      dup2\n        /* \"#utility.yul\":10719:10725   */\n      dup7\n        /* \"#utility.yul\":10715:10730   */\n      add\n        /* \"#utility.yul\":10707:10713   */\n      dup7\n        /* \"#utility.yul\":10676:10731   */\n      tag_194\n      jump\t// in\n    tag_281:\n        /* \"#utility.yul\":10750:10756   */\n      0x0140\n        /* \"#utility.yul\":10772:10790   */\n      dup7\n      dup2\n      add\n        /* \"#utility.yul\":10765:10795   */\n      mstore\n        /* \"#utility.yul\":10640:10731   */\n      swap3\n      pop\n      swap1\n      pop\n        /* \"#utility.yul\":10812:10888   */\n      tag_282\n        /* \"#utility.yul\":10883:10886   */\n      0x0160\n        /* \"#utility.yul\":10868:10887   */\n      dup6\n      add\n        /* \"#utility.yul\":10640:10731   */\n      dup4\n      dup4\n        /* \"#utility.yul\":10812:10888   */\n      tag_195\n      jump\t// in\n    tag_282:\n        /* \"#utility.yul\":10804:10888   */\n      swap6\n        /* \"#utility.yul\":9444:10894   */\n      swap5\n      pop\n      pop\n      pop\n      pop\n      pop\n      jump\t// out\n        /* \"#utility.yul\":10899:11144   */\n    tag_162:\n        /* \"#utility.yul\":10966:10972   */\n      0x00\n        /* \"#utility.yul\":11019:11021   */\n      0x20\n        /* \"#utility.yul\":11007:11016   */\n      dup3\n        /* \"#utility.yul\":10998:11005   */\n      dup5\n        /* \"#utility.yul\":10994:11017   */\n      sub\n        /* \"#utility.yul\":10990:11022   */\n      slt\n        /* \"#utility.yul\":10987:11039   */\n      iszero\n      tag_284\n      jumpi\n        /* \"#utility.yul\":11035:11036   */\n      0x00\n        /* \"#utility.yul\":11032:11033   */\n      dup1\n        /* \"#utility.yul\":11025:11037   */\n      revert\n        /* \"#utility.yul\":10987:11039   */\n    tag_284:\n        /* \"#utility.yul\":11067:11076   */\n      dup2\n        /* \"#utility.yul\":11061:11077   */\n      mload\n        /* \"#utility.yul\":11086:11114   */\n      tag_220\n        /* \"#utility.yul\":11108:11113   */\n      dup2\n        /* \"#utility.yul\":11086:11114   */\n      tag_192\n      jump\t// in\n\n    auxdata: 0xa264697066735822122059404b10e5f23de071e9edaf340713c73416b9a1592cb9eee7c01078d8090e4664736f6c63430008130033\n}\n",
				"bytecode": {
					"linkReferences": {},
					"object": "61010060405234801561001157600080fd5b50604051610e23380380610e23833981016040819052610030916100d4565b80600160008061003f33610084565b60809290925260a05260c0526001600160a01b038116610072576040516341bc07ff60e11b815260040160405180910390fd5b6001600160a01b031660e05250610104565b600080546001600160a01b038381166001600160a01b0319831681178455604051919092169283917f8be0079c531659141344cd1fd0a4f28419497f9722a3daafe3b4186f6b6457e09190a35050565b6000602082840312156100e657600080fd5b81516001600160a01b03811681146100fd57600080fd5b9392505050565b60805160a05160c05160e051610ce661013d6000396000610584015260006101e9015260006101c0015260006101970152610ce66000f3fe60806040526004361061008a5760003560e01c806391db0b7e1161005957806391db0b7e14610123578063ce46e04614610136578063e49617e11461014a578063e60c35051461015d578063f2fde38b1461017057600080fd5b806354fd4d5014610098578063715018a6146100c357806388e5b2d9146100d85780638da5cb5b146100fb57600080fd5b3661009357005b005b600080fd5b3480156100a457600080fd5b506100ad610190565b6040516100ba91906107a9565b60405180910390f35b3480156100cf57600080fd5b50610091610233565b6100eb6100e6366004610828565b610247565b60405190151581526020016100ba565b34801561010757600080fd5b506000546040516001600160a01b0390911681526020016100ba565b6100eb610131366004610828565b6102f6565b34801561014257600080fd5b5060016100eb565b6100eb610158366004610894565b610395565b6100eb61016b366004610894565b6103aa565b34801561017c57600080fd5b5061009161018b3660046108f7565b6103be565b60606101bb7f000000000000000000000000000000000000000000000000000000000000000061043c565b6101e47f000000000000000000000000000000000000000000000000000000000000000061043c565b61020d7f000000000000000000000000000000000000000000000000000000000000000061043c565b60405160200161021f93929190610914565b604051602081830303815290604052905090565b61023b6104cf565b6102456000610529565b565b6000610251610579565b833460005b828110156102e65760008686838181106102725761027261096e565b9050602002013590508281111561029c5760405163044044a560e21b815260040160405180910390fd5b6102c98989848181106102b1576102b161096e565b90506020028101906102c39190610984565b50600190565b6102da5760009450505050506102ee565b90910390600101610256565b506001925050505b949350505050565b6000610300610579565b833460005b828110156102e65760008686838181106103215761032161096e565b9050602002013590508281111561034b5760405163044044a560e21b815260040160405180910390fd5b6103788989848181106103605761036061096e565b90506020028101906103729190610984565b826105c2565b6103895760009450505050506102ee565b90910390600101610305565b600061039f610579565b60015b90505b919050565b60006103b4610579565b6103a282346105c2565b6103c66104cf565b6001600160a01b0381166104305760405162461bcd60e51b815260206004820152602660248201527f4f776e61626c653a206e6577206f776e657220697320746865207a65726f206160448201526564647265737360d01b60648201526084015b60405180910390fd5b61043981610529565b50565b60606000610449836106ac565b600101905060008167ffffffffffffffff811115610469576104696109a5565b6040519080825280601f01601f191660200182016040528015610493576020820181803683370190505b5090508181016020015b600019016f181899199a1a9b1b9c1cb0b131b232b360811b600a86061a8153600a850494508461049d57509392505050565b6000546001600160a01b031633146102455760405162461bcd60e51b815260206004820181905260248201527f4f776e61626c653a2063616c6c6572206973206e6f7420746865206f776e65726044820152606401610427565b600080546001600160a01b038381166001600160a01b0319831681178455604051919092169283917f8be0079c531659141344cd1fd0a4f28419497f9722a3daafe3b4186f6b6457e09190a35050565b336001600160a01b037f0000000000000000000000000000000000000000000000000000000000000000161461024557604051634ca8886760e01b815260040160405180910390fd5b6000806105d36101208501856109bb565b8101906105e09190610a1a565b50919250506001600160a01b038216905061063d5760405162461bcd60e51b815260206004820152601f60248201527f436f6e747269627574696f6e2070726f6a656374206e6f7420666f756e642e006044820152606401610427565b604051638ac014d760e01b81526001600160a01b03821690638ac014d790610669908790600401610b8f565b6020604051808303816000875af1158015610688573d6000803e3d6000fd5b505050506040513d601f19601f820116820180604052508101906102ee9190610c93565b60008072184f03e93ff9f4daa797ed6e38ed64bf6a1f0160401b83106106eb5772184f03e93ff9f4daa797ed6e38ed64bf6a1f0160401b830492506040015b6d04ee2d6d415b85acef81000000008310610717576d04ee2d6d415b85acef8100000000830492506020015b662386f26fc10000831061073557662386f26fc10000830492506010015b6305f5e100831061074d576305f5e100830492506008015b612710831061076157612710830492506004015b60648310610773576064830492506002015b600a831061077f576001015b92915050565b60005b838110156107a0578181015183820152602001610788565b50506000910152565b60208152600082518060208401526107c8816040850160208701610785565b601f01601f19169190910160400192915050565b60008083601f8401126107ee57600080fd5b50813567ffffffffffffffff81111561080657600080fd5b6020830191508360208260051b850101111561082157600080fd5b9250929050565b6000806000806040858703121561083e57600080fd5b843567ffffffffffffffff8082111561085657600080fd5b610862888389016107dc565b9096509450602087013591508082111561087b57600080fd5b50610888878288016107dc565b95989497509550505050565b6000602082840312156108a657600080fd5b813567ffffffffffffffff8111156108bd57600080fd5b820161014081850312156108d057600080fd5b9392505050565b6001600160a01b038116811461043957600080fd5b80356103a5816108d7565b60006020828403121561090957600080fd5b81356108d0816108d7565b60008451610926818460208901610785565b8083019050601760f91b8082528551610946816001850160208a01610785565b60019201918201528351610961816002840160208801610785565b0160020195945050505050565b634e487b7160e01b600052603260045260246000fd5b6000823561013e1983360301811261099b57600080fd5b9190910192915050565b634e487b7160e01b600052604160045260246000fd5b6000808335601e198436030181126109d257600080fd5b83018035915067ffffffffffffffff8211156109ed57600080fd5b60200191503681900382131561082157600080fd5b803567ffffffffffffffff811681146103a557600080fd5b60008060008060808587031215610a3057600080fd5b8435610a3b816108d7565b9350610a4960208601610a02565b9250604085013560ff81168114610a5f57600080fd5b9150606085013567ffffffffffffffff80821115610a7c57600080fd5b818701915087601f830112610a9057600080fd5b813581811115610aa257610aa26109a5565b604051601f8201601f19908116603f01168101908382118183101715610aca57610aca6109a5565b816040528281528a6020848701011115610ae357600080fd5b82602086016020830137600060208483010152809550505050505092959194509250565b801515811461043957600080fd5b80356103a581610b07565b6000808335601e19843603018112610b3757600080fd5b830160208101925035905067ffffffffffffffff811115610b5757600080fd5b80360382131561082157600080fd5b81835281816020850137506000828201602090810191909152601f909101601f19169091010190565b6020815281356020820152602082013560408201526000610bb260408401610a02565b67ffffffffffffffff8116606084015250610bcf60608401610a02565b67ffffffffffffffff8116608084015250610bec60808401610a02565b67ffffffffffffffff811660a08401525060a083013560c0830152610c1360c084016108ec565b6001600160a01b03811660e084015250610c2f60e084016108ec565b610100610c46818501836001600160a01b03169052565b610c51818601610b15565b915050610120610c648185018315159052565b610c7081860186610b20565b6101408681015292509050610c8a61016085018383610b66565b95945050505050565b600060208284031215610ca557600080fd5b81516108d081610b0756fea264697066735822122059404b10e5f23de071e9edaf340713c73416b9a1592cb9eee7c01078d8090e4664736f6c63430008130033",
					"opcodes": "PUSH2 0x100 PUSH1 0x40 MSTORE CALLVALUE DUP1 ISZERO PUSH2 0x11 JUMPI PUSH1 0x0 DUP1 REVERT JUMPDEST POP PUSH1 0x40 MLOAD PUSH2 0xE23 CODESIZE SUB DUP1 PUSH2 0xE23 DUP4 CODECOPY DUP2 ADD PUSH1 0x40 DUP2 SWAP1 MSTORE PUSH2 0x30 SWAP2 PUSH2 0xD4 JUMP JUMPDEST DUP1 PUSH1 0x1 PUSH1 0x0 DUP1 PUSH2 0x3F CALLER PUSH2 0x84 JUMP JUMPDEST PUSH1 0x80 SWAP3 SWAP1 SWAP3 MSTORE PUSH1 0xA0 MSTORE PUSH1 0xC0 MSTORE PUSH1 0x1 PUSH1 0x1 PUSH1 0xA0 SHL SUB DUP2 AND PUSH2 0x72 JUMPI PUSH1 0x40 MLOAD PUSH4 0x41BC07FF PUSH1 0xE1 SHL DUP2 MSTORE PUSH1 0x4 ADD PUSH1 0x40 MLOAD DUP1 SWAP2 SUB SWAP1 REVERT JUMPDEST PUSH1 0x1 PUSH1 0x1 PUSH1 0xA0 SHL SUB AND PUSH1 0xE0 MSTORE POP PUSH2 0x104 JUMP JUMPDEST PUSH1 0x0 DUP1 SLOAD PUSH1 0x1 PUSH1 0x1 PUSH1 0xA0 SHL SUB DUP4 DUP2 AND PUSH1 0x1 PUSH1 0x1 PUSH1 0xA0 SHL SUB NOT DUP4 AND DUP2 OR DUP5 SSTORE PUSH1 0x40 MLOAD SWAP2 SWAP1 SWAP3 AND SWAP3 DUP4 SWAP2 PUSH32 0x8BE0079C531659141344CD1FD0A4F28419497F9722A3DAAFE3B4186F6B6457E0 SWAP2 SWAP1 LOG3 POP POP JUMP JUMPDEST PUSH1 0x0 PUSH1 0x20 DUP3 DUP5 SUB SLT ISZERO PUSH2 0xE6 JUMPI PUSH1 0x0 DUP1 REVERT JUMPDEST DUP2 MLOAD PUSH1 0x1 PUSH1 0x1 PUSH1 0xA0 SHL SUB DUP2 AND DUP2 EQ PUSH2 0xFD JUMPI PUSH1 0x0 DUP1 REVERT JUMPDEST SWAP4 SWAP3 POP POP POP JUMP JUMPDEST PUSH1 0x80 MLOAD PUSH1 0xA0 MLOAD PUSH1 0xC0 MLOAD PUSH1 0xE0 MLOAD PUSH2 0xCE6 PUSH2 0x13D PUSH1 0x0 CODECOPY PUSH1 0x0 PUSH2 0x584 ADD MSTORE PUSH1 0x0 PUSH2 0x1E9 ADD MSTORE PUSH1 0x0 PUSH2 0x1C0 ADD MSTORE PUSH1 0x0 PUSH2 0x197 ADD MSTORE PUSH2 0xCE6 PUSH1 0x0 RETURN INVALID PUSH1 0x80 PUSH1 0x40 MSTORE PUSH1 0x4 CALLDATASIZE LT PUSH2 0x8A JUMPI PUSH1 0x0 CALLDATALOAD PUSH1 0xE0 SHR DUP1 PUSH4 0x91DB0B7E GT PUSH2 0x59 JUMPI DUP1 PUSH4 0x91DB0B7E EQ PUSH2 0x123 JUMPI DUP1 PUSH4 0xCE46E046 EQ PUSH2 0x136 JUMPI DUP1 PUSH4 0xE49617E1 EQ PUSH2 0x14A JUMPI DUP1 PUSH4 0xE60C3505 EQ PUSH2 0x15D JUMPI DUP1 PUSH4 0xF2FDE38B EQ PUSH2 0x170 JUMPI PUSH1 0x0 DUP1 REVERT JUMPDEST DUP1 PUSH4 0x54FD4D50 EQ PUSH2 0x98 JUMPI DUP1 PUSH4 0x715018A6 EQ PUSH2 0xC3 JUMPI DUP1 PUSH4 0x88E5B2D9 EQ PUSH2 0xD8 JUMPI DUP1 PUSH4 0x8DA5CB5B EQ PUSH2 0xFB JUMPI PUSH1 0x0 DUP1 REVERT JUMPDEST CALLDATASIZE PUSH2 0x93 JUMPI STOP JUMPDEST STOP JUMPDEST PUSH1 0x0 DUP1 REVERT JUMPDEST CALLVALUE DUP1 ISZERO PUSH2 0xA4 JUMPI PUSH1 0x0 DUP1 REVERT JUMPDEST POP PUSH2 0xAD PUSH2 0x190 JUMP JUMPDEST PUSH1 0x40 MLOAD PUSH2 0xBA SWAP2 SWAP1 PUSH2 0x7A9 JUMP JUMPDEST PUSH1 0x40 MLOAD DUP1 SWAP2 SUB SWAP1 RETURN JUMPDEST CALLVALUE DUP1 ISZERO PUSH2 0xCF JUMPI PUSH1 0x0 DUP1 REVERT JUMPDEST POP PUSH2 0x91 PUSH2 0x233 JUMP JUMPDEST PUSH2 0xEB PUSH2 0xE6 CALLDATASIZE PUSH1 0x4 PUSH2 0x828 JUMP JUMPDEST PUSH2 0x247 JUMP JUMPDEST PUSH1 0x40 MLOAD SWAP1 ISZERO ISZERO DUP2 MSTORE PUSH1 0x20 ADD PUSH2 0xBA JUMP JUMPDEST CALLVALUE DUP1 ISZERO PUSH2 0x107 JUMPI PUSH1 0x0 DUP1 REVERT JUMPDEST POP PUSH1 0x0 SLOAD PUSH1 0x40 MLOAD PUSH1 0x1 PUSH1 0x1 PUSH1 0xA0 SHL SUB SWAP1 SWAP2 AND DUP2 MSTORE PUSH1 0x20 ADD PUSH2 0xBA JUMP JUMPDEST PUSH2 0xEB PUSH2 0x131 CALLDATASIZE PUSH1 0x4 PUSH2 0x828 JUMP JUMPDEST PUSH2 0x2F6 JUMP JUMPDEST CALLVALUE DUP1 ISZERO PUSH2 0x142 JUMPI PUSH1 0x0 DUP1 REVERT JUMPDEST POP PUSH1 0x1 PUSH2 0xEB JUMP JUMPDEST PUSH2 0xEB PUSH2 0x158 CALLDATASIZE PUSH1 0x4 PUSH2 0x894 JUMP JUMPDEST PUSH2 0x395 JUMP JUMPDEST PUSH2 0xEB PUSH2 0x16B CALLDATASIZE PUSH1 0x4 PUSH2 0x894 JUMP JUMPDEST PUSH2 0x3AA JUMP JUMPDEST CALLVALUE DUP1 ISZERO PUSH2 0x17C JUMPI PUSH1 0x0 DUP1 REVERT JUMPDEST POP PUSH2 0x91 PUSH2 0x18B CALLDATASIZE PUSH1 0x4 PUSH2 0x8F7 JUMP JUMPDEST PUSH2 0x3BE JUMP JUMPDEST PUSH1 0x60 PUSH2 0x1BB PUSH32 0x0 PUSH2 0x43C JUMP JUMPDEST PUSH2 0x1E4 PUSH32 0x0 PUSH2 0x43C JUMP JUMPDEST PUSH2 0x20D PUSH32 0x0 PUSH2 0x43C JUMP JUMPDEST PUSH1 0x40 MLOAD PUSH1 0x20 ADD PUSH2 0x21F SWAP4 SWAP3 SWAP2 SWAP1 PUSH2 0x914 JUMP JUMPDEST PUSH1 0x40 MLOAD PUSH1 0x20 DUP2 DUP4 SUB SUB DUP2 MSTORE SWAP1 PUSH1 0x40 MSTORE SWAP1 POP SWAP1 JUMP JUMPDEST PUSH2 0x23B PUSH2 0x4CF JUMP JUMPDEST PUSH2 0x245 PUSH1 0x0 PUSH2 0x529 JUMP JUMPDEST JUMP JUMPDEST PUSH1 0x0 PUSH2 0x251 PUSH2 0x579 JUMP JUMPDEST DUP4 CALLVALUE PUSH1 0x0 JUMPDEST DUP3 DUP2 LT ISZERO PUSH2 0x2E6 JUMPI PUSH1 0x0 DUP7 DUP7 DUP4 DUP2 DUP2 LT PUSH2 0x272 JUMPI PUSH2 0x272 PUSH2 0x96E JUMP JUMPDEST SWAP1 POP PUSH1 0x20 MUL ADD CALLDATALOAD SWAP1 POP DUP3 DUP2 GT ISZERO PUSH2 0x29C JUMPI PUSH1 0x40 MLOAD PUSH4 0x44044A5 PUSH1 0xE2 SHL DUP2 MSTORE PUSH1 0x4 ADD PUSH1 0x40 MLOAD DUP1 SWAP2 SUB SWAP1 REVERT JUMPDEST PUSH2 0x2C9 DUP10 DUP10 DUP5 DUP2 DUP2 LT PUSH2 0x2B1 JUMPI PUSH2 0x2B1 PUSH2 0x96E JUMP JUMPDEST SWAP1 POP PUSH1 0x20 MUL DUP2 ADD SWAP1 PUSH2 0x2C3 SWAP2 SWAP1 PUSH2 0x984 JUMP JUMPDEST POP PUSH1 0x1 SWAP1 JUMP JUMPDEST PUSH2 0x2DA JUMPI PUSH1 0x0 SWAP5 POP POP POP POP POP PUSH2 0x2EE JUMP JUMPDEST SWAP1 SWAP2 SUB SWAP1 PUSH1 0x1 ADD PUSH2 0x256 JUMP JUMPDEST POP PUSH1 0x1 SWAP3 POP POP POP JUMPDEST SWAP5 SWAP4 POP POP POP POP JUMP JUMPDEST PUSH1 0x0 PUSH2 0x300 PUSH2 0x579 JUMP JUMPDEST DUP4 CALLVALUE PUSH1 0x0 JUMPDEST DUP3 DUP2 LT ISZERO PUSH2 0x2E6 JUMPI PUSH1 0x0 DUP7 DUP7 DUP4 DUP2 DUP2 LT PUSH2 0x321 JUMPI PUSH2 0x321 PUSH2 0x96E JUMP JUMPDEST SWAP1 POP PUSH1 0x20 MUL ADD CALLDATALOAD SWAP1 POP DUP3 DUP2 GT ISZERO PUSH2 0x34B JUMPI PUSH1 0x40 MLOAD PUSH4 0x44044A5 PUSH1 0xE2 SHL DUP2 MSTORE PUSH1 0x4 ADD PUSH1 0x40 MLOAD DUP1 SWAP2 SUB SWAP1 REVERT JUMPDEST PUSH2 0x378 DUP10 DUP10 DUP5 DUP2 DUP2 LT PUSH2 0x360 JUMPI PUSH2 0x360 PUSH2 0x96E JUMP JUMPDEST SWAP1 POP PUSH1 0x20 MUL DUP2 ADD SWAP1 PUSH2 0x372 SWAP2 SWAP1 PUSH2 0x984 JUMP JUMPDEST DUP3 PUSH2 0x5C2 JUMP JUMPDEST PUSH2 0x389 JUMPI PUSH1 0x0 SWAP5 POP POP POP POP POP PUSH2 0x2EE JUMP JUMPDEST SWAP1 SWAP2 SUB SWAP1 PUSH1 0x1 ADD PUSH2 0x305 JUMP JUMPDEST PUSH1 0x0 PUSH2 0x39F PUSH2 0x579 JUMP JUMPDEST PUSH1 0x1 JUMPDEST SWAP1 POP JUMPDEST SWAP2 SWAP1 POP JUMP JUMPDEST PUSH1 0x0 PUSH2 0x3B4 PUSH2 0x579 JUMP JUMPDEST PUSH2 0x3A2 DUP3 CALLVALUE PUSH2 0x5C2 JUMP JUMPDEST PUSH2 0x3C6 PUSH2 0x4CF JUMP JUMPDEST PUSH1 0x1 PUSH1 0x1 PUSH1 0xA0 SHL SUB DUP2 AND PUSH2 0x430 JUMPI PUSH1 0x40 MLOAD PUSH3 0x461BCD PUSH1 0xE5 SHL DUP2 MSTORE PUSH1 0x20 PUSH1 0x4 DUP3 ADD MSTORE PUSH1 0x26 PUSH1 0x24 DUP3 ADD MSTORE PUSH32 0x4F776E61626C653A206E6577206F776E657220697320746865207A65726F2061 PUSH1 0x44 DUP3 ADD MSTORE PUSH6 0x646472657373 PUSH1 0xD0 SHL PUSH1 0x64 DUP3 ADD MSTORE PUSH1 0x84 ADD JUMPDEST PUSH1 0x40 MLOAD DUP1 SWAP2 SUB SWAP1 REVERT JUMPDEST PUSH2 0x439 DUP2 PUSH2 0x529 JUMP JUMPDEST POP JUMP JUMPDEST PUSH1 0x60 PUSH1 0x0 PUSH2 0x449 DUP4 PUSH2 0x6AC JUMP JUMPDEST PUSH1 0x1 ADD SWAP1 POP PUSH1 0x0 DUP2 PUSH8 0xFFFFFFFFFFFFFFFF DUP2 GT ISZERO PUSH2 0x469 JUMPI PUSH2 0x469 PUSH2 0x9A5 JUMP JUMPDEST PUSH1 0x40 MLOAD SWAP1 DUP1 DUP3 MSTORE DUP1 PUSH1 0x1F ADD PUSH1 0x1F NOT AND PUSH1 0x20 ADD DUP3 ADD PUSH1 0x40 MSTORE DUP1 ISZERO PUSH2 0x493 JUMPI PUSH1 0x20 DUP3 ADD DUP2 DUP1 CALLDATASIZE DUP4 CALLDATACOPY ADD SWAP1 POP JUMPDEST POP SWAP1 POP DUP2 DUP2 ADD PUSH1 0x20 ADD JUMPDEST PUSH1 0x0 NOT ADD PUSH16 0x181899199A1A9B1B9C1CB0B131B232B3 PUSH1 0x81 SHL PUSH1 0xA DUP7 MOD BYTE DUP2 MSTORE8 PUSH1 0xA DUP6 DIV SWAP5 POP DUP5 PUSH2 0x49D JUMPI POP SWAP4 SWAP3 POP POP POP JUMP JUMPDEST PUSH1 0x0 SLOAD PUSH1 0x1 PUSH1 0x1 PUSH1 0xA0 SHL SUB AND CALLER EQ PUSH2 0x245 JUMPI PUSH1 0x40 MLOAD PUSH3 0x461BCD PUSH1 0xE5 SHL DUP2 MSTORE PUSH1 0x20 PUSH1 0x4 DUP3 ADD DUP2 SWAP1 MSTORE PUSH1 0x24 DUP3 ADD MSTORE PUSH32 0x4F776E61626C653A2063616C6C6572206973206E6F7420746865206F776E6572 PUSH1 0x44 DUP3 ADD MSTORE PUSH1 0x64 ADD PUSH2 0x427 JUMP JUMPDEST PUSH1 0x0 DUP1 SLOAD PUSH1 0x1 PUSH1 0x1 PUSH1 0xA0 SHL SUB DUP4 DUP2 AND PUSH1 0x1 PUSH1 0x1 PUSH1 0xA0 SHL SUB NOT DUP4 AND DUP2 OR DUP5 SSTORE PUSH1 0x40 MLOAD SWAP2 SWAP1 SWAP3 AND SWAP3 DUP4 SWAP2 PUSH32 0x8BE0079C531659141344CD1FD0A4F28419497F9722A3DAAFE3B4186F6B6457E0 SWAP2 SWAP1 LOG3 POP POP JUMP JUMPDEST CALLER PUSH1 0x1 PUSH1 0x1 PUSH1 0xA0 SHL SUB PUSH32 0x0 AND EQ PUSH2 0x245 JUMPI PUSH1 0x40 MLOAD PUSH4 0x4CA88867 PUSH1 0xE0 SHL DUP2 MSTORE PUSH1 0x4 ADD PUSH1 0x40 MLOAD DUP1 SWAP2 SUB SWAP1 REVERT JUMPDEST PUSH1 0x0 DUP1 PUSH2 0x5D3 PUSH2 0x120 DUP6 ADD DUP6 PUSH2 0x9BB JUMP JUMPDEST DUP2 ADD SWAP1 PUSH2 0x5E0 SWAP2 SWAP1 PUSH2 0xA1A JUMP JUMPDEST POP SWAP2 SWAP3 POP POP PUSH1 0x1 PUSH1 0x1 PUSH1 0xA0 SHL SUB DUP3 AND SWAP1 POP PUSH2 0x63D JUMPI PUSH1 0x40 MLOAD PUSH3 0x461BCD PUSH1 0xE5 SHL DUP2 MSTORE PUSH1 0x20 PUSH1 0x4 DUP3 ADD MSTORE PUSH1 0x1F PUSH1 0x24 DUP3 ADD MSTORE PUSH32 0x436F6E747269627574696F6E2070726F6A656374206E6F7420666F756E642E00 PUSH1 0x44 DUP3 ADD MSTORE PUSH1 0x64 ADD PUSH2 0x427 JUMP JUMPDEST PUSH1 0x40 MLOAD PUSH4 0x8AC014D7 PUSH1 0xE0 SHL DUP2 MSTORE PUSH1 0x1 PUSH1 0x1 PUSH1 0xA0 SHL SUB DUP3 AND SWAP1 PUSH4 0x8AC014D7 SWAP1 PUSH2 0x669 SWAP1 DUP8 SWAP1 PUSH1 0x4 ADD PUSH2 0xB8F JUMP JUMPDEST PUSH1 0x20 PUSH1 0x40 MLOAD DUP1 DUP4 SUB DUP2 PUSH1 0x0 DUP8 GAS CALL ISZERO DUP1 ISZERO PUSH2 0x688 JUMPI RETURNDATASIZE PUSH1 0x0 DUP1 RETURNDATACOPY RETURNDATASIZE PUSH1 0x0 REVERT JUMPDEST POP POP POP POP PUSH1 0x40 MLOAD RETURNDATASIZE PUSH1 0x1F NOT PUSH1 0x1F DUP3 ADD AND DUP3 ADD DUP1 PUSH1 0x40 MSTORE POP DUP2 ADD SWAP1 PUSH2 0x2EE SWAP2 SWAP1 PUSH2 0xC93 JUMP JUMPDEST PUSH1 0x0 DUP1 PUSH19 0x184F03E93FF9F4DAA797ED6E38ED64BF6A1F01 PUSH1 0x40 SHL DUP4 LT PUSH2 0x6EB JUMPI PUSH19 0x184F03E93FF9F4DAA797ED6E38ED64BF6A1F01 PUSH1 0x40 SHL DUP4 DIV SWAP3 POP PUSH1 0x40 ADD JUMPDEST PUSH14 0x4EE2D6D415B85ACEF8100000000 DUP4 LT PUSH2 0x717 JUMPI PUSH14 0x4EE2D6D415B85ACEF8100000000 DUP4 DIV SWAP3 POP PUSH1 0x20 ADD JUMPDEST PUSH7 0x2386F26FC10000 DUP4 LT PUSH2 0x735 JUMPI PUSH7 0x2386F26FC10000 DUP4 DIV SWAP3 POP PUSH1 0x10 ADD JUMPDEST PUSH4 0x5F5E100 DUP4 LT PUSH2 0x74D JUMPI PUSH4 0x5F5E100 DUP4 DIV SWAP3 POP PUSH1 0x8 ADD JUMPDEST PUSH2 0x2710 DUP4 LT PUSH2 0x761 JUMPI PUSH2 0x2710 DUP4 DIV SWAP3 POP PUSH1 0x4 ADD JUMPDEST PUSH1 0x64 DUP4 LT PUSH2 0x773 JUMPI PUSH1 0x64 DUP4 DIV SWAP3 POP PUSH1 0x2 ADD JUMPDEST PUSH1 0xA DUP4 LT PUSH2 0x77F JUMPI PUSH1 0x1 ADD JUMPDEST SWAP3 SWAP2 POP POP JUMP JUMPDEST PUSH1 0x0 JUMPDEST DUP4 DUP2 LT ISZERO PUSH2 0x7A0 JUMPI DUP2 DUP2 ADD MLOAD DUP4 DUP3 ADD MSTORE PUSH1 0x20 ADD PUSH2 0x788 JUMP JUMPDEST POP POP PUSH1 0x0 SWAP2 ADD MSTORE JUMP JUMPDEST PUSH1 0x20 DUP2 MSTORE PUSH1 0x0 DUP3 MLOAD DUP1 PUSH1 0x20 DUP5 ADD MSTORE PUSH2 0x7C8 DUP2 PUSH1 0x40 DUP6 ADD PUSH1 0x20 DUP8 ADD PUSH2 0x785 JUMP JUMPDEST PUSH1 0x1F ADD PUSH1 0x1F NOT AND SWAP2 SWAP1 SWAP2 ADD PUSH1 0x40 ADD SWAP3 SWAP2 POP POP JUMP JUMPDEST PUSH1 0x0 DUP1 DUP4 PUSH1 0x1F DUP5 ADD SLT PUSH2 0x7EE JUMPI PUSH1 0x0 DUP1 REVERT JUMPDEST POP DUP2 CALLDATALOAD PUSH8 0xFFFFFFFFFFFFFFFF DUP2 GT ISZERO PUSH2 0x806 JUMPI PUSH1 0x0 DUP1 REVERT JUMPDEST PUSH1 0x20 DUP4 ADD SWAP2 POP DUP4 PUSH1 0x20 DUP3 PUSH1 0x5 SHL DUP6 ADD ADD GT ISZERO PUSH2 0x821 JUMPI PUSH1 0x0 DUP1 REVERT JUMPDEST SWAP3 POP SWAP3 SWAP1 POP JUMP JUMPDEST PUSH1 0x0 DUP1 PUSH1 0x0 DUP1 PUSH1 0x40 DUP6 DUP8 SUB SLT ISZERO PUSH2 0x83E JUMPI PUSH1 0x0 DUP1 REVERT JUMPDEST DUP5 CALLDATALOAD PUSH8 0xFFFFFFFFFFFFFFFF DUP1 DUP3 GT ISZERO PUSH2 0x856 JUMPI PUSH1 0x0 DUP1 REVERT JUMPDEST PUSH2 0x862 DUP9 DUP4 DUP10 ADD PUSH2 0x7DC JUMP JUMPDEST SWAP1 SWAP7 POP SWAP5 POP PUSH1 0x20 DUP8 ADD CALLDATALOAD SWAP2 POP DUP1 DUP3 GT ISZERO PUSH2 0x87B JUMPI PUSH1 0x0 DUP1 REVERT JUMPDEST POP PUSH2 0x888 DUP8 DUP3 DUP9 ADD PUSH2 0x7DC JUMP JUMPDEST SWAP6 SWAP9 SWAP5 SWAP8 POP SWAP6 POP POP POP POP JUMP JUMPDEST PUSH1 0x0 PUSH1 0x20 DUP3 DUP5 SUB SLT ISZERO PUSH2 0x8A6 JUMPI PUSH1 0x0 DUP1 REVERT JUMPDEST DUP2 CALLDATALOAD PUSH8 0xFFFFFFFFFFFFFFFF DUP2 GT ISZERO PUSH2 0x8BD JUMPI PUSH1 0x0 DUP1 REVERT JUMPDEST DUP3 ADD PUSH2 0x140 DUP2 DUP6 SUB SLT ISZERO PUSH2 0x8D0 JUMPI PUSH1 0x0 DUP1 REVERT JUMPDEST SWAP4 SWAP3 POP POP POP JUMP JUMPDEST PUSH1 0x1 PUSH1 0x1 PUSH1 0xA0 SHL SUB DUP2 AND DUP2 EQ PUSH2 0x439 JUMPI PUSH1 0x0 DUP1 REVERT JUMPDEST DUP1 CALLDATALOAD PUSH2 0x3A5 DUP2 PUSH2 0x8D7 JUMP JUMPDEST PUSH1 0x0 PUSH1 0x20 DUP3 DUP5 SUB SLT ISZERO PUSH2 0x909 JUMPI PUSH1 0x0 DUP1 REVERT JUMPDEST DUP2 CALLDATALOAD PUSH2 0x8D0 DUP2 PUSH2 0x8D7 JUMP JUMPDEST PUSH1 0x0 DUP5 MLOAD PUSH2 0x926 DUP2 DUP5 PUSH1 0x20 DUP10 ADD PUSH2 0x785 JUMP JUMPDEST DUP1 DUP4 ADD SWAP1 POP PUSH1 0x17 PUSH1 0xF9 SHL DUP1 DUP3 MSTORE DUP6 MLOAD PUSH2 0x946 DUP2 PUSH1 0x1 DUP6 ADD PUSH1 0x20 DUP11 ADD PUSH2 0x785 JUMP JUMPDEST PUSH1 0x1 SWAP3 ADD SWAP2 DUP3 ADD MSTORE DUP4 MLOAD PUSH2 0x961 DUP2 PUSH1 0x2 DUP5 ADD PUSH1 0x20 DUP9 ADD PUSH2 0x785 JUMP JUMPDEST ADD PUSH1 0x2 ADD SWAP6 SWAP5 POP POP POP POP POP JUMP JUMPDEST PUSH4 0x4E487B71 PUSH1 0xE0 SHL PUSH1 0x0 MSTORE PUSH1 0x32 PUSH1 0x4 MSTORE PUSH1 0x24 PUSH1 0x0 REVERT JUMPDEST PUSH1 0x0 DUP3 CALLDATALOAD PUSH2 0x13E NOT DUP4 CALLDATASIZE SUB ADD DUP2 SLT PUSH2 0x99B JUMPI PUSH1 0x0 DUP1 REVERT JUMPDEST SWAP2 SWAP1 SWAP2 ADD SWAP3 SWAP2 POP POP JUMP JUMPDEST PUSH4 0x4E487B71 PUSH1 0xE0 SHL PUSH1 0x0 MSTORE PUSH1 0x41 PUSH1 0x4 MSTORE PUSH1 0x24 PUSH1 0x0 REVERT JUMPDEST PUSH1 0x0 DUP1 DUP4 CALLDATALOAD PUSH1 0x1E NOT DUP5 CALLDATASIZE SUB ADD DUP2 SLT PUSH2 0x9D2 JUMPI PUSH1 0x0 DUP1 REVERT JUMPDEST DUP4 ADD DUP1 CALLDATALOAD SWAP2 POP PUSH8 0xFFFFFFFFFFFFFFFF DUP3 GT ISZERO PUSH2 0x9ED JUMPI PUSH1 0x0 DUP1 REVERT JUMPDEST PUSH1 0x20 ADD SWAP2 POP CALLDATASIZE DUP2 SWAP1 SUB DUP3 SGT ISZERO PUSH2 0x821 JUMPI PUSH1 0x0 DUP1 REVERT JUMPDEST DUP1 CALLDATALOAD PUSH8 0xFFFFFFFFFFFFFFFF DUP2 AND DUP2 EQ PUSH2 0x3A5 JUMPI PUSH1 0x0 DUP1 REVERT JUMPDEST PUSH1 0x0 DUP1 PUSH1 0x0 DUP1 PUSH1 0x80 DUP6 DUP8 SUB SLT ISZERO PUSH2 0xA30 JUMPI PUSH1 0x0 DUP1 REVERT JUMPDEST DUP5 CALLDATALOAD PUSH2 0xA3B DUP2 PUSH2 0x8D7 JUMP JUMPDEST SWAP4 POP PUSH2 0xA49 PUSH1 0x20 DUP7 ADD PUSH2 0xA02 JUMP JUMPDEST SWAP3 POP PUSH1 0x40 DUP6 ADD CALLDATALOAD PUSH1 0xFF DUP2 AND DUP2 EQ PUSH2 0xA5F JUMPI PUSH1 0x0 DUP1 REVERT JUMPDEST SWAP2 POP PUSH1 0x60 DUP6 ADD CALLDATALOAD PUSH8 0xFFFFFFFFFFFFFFFF DUP1 DUP3 GT ISZERO PUSH2 0xA7C JUMPI PUSH1 0x0 DUP1 REVERT JUMPDEST DUP2 DUP8 ADD SWAP2 POP DUP8 PUSH1 0x1F DUP4 ADD SLT PUSH2 0xA90 JUMPI PUSH1 0x0 DUP1 REVERT JUMPDEST DUP2 CALLDATALOAD DUP2 DUP2 GT ISZERO PUSH2 0xAA2 JUMPI PUSH2 0xAA2 PUSH2 0x9A5 JUMP JUMPDEST PUSH1 0x40 MLOAD PUSH1 0x1F DUP3 ADD PUSH1 0x1F NOT SWAP1 DUP2 AND PUSH1 0x3F ADD AND DUP2 ADD SWAP1 DUP4 DUP3 GT DUP2 DUP4 LT OR ISZERO PUSH2 0xACA JUMPI PUSH2 0xACA PUSH2 0x9A5 JUMP JUMPDEST DUP2 PUSH1 0x40 MSTORE DUP3 DUP2 MSTORE DUP11 PUSH1 0x20 DUP5 DUP8 ADD ADD GT ISZERO PUSH2 0xAE3 JUMPI PUSH1 0x0 DUP1 REVERT JUMPDEST DUP3 PUSH1 0x20 DUP7 ADD PUSH1 0x20 DUP4 ADD CALLDATACOPY PUSH1 0x0 PUSH1 0x20 DUP5 DUP4 ADD ADD MSTORE DUP1 SWAP6 POP POP POP POP POP POP SWAP3 SWAP6 SWAP2 SWAP5 POP SWAP3 POP JUMP JUMPDEST DUP1 ISZERO ISZERO DUP2 EQ PUSH2 0x439 JUMPI PUSH1 0x0 DUP1 REVERT JUMPDEST DUP1 CALLDATALOAD PUSH2 0x3A5 DUP2 PUSH2 0xB07 JUMP JUMPDEST PUSH1 0x0 DUP1 DUP4 CALLDATALOAD PUSH1 0x1E NOT DUP5 CALLDATASIZE SUB ADD DUP2 SLT PUSH2 0xB37 JUMPI PUSH1 0x0 DUP1 REVERT JUMPDEST DUP4 ADD PUSH1 0x20 DUP2 ADD SWAP3 POP CALLDATALOAD SWAP1 POP PUSH8 0xFFFFFFFFFFFFFFFF DUP2 GT ISZERO PUSH2 0xB57 JUMPI PUSH1 0x0 DUP1 REVERT JUMPDEST DUP1 CALLDATASIZE SUB DUP3 SGT ISZERO PUSH2 0x821 JUMPI PUSH1 0x0 DUP1 REVERT JUMPDEST DUP2 DUP4 MSTORE DUP2 DUP2 PUSH1 0x20 DUP6 ADD CALLDATACOPY POP PUSH1 0x0 DUP3 DUP3 ADD PUSH1 0x20 SWAP1 DUP2 ADD SWAP2 SWAP1 SWAP2 MSTORE PUSH1 0x1F SWAP1 SWAP2 ADD PUSH1 0x1F NOT AND SWAP1 SWAP2 ADD ADD SWAP1 JUMP JUMPDEST PUSH1 0x20 DUP2 MSTORE DUP2 CALLDATALOAD PUSH1 0x20 DUP3 ADD MSTORE PUSH1 0x20 DUP3 ADD CALLDATALOAD PUSH1 0x40 DUP3 ADD MSTORE PUSH1 0x0 PUSH2 0xBB2 PUSH1 0x40 DUP5 ADD PUSH2 0xA02 JUMP JUMPDEST PUSH8 0xFFFFFFFFFFFFFFFF DUP2 AND PUSH1 0x60 DUP5 ADD MSTORE POP PUSH2 0xBCF PUSH1 0x60 DUP5 ADD PUSH2 0xA02 JUMP JUMPDEST PUSH8 0xFFFFFFFFFFFFFFFF DUP2 AND PUSH1 0x80 DUP5 ADD MSTORE POP PUSH2 0xBEC PUSH1 0x80 DUP5 ADD PUSH2 0xA02 JUMP JUMPDEST PUSH8 0xFFFFFFFFFFFFFFFF DUP2 AND PUSH1 0xA0 DUP5 ADD MSTORE POP PUSH1 0xA0 DUP4 ADD CALLDATALOAD PUSH1 0xC0 DUP4 ADD MSTORE PUSH2 0xC13 PUSH1 0xC0 DUP5 ADD PUSH2 0x8EC JUMP JUMPDEST PUSH1 0x1 PUSH1 0x1 PUSH1 0xA0 SHL SUB DUP2 AND PUSH1 0xE0 DUP5 ADD MSTORE POP PUSH2 0xC2F PUSH1 0xE0 DUP5 ADD PUSH2 0x8EC JUMP JUMPDEST PUSH2 0x100 PUSH2 0xC46 DUP2 DUP6 ADD DUP4 PUSH1 0x1 PUSH1 0x1 PUSH1 0xA0 SHL SUB AND SWAP1 MSTORE JUMP JUMPDEST PUSH2 0xC51 DUP2 DUP7 ADD PUSH2 0xB15 JUMP JUMPDEST SWAP2 POP POP PUSH2 0x120 PUSH2 0xC64 DUP2 DUP6 ADD DUP4 ISZERO ISZERO SWAP1 MSTORE JUMP JUMPDEST PUSH2 0xC70 DUP2 DUP7 ADD DUP7 PUSH2 0xB20 JUMP JUMPDEST PUSH2 0x140 DUP7 DUP2 ADD MSTORE SWAP3 POP SWAP1 POP PUSH2 0xC8A PUSH2 0x160 DUP6 ADD DUP4 DUP4 PUSH2 0xB66 JUMP JUMPDEST SWAP6 SWAP5 POP POP POP POP POP JUMP JUMPDEST PUSH1 0x0 PUSH1 0x20 DUP3 DUP5 SUB SLT ISZERO PUSH2 0xCA5 JUMPI PUSH1 0x0 DUP1 REVERT JUMPDEST DUP2 MLOAD PUSH2 0x8D0 DUP2 PUSH2 0xB07 JUMP INVALID LOG2 PUSH5 0x6970667358 0x22 SLT KECCAK256 MSIZE BLOCKHASH 0x4B LT 0xE5 CALLCODE RETURNDATASIZE 0xE0 PUSH18 0xE9EDAF340713C73416B9A1592CB9EEE7C010 PUSH25 0xD8090E4664736F6C6343000813003300000000000000000000 "
				},
				"gasEstimates": {
					"creation": {
						"codeDepositCost": "660400",
						"executionCost": "infinite",
						"totalCost": "infinite"
					},
					"external": {
						"attest((bytes32,bytes32,uint64,uint64,uint64,bytes32,address,address,bool,bytes))": "infinite",
						"isPayable()": "220",
						"multiAttest((bytes32,bytes32,uint64,uint64,uint64,bytes32,address,address,bool,bytes)[],uint256[])": "infinite",
						"multiRevoke((bytes32,bytes32,uint64,uint64,uint64,bytes32,address,address,bool,bytes)[],uint256[])": "infinite",
						"owner()": "2368",
						"renounceOwnership()": "infinite",
						"revoke((bytes32,bytes32,uint64,uint64,uint64,bytes32,address,address,bool,bytes))": "infinite",
						"transferOwnership(address)": "infinite",
						"version()": "infinite"
					},
					"internal": {
						"onAttest(struct Attestation calldata,uint256)": "infinite",
						"onRevoke(struct Attestation calldata,uint256)": "infinite"
					}
				},
				"methodIdentifiers": {
					"attest((bytes32,bytes32,uint64,uint64,uint64,bytes32,address,address,bool,bytes))": "e60c3505",
					"isPayable()": "ce46e046",
					"multiAttest((bytes32,bytes32,uint64,uint64,uint64,bytes32,address,address,bool,bytes)[],uint256[])": "91db0b7e",
					"multiRevoke((bytes32,bytes32,uint64,uint64,uint64,bytes32,address,address,bool,bytes)[],uint256[])": "88e5b2d9",
					"owner()": "8da5cb5b",
					"renounceOwnership()": "715018a6",
					"revoke((bytes32,bytes32,uint64,uint64,uint64,bytes32,address,address,bool,bytes))": "e49617e1",
					"transferOwnership(address)": "f2fde38b",
					"version()": "54fd4d50"
				}
			},
			"storageLayout": {
				"storage": [
					{
						"astId": 827,
						"contract": "src/resolver/VoteResolver.sol:VoteResolver",
						"label": "_owner",
						"offset": 0,
						"slot": "0",
						"type": "t_address"
					}
				],
				"types": {
					"t_address": {
						"encoding": "inplace",
						"label": "address",
						"numberOfBytes": "20"
					}
				}
			},
			"userdoc": {
				"kind": "user",
				"methods": {
					"version()": {
						"notice": "Returns the full semver contract version."
					}
				},
				"version": 1
			}
		}
	}
}