{
	"@ethereum-attestation-service/eas-contracts/contracts/Semver.sol": {
		"Semver": {
			"abi": [
				{
					"inputs": [
						{
							"internalType": "uint256",
							"name": "major",
							"type": "uint256"
						},
						{
							"internalType": "uint256",
							"name": "minor",
							"type": "uint256"
						},
						{
							"internalType": "uint256",
							"name": "patch",
							"type": "uint256"
						}
					],
					"stateMutability": "nonpayable",
					"type": "constructor"
				},
				{
					"inputs": [],
					"name": "version",
					"outputs": [
						{
							"internalType": "string",
							"name": "",
							"type": "string"
						}
					],
					"stateMutability": "view",
					"type": "function"
				}
			],
			"devdoc": {
				"details": "A simple contract for managing contract versions.",
				"kind": "dev",
				"methods": {
					"constructor": {
						"params": {
							"major": "Major version number.",
							"minor": "Minor version number.",
							"patch": "Patch version number."
						}
					},
					"version()": {
						"returns": {
							"_0": "Semver contract version as a string."
						}
					}
				},
				"version": 1
			},
			"evm": {
				"assembly": "    /* \"@ethereum-attestation-service/eas-contracts/contracts/Semver.sol\":194:1103  contract Semver {... */\n  mstore(0x40, 0xe0)\n    /* \"@ethereum-attestation-service/eas-contracts/contracts/Semver.sol\":594:729  constructor(uint256 major, uint256 minor, uint256 patch) {... */\n  callvalue\n  dup1\n  iszero\n  tag_1\n  jumpi\n  0x00\n  dup1\n  revert\ntag_1:\n  pop\n  mload(0x40)\n  sub(codesize, bytecodeSize)\n  dup1\n  bytecodeSize\n  dup4\n  codecopy\n  dup2\n  add\n  0x40\n  dup2\n  swap1\n  mstore\n  tag_2\n  swap2\n  tag_3\n  jump\t// in\ntag_2:\n    /* \"@ethereum-attestation-service/eas-contracts/contracts/Semver.sol\":661:675  _major = major */\n  0x80\n  swap3\n  swap1\n  swap3\n  mstore\n    /* \"@ethereum-attestation-service/eas-contracts/contracts/Semver.sol\":685:699  _minor = minor */\n  0xa0\n  mstore\n    /* \"@ethereum-attestation-service/eas-contracts/contracts/Semver.sol\":709:722  _path = patch */\n  0xc0\n  mstore\n    /* \"@ethereum-attestation-service/eas-contracts/contracts/Semver.sol\":194:1103  contract Semver {... */\n  jump(tag_7)\n    /* \"#utility.yul\":14:320   */\ntag_3:\n    /* \"#utility.yul\":102:108   */\n  0x00\n    /* \"#utility.yul\":110:116   */\n  dup1\n    /* \"#utility.yul\":118:124   */\n  0x00\n    /* \"#utility.yul\":171:173   */\n  0x60\n    /* \"#utility.yul\":159:168   */\n  dup5\n    /* \"#utility.yul\":150:157   */\n  dup7\n    /* \"#utility.yul\":146:169   */\n  sub\n    /* \"#utility.yul\":142:174   */\n  slt\n    /* \"#utility.yul\":139:191   */\n  iszero\n  tag_9\n  jumpi\n    /* \"#utility.yul\":187:188   */\n  0x00\n    /* \"#utility.yul\":184:185   */\n  dup1\n    /* \"#utility.yul\":177:189   */\n  revert\n    /* \"#utility.yul\":139:191   */\ntag_9:\n    /* \"#utility.yul\":216:225   */\n  dup4\n    /* \"#utility.yul\":210:226   */\n  mload\n    /* \"#utility.yul\":200:226   */\n  swap3\n  pop\n    /* \"#utility.yul\":266:268   */\n  0x20\n    /* \"#utility.yul\":255:264   */\n  dup5\n    /* \"#utility.yul\":251:269   */\n  add\n    /* \"#utility.yul\":245:270   */\n  mload\n    /* \"#utility.yul\":235:270   */\n  swap2\n  pop\n    /* \"#utility.yul\":310:312   */\n  0x40\n    /* \"#utility.yul\":299:308   */\n  dup5\n    /* \"#utility.yul\":295:313   */\n  add\n    /* \"#utility.yul\":289:314   */\n  mload\n    /* \"#utility.yul\":279:314   */\n  swap1\n  pop\n    /* \"#utility.yul\":14:320   */\n  swap3\n  pop\n  swap3\n  pop\n  swap3\n  jump\t// out\ntag_7:\n    /* \"@ethereum-attestation-service/eas-contracts/contracts/Semver.sol\":194:1103  contract Semver {... */\n  mload(0x80)\n  mload(0xa0)\n  mload(0xc0)\n  codecopy(0x00, dataOffset(sub_0), dataSize(sub_0))\n  0x00\n  assignImmutable(\"0x813b56a8b59ac1b40dbf9e6a694feb8ff7f8a2c267abab63bb2cfebe723029cd\")\n  0x00\n  assignImmutable(\"0x2ff1b1d67490f2e0bfc25fd2c7e96598b7cb14bab781f7735f2046e8958c761b\")\n  0x00\n  assignImmutable(\"0xa895709e4de0f20648ccd0795f1a5625e1f3ab1f71fa6d8f47473d6c8c14e427\")\n  return(0x00, dataSize(sub_0))\nstop\n\nsub_0: assembly {\n        /* \"@ethereum-attestation-service/eas-contracts/contracts/Semver.sol\":194:1103  contract Semver {... */\n      mstore(0x40, 0x80)\n      callvalue\n      dup1\n      iszero\n      tag_1\n      jumpi\n      0x00\n      dup1\n      revert\n    tag_1:\n      pop\n      jumpi(tag_2, lt(calldatasize, 0x04))\n      shr(0xe0, calldataload(0x00))\n      dup1\n      0x54fd4d50\n      eq\n      tag_3\n      jumpi\n    tag_2:\n      0x00\n      dup1\n      revert\n        /* \"@ethereum-attestation-service/eas-contracts/contracts/Semver.sol\":867:1101  function version() external view returns (string memory) {... */\n    tag_3:\n      tag_4\n      tag_5\n      jump\t// in\n    tag_4:\n      mload(0x40)\n      tag_6\n      swap2\n      swap1\n      tag_7\n      jump\t// in\n    tag_6:\n      mload(0x40)\n      dup1\n      swap2\n      sub\n      swap1\n      return\n    tag_5:\n        /* \"@ethereum-attestation-service/eas-contracts/contracts/Semver.sol\":909:922  string memory */\n      0x60\n        /* \"@ethereum-attestation-service/eas-contracts/contracts/Semver.sol\":994:1018  Strings.toString(_major) */\n      tag_9\n        /* \"@ethereum-attestation-service/eas-contracts/contracts/Semver.sol\":1011:1017  _major */\n      immutable(\"0xa895709e4de0f20648ccd0795f1a5625e1f3ab1f71fa6d8f47473d6c8c14e427\")\n        /* \"@ethereum-attestation-service/eas-contracts/contracts/Semver.sol\":994:1010  Strings.toString */\n      tag_10\n        /* \"@ethereum-attestation-service/eas-contracts/contracts/Semver.sol\":994:1018  Strings.toString(_major) */\n      jump\t// in\n    tag_9:\n        /* \"@ethereum-attestation-service/eas-contracts/contracts/Semver.sol\":1025:1049  Strings.toString(_minor) */\n      tag_11\n        /* \"@ethereum-attestation-service/eas-contracts/contracts/Semver.sol\":1042:1048  _minor */\n      immutable(\"0x2ff1b1d67490f2e0bfc25fd2c7e96598b7cb14bab781f7735f2046e8958c761b\")\n        /* \"@ethereum-attestation-service/eas-contracts/contracts/Semver.sol\":1025:1041  Strings.toString */\n      tag_10\n        /* \"@ethereum-attestation-service/eas-contracts/contracts/Semver.sol\":1025:1049  Strings.toString(_minor) */\n      jump\t// in\n    tag_11:\n        /* \"@ethereum-attestation-service/eas-contracts/contracts/Semver.sol\":1056:1079  Strings.toString(_path) */\n      tag_12\n        /* \"@ethereum-attestation-service/eas-contracts/contracts/Semver.sol\":1073:1078  _path */\n      immutable(\"0x813b56a8b59ac1b40dbf9e6a694feb8ff7f8a2c267abab63bb2cfebe723029cd\")\n        /* \"@ethereum-attestation-service/eas-contracts/contracts/Semver.sol\":1056:1072  Strings.toString */\n      tag_10\n        /* \"@ethereum-attestation-service/eas-contracts/contracts/Semver.sol\":1056:1079  Strings.toString(_path) */\n      jump\t// in\n    tag_12:\n        /* \"@ethereum-attestation-service/eas-contracts/contracts/Semver.sol\":977:1080  abi.encodePacked(Strings.toString(_major), \".\", Strings.toString(_minor), \".\", Strings.toString(_path)) */\n      add(0x20, mload(0x40))\n      tag_13\n      swap4\n      swap3\n      swap2\n      swap1\n      tag_14\n      jump\t// in\n    tag_13:\n      mload(0x40)\n      0x20\n      dup2\n      dup4\n      sub\n      sub\n      dup2\n      mstore\n      swap1\n      0x40\n      mstore\n        /* \"@ethereum-attestation-service/eas-contracts/contracts/Semver.sol\":934:1094  return... */\n      swap1\n      pop\n        /* \"@ethereum-attestation-service/eas-contracts/contracts/Semver.sol\":867:1101  function version() external view returns (string memory) {... */\n      swap1\n      jump\t// out\n        /* \"@openzeppelin/contracts/utils/Strings.sol\":447:1143  function toString(uint256 value) internal pure returns (string memory) {... */\n    tag_10:\n        /* \"@openzeppelin/contracts/utils/Strings.sol\":503:516  string memory */\n      0x60\n        /* \"@openzeppelin/contracts/utils/Strings.sol\":552:566  uint256 length */\n      0x00\n        /* \"@openzeppelin/contracts/utils/Strings.sol\":569:586  Math.log10(value) */\n      tag_16\n        /* \"@openzeppelin/contracts/utils/Strings.sol\":580:585  value */\n      dup4\n        /* \"@openzeppelin/contracts/utils/Strings.sol\":569:579  Math.log10 */\n      tag_17\n        /* \"@openzeppelin/contracts/utils/Strings.sol\":569:586  Math.log10(value) */\n      jump\t// in\n    tag_16:\n        /* \"@openzeppelin/contracts/utils/Strings.sol\":589:590  1 */\n      0x01\n        /* \"@openzeppelin/contracts/utils/Strings.sol\":569:590  Math.log10(value) + 1 */\n      add\n        /* \"@openzeppelin/contracts/utils/Strings.sol\":552:590  uint256 length = Math.log10(value) + 1 */\n      swap1\n      pop\n        /* \"@openzeppelin/contracts/utils/Strings.sol\":604:624  string memory buffer */\n      0x00\n        /* \"@openzeppelin/contracts/utils/Strings.sol\":638:644  length */\n      dup2\n        /* \"@openzeppelin/contracts/utils/Strings.sol\":627:645  new string(length) */\n      0xffffffffffffffff\n      dup2\n      gt\n      iszero\n      tag_19\n      jumpi\n      tag_19\n      tag_20\n      jump\t// in\n    tag_19:\n      mload(0x40)\n      swap1\n      dup1\n      dup3\n      mstore\n      dup1\n      0x1f\n      add\n      not(0x1f)\n      and\n      0x20\n      add\n      dup3\n      add\n      0x40\n      mstore\n      dup1\n      iszero\n      tag_21\n      jumpi\n      0x20\n      dup3\n      add\n      dup2\n      dup1\n      calldatasize\n      dup4\n      calldatacopy\n      add\n      swap1\n      pop\n    tag_21:\n      pop\n        /* \"@openzeppelin/contracts/utils/Strings.sol\":604:645  string memory buffer = new string(length) */\n      swap1\n      pop\n        /* \"@openzeppelin/contracts/utils/Strings.sol\":765:793  add(buffer, add(32, length)) */\n      dup2\n      dup2\n      add\n        /* \"@openzeppelin/contracts/utils/Strings.sol\":781:783  32 */\n      0x20\n        /* \"@openzeppelin/contracts/utils/Strings.sol\":765:793  add(buffer, add(32, length)) */\n      add\n        /* \"@openzeppelin/contracts/utils/Strings.sol\":820:1100  while (true) {... */\n    tag_22:\n      not(0x00)\n        /* \"@openzeppelin/contracts/utils/Strings.sol\":851:856  ptr-- */\n      add\n      shl(0x81, 0x181899199a1a9b1b9c1cb0b131b232b3)\n        /* \"@openzeppelin/contracts/utils/Strings.sol\":985:987  10 */\n      0x0a\n        /* \"@openzeppelin/contracts/utils/Strings.sol\":974:988  mod(value, 10) */\n      dup7\n      mod\n        /* \"@openzeppelin/contracts/utils/Strings.sol\":969:999  byte(mod(value, 10), _SYMBOLS) */\n      byte\n        /* \"@openzeppelin/contracts/utils/Strings.sol\":851:856  ptr-- */\n      dup2\n        /* \"@openzeppelin/contracts/utils/Strings.sol\":956:1000  mstore8(ptr, byte(mod(value, 10), _SYMBOLS)) */\n      mstore8\n        /* \"@openzeppelin/contracts/utils/Strings.sol\":1044:1046  10 */\n      0x0a\n        /* \"@openzeppelin/contracts/utils/Strings.sol\":1035:1046  value /= 10 */\n      dup6\n      div\n      swap5\n      pop\n        /* \"@openzeppelin/contracts/utils/Strings.sol\":1064:1085  if (value == 0) break */\n      dup5\n        /* \"@openzeppelin/contracts/utils/Strings.sol\":820:1100  while (true) {... */\n      tag_22\n        /* \"@openzeppelin/contracts/utils/Strings.sol\":1064:1085  if (value == 0) break */\n      jumpi\n      pop\n        /* \"@openzeppelin/contracts/utils/Strings.sol\":1120:1126  buffer */\n      swap4\n        /* \"@openzeppelin/contracts/utils/Strings.sol\":447:1143  function toString(uint256 value) internal pure returns (string memory) {... */\n      swap3\n      pop\n      pop\n      pop\n      jump\t// out\n        /* \"@openzeppelin/contracts/utils/math/Math.sol\":10139:11055  function log10(uint256 value) internal pure returns (uint256) {... */\n    tag_17:\n        /* \"@openzeppelin/contracts/utils/math/Math.sol\":10192:10199  uint256 */\n      0x00\n      dup1\n      shl(0x40, 0x184f03e93ff9f4daa797ed6e38ed64bf6a1f01)\n        /* \"@openzeppelin/contracts/utils/math/Math.sol\":10267:10284  value >= 10 ** 64 */\n      dup4\n      lt\n        /* \"@openzeppelin/contracts/utils/math/Math.sol\":10263:10366  if (value >= 10 ** 64) {... */\n      tag_29\n      jumpi\n      shl(0x40, 0x184f03e93ff9f4daa797ed6e38ed64bf6a1f01)\n        /* \"@openzeppelin/contracts/utils/math/Math.sol\":10304:10321  value /= 10 ** 64 */\n      dup4\n      div\n      swap3\n      pop\n        /* \"@openzeppelin/contracts/utils/math/Math.sol\":10349:10351  64 */\n      0x40\n        /* \"@openzeppelin/contracts/utils/math/Math.sol\":10339:10351  result += 64 */\n      add\n        /* \"@openzeppelin/contracts/utils/math/Math.sol\":10263:10366  if (value >= 10 ** 64) {... */\n    tag_29:\n        /* \"@openzeppelin/contracts/utils/math/Math.sol\":10392:10400  10 ** 32 */\n      0x04ee2d6d415b85acef8100000000\n        /* \"@openzeppelin/contracts/utils/math/Math.sol\":10383:10388  value */\n      dup4\n        /* \"@openzeppelin/contracts/utils/math/Math.sol\":10383:10400  value >= 10 ** 32 */\n      lt\n        /* \"@openzeppelin/contracts/utils/math/Math.sol\":10379:10482  if (value >= 10 ** 32) {... */\n      tag_32\n      jumpi\n        /* \"@openzeppelin/contracts/utils/math/Math.sol\":10429:10437  10 ** 32 */\n      0x04ee2d6d415b85acef8100000000\n        /* \"@openzeppelin/contracts/utils/math/Math.sol\":10420:10437  value /= 10 ** 32 */\n      dup4\n      div\n      swap3\n      pop\n        /* \"@openzeppelin/contracts/utils/math/Math.sol\":10465:10467  32 */\n      0x20\n        /* \"@openzeppelin/contracts/utils/math/Math.sol\":10455:10467  result += 32 */\n      add\n        /* \"@openzeppelin/contracts/utils/math/Math.sol\":10379:10482  if (value >= 10 ** 32) {... */\n    tag_32:\n        /* \"@openzeppelin/contracts/utils/math/Math.sol\":10508:10516  10 ** 16 */\n      0x2386f26fc10000\n        /* \"@openzeppelin/contracts/utils/math/Math.sol\":10499:10504  value */\n      dup4\n        /* \"@openzeppelin/contracts/utils/math/Math.sol\":10499:10516  value >= 10 ** 16 */\n      lt\n        /* \"@openzeppelin/contracts/utils/math/Math.sol\":10495:10598  if (value >= 10 ** 16) {... */\n      tag_35\n      jumpi\n        /* \"@openzeppelin/contracts/utils/math/Math.sol\":10545:10553  10 ** 16 */\n      0x2386f26fc10000\n        /* \"@openzeppelin/contracts/utils/math/Math.sol\":10536:10553  value /= 10 ** 16 */\n      dup4\n      div\n      swap3\n      pop\n        /* \"@openzeppelin/contracts/utils/math/Math.sol\":10581:10583  16 */\n      0x10\n        /* \"@openzeppelin/contracts/utils/math/Math.sol\":10571:10583  result += 16 */\n      add\n        /* \"@openzeppelin/contracts/utils/math/Math.sol\":10495:10598  if (value >= 10 ** 16) {... */\n    tag_35:\n        /* \"@openzeppelin/contracts/utils/math/Math.sol\":10624:10631  10 ** 8 */\n      0x05f5e100\n        /* \"@openzeppelin/contracts/utils/math/Math.sol\":10615:10620  value */\n      dup4\n        /* \"@openzeppelin/contracts/utils/math/Math.sol\":10615:10631  value >= 10 ** 8 */\n      lt\n        /* \"@openzeppelin/contracts/utils/math/Math.sol\":10611:10711  if (value >= 10 ** 8) {... */\n      tag_38\n      jumpi\n        /* \"@openzeppelin/contracts/utils/math/Math.sol\":10660:10667  10 ** 8 */\n      0x05f5e100\n        /* \"@openzeppelin/contracts/utils/math/Math.sol\":10651:10667  value /= 10 ** 8 */\n      dup4\n      div\n      swap3\n      pop\n        /* \"@openzeppelin/contracts/utils/math/Math.sol\":10695:10696  8 */\n      0x08\n        /* \"@openzeppelin/contracts/utils/math/Math.sol\":10685:10696  result += 8 */\n      add\n        /* \"@openzeppelin/contracts/utils/math/Math.sol\":10611:10711  if (value >= 10 ** 8) {... */\n    tag_38:\n        /* \"@openzeppelin/contracts/utils/math/Math.sol\":10737:10744  10 ** 4 */\n      0x2710\n        /* \"@openzeppelin/contracts/utils/math/Math.sol\":10728:10733  value */\n      dup4\n        /* \"@openzeppelin/contracts/utils/math/Math.sol\":10728:10744  value >= 10 ** 4 */\n      lt\n        /* \"@openzeppelin/contracts/utils/math/Math.sol\":10724:10824  if (value >= 10 ** 4) {... */\n      tag_41\n      jumpi\n        /* \"@openzeppelin/contracts/utils/math/Math.sol\":10773:10780  10 ** 4 */\n      0x2710\n        /* \"@openzeppelin/contracts/utils/math/Math.sol\":10764:10780  value /= 10 ** 4 */\n      dup4\n      div\n      swap3\n      pop\n        /* \"@openzeppelin/contracts/utils/math/Math.sol\":10808:10809  4 */\n      0x04\n        /* \"@openzeppelin/contracts/utils/math/Math.sol\":10798:10809  result += 4 */\n      add\n        /* \"@openzeppelin/contracts/utils/math/Math.sol\":10724:10824  if (value >= 10 ** 4) {... */\n    tag_41:\n        /* \"@openzeppelin/contracts/utils/math/Math.sol\":10850:10857  10 ** 2 */\n      0x64\n        /* \"@openzeppelin/contracts/utils/math/Math.sol\":10841:10846  value */\n      dup4\n        /* \"@openzeppelin/contracts/utils/math/Math.sol\":10841:10857  value >= 10 ** 2 */\n      lt\n        /* \"@openzeppelin/contracts/utils/math/Math.sol\":10837:10937  if (value >= 10 ** 2) {... */\n      tag_44\n      jumpi\n        /* \"@openzeppelin/contracts/utils/math/Math.sol\":10886:10893  10 ** 2 */\n      0x64\n        /* \"@openzeppelin/contracts/utils/math/Math.sol\":10877:10893  value /= 10 ** 2 */\n      dup4\n      div\n      swap3\n      pop\n        /* \"@openzeppelin/contracts/utils/math/Math.sol\":10921:10922  2 */\n      0x02\n        /* \"@openzeppelin/contracts/utils/math/Math.sol\":10911:10922  result += 2 */\n      add\n        /* \"@openzeppelin/contracts/utils/math/Math.sol\":10837:10937  if (value >= 10 ** 2) {... */\n    tag_44:\n        /* \"@openzeppelin/contracts/utils/math/Math.sol\":10963:10970  10 ** 1 */\n      0x0a\n        /* \"@openzeppelin/contracts/utils/math/Math.sol\":10954:10959  value */\n      dup4\n        /* \"@openzeppelin/contracts/utils/math/Math.sol\":10954:10970  value >= 10 ** 1 */\n      lt\n        /* \"@openzeppelin/contracts/utils/math/Math.sol\":10950:11016  if (value >= 10 ** 1) {... */\n      tag_47\n      jumpi\n        /* \"@openzeppelin/contracts/utils/math/Math.sol\":11000:11001  1 */\n      0x01\n        /* \"@openzeppelin/contracts/utils/math/Math.sol\":10990:11001  result += 1 */\n      add\n        /* \"@openzeppelin/contracts/utils/math/Math.sol\":10950:11016  if (value >= 10 ** 1) {... */\n    tag_47:\n        /* \"@openzeppelin/contracts/utils/math/Math.sol\":11042:11048  result */\n      swap3\n        /* \"@openzeppelin/contracts/utils/math/Math.sol\":10139:11055  function log10(uint256 value) internal pure returns (uint256) {... */\n      swap2\n      pop\n      pop\n      jump\t// out\n        /* \"#utility.yul\":14:264   */\n    tag_48:\n        /* \"#utility.yul\":99:100   */\n      0x00\n        /* \"#utility.yul\":109:222   */\n    tag_51:\n        /* \"#utility.yul\":123:129   */\n      dup4\n        /* \"#utility.yul\":120:121   */\n      dup2\n        /* \"#utility.yul\":117:130   */\n      lt\n        /* \"#utility.yul\":109:222   */\n      iszero\n      tag_53\n      jumpi\n        /* \"#utility.yul\":199:210   */\n      dup2\n      dup2\n      add\n        /* \"#utility.yul\":193:211   */\n      mload\n        /* \"#utility.yul\":180:191   */\n      dup4\n      dup3\n      add\n        /* \"#utility.yul\":173:212   */\n      mstore\n        /* \"#utility.yul\":145:147   */\n      0x20\n        /* \"#utility.yul\":138:148   */\n      add\n        /* \"#utility.yul\":109:222   */\n      jump(tag_51)\n    tag_53:\n      pop\n      pop\n        /* \"#utility.yul\":256:257   */\n      0x00\n        /* \"#utility.yul\":238:254   */\n      swap2\n      add\n        /* \"#utility.yul\":231:258   */\n      mstore\n        /* \"#utility.yul\":14:264   */\n      jump\t// out\n        /* \"#utility.yul\":269:665   */\n    tag_7:\n        /* \"#utility.yul\":418:420   */\n      0x20\n        /* \"#utility.yul\":407:416   */\n      dup2\n        /* \"#utility.yul\":400:421   */\n      mstore\n        /* \"#utility.yul\":381:385   */\n      0x00\n        /* \"#utility.yul\":450:456   */\n      dup3\n        /* \"#utility.yul\":444:457   */\n      mload\n        /* \"#utility.yul\":493:499   */\n      dup1\n        /* \"#utility.yul\":488:490   */\n      0x20\n        /* \"#utility.yul\":477:486   */\n      dup5\n        /* \"#utility.yul\":473:491   */\n      add\n        /* \"#utility.yul\":466:500   */\n      mstore\n        /* \"#utility.yul\":509:588   */\n      tag_55\n        /* \"#utility.yul\":581:587   */\n      dup2\n        /* \"#utility.yul\":576:578   */\n      0x40\n        /* \"#utility.yul\":565:574   */\n      dup6\n        /* \"#utility.yul\":561:579   */\n      add\n        /* \"#utility.yul\":556:558   */\n      0x20\n        /* \"#utility.yul\":548:554   */\n      dup8\n        /* \"#utility.yul\":544:559   */\n      add\n        /* \"#utility.yul\":509:588   */\n      tag_48\n      jump\t// in\n    tag_55:\n        /* \"#utility.yul\":649:651   */\n      0x1f\n        /* \"#utility.yul\":628:643   */\n      add\n      not(0x1f)\n        /* \"#utility.yul\":624:653   */\n      and\n        /* \"#utility.yul\":609:654   */\n      swap2\n      swap1\n      swap2\n      add\n        /* \"#utility.yul\":656:658   */\n      0x40\n        /* \"#utility.yul\":605:659   */\n      add\n      swap3\n        /* \"#utility.yul\":269:665   */\n      swap2\n      pop\n      pop\n      jump\t// out\n        /* \"#utility.yul\":670:1669   */\n    tag_14:\n        /* \"#utility.yul\":1099:1102   */\n      0x00\n        /* \"#utility.yul\":1137:1143   */\n      dup5\n        /* \"#utility.yul\":1131:1144   */\n      mload\n        /* \"#utility.yul\":1153:1219   */\n      tag_57\n        /* \"#utility.yul\":1212:1218   */\n      dup2\n        /* \"#utility.yul\":1207:1210   */\n      dup5\n        /* \"#utility.yul\":1200:1204   */\n      0x20\n        /* \"#utility.yul\":1192:1198   */\n      dup10\n        /* \"#utility.yul\":1188:1205   */\n      add\n        /* \"#utility.yul\":1153:1219   */\n      tag_48\n      jump\t// in\n    tag_57:\n        /* \"#utility.yul\":1250:1256   */\n      dup1\n        /* \"#utility.yul\":1245:1248   */\n      dup4\n        /* \"#utility.yul\":1241:1257   */\n      add\n        /* \"#utility.yul\":1228:1257   */\n      swap1\n      pop\n      shl(0xf9, 0x17)\n        /* \"#utility.yul\":1302:1304   */\n      dup1\n        /* \"#utility.yul\":1295:1300   */\n      dup3\n        /* \"#utility.yul\":1288:1305   */\n      mstore\n        /* \"#utility.yul\":1336:1342   */\n      dup6\n        /* \"#utility.yul\":1330:1343   */\n      mload\n        /* \"#utility.yul\":1352:1430   */\n      tag_58\n        /* \"#utility.yul\":1421:1429   */\n      dup2\n        /* \"#utility.yul\":1417:1418   */\n      0x01\n        /* \"#utility.yul\":1410:1415   */\n      dup6\n        /* \"#utility.yul\":1406:1419   */\n      add\n        /* \"#utility.yul\":1399:1403   */\n      0x20\n        /* \"#utility.yul\":1391:1397   */\n      dup11\n        /* \"#utility.yul\":1387:1404   */\n      add\n        /* \"#utility.yul\":1352:1430   */\n      tag_48\n      jump\t// in\n    tag_58:\n        /* \"#utility.yul\":1493:1494   */\n      0x01\n        /* \"#utility.yul\":1449:1469   */\n      swap3\n      add\n        /* \"#utility.yul\":1485:1495   */\n      swap2\n      dup3\n      add\n        /* \"#utility.yul\":1478:1500   */\n      mstore\n        /* \"#utility.yul\":1525:1538   */\n      dup4\n      mload\n        /* \"#utility.yul\":1547:1622   */\n      tag_59\n        /* \"#utility.yul\":1525:1538   */\n      dup2\n        /* \"#utility.yul\":1609:1610   */\n      0x02\n        /* \"#utility.yul\":1601:1611   */\n      dup5\n      add\n        /* \"#utility.yul\":1594:1598   */\n      0x20\n        /* \"#utility.yul\":1582:1599   */\n      dup9\n      add\n        /* \"#utility.yul\":1547:1622   */\n      tag_48\n      jump\t// in\n    tag_59:\n        /* \"#utility.yul\":1642:1659   */\n      add\n        /* \"#utility.yul\":1661:1662   */\n      0x02\n        /* \"#utility.yul\":1638:1663   */\n      add\n      swap6\n        /* \"#utility.yul\":670:1669   */\n      swap5\n      pop\n      pop\n      pop\n      pop\n      pop\n      jump\t// out\n        /* \"#utility.yul\":1674:1801   */\n    tag_20:\n        /* \"#utility.yul\":1735:1745   */\n      0x4e487b71\n        /* \"#utility.yul\":1730:1733   */\n      0xe0\n        /* \"#utility.yul\":1726:1746   */\n      shl\n        /* \"#utility.yul\":1723:1724   */\n      0x00\n        /* \"#utility.yul\":1716:1747   */\n      mstore\n        /* \"#utility.yul\":1766:1770   */\n      0x41\n        /* \"#utility.yul\":1763:1764   */\n      0x04\n        /* \"#utility.yul\":1756:1771   */\n      mstore\n        /* \"#utility.yul\":1790:1794   */\n      0x24\n        /* \"#utility.yul\":1787:1788   */\n      0x00\n        /* \"#utility.yul\":1780:1795   */\n      revert\n\n    auxdata: 0xa2646970667358221220cc79c60ca3aa51635a96eea16b0067a3d340cb4e6d1834809593162f1a8950f864736f6c63430008130033\n}\n",
				"bytecode": {
					"linkReferences": {},
					"object": "60e060405234801561001057600080fd5b506040516103f43803806103f483398101604081905261002f91610040565b60809290925260a05260c05261006e565b60008060006060848603121561005557600080fd5b8351925060208401519150604084015190509250925092565b60805160a05160c05161035a61009a600039600060a701526000607e015260006055015261035a6000f3fe608060405234801561001057600080fd5b506004361061002b5760003560e01c806354fd4d5014610030575b600080fd5b61003861004e565b6040516100459190610281565b60405180910390f35b60606100797f00000000000000000000000000000000000000000000000000000000000000006100f1565b6100a27f00000000000000000000000000000000000000000000000000000000000000006100f1565b6100cb7f00000000000000000000000000000000000000000000000000000000000000006100f1565b6040516020016100dd939291906102b4565b604051602081830303815290604052905090565b606060006100fe83610184565b600101905060008167ffffffffffffffff81111561011e5761011e61030e565b6040519080825280601f01601f191660200182016040528015610148576020820181803683370190505b5090508181016020015b600019016f181899199a1a9b1b9c1cb0b131b232b360811b600a86061a8153600a850494508461015257509392505050565b60008072184f03e93ff9f4daa797ed6e38ed64bf6a1f0160401b83106101c35772184f03e93ff9f4daa797ed6e38ed64bf6a1f0160401b830492506040015b6d04ee2d6d415b85acef810000000083106101ef576d04ee2d6d415b85acef8100000000830492506020015b662386f26fc10000831061020d57662386f26fc10000830492506010015b6305f5e1008310610225576305f5e100830492506008015b612710831061023957612710830492506004015b6064831061024b576064830492506002015b600a8310610257576001015b92915050565b60005b83811015610278578181015183820152602001610260565b50506000910152565b60208152600082518060208401526102a081604085016020870161025d565b601f01601f19169190910160400192915050565b600084516102c681846020890161025d565b8083019050601760f91b80825285516102e6816001850160208a0161025d565b6001920191820152835161030181600284016020880161025d565b0160020195945050505050565b634e487b7160e01b600052604160045260246000fdfea2646970667358221220cc79c60ca3aa51635a96eea16b0067a3d340cb4e6d1834809593162f1a8950f864736f6c63430008130033",
					"opcodes": "PUSH1 0xE0 PUSH1 0x40 MSTORE CALLVALUE DUP1 ISZERO PUSH2 0x10 JUMPI PUSH1 0x0 DUP1 REVERT JUMPDEST POP PUSH1 0x40 MLOAD PUSH2 0x3F4 CODESIZE SUB DUP1 PUSH2 0x3F4 DUP4 CODECOPY DUP2 ADD PUSH1 0x40 DUP2 SWAP1 MSTORE PUSH2 0x2F SWAP2 PUSH2 0x40 JUMP JUMPDEST PUSH1 0x80 SWAP3 SWAP1 SWAP3 MSTORE PUSH1 0xA0 MSTORE PUSH1 0xC0 MSTORE PUSH2 0x6E JUMP JUMPDEST PUSH1 0x0 DUP1 PUSH1 0x0 PUSH1 0x60 DUP5 DUP7 SUB SLT ISZERO PUSH2 0x55 JUMPI PUSH1 0x0 DUP1 REVERT JUMPDEST DUP4 MLOAD SWAP3 POP PUSH1 0x20 DUP5 ADD MLOAD SWAP2 POP PUSH1 0x40 DUP5 ADD MLOAD SWAP1 POP SWAP3 POP SWAP3 POP SWAP3 JUMP JUMPDEST PUSH1 0x80 MLOAD PUSH1 0xA0 MLOAD PUSH1 0xC0 MLOAD PUSH2 0x35A PUSH2 0x9A PUSH1 0x0 CODECOPY PUSH1 0x0 PUSH1 0xA7 ADD MSTORE PUSH1 0x0 PUSH1 0x7E ADD MSTORE PUSH1 0x0 PUSH1 0x55 ADD MSTORE PUSH2 0x35A PUSH1 0x0 RETURN INVALID PUSH1 0x80 PUSH1 0x40 MSTORE CALLVALUE DUP1 ISZERO PUSH2 0x10 JUMPI PUSH1 0x0 DUP1 REVERT JUMPDEST POP PUSH1 0x4 CALLDATASIZE LT PUSH2 0x2B JUMPI PUSH1 0x0 CALLDATALOAD PUSH1 0xE0 SHR DUP1 PUSH4 0x54FD4D50 EQ PUSH2 0x30 JUMPI JUMPDEST PUSH1 0x0 DUP1 REVERT JUMPDEST PUSH2 0x38 PUSH2 0x4E JUMP JUMPDEST PUSH1 0x40 MLOAD PUSH2 0x45 SWAP2 SWAP1 PUSH2 0x281 JUMP JUMPDEST PUSH1 0x40 MLOAD DUP1 SWAP2 SUB SWAP1 RETURN JUMPDEST PUSH1 0x60 PUSH2 0x79 PUSH32 0x0 PUSH2 0xF1 JUMP JUMPDEST PUSH2 0xA2 PUSH32 0x0 PUSH2 0xF1 JUMP JUMPDEST PUSH2 0xCB PUSH32 0x0 PUSH2 0xF1 JUMP JUMPDEST PUSH1 0x40 MLOAD PUSH1 0x20 ADD PUSH2 0xDD SWAP4 SWAP3 SWAP2 SWAP1 PUSH2 0x2B4 JUMP JUMPDEST PUSH1 0x40 MLOAD PUSH1 0x20 DUP2 DUP4 SUB SUB DUP2 MSTORE SWAP1 PUSH1 0x40 MSTORE SWAP1 POP SWAP1 JUMP JUMPDEST PUSH1 0x60 PUSH1 0x0 PUSH2 0xFE DUP4 PUSH2 0x184 JUMP JUMPDEST PUSH1 0x1 ADD SWAP1 POP PUSH1 0x0 DUP2 PUSH8 0xFFFFFFFFFFFFFFFF DUP2 GT ISZERO PUSH2 0x11E JUMPI PUSH2 0x11E PUSH2 0x30E JUMP JUMPDEST PUSH1 0x40 MLOAD SWAP1 DUP1 DUP3 MSTORE DUP1 PUSH1 0x1F ADD PUSH1 0x1F NOT AND PUSH1 0x20 ADD DUP3 ADD PUSH1 0x40 MSTORE DUP1 ISZERO PUSH2 0x148 JUMPI PUSH1 0x20 DUP3 ADD DUP2 DUP1 CALLDATASIZE DUP4 CALLDATACOPY ADD SWAP1 POP JUMPDEST POP SWAP1 POP DUP2 DUP2 ADD PUSH1 0x20 ADD JUMPDEST PUSH1 0x0 NOT ADD PUSH16 0x181899199A1A9B1B9C1CB0B131B232B3 PUSH1 0x81 SHL PUSH1 0xA DUP7 MOD BYTE DUP2 MSTORE8 PUSH1 0xA DUP6 DIV SWAP5 POP DUP5 PUSH2 0x152 JUMPI POP SWAP4 SWAP3 POP POP POP JUMP JUMPDEST PUSH1 0x0 DUP1 PUSH19 0x184F03E93FF9F4DAA797ED6E38ED64BF6A1F01 PUSH1 0x40 SHL DUP4 LT PUSH2 0x1C3 JUMPI PUSH19 0x184F03E93FF9F4DAA797ED6E38ED64BF6A1F01 PUSH1 0x40 SHL DUP4 DIV SWAP3 POP PUSH1 0x40 ADD JUMPDEST PUSH14 0x4EE2D6D415B85ACEF8100000000 DUP4 LT PUSH2 0x1EF JUMPI PUSH14 0x4EE2D6D415B85ACEF8100000000 DUP4 DIV SWAP3 POP PUSH1 0x20 ADD JUMPDEST PUSH7 0x2386F26FC10000 DUP4 LT PUSH2 0x20D JUMPI PUSH7 0x2386F26FC10000 DUP4 DIV SWAP3 POP PUSH1 0x10 ADD JUMPDEST PUSH4 0x5F5E100 DUP4 LT PUSH2 0x225 JUMPI PUSH4 0x5F5E100 DUP4 DIV SWAP3 POP PUSH1 0x8 ADD JUMPDEST PUSH2 0x2710 DUP4 LT PUSH2 0x239 JUMPI PUSH2 0x2710 DUP4 DIV SWAP3 POP PUSH1 0x4 ADD JUMPDEST PUSH1 0x64 DUP4 LT PUSH2 0x24B JUMPI PUSH1 0x64 DUP4 DIV SWAP3 POP PUSH1 0x2 ADD JUMPDEST PUSH1 0xA DUP4 LT PUSH2 0x257 JUMPI PUSH1 0x1 ADD JUMPDEST SWAP3 SWAP2 POP POP JUMP JUMPDEST PUSH1 0x0 JUMPDEST DUP4 DUP2 LT ISZERO PUSH2 0x278 JUMPI DUP2 DUP2 ADD MLOAD DUP4 DUP3 ADD MSTORE PUSH1 0x20 ADD PUSH2 0x260 JUMP JUMPDEST POP POP PUSH1 0x0 SWAP2 ADD MSTORE JUMP JUMPDEST PUSH1 0x20 DUP2 MSTORE PUSH1 0x0 DUP3 MLOAD DUP1 PUSH1 0x20 DUP5 ADD MSTORE PUSH2 0x2A0 DUP2 PUSH1 0x40 DUP6 ADD PUSH1 0x20 DUP8 ADD PUSH2 0x25D JUMP JUMPDEST PUSH1 0x1F ADD PUSH1 0x1F NOT AND SWAP2 SWAP1 SWAP2 ADD PUSH1 0x40 ADD SWAP3 SWAP2 POP POP JUMP JUMPDEST PUSH1 0x0 DUP5 MLOAD PUSH2 0x2C6 DUP2 DUP5 PUSH1 0x20 DUP10 ADD PUSH2 0x25D JUMP JUMPDEST DUP1 DUP4 ADD SWAP1 POP PUSH1 0x17 PUSH1 0xF9 SHL DUP1 DUP3 MSTORE DUP6 MLOAD PUSH2 0x2E6 DUP2 PUSH1 0x1 DUP6 ADD PUSH1 0x20 DUP11 ADD PUSH2 0x25D JUMP JUMPDEST PUSH1 0x1 SWAP3 ADD SWAP2 DUP3 ADD MSTORE DUP4 MLOAD PUSH2 0x301 DUP2 PUSH1 0x2 DUP5 ADD PUSH1 0x20 DUP9 ADD PUSH2 0x25D JUMP JUMPDEST ADD PUSH1 0x2 ADD SWAP6 SWAP5 POP POP POP POP POP JUMP JUMPDEST PUSH4 0x4E487B71 PUSH1 0xE0 SHL PUSH1 0x0 MSTORE PUSH1 0x41 PUSH1 0x4 MSTORE PUSH1 0x24 PUSH1 0x0 REVERT INVALID LOG2 PUSH5 0x6970667358 0x22 SLT KECCAK256 0xCC PUSH26 0xC60CA3AA51635A96EEA16B0067A3D340CB4E6D1834809593162F BYTE DUP10 POP 0xF8 PUSH5 0x736F6C6343 STOP ADDMOD SGT STOP CALLER "
				},
				"gasEstimates": {
					"creation": {
						"codeDepositCost": "171600",
						"executionCost": "infinite",
						"totalCost": "infinite"
					},
					"external": {
						"version()": "infinite"
					}
				},
				"methodIdentifiers": {
					"version()": "54fd4d50"
				}
			},
			"storageLayout": {
				"storage": [],
				"types": null
			},
			"userdoc": {
				"kind": "user",
				"methods": {
					"version()": {
						"notice": "Returns the full semver contract version."
					}
				},
				"version": 1
			}
		}
	}
}